{
	"Tessa/day02-SaveMyName.sol": {
		"SaveMyName": {
			"abi": [
				{
					"inputs": [
						{
							"internalType": "string",
							"name": "_name",
							"type": "string"
						},
						{
							"internalType": "string",
							"name": "_bio",
							"type": "string"
						},
						{
							"internalType": "uint256",
							"name": "_age",
							"type": "uint256"
						},
						{
							"internalType": "string",
							"name": "_job",
							"type": "string"
						}
					],
					"name": "add",
					"outputs": [],
					"stateMutability": "nonpayable",
					"type": "function"
				},
				{
					"inputs": [],
					"name": "retrieve",
					"outputs": [
						{
							"internalType": "string",
							"name": "",
							"type": "string"
						},
						{
							"internalType": "string",
							"name": "",
							"type": "string"
						},
						{
							"internalType": "uint256",
							"name": "",
							"type": "uint256"
						},
						{
							"internalType": "string",
							"name": "",
							"type": "string"
						}
					],
					"stateMutability": "view",
					"type": "function"
				}
			],
			"devdoc": {
				"kind": "dev",
				"methods": {},
				"version": 1
			},
			"evm": {
				"assembly": "    /* \"Tessa/day02-SaveMyName.sol\":142:792  contract SaveMyName{... */\n  mstore(0x40, 0x80)\n  callvalue\n  dup1\n  iszero\n  tag_1\n  jumpi\n  revert(0x00, 0x00)\ntag_1:\n  pop\n  dataSize(sub_0)\n  dup1\n  dataOffset(sub_0)\n  0x00\n  codecopy\n  0x00\n  return\nstop\n\nsub_0: assembly {\n        /* \"Tessa/day02-SaveMyName.sol\":142:792  contract SaveMyName{... */\n      mstore(0x40, 0x80)\n      callvalue\n      dup1\n      iszero\n      tag_1\n      jumpi\n      revert(0x00, 0x00)\n    tag_1:\n      pop\n      jumpi(tag_2, lt(calldatasize, 0x04))\n      shr(0xe0, calldataload(0x00))\n      dup1\n      0x2e64cec1\n      eq\n      tag_3\n      jumpi\n      dup1\n      0x4187a17d\n      eq\n      tag_4\n      jumpi\n    tag_2:\n      revert(0x00, 0x00)\n        /* \"Tessa/day02-SaveMyName.sol\":650:785  function retrieve() public view returns(string memory, string memory, uint256, string memory){... */\n    tag_3:\n      tag_5\n      tag_6\n      jump\t// in\n    tag_5:\n      mload(0x40)\n      tag_7\n      swap5\n      swap4\n      swap3\n      swap2\n      swap1\n      tag_8\n      jump\t// in\n    tag_7:\n      mload(0x40)\n      dup1\n      swap2\n      sub\n      swap1\n      return\n        /* \"Tessa/day02-SaveMyName.sol\":298:556  function add (string memory _name, string memory _bio, uint256 _age, string memory _job )public {... */\n    tag_4:\n      tag_9\n      0x04\n      dup1\n      calldatasize\n      sub\n      dup2\n      add\n      swap1\n      tag_10\n      swap2\n      swap1\n      tag_11\n      jump\t// in\n    tag_10:\n      tag_12\n      jump\t// in\n    tag_9:\n      stop\n        /* \"Tessa/day02-SaveMyName.sol\":650:785  function retrieve() public view returns(string memory, string memory, uint256, string memory){... */\n    tag_6:\n        /* \"Tessa/day02-SaveMyName.sol\":690:703  string memory */\n      0x60\n        /* \"Tessa/day02-SaveMyName.sol\":705:718  string memory */\n      dup1\n        /* \"Tessa/day02-SaveMyName.sol\":720:727  uint256 */\n      0x00\n        /* \"Tessa/day02-SaveMyName.sol\":729:742  string memory */\n      0x60\n        /* \"Tessa/day02-SaveMyName.sol\":761:765  name */\n      0x00\n        /* \"Tessa/day02-SaveMyName.sol\":766:769  bio */\n      0x01\n        /* \"Tessa/day02-SaveMyName.sol\":770:773  age */\n      sload(0x02)\n        /* \"Tessa/day02-SaveMyName.sol\":774:777  job */\n      0x03\n        /* \"Tessa/day02-SaveMyName.sol\":753:778  return (name,bio,age,job) */\n      dup4\n      dup1\n      sload\n      tag_14\n      swap1\n      tag_15\n      jump\t// in\n    tag_14:\n      dup1\n      0x1f\n      add\n      0x20\n      dup1\n      swap2\n      div\n      mul\n      0x20\n      add\n      mload(0x40)\n      swap1\n      dup2\n      add\n      0x40\n      mstore\n      dup1\n      swap3\n      swap2\n      swap1\n      dup2\n      dup2\n      mstore\n      0x20\n      add\n      dup3\n      dup1\n      sload\n      tag_16\n      swap1\n      tag_15\n      jump\t// in\n    tag_16:\n      dup1\n      iszero\n      tag_17\n      jumpi\n      dup1\n      0x1f\n      lt\n      tag_18\n      jumpi\n      0x0100\n      dup1\n      dup4\n      sload\n      div\n      mul\n      dup4\n      mstore\n      swap2\n      0x20\n      add\n      swap2\n      jump(tag_17)\n    tag_18:\n      dup3\n      add\n      swap2\n      swap1\n      0x00\n      mstore\n      keccak256(0x00, 0x20)\n      swap1\n    tag_19:\n      dup2\n      sload\n      dup2\n      mstore\n      swap1\n      0x01\n      add\n      swap1\n      0x20\n      add\n      dup1\n      dup4\n      gt\n      tag_19\n      jumpi\n      dup3\n      swap1\n      sub\n      0x1f\n      and\n      dup3\n      add\n      swap2\n    tag_17:\n      pop\n      pop\n      pop\n      pop\n      pop\n      swap4\n      pop\n      dup3\n      dup1\n      sload\n      tag_20\n      swap1\n      tag_15\n      jump\t// in\n    tag_20:\n      dup1\n      0x1f\n      add\n      0x20\n      dup1\n      swap2\n      div\n      mul\n      0x20\n      add\n      mload(0x40)\n      swap1\n      dup2\n      add\n      0x40\n      mstore\n      dup1\n      swap3\n      swap2\n      swap1\n      dup2\n      dup2\n      mstore\n      0x20\n      add\n      dup3\n      dup1\n      sload\n      tag_21\n      swap1\n      tag_15\n      jump\t// in\n    tag_21:\n      dup1\n      iszero\n      tag_22\n      jumpi\n      dup1\n      0x1f\n      lt\n      tag_23\n      jumpi\n      0x0100\n      dup1\n      dup4\n      sload\n      div\n      mul\n      dup4\n      mstore\n      swap2\n      0x20\n      add\n      swap2\n      jump(tag_22)\n    tag_23:\n      dup3\n      add\n      swap2\n      swap1\n      0x00\n      mstore\n      keccak256(0x00, 0x20)\n      swap1\n    tag_24:\n      dup2\n      sload\n      dup2\n      mstore\n      swap1\n      0x01\n      add\n      swap1\n      0x20\n      add\n      dup1\n      dup4\n      gt\n      tag_24\n      jumpi\n      dup3\n      swap1\n      sub\n      0x1f\n      and\n      dup3\n      add\n      swap2\n    tag_22:\n      pop\n      pop\n      pop\n      pop\n      pop\n      swap3\n      pop\n      dup1\n      dup1\n      sload\n      tag_25\n      swap1\n      tag_15\n      jump\t// in\n    tag_25:\n      dup1\n      0x1f\n      add\n      0x20\n      dup1\n      swap2\n      div\n      mul\n      0x20\n      add\n      mload(0x40)\n      swap1\n      dup2\n      add\n      0x40\n      mstore\n      dup1\n      swap3\n      swap2\n      swap1\n      dup2\n      dup2\n      mstore\n      0x20\n      add\n      dup3\n      dup1\n      sload\n      tag_26\n      swap1\n      tag_15\n      jump\t// in\n    tag_26:\n      dup1\n      iszero\n      tag_27\n      jumpi\n      dup1\n      0x1f\n      lt\n      tag_28\n      jumpi\n      0x0100\n      dup1\n      dup4\n      sload\n      div\n      mul\n      dup4\n      mstore\n      swap2\n      0x20\n      add\n      swap2\n      jump(tag_27)\n    tag_28:\n      dup3\n      add\n      swap2\n      swap1\n      0x00\n      mstore\n      keccak256(0x00, 0x20)\n      swap1\n    tag_29:\n      dup2\n      sload\n      dup2\n      mstore\n      swap1\n      0x01\n      add\n      swap1\n      0x20\n      add\n      dup1\n      dup4\n      gt\n      tag_29\n      jumpi\n      dup3\n      swap1\n      sub\n      0x1f\n      and\n      dup3\n      add\n      swap2\n    tag_27:\n      pop\n      pop\n      pop\n      pop\n      pop\n      swap1\n      pop\n      swap4\n      pop\n      swap4\n      pop\n      swap4\n      pop\n      swap4\n      pop\n        /* \"Tessa/day02-SaveMyName.sol\":650:785  function retrieve() public view returns(string memory, string memory, uint256, string memory){... */\n      swap1\n      swap2\n      swap3\n      swap4\n      jump\t// out\n        /* \"Tessa/day02-SaveMyName.sol\":298:556  function add (string memory _name, string memory _bio, uint256 _age, string memory _job )public {... */\n    tag_12:\n        /* \"Tessa/day02-SaveMyName.sol\":411:416  _name */\n      dup4\n        /* \"Tessa/day02-SaveMyName.sol\":404:408  name */\n      0x00\n        /* \"Tessa/day02-SaveMyName.sol\":404:416  name = _name */\n      swap1\n      dup2\n      tag_31\n      swap2\n      swap1\n      tag_32\n      jump\t// in\n    tag_31:\n      pop\n        /* \"Tessa/day02-SaveMyName.sol\":505:509  _bio */\n      dup3\n        /* \"Tessa/day02-SaveMyName.sol\":499:502  bio */\n      0x01\n        /* \"Tessa/day02-SaveMyName.sol\":499:509  bio = _bio */\n      swap1\n      dup2\n      tag_33\n      swap2\n      swap1\n      tag_32\n      jump\t// in\n    tag_33:\n      pop\n        /* \"Tessa/day02-SaveMyName.sol\":525:529  _age */\n      dup2\n        /* \"Tessa/day02-SaveMyName.sol\":519:522  age */\n      0x02\n        /* \"Tessa/day02-SaveMyName.sol\":519:529  age = _age */\n      dup2\n      swap1\n      sstore\n      pop\n        /* \"Tessa/day02-SaveMyName.sol\":545:549  _job */\n      dup1\n        /* \"Tessa/day02-SaveMyName.sol\":539:542  job */\n      0x03\n        /* \"Tessa/day02-SaveMyName.sol\":539:549  job = _job */\n      swap1\n      dup2\n      tag_34\n      swap2\n      swap1\n      tag_32\n      jump\t// in\n    tag_34:\n      pop\n        /* \"Tessa/day02-SaveMyName.sol\":298:556  function add (string memory _name, string memory _bio, uint256 _age, string memory _job )public {... */\n      pop\n      pop\n      pop\n      pop\n      jump\t// out\n        /* \"#utility.yul\":7:106   */\n    tag_35:\n        /* \"#utility.yul\":59:65   */\n      0x00\n        /* \"#utility.yul\":93:98   */\n      dup2\n        /* \"#utility.yul\":87:99   */\n      mload\n        /* \"#utility.yul\":77:99   */\n      swap1\n      pop\n        /* \"#utility.yul\":7:106   */\n      swap2\n      swap1\n      pop\n      jump\t// out\n        /* \"#utility.yul\":112:281   */\n    tag_36:\n        /* \"#utility.yul\":196:207   */\n      0x00\n        /* \"#utility.yul\":230:236   */\n      dup3\n        /* \"#utility.yul\":225:228   */\n      dup3\n        /* \"#utility.yul\":218:237   */\n      mstore\n        /* \"#utility.yul\":270:274   */\n      0x20\n        /* \"#utility.yul\":265:268   */\n      dup3\n        /* \"#utility.yul\":261:275   */\n      add\n        /* \"#utility.yul\":246:275   */\n      swap1\n      pop\n        /* \"#utility.yul\":112:281   */\n      swap3\n      swap2\n      pop\n      pop\n      jump\t// out\n        /* \"#utility.yul\":287:426   */\n    tag_37:\n        /* \"#utility.yul\":376:382   */\n      dup3\n        /* \"#utility.yul\":371:374   */\n      dup2\n        /* \"#utility.yul\":366:369   */\n      dup4\n        /* \"#utility.yul\":360:383   */\n      mcopy\n        /* \"#utility.yul\":417:418   */\n      0x00\n        /* \"#utility.yul\":408:414   */\n      dup4\n        /* \"#utility.yul\":403:406   */\n      dup4\n        /* \"#utility.yul\":399:415   */\n      add\n        /* \"#utility.yul\":392:419   */\n      mstore\n        /* \"#utility.yul\":287:426   */\n      pop\n      pop\n      pop\n      jump\t// out\n        /* \"#utility.yul\":432:534   */\n    tag_38:\n        /* \"#utility.yul\":473:479   */\n      0x00\n        /* \"#utility.yul\":524:526   */\n      0x1f\n        /* \"#utility.yul\":520:527   */\n      not\n        /* \"#utility.yul\":515:517   */\n      0x1f\n        /* \"#utility.yul\":508:513   */\n      dup4\n        /* \"#utility.yul\":504:518   */\n      add\n        /* \"#utility.yul\":500:528   */\n      and\n        /* \"#utility.yul\":490:528   */\n      swap1\n      pop\n        /* \"#utility.yul\":432:534   */\n      swap2\n      swap1\n      pop\n      jump\t// out\n        /* \"#utility.yul\":540:917   */\n    tag_39:\n        /* \"#utility.yul\":628:631   */\n      0x00\n        /* \"#utility.yul\":656:695   */\n      tag_78\n        /* \"#utility.yul\":689:694   */\n      dup3\n        /* \"#utility.yul\":656:695   */\n      tag_35\n      jump\t// in\n    tag_78:\n        /* \"#utility.yul\":711:782   */\n      tag_79\n        /* \"#utility.yul\":775:781   */\n      dup2\n        /* \"#utility.yul\":770:773   */\n      dup6\n        /* \"#utility.yul\":711:782   */\n      tag_36\n      jump\t// in\n    tag_79:\n        /* \"#utility.yul\":704:782   */\n      swap4\n      pop\n        /* \"#utility.yul\":791:856   */\n      tag_80\n        /* \"#utility.yul\":849:855   */\n      dup2\n        /* \"#utility.yul\":844:847   */\n      dup6\n        /* \"#utility.yul\":837:841   */\n      0x20\n        /* \"#utility.yul\":830:835   */\n      dup7\n        /* \"#utility.yul\":826:842   */\n      add\n        /* \"#utility.yul\":791:856   */\n      tag_37\n      jump\t// in\n    tag_80:\n        /* \"#utility.yul\":881:910   */\n      tag_81\n        /* \"#utility.yul\":903:909   */\n      dup2\n        /* \"#utility.yul\":881:910   */\n      tag_38\n      jump\t// in\n    tag_81:\n        /* \"#utility.yul\":876:879   */\n      dup5\n        /* \"#utility.yul\":872:911   */\n      add\n        /* \"#utility.yul\":865:911   */\n      swap2\n      pop\n        /* \"#utility.yul\":632:917   */\n      pop\n        /* \"#utility.yul\":540:917   */\n      swap3\n      swap2\n      pop\n      pop\n      jump\t// out\n        /* \"#utility.yul\":923:1000   */\n    tag_40:\n        /* \"#utility.yul\":960:967   */\n      0x00\n        /* \"#utility.yul\":989:994   */\n      dup2\n        /* \"#utility.yul\":978:994   */\n      swap1\n      pop\n        /* \"#utility.yul\":923:1000   */\n      swap2\n      swap1\n      pop\n      jump\t// out\n        /* \"#utility.yul\":1006:1124   */\n    tag_41:\n        /* \"#utility.yul\":1093:1117   */\n      tag_84\n        /* \"#utility.yul\":1111:1116   */\n      dup2\n        /* \"#utility.yul\":1093:1117   */\n      tag_40\n      jump\t// in\n    tag_84:\n        /* \"#utility.yul\":1088:1091   */\n      dup3\n        /* \"#utility.yul\":1081:1118   */\n      mstore\n        /* \"#utility.yul\":1006:1124   */\n      pop\n      pop\n      jump\t// out\n        /* \"#utility.yul\":1130:1956   */\n    tag_8:\n        /* \"#utility.yul\":1367:1371   */\n      0x00\n        /* \"#utility.yul\":1405:1408   */\n      0x80\n        /* \"#utility.yul\":1394:1403   */\n      dup3\n        /* \"#utility.yul\":1390:1409   */\n      add\n        /* \"#utility.yul\":1382:1409   */\n      swap1\n      pop\n        /* \"#utility.yul\":1455:1464   */\n      dup2\n        /* \"#utility.yul\":1449:1453   */\n      dup2\n        /* \"#utility.yul\":1445:1465   */\n      sub\n        /* \"#utility.yul\":1441:1442   */\n      0x00\n        /* \"#utility.yul\":1430:1439   */\n      dup4\n        /* \"#utility.yul\":1426:1443   */\n      add\n        /* \"#utility.yul\":1419:1466   */\n      mstore\n        /* \"#utility.yul\":1483:1561   */\n      tag_86\n        /* \"#utility.yul\":1556:1560   */\n      dup2\n        /* \"#utility.yul\":1547:1553   */\n      dup8\n        /* \"#utility.yul\":1483:1561   */\n      tag_39\n      jump\t// in\n    tag_86:\n        /* \"#utility.yul\":1475:1561   */\n      swap1\n      pop\n        /* \"#utility.yul\":1608:1617   */\n      dup2\n        /* \"#utility.yul\":1602:1606   */\n      dup2\n        /* \"#utility.yul\":1598:1618   */\n      sub\n        /* \"#utility.yul\":1593:1595   */\n      0x20\n        /* \"#utility.yul\":1582:1591   */\n      dup4\n        /* \"#utility.yul\":1578:1596   */\n      add\n        /* \"#utility.yul\":1571:1619   */\n      mstore\n        /* \"#utility.yul\":1636:1714   */\n      tag_87\n        /* \"#utility.yul\":1709:1713   */\n      dup2\n        /* \"#utility.yul\":1700:1706   */\n      dup7\n        /* \"#utility.yul\":1636:1714   */\n      tag_39\n      jump\t// in\n    tag_87:\n        /* \"#utility.yul\":1628:1714   */\n      swap1\n      pop\n        /* \"#utility.yul\":1724:1796   */\n      tag_88\n        /* \"#utility.yul\":1792:1794   */\n      0x40\n        /* \"#utility.yul\":1781:1790   */\n      dup4\n        /* \"#utility.yul\":1777:1795   */\n      add\n        /* \"#utility.yul\":1768:1774   */\n      dup6\n        /* \"#utility.yul\":1724:1796   */\n      tag_41\n      jump\t// in\n    tag_88:\n        /* \"#utility.yul\":1843:1852   */\n      dup2\n        /* \"#utility.yul\":1837:1841   */\n      dup2\n        /* \"#utility.yul\":1833:1853   */\n      sub\n        /* \"#utility.yul\":1828:1830   */\n      0x60\n        /* \"#utility.yul\":1817:1826   */\n      dup4\n        /* \"#utility.yul\":1813:1831   */\n      add\n        /* \"#utility.yul\":1806:1854   */\n      mstore\n        /* \"#utility.yul\":1871:1949   */\n      tag_89\n        /* \"#utility.yul\":1944:1948   */\n      dup2\n        /* \"#utility.yul\":1935:1941   */\n      dup5\n        /* \"#utility.yul\":1871:1949   */\n      tag_39\n      jump\t// in\n    tag_89:\n        /* \"#utility.yul\":1863:1949   */\n      swap1\n      pop\n        /* \"#utility.yul\":1130:1956   */\n      swap6\n      swap5\n      pop\n      pop\n      pop\n      pop\n      pop\n      jump\t// out\n        /* \"#utility.yul\":1962:2037   */\n    tag_42:\n        /* \"#utility.yul\":1995:2001   */\n      0x00\n        /* \"#utility.yul\":2028:2030   */\n      0x40\n        /* \"#utility.yul\":2022:2031   */\n      mload\n        /* \"#utility.yul\":2012:2031   */\n      swap1\n      pop\n        /* \"#utility.yul\":1962:2037   */\n      swap1\n      jump\t// out\n        /* \"#utility.yul\":2043:2160   */\n    tag_43:\n        /* \"#utility.yul\":2152:2153   */\n      0x00\n        /* \"#utility.yul\":2149:2150   */\n      0x00\n        /* \"#utility.yul\":2142:2154   */\n      revert\n        /* \"#utility.yul\":2166:2283   */\n    tag_44:\n        /* \"#utility.yul\":2275:2276   */\n      0x00\n        /* \"#utility.yul\":2272:2273   */\n      0x00\n        /* \"#utility.yul\":2265:2277   */\n      revert\n        /* \"#utility.yul\":2289:2406   */\n    tag_45:\n        /* \"#utility.yul\":2398:2399   */\n      0x00\n        /* \"#utility.yul\":2395:2396   */\n      0x00\n        /* \"#utility.yul\":2388:2400   */\n      revert\n        /* \"#utility.yul\":2412:2529   */\n    tag_46:\n        /* \"#utility.yul\":2521:2522   */\n      0x00\n        /* \"#utility.yul\":2518:2519   */\n      0x00\n        /* \"#utility.yul\":2511:2523   */\n      revert\n        /* \"#utility.yul\":2535:2715   */\n    tag_47:\n        /* \"#utility.yul\":2583:2660   */\n      0x4e487b7100000000000000000000000000000000000000000000000000000000\n        /* \"#utility.yul\":2580:2581   */\n      0x00\n        /* \"#utility.yul\":2573:2661   */\n      mstore\n        /* \"#utility.yul\":2680:2684   */\n      0x41\n        /* \"#utility.yul\":2677:2678   */\n      0x04\n        /* \"#utility.yul\":2670:2685   */\n      mstore\n        /* \"#utility.yul\":2704:2708   */\n      0x24\n        /* \"#utility.yul\":2701:2702   */\n      0x00\n        /* \"#utility.yul\":2694:2709   */\n      revert\n        /* \"#utility.yul\":2721:3002   */\n    tag_48:\n        /* \"#utility.yul\":2804:2831   */\n      tag_97\n        /* \"#utility.yul\":2826:2830   */\n      dup3\n        /* \"#utility.yul\":2804:2831   */\n      tag_38\n      jump\t// in\n    tag_97:\n        /* \"#utility.yul\":2796:2802   */\n      dup2\n        /* \"#utility.yul\":2792:2832   */\n      add\n        /* \"#utility.yul\":2934:2940   */\n      dup2\n        /* \"#utility.yul\":2922:2932   */\n      dup2\n        /* \"#utility.yul\":2919:2941   */\n      lt\n        /* \"#utility.yul\":2898:2916   */\n      0xffffffffffffffff\n        /* \"#utility.yul\":2886:2896   */\n      dup3\n        /* \"#utility.yul\":2883:2917   */\n      gt\n        /* \"#utility.yul\":2880:2942   */\n      or\n        /* \"#utility.yul\":2877:2965   */\n      iszero\n      tag_98\n      jumpi\n        /* \"#utility.yul\":2945:2963   */\n      tag_99\n      tag_47\n      jump\t// in\n    tag_99:\n        /* \"#utility.yul\":2877:2965   */\n    tag_98:\n        /* \"#utility.yul\":2985:2995   */\n      dup1\n        /* \"#utility.yul\":2981:2983   */\n      0x40\n        /* \"#utility.yul\":2974:2996   */\n      mstore\n        /* \"#utility.yul\":2764:3002   */\n      pop\n        /* \"#utility.yul\":2721:3002   */\n      pop\n      pop\n      jump\t// out\n        /* \"#utility.yul\":3008:3137   */\n    tag_49:\n        /* \"#utility.yul\":3042:3048   */\n      0x00\n        /* \"#utility.yul\":3069:3089   */\n      tag_101\n      tag_42\n      jump\t// in\n    tag_101:\n        /* \"#utility.yul\":3059:3089   */\n      swap1\n      pop\n        /* \"#utility.yul\":3098:3131   */\n      tag_102\n        /* \"#utility.yul\":3126:3130   */\n      dup3\n        /* \"#utility.yul\":3118:3124   */\n      dup3\n        /* \"#utility.yul\":3098:3131   */\n      tag_48\n      jump\t// in\n    tag_102:\n        /* \"#utility.yul\":3008:3137   */\n      swap2\n      swap1\n      pop\n      jump\t// out\n        /* \"#utility.yul\":3143:3451   */\n    tag_50:\n        /* \"#utility.yul\":3205:3209   */\n      0x00\n        /* \"#utility.yul\":3295:3313   */\n      0xffffffffffffffff\n        /* \"#utility.yul\":3287:3293   */\n      dup3\n        /* \"#utility.yul\":3284:3314   */\n      gt\n        /* \"#utility.yul\":3281:3337   */\n      iszero\n      tag_104\n      jumpi\n        /* \"#utility.yul\":3317:3335   */\n      tag_105\n      tag_47\n      jump\t// in\n    tag_105:\n        /* \"#utility.yul\":3281:3337   */\n    tag_104:\n        /* \"#utility.yul\":3355:3384   */\n      tag_106\n        /* \"#utility.yul\":3377:3383   */\n      dup3\n        /* \"#utility.yul\":3355:3384   */\n      tag_38\n      jump\t// in\n    tag_106:\n        /* \"#utility.yul\":3347:3384   */\n      swap1\n      pop\n        /* \"#utility.yul\":3439:3443   */\n      0x20\n        /* \"#utility.yul\":3433:3437   */\n      dup2\n        /* \"#utility.yul\":3429:3444   */\n      add\n        /* \"#utility.yul\":3421:3444   */\n      swap1\n      pop\n        /* \"#utility.yul\":3143:3451   */\n      swap2\n      swap1\n      pop\n      jump\t// out\n        /* \"#utility.yul\":3457:3605   */\n    tag_51:\n        /* \"#utility.yul\":3555:3561   */\n      dup3\n        /* \"#utility.yul\":3550:3553   */\n      dup2\n        /* \"#utility.yul\":3545:3548   */\n      dup4\n        /* \"#utility.yul\":3532:3562   */\n      calldatacopy\n        /* \"#utility.yul\":3596:3597   */\n      0x00\n        /* \"#utility.yul\":3587:3593   */\n      dup4\n        /* \"#utility.yul\":3582:3585   */\n      dup4\n        /* \"#utility.yul\":3578:3594   */\n      add\n        /* \"#utility.yul\":3571:3598   */\n      mstore\n        /* \"#utility.yul\":3457:3605   */\n      pop\n      pop\n      pop\n      jump\t// out\n        /* \"#utility.yul\":3611:4036   */\n    tag_52:\n        /* \"#utility.yul\":3689:3694   */\n      0x00\n        /* \"#utility.yul\":3714:3780   */\n      tag_109\n        /* \"#utility.yul\":3730:3779   */\n      tag_110\n        /* \"#utility.yul\":3772:3778   */\n      dup5\n        /* \"#utility.yul\":3730:3779   */\n      tag_50\n      jump\t// in\n    tag_110:\n        /* \"#utility.yul\":3714:3780   */\n      tag_49\n      jump\t// in\n    tag_109:\n        /* \"#utility.yul\":3705:3780   */\n      swap1\n      pop\n        /* \"#utility.yul\":3803:3809   */\n      dup3\n        /* \"#utility.yul\":3796:3801   */\n      dup2\n        /* \"#utility.yul\":3789:3810   */\n      mstore\n        /* \"#utility.yul\":3841:3845   */\n      0x20\n        /* \"#utility.yul\":3834:3839   */\n      dup2\n        /* \"#utility.yul\":3830:3846   */\n      add\n        /* \"#utility.yul\":3879:3882   */\n      dup5\n        /* \"#utility.yul\":3870:3876   */\n      dup5\n        /* \"#utility.yul\":3865:3868   */\n      dup5\n        /* \"#utility.yul\":3861:3877   */\n      add\n        /* \"#utility.yul\":3858:3883   */\n      gt\n        /* \"#utility.yul\":3855:3967   */\n      iszero\n      tag_111\n      jumpi\n        /* \"#utility.yul\":3886:3965   */\n      tag_112\n      tag_46\n      jump\t// in\n    tag_112:\n        /* \"#utility.yul\":3855:3967   */\n    tag_111:\n        /* \"#utility.yul\":3976:4030   */\n      tag_113\n        /* \"#utility.yul\":4023:4029   */\n      dup5\n        /* \"#utility.yul\":4018:4021   */\n      dup3\n        /* \"#utility.yul\":4013:4016   */\n      dup6\n        /* \"#utility.yul\":3976:4030   */\n      tag_51\n      jump\t// in\n    tag_113:\n        /* \"#utility.yul\":3695:4036   */\n      pop\n        /* \"#utility.yul\":3611:4036   */\n      swap4\n      swap3\n      pop\n      pop\n      pop\n      jump\t// out\n        /* \"#utility.yul\":4056:4396   */\n    tag_53:\n        /* \"#utility.yul\":4112:4117   */\n      0x00\n        /* \"#utility.yul\":4161:4164   */\n      dup3\n        /* \"#utility.yul\":4154:4158   */\n      0x1f\n        /* \"#utility.yul\":4146:4152   */\n      dup4\n        /* \"#utility.yul\":4142:4159   */\n      add\n        /* \"#utility.yul\":4138:4165   */\n      slt\n        /* \"#utility.yul\":4128:4250   */\n      tag_115\n      jumpi\n        /* \"#utility.yul\":4169:4248   */\n      tag_116\n      tag_45\n      jump\t// in\n    tag_116:\n        /* \"#utility.yul\":4128:4250   */\n    tag_115:\n        /* \"#utility.yul\":4286:4292   */\n      dup2\n        /* \"#utility.yul\":4273:4293   */\n      calldataload\n        /* \"#utility.yul\":4311:4390   */\n      tag_117\n        /* \"#utility.yul\":4386:4389   */\n      dup5\n        /* \"#utility.yul\":4378:4384   */\n      dup3\n        /* \"#utility.yul\":4371:4375   */\n      0x20\n        /* \"#utility.yul\":4363:4369   */\n      dup7\n        /* \"#utility.yul\":4359:4376   */\n      add\n        /* \"#utility.yul\":4311:4390   */\n      tag_52\n      jump\t// in\n    tag_117:\n        /* \"#utility.yul\":4302:4390   */\n      swap2\n      pop\n        /* \"#utility.yul\":4118:4396   */\n      pop\n        /* \"#utility.yul\":4056:4396   */\n      swap3\n      swap2\n      pop\n      pop\n      jump\t// out\n        /* \"#utility.yul\":4402:4524   */\n    tag_54:\n        /* \"#utility.yul\":4475:4499   */\n      tag_119\n        /* \"#utility.yul\":4493:4498   */\n      dup2\n        /* \"#utility.yul\":4475:4499   */\n      tag_40\n      jump\t// in\n    tag_119:\n        /* \"#utility.yul\":4468:4473   */\n      dup2\n        /* \"#utility.yul\":4465:4500   */\n      eq\n        /* \"#utility.yul\":4455:4518   */\n      tag_120\n      jumpi\n        /* \"#utility.yul\":4514:4515   */\n      0x00\n        /* \"#utility.yul\":4511:4512   */\n      0x00\n        /* \"#utility.yul\":4504:4516   */\n      revert\n        /* \"#utility.yul\":4455:4518   */\n    tag_120:\n        /* \"#utility.yul\":4402:4524   */\n      pop\n      jump\t// out\n        /* \"#utility.yul\":4530:4669   */\n    tag_55:\n        /* \"#utility.yul\":4576:4581   */\n      0x00\n        /* \"#utility.yul\":4614:4620   */\n      dup2\n        /* \"#utility.yul\":4601:4621   */\n      calldataload\n        /* \"#utility.yul\":4592:4621   */\n      swap1\n      pop\n        /* \"#utility.yul\":4630:4663   */\n      tag_122\n        /* \"#utility.yul\":4657:4662   */\n      dup2\n        /* \"#utility.yul\":4630:4663   */\n      tag_54\n      jump\t// in\n    tag_122:\n        /* \"#utility.yul\":4530:4669   */\n      swap3\n      swap2\n      pop\n      pop\n      jump\t// out\n        /* \"#utility.yul\":4675:5980   */\n    tag_11:\n        /* \"#utility.yul\":4791:4797   */\n      0x00\n        /* \"#utility.yul\":4799:4805   */\n      0x00\n        /* \"#utility.yul\":4807:4813   */\n      0x00\n        /* \"#utility.yul\":4815:4821   */\n      0x00\n        /* \"#utility.yul\":4864:4867   */\n      0x80\n        /* \"#utility.yul\":4852:4861   */\n      dup6\n        /* \"#utility.yul\":4843:4850   */\n      dup8\n        /* \"#utility.yul\":4839:4862   */\n      sub\n        /* \"#utility.yul\":4835:4868   */\n      slt\n        /* \"#utility.yul\":4832:4952   */\n      iszero\n      tag_124\n      jumpi\n        /* \"#utility.yul\":4871:4950   */\n      tag_125\n      tag_43\n      jump\t// in\n    tag_125:\n        /* \"#utility.yul\":4832:4952   */\n    tag_124:\n        /* \"#utility.yul\":5019:5020   */\n      0x00\n        /* \"#utility.yul\":5008:5017   */\n      dup6\n        /* \"#utility.yul\":5004:5021   */\n      add\n        /* \"#utility.yul\":4991:5022   */\n      calldataload\n        /* \"#utility.yul\":5049:5067   */\n      0xffffffffffffffff\n        /* \"#utility.yul\":5041:5047   */\n      dup2\n        /* \"#utility.yul\":5038:5068   */\n      gt\n        /* \"#utility.yul\":5035:5152   */\n      iszero\n      tag_126\n      jumpi\n        /* \"#utility.yul\":5071:5150   */\n      tag_127\n      tag_44\n      jump\t// in\n    tag_127:\n        /* \"#utility.yul\":5035:5152   */\n    tag_126:\n        /* \"#utility.yul\":5176:5239   */\n      tag_128\n        /* \"#utility.yul\":5231:5238   */\n      dup8\n        /* \"#utility.yul\":5222:5228   */\n      dup3\n        /* \"#utility.yul\":5211:5220   */\n      dup9\n        /* \"#utility.yul\":5207:5229   */\n      add\n        /* \"#utility.yul\":5176:5239   */\n      tag_53\n      jump\t// in\n    tag_128:\n        /* \"#utility.yul\":5166:5239   */\n      swap5\n      pop\n        /* \"#utility.yul\":4962:5249   */\n      pop\n        /* \"#utility.yul\":5316:5318   */\n      0x20\n        /* \"#utility.yul\":5305:5314   */\n      dup6\n        /* \"#utility.yul\":5301:5319   */\n      add\n        /* \"#utility.yul\":5288:5320   */\n      calldataload\n        /* \"#utility.yul\":5347:5365   */\n      0xffffffffffffffff\n        /* \"#utility.yul\":5339:5345   */\n      dup2\n        /* \"#utility.yul\":5336:5366   */\n      gt\n        /* \"#utility.yul\":5333:5450   */\n      iszero\n      tag_129\n      jumpi\n        /* \"#utility.yul\":5369:5448   */\n      tag_130\n      tag_44\n      jump\t// in\n    tag_130:\n        /* \"#utility.yul\":5333:5450   */\n    tag_129:\n        /* \"#utility.yul\":5474:5537   */\n      tag_131\n        /* \"#utility.yul\":5529:5536   */\n      dup8\n        /* \"#utility.yul\":5520:5526   */\n      dup3\n        /* \"#utility.yul\":5509:5518   */\n      dup9\n        /* \"#utility.yul\":5505:5527   */\n      add\n        /* \"#utility.yul\":5474:5537   */\n      tag_53\n      jump\t// in\n    tag_131:\n        /* \"#utility.yul\":5464:5537   */\n      swap4\n      pop\n        /* \"#utility.yul\":5259:5547   */\n      pop\n        /* \"#utility.yul\":5586:5588   */\n      0x40\n        /* \"#utility.yul\":5612:5665   */\n      tag_132\n        /* \"#utility.yul\":5657:5664   */\n      dup8\n        /* \"#utility.yul\":5648:5654   */\n      dup3\n        /* \"#utility.yul\":5637:5646   */\n      dup9\n        /* \"#utility.yul\":5633:5655   */\n      add\n        /* \"#utility.yul\":5612:5665   */\n      tag_55\n      jump\t// in\n    tag_132:\n        /* \"#utility.yul\":5602:5665   */\n      swap3\n      pop\n        /* \"#utility.yul\":5557:5675   */\n      pop\n        /* \"#utility.yul\":5742:5744   */\n      0x60\n        /* \"#utility.yul\":5731:5740   */\n      dup6\n        /* \"#utility.yul\":5727:5745   */\n      add\n        /* \"#utility.yul\":5714:5746   */\n      calldataload\n        /* \"#utility.yul\":5773:5791   */\n      0xffffffffffffffff\n        /* \"#utility.yul\":5765:5771   */\n      dup2\n        /* \"#utility.yul\":5762:5792   */\n      gt\n        /* \"#utility.yul\":5759:5876   */\n      iszero\n      tag_133\n      jumpi\n        /* \"#utility.yul\":5795:5874   */\n      tag_134\n      tag_44\n      jump\t// in\n    tag_134:\n        /* \"#utility.yul\":5759:5876   */\n    tag_133:\n        /* \"#utility.yul\":5900:5963   */\n      tag_135\n        /* \"#utility.yul\":5955:5962   */\n      dup8\n        /* \"#utility.yul\":5946:5952   */\n      dup3\n        /* \"#utility.yul\":5935:5944   */\n      dup9\n        /* \"#utility.yul\":5931:5953   */\n      add\n        /* \"#utility.yul\":5900:5963   */\n      tag_53\n      jump\t// in\n    tag_135:\n        /* \"#utility.yul\":5890:5963   */\n      swap2\n      pop\n        /* \"#utility.yul\":5685:5973   */\n      pop\n        /* \"#utility.yul\":4675:5980   */\n      swap3\n      swap6\n      swap2\n      swap5\n      pop\n      swap3\n      pop\n      jump\t// out\n        /* \"#utility.yul\":5986:6166   */\n    tag_56:\n        /* \"#utility.yul\":6034:6111   */\n      0x4e487b7100000000000000000000000000000000000000000000000000000000\n        /* \"#utility.yul\":6031:6032   */\n      0x00\n        /* \"#utility.yul\":6024:6112   */\n      mstore\n        /* \"#utility.yul\":6131:6135   */\n      0x22\n        /* \"#utility.yul\":6128:6129   */\n      0x04\n        /* \"#utility.yul\":6121:6136   */\n      mstore\n        /* \"#utility.yul\":6155:6159   */\n      0x24\n        /* \"#utility.yul\":6152:6153   */\n      0x00\n        /* \"#utility.yul\":6145:6160   */\n      revert\n        /* \"#utility.yul\":6172:6492   */\n    tag_15:\n        /* \"#utility.yul\":6216:6222   */\n      0x00\n        /* \"#utility.yul\":6253:6254   */\n      0x02\n        /* \"#utility.yul\":6247:6251   */\n      dup3\n        /* \"#utility.yul\":6243:6255   */\n      div\n        /* \"#utility.yul\":6233:6255   */\n      swap1\n      pop\n        /* \"#utility.yul\":6300:6301   */\n      0x01\n        /* \"#utility.yul\":6294:6298   */\n      dup3\n        /* \"#utility.yul\":6290:6302   */\n      and\n        /* \"#utility.yul\":6321:6339   */\n      dup1\n        /* \"#utility.yul\":6311:6392   */\n      tag_138\n      jumpi\n        /* \"#utility.yul\":6377:6381   */\n      0x7f\n        /* \"#utility.yul\":6369:6375   */\n      dup3\n        /* \"#utility.yul\":6365:6382   */\n      and\n        /* \"#utility.yul\":6355:6382   */\n      swap2\n      pop\n        /* \"#utility.yul\":6311:6392   */\n    tag_138:\n        /* \"#utility.yul\":6439:6441   */\n      0x20\n        /* \"#utility.yul\":6431:6437   */\n      dup3\n        /* \"#utility.yul\":6428:6442   */\n      lt\n        /* \"#utility.yul\":6408:6426   */\n      dup2\n        /* \"#utility.yul\":6405:6443   */\n      sub\n        /* \"#utility.yul\":6402:6486   */\n      tag_139\n      jumpi\n        /* \"#utility.yul\":6458:6476   */\n      tag_140\n      tag_56\n      jump\t// in\n    tag_140:\n        /* \"#utility.yul\":6402:6486   */\n    tag_139:\n        /* \"#utility.yul\":6223:6492   */\n      pop\n        /* \"#utility.yul\":6172:6492   */\n      swap2\n      swap1\n      pop\n      jump\t// out\n        /* \"#utility.yul\":6498:6639   */\n    tag_57:\n        /* \"#utility.yul\":6547:6551   */\n      0x00\n        /* \"#utility.yul\":6570:6573   */\n      dup2\n        /* \"#utility.yul\":6562:6573   */\n      swap1\n      pop\n        /* \"#utility.yul\":6593:6596   */\n      dup2\n        /* \"#utility.yul\":6590:6591   */\n      0x00\n        /* \"#utility.yul\":6583:6597   */\n      mstore\n        /* \"#utility.yul\":6627:6631   */\n      0x20\n        /* \"#utility.yul\":6624:6625   */\n      0x00\n        /* \"#utility.yul\":6614:6632   */\n      keccak256\n        /* \"#utility.yul\":6606:6632   */\n      swap1\n      pop\n        /* \"#utility.yul\":6498:6639   */\n      swap2\n      swap1\n      pop\n      jump\t// out\n        /* \"#utility.yul\":6645:6738   */\n    tag_58:\n        /* \"#utility.yul\":6682:6688   */\n      0x00\n        /* \"#utility.yul\":6729:6731   */\n      0x20\n        /* \"#utility.yul\":6724:6726   */\n      0x1f\n        /* \"#utility.yul\":6717:6722   */\n      dup4\n        /* \"#utility.yul\":6713:6727   */\n      add\n        /* \"#utility.yul\":6709:6732   */\n      div\n        /* \"#utility.yul\":6699:6732   */\n      swap1\n      pop\n        /* \"#utility.yul\":6645:6738   */\n      swap2\n      swap1\n      pop\n      jump\t// out\n        /* \"#utility.yul\":6744:6851   */\n    tag_59:\n        /* \"#utility.yul\":6788:6796   */\n      0x00\n        /* \"#utility.yul\":6838:6843   */\n      dup3\n        /* \"#utility.yul\":6832:6836   */\n      dup3\n        /* \"#utility.yul\":6828:6844   */\n      shl\n        /* \"#utility.yul\":6807:6844   */\n      swap1\n      pop\n        /* \"#utility.yul\":6744:6851   */\n      swap3\n      swap2\n      pop\n      pop\n      jump\t// out\n        /* \"#utility.yul\":6857:7250   */\n    tag_60:\n        /* \"#utility.yul\":6926:6932   */\n      0x00\n        /* \"#utility.yul\":6976:6977   */\n      0x08\n        /* \"#utility.yul\":6964:6974   */\n      dup4\n        /* \"#utility.yul\":6960:6978   */\n      mul\n        /* \"#utility.yul\":6999:7096   */\n      tag_145\n        /* \"#utility.yul\":7029:7095   */\n      0xffffffffffffffffffffffffffffffffffffffffffffffffffffffffffffffff\n        /* \"#utility.yul\":7018:7027   */\n      dup3\n        /* \"#utility.yul\":6999:7096   */\n      tag_59\n      jump\t// in\n    tag_145:\n        /* \"#utility.yul\":7117:7156   */\n      tag_146\n        /* \"#utility.yul\":7147:7155   */\n      dup7\n        /* \"#utility.yul\":7136:7145   */\n      dup4\n        /* \"#utility.yul\":7117:7156   */\n      tag_59\n      jump\t// in\n    tag_146:\n        /* \"#utility.yul\":7105:7156   */\n      swap6\n      pop\n        /* \"#utility.yul\":7189:7193   */\n      dup1\n        /* \"#utility.yul\":7185:7194   */\n      not\n        /* \"#utility.yul\":7178:7183   */\n      dup5\n        /* \"#utility.yul\":7174:7195   */\n      and\n        /* \"#utility.yul\":7165:7195   */\n      swap4\n      pop\n        /* \"#utility.yul\":7238:7242   */\n      dup1\n        /* \"#utility.yul\":7228:7236   */\n      dup7\n        /* \"#utility.yul\":7224:7243   */\n      and\n        /* \"#utility.yul\":7217:7222   */\n      dup5\n        /* \"#utility.yul\":7214:7244   */\n      or\n        /* \"#utility.yul\":7204:7244   */\n      swap3\n      pop\n        /* \"#utility.yul\":6933:7250   */\n      pop\n      pop\n        /* \"#utility.yul\":6857:7250   */\n      swap4\n      swap3\n      pop\n      pop\n      pop\n      jump\t// out\n        /* \"#utility.yul\":7256:7316   */\n    tag_61:\n        /* \"#utility.yul\":7284:7287   */\n      0x00\n        /* \"#utility.yul\":7305:7310   */\n      dup2\n        /* \"#utility.yul\":7298:7310   */\n      swap1\n      pop\n        /* \"#utility.yul\":7256:7316   */\n      swap2\n      swap1\n      pop\n      jump\t// out\n        /* \"#utility.yul\":7322:7464   */\n    tag_62:\n        /* \"#utility.yul\":7372:7381   */\n      0x00\n        /* \"#utility.yul\":7405:7458   */\n      tag_149\n        /* \"#utility.yul\":7423:7457   */\n      tag_150\n        /* \"#utility.yul\":7432:7456   */\n      tag_151\n        /* \"#utility.yul\":7450:7455   */\n      dup5\n        /* \"#utility.yul\":7432:7456   */\n      tag_40\n      jump\t// in\n    tag_151:\n        /* \"#utility.yul\":7423:7457   */\n      tag_61\n      jump\t// in\n    tag_150:\n        /* \"#utility.yul\":7405:7458   */\n      tag_40\n      jump\t// in\n    tag_149:\n        /* \"#utility.yul\":7392:7458   */\n      swap1\n      pop\n        /* \"#utility.yul\":7322:7464   */\n      swap2\n      swap1\n      pop\n      jump\t// out\n        /* \"#utility.yul\":7470:7545   */\n    tag_63:\n        /* \"#utility.yul\":7513:7516   */\n      0x00\n        /* \"#utility.yul\":7534:7539   */\n      dup2\n        /* \"#utility.yul\":7527:7539   */\n      swap1\n      pop\n        /* \"#utility.yul\":7470:7545   */\n      swap2\n      swap1\n      pop\n      jump\t// out\n        /* \"#utility.yul\":7551:7820   */\n    tag_64:\n        /* \"#utility.yul\":7661:7700   */\n      tag_154\n        /* \"#utility.yul\":7692:7699   */\n      dup4\n        /* \"#utility.yul\":7661:7700   */\n      tag_62\n      jump\t// in\n    tag_154:\n        /* \"#utility.yul\":7722:7813   */\n      tag_155\n        /* \"#utility.yul\":7771:7812   */\n      tag_156\n        /* \"#utility.yul\":7795:7811   */\n      dup3\n        /* \"#utility.yul\":7771:7812   */\n      tag_63\n      jump\t// in\n    tag_156:\n        /* \"#utility.yul\":7763:7769   */\n      dup5\n        /* \"#utility.yul\":7756:7760   */\n      dup5\n        /* \"#utility.yul\":7750:7761   */\n      sload\n        /* \"#utility.yul\":7722:7813   */\n      tag_60\n      jump\t// in\n    tag_155:\n        /* \"#utility.yul\":7716:7720   */\n      dup3\n        /* \"#utility.yul\":7709:7814   */\n      sstore\n        /* \"#utility.yul\":7627:7820   */\n      pop\n        /* \"#utility.yul\":7551:7820   */\n      pop\n      pop\n      pop\n      jump\t// out\n        /* \"#utility.yul\":7826:7899   */\n    tag_65:\n        /* \"#utility.yul\":7871:7874   */\n      0x00\n        /* \"#utility.yul\":7892:7893   */\n      0x00\n        /* \"#utility.yul\":7885:7893   */\n      swap1\n      pop\n        /* \"#utility.yul\":7826:7899   */\n      swap1\n      jump\t// out\n        /* \"#utility.yul\":7905:8094   */\n    tag_66:\n        /* \"#utility.yul\":7982:8014   */\n      tag_159\n      tag_65\n      jump\t// in\n    tag_159:\n        /* \"#utility.yul\":8023:8088   */\n      tag_160\n        /* \"#utility.yul\":8081:8087   */\n      dup2\n        /* \"#utility.yul\":8073:8079   */\n      dup5\n        /* \"#utility.yul\":8067:8071   */\n      dup5\n        /* \"#utility.yul\":8023:8088   */\n      tag_64\n      jump\t// in\n    tag_160:\n        /* \"#utility.yul\":7958:8094   */\n      pop\n        /* \"#utility.yul\":7905:8094   */\n      pop\n      pop\n      jump\t// out\n        /* \"#utility.yul\":8100:8286   */\n    tag_67:\n        /* \"#utility.yul\":8160:8280   */\n    tag_162:\n        /* \"#utility.yul\":8177:8180   */\n      dup2\n        /* \"#utility.yul\":8170:8175   */\n      dup2\n        /* \"#utility.yul\":8167:8181   */\n      lt\n        /* \"#utility.yul\":8160:8280   */\n      iszero\n      tag_164\n      jumpi\n        /* \"#utility.yul\":8231:8270   */\n      tag_165\n        /* \"#utility.yul\":8268:8269   */\n      0x00\n        /* \"#utility.yul\":8261:8266   */\n      dup3\n        /* \"#utility.yul\":8231:8270   */\n      tag_66\n      jump\t// in\n    tag_165:\n        /* \"#utility.yul\":8204:8205   */\n      0x01\n        /* \"#utility.yul\":8197:8202   */\n      dup2\n        /* \"#utility.yul\":8193:8206   */\n      add\n        /* \"#utility.yul\":8184:8206   */\n      swap1\n      pop\n        /* \"#utility.yul\":8160:8280   */\n      jump(tag_162)\n    tag_164:\n        /* \"#utility.yul\":8100:8286   */\n      pop\n      pop\n      jump\t// out\n        /* \"#utility.yul\":8292:8835   */\n    tag_68:\n        /* \"#utility.yul\":8393:8395   */\n      0x1f\n        /* \"#utility.yul\":8388:8391   */\n      dup3\n        /* \"#utility.yul\":8385:8396   */\n      gt\n        /* \"#utility.yul\":8382:8828   */\n      iszero\n      tag_167\n      jumpi\n        /* \"#utility.yul\":8427:8465   */\n      tag_168\n        /* \"#utility.yul\":8459:8464   */\n      dup2\n        /* \"#utility.yul\":8427:8465   */\n      tag_57\n      jump\t// in\n    tag_168:\n        /* \"#utility.yul\":8511:8540   */\n      tag_169\n        /* \"#utility.yul\":8529:8539   */\n      dup5\n        /* \"#utility.yul\":8511:8540   */\n      tag_58\n      jump\t// in\n    tag_169:\n        /* \"#utility.yul\":8501:8509   */\n      dup2\n        /* \"#utility.yul\":8497:8541   */\n      add\n        /* \"#utility.yul\":8694:8696   */\n      0x20\n        /* \"#utility.yul\":8682:8692   */\n      dup6\n        /* \"#utility.yul\":8679:8697   */\n      lt\n        /* \"#utility.yul\":8676:8725   */\n      iszero\n      tag_170\n      jumpi\n        /* \"#utility.yul\":8715:8723   */\n      dup2\n        /* \"#utility.yul\":8700:8723   */\n      swap1\n      pop\n        /* \"#utility.yul\":8676:8725   */\n    tag_170:\n        /* \"#utility.yul\":8738:8818   */\n      tag_171\n        /* \"#utility.yul\":8794:8816   */\n      tag_172\n        /* \"#utility.yul\":8812:8815   */\n      dup6\n        /* \"#utility.yul\":8794:8816   */\n      tag_58\n      jump\t// in\n    tag_172:\n        /* \"#utility.yul\":8784:8792   */\n      dup4\n        /* \"#utility.yul\":8780:8817   */\n      add\n        /* \"#utility.yul\":8767:8778   */\n      dup3\n        /* \"#utility.yul\":8738:8818   */\n      tag_67\n      jump\t// in\n    tag_171:\n        /* \"#utility.yul\":8397:8828   */\n      pop\n      pop\n        /* \"#utility.yul\":8382:8828   */\n    tag_167:\n        /* \"#utility.yul\":8292:8835   */\n      pop\n      pop\n      pop\n      jump\t// out\n        /* \"#utility.yul\":8841:8958   */\n    tag_69:\n        /* \"#utility.yul\":8895:8903   */\n      0x00\n        /* \"#utility.yul\":8945:8950   */\n      dup3\n        /* \"#utility.yul\":8939:8943   */\n      dup3\n        /* \"#utility.yul\":8935:8951   */\n      shr\n        /* \"#utility.yul\":8914:8951   */\n      swap1\n      pop\n        /* \"#utility.yul\":8841:8958   */\n      swap3\n      swap2\n      pop\n      pop\n      jump\t// out\n        /* \"#utility.yul\":8964:9133   */\n    tag_70:\n        /* \"#utility.yul\":9008:9014   */\n      0x00\n        /* \"#utility.yul\":9041:9092   */\n      tag_175\n        /* \"#utility.yul\":9089:9090   */\n      0x00\n        /* \"#utility.yul\":9085:9091   */\n      not\n        /* \"#utility.yul\":9077:9082   */\n      dup5\n        /* \"#utility.yul\":9074:9075   */\n      0x08\n        /* \"#utility.yul\":9070:9083   */\n      mul\n        /* \"#utility.yul\":9041:9092   */\n      tag_69\n      jump\t// in\n    tag_175:\n        /* \"#utility.yul\":9037:9093   */\n      not\n        /* \"#utility.yul\":9122:9126   */\n      dup1\n        /* \"#utility.yul\":9116:9120   */\n      dup4\n        /* \"#utility.yul\":9112:9127   */\n      and\n        /* \"#utility.yul\":9102:9127   */\n      swap2\n      pop\n        /* \"#utility.yul\":9015:9133   */\n      pop\n        /* \"#utility.yul\":8964:9133   */\n      swap3\n      swap2\n      pop\n      pop\n      jump\t// out\n        /* \"#utility.yul\":9138:9433   */\n    tag_71:\n        /* \"#utility.yul\":9214:9218   */\n      0x00\n        /* \"#utility.yul\":9360:9389   */\n      tag_177\n        /* \"#utility.yul\":9385:9388   */\n      dup4\n        /* \"#utility.yul\":9379:9383   */\n      dup4\n        /* \"#utility.yul\":9360:9389   */\n      tag_70\n      jump\t// in\n    tag_177:\n        /* \"#utility.yul\":9352:9389   */\n      swap2\n      pop\n        /* \"#utility.yul\":9422:9425   */\n      dup3\n        /* \"#utility.yul\":9419:9420   */\n      0x02\n        /* \"#utility.yul\":9415:9426   */\n      mul\n        /* \"#utility.yul\":9409:9413   */\n      dup3\n        /* \"#utility.yul\":9406:9427   */\n      or\n        /* \"#utility.yul\":9398:9427   */\n      swap1\n      pop\n        /* \"#utility.yul\":9138:9433   */\n      swap3\n      swap2\n      pop\n      pop\n      jump\t// out\n        /* \"#utility.yul\":9438:10833   */\n    tag_32:\n        /* \"#utility.yul\":9555:9592   */\n      tag_179\n        /* \"#utility.yul\":9588:9591   */\n      dup3\n        /* \"#utility.yul\":9555:9592   */\n      tag_35\n      jump\t// in\n    tag_179:\n        /* \"#utility.yul\":9657:9675   */\n      0xffffffffffffffff\n        /* \"#utility.yul\":9649:9655   */\n      dup2\n        /* \"#utility.yul\":9646:9676   */\n      gt\n        /* \"#utility.yul\":9643:9699   */\n      iszero\n      tag_180\n      jumpi\n        /* \"#utility.yul\":9679:9697   */\n      tag_181\n      tag_47\n      jump\t// in\n    tag_181:\n        /* \"#utility.yul\":9643:9699   */\n    tag_180:\n        /* \"#utility.yul\":9723:9761   */\n      tag_182\n        /* \"#utility.yul\":9755:9759   */\n      dup3\n        /* \"#utility.yul\":9749:9760   */\n      sload\n        /* \"#utility.yul\":9723:9761   */\n      tag_15\n      jump\t// in\n    tag_182:\n        /* \"#utility.yul\":9808:9875   */\n      tag_183\n        /* \"#utility.yul\":9868:9874   */\n      dup3\n        /* \"#utility.yul\":9860:9866   */\n      dup3\n        /* \"#utility.yul\":9854:9858   */\n      dup6\n        /* \"#utility.yul\":9808:9875   */\n      tag_68\n      jump\t// in\n    tag_183:\n        /* \"#utility.yul\":9902:9903   */\n      0x00\n        /* \"#utility.yul\":9926:9930   */\n      0x20\n        /* \"#utility.yul\":9913:9930   */\n      swap1\n      pop\n        /* \"#utility.yul\":9958:9960   */\n      0x1f\n        /* \"#utility.yul\":9950:9956   */\n      dup4\n        /* \"#utility.yul\":9947:9961   */\n      gt\n        /* \"#utility.yul\":9975:9976   */\n      0x01\n        /* \"#utility.yul\":9970:10588   */\n      dup2\n      eq\n      tag_185\n      jumpi\n        /* \"#utility.yul\":10632:10633   */\n      0x00\n        /* \"#utility.yul\":10649:10655   */\n      dup5\n        /* \"#utility.yul\":10646:10723   */\n      iszero\n      tag_186\n      jumpi\n        /* \"#utility.yul\":10698:10707   */\n      dup3\n        /* \"#utility.yul\":10693:10696   */\n      dup8\n        /* \"#utility.yul\":10689:10708   */\n      add\n        /* \"#utility.yul\":10683:10709   */\n      mload\n        /* \"#utility.yul\":10674:10709   */\n      swap1\n      pop\n        /* \"#utility.yul\":10646:10723   */\n    tag_186:\n        /* \"#utility.yul\":10749:10816   */\n      tag_187\n        /* \"#utility.yul\":10809:10815   */\n      dup6\n        /* \"#utility.yul\":10802:10807   */\n      dup3\n        /* \"#utility.yul\":10749:10816   */\n      tag_71\n      jump\t// in\n    tag_187:\n        /* \"#utility.yul\":10743:10747   */\n      dup7\n        /* \"#utility.yul\":10736:10817   */\n      sstore\n        /* \"#utility.yul\":10605:10827   */\n      pop\n        /* \"#utility.yul\":9940:10827   */\n      jump(tag_184)\n        /* \"#utility.yul\":9970:10588   */\n    tag_185:\n        /* \"#utility.yul\":10022:10026   */\n      0x1f\n        /* \"#utility.yul\":10018:10027   */\n      not\n        /* \"#utility.yul\":10010:10016   */\n      dup5\n        /* \"#utility.yul\":10006:10028   */\n      and\n        /* \"#utility.yul\":10056:10093   */\n      tag_188\n        /* \"#utility.yul\":10088:10092   */\n      dup7\n        /* \"#utility.yul\":10056:10093   */\n      tag_57\n      jump\t// in\n    tag_188:\n        /* \"#utility.yul\":10115:10116   */\n      0x00\n        /* \"#utility.yul\":10129:10337   */\n    tag_189:\n        /* \"#utility.yul\":10143:10150   */\n      dup3\n        /* \"#utility.yul\":10140:10141   */\n      dup2\n        /* \"#utility.yul\":10137:10151   */\n      lt\n        /* \"#utility.yul\":10129:10337   */\n      iszero\n      tag_191\n      jumpi\n        /* \"#utility.yul\":10222:10231   */\n      dup5\n        /* \"#utility.yul\":10217:10220   */\n      dup10\n        /* \"#utility.yul\":10213:10232   */\n      add\n        /* \"#utility.yul\":10207:10233   */\n      mload\n        /* \"#utility.yul\":10199:10205   */\n      dup3\n        /* \"#utility.yul\":10192:10234   */\n      sstore\n        /* \"#utility.yul\":10273:10274   */\n      0x01\n        /* \"#utility.yul\":10265:10271   */\n      dup3\n        /* \"#utility.yul\":10261:10275   */\n      add\n        /* \"#utility.yul\":10251:10275   */\n      swap2\n      pop\n        /* \"#utility.yul\":10320:10322   */\n      0x20\n        /* \"#utility.yul\":10309:10318   */\n      dup6\n        /* \"#utility.yul\":10305:10323   */\n      add\n        /* \"#utility.yul\":10292:10323   */\n      swap5\n      pop\n        /* \"#utility.yul\":10166:10170   */\n      0x20\n        /* \"#utility.yul\":10163:10164   */\n      dup2\n        /* \"#utility.yul\":10159:10171   */\n      add\n        /* \"#utility.yul\":10154:10171   */\n      swap1\n      pop\n        /* \"#utility.yul\":10129:10337   */\n      jump(tag_189)\n    tag_191:\n        /* \"#utility.yul\":10365:10371   */\n      dup7\n        /* \"#utility.yul\":10356:10363   */\n      dup4\n        /* \"#utility.yul\":10353:10372   */\n      lt\n        /* \"#utility.yul\":10350:10529   */\n      iszero\n      tag_192\n      jumpi\n        /* \"#utility.yul\":10423:10432   */\n      dup5\n        /* \"#utility.yul\":10418:10421   */\n      dup10\n        /* \"#utility.yul\":10414:10433   */\n      add\n        /* \"#utility.yul\":10408:10434   */\n      mload\n        /* \"#utility.yul\":10466:10514   */\n      tag_193\n        /* \"#utility.yul\":10508:10512   */\n      0x1f\n        /* \"#utility.yul\":10500:10506   */\n      dup10\n        /* \"#utility.yul\":10496:10513   */\n      and\n        /* \"#utility.yul\":10485:10494   */\n      dup3\n        /* \"#utility.yul\":10466:10514   */\n      tag_70\n      jump\t// in\n    tag_193:\n        /* \"#utility.yul\":10458:10464   */\n      dup4\n        /* \"#utility.yul\":10451:10515   */\n      sstore\n        /* \"#utility.yul\":10373:10529   */\n      pop\n        /* \"#utility.yul\":10350:10529   */\n    tag_192:\n        /* \"#utility.yul\":10575:10576   */\n      0x01\n        /* \"#utility.yul\":10571:10572   */\n      0x02\n        /* \"#utility.yul\":10563:10569   */\n      dup9\n        /* \"#utility.yul\":10559:10573   */\n      mul\n        /* \"#utility.yul\":10555:10577   */\n      add\n        /* \"#utility.yul\":10549:10553   */\n      dup9\n        /* \"#utility.yul\":10542:10578   */\n      sstore\n        /* \"#utility.yul\":9977:10588   */\n      pop\n      pop\n      pop\n        /* \"#utility.yul\":9940:10827   */\n    tag_184:\n      pop\n        /* \"#utility.yul\":9530:10833   */\n      pop\n      pop\n      pop\n        /* \"#utility.yul\":9438:10833   */\n      pop\n      pop\n      jump\t// out\n\n    auxdata: 0xa2646970667358221220a47f729ac02bc1170805da5dd2d4100246418ef990a9e82663ad063d0e6c6b8964736f6c634300081e0033\n}\n",
				"bytecode": {
					"linkReferences": {},
					"object": "6080604052348015600e575f5ffd5b5061086c8061001c5f395ff3fe608060405234801561000f575f5ffd5b5060043610610034575f3560e01c80632e64cec1146100385780634187a17d14610059575b5f5ffd5b610040610075565b60405161005094939291906102f3565b60405180910390f35b610073600480360381019061006e91906104b2565b61022f565b005b6060805f60605f6001600254600383805461008f90610597565b80601f01602080910402602001604051908101604052809291908181526020018280546100bb90610597565b80156101065780601f106100dd57610100808354040283529160200191610106565b820191905f5260205f20905b8154815290600101906020018083116100e957829003601f168201915b5050505050935082805461011990610597565b80601f016020809104026020016040519081016040528092919081815260200182805461014590610597565b80156101905780601f1061016757610100808354040283529160200191610190565b820191905f5260205f20905b81548152906001019060200180831161017357829003601f168201915b505050505092508080546101a390610597565b80601f01602080910402602001604051908101604052809291908181526020018280546101cf90610597565b801561021a5780601f106101f15761010080835404028352916020019161021a565b820191905f5260205f20905b8154815290600101906020018083116101fd57829003601f168201915b50505050509050935093509350935090919293565b835f908161023d9190610767565b50826001908161024d9190610767565b508160028190555080600390816102649190610767565b5050505050565b5f81519050919050565b5f82825260208201905092915050565b8281835e5f83830152505050565b5f601f19601f8301169050919050565b5f6102ad8261026b565b6102b78185610275565b93506102c7818560208601610285565b6102d081610293565b840191505092915050565b5f819050919050565b6102ed816102db565b82525050565b5f6080820190508181035f83015261030b81876102a3565b9050818103602083015261031f81866102a3565b905061032e60408301856102e4565b818103606083015261034081846102a3565b905095945050505050565b5f604051905090565b5f5ffd5b5f5ffd5b5f5ffd5b5f5ffd5b7f4e487b71000000000000000000000000000000000000000000000000000000005f52604160045260245ffd5b61039a82610293565b810181811067ffffffffffffffff821117156103b9576103b8610364565b5b80604052505050565b5f6103cb61034b565b90506103d78282610391565b919050565b5f67ffffffffffffffff8211156103f6576103f5610364565b5b6103ff82610293565b9050602081019050919050565b828183375f83830152505050565b5f61042c610427846103dc565b6103c2565b90508281526020810184848401111561044857610447610360565b5b61045384828561040c565b509392505050565b5f82601f83011261046f5761046e61035c565b5b813561047f84826020860161041a565b91505092915050565b610491816102db565b811461049b575f5ffd5b50565b5f813590506104ac81610488565b92915050565b5f5f5f5f608085870312156104ca576104c9610354565b5b5f85013567ffffffffffffffff8111156104e7576104e6610358565b5b6104f38782880161045b565b945050602085013567ffffffffffffffff81111561051457610513610358565b5b6105208782880161045b565b93505060406105318782880161049e565b925050606085013567ffffffffffffffff81111561055257610551610358565b5b61055e8782880161045b565b91505092959194509250565b7f4e487b71000000000000000000000000000000000000000000000000000000005f52602260045260245ffd5b5f60028204905060018216806105ae57607f821691505b6020821081036105c1576105c061056a565b5b50919050565b5f819050815f5260205f209050919050565b5f6020601f8301049050919050565b5f82821b905092915050565b5f600883026106237fffffffffffffffffffffffffffffffffffffffffffffffffffffffffffffffff826105e8565b61062d86836105e8565b95508019841693508086168417925050509392505050565b5f819050919050565b5f61066861066361065e846102db565b610645565b6102db565b9050919050565b5f819050919050565b6106818361064e565b61069561068d8261066f565b8484546105f4565b825550505050565b5f5f905090565b6106ac61069d565b6106b7818484610678565b505050565b5b818110156106da576106cf5f826106a4565b6001810190506106bd565b5050565b601f82111561071f576106f0816105c7565b6106f9846105d9565b81016020851015610708578190505b61071c610714856105d9565b8301826106bc565b50505b505050565b5f82821c905092915050565b5f61073f5f1984600802610724565b1980831691505092915050565b5f6107578383610730565b9150826002028217905092915050565b6107708261026b565b67ffffffffffffffff81111561078957610788610364565b5b6107938254610597565b61079e8282856106de565b5f60209050601f8311600181146107cf575f84156107bd578287015190505b6107c7858261074c565b86555061082e565b601f1984166107dd866105c7565b5f5b82811015610804578489015182556001820191506020850194506020810190506107df565b86831015610821578489015161081d601f891682610730565b8355505b6001600288020188555050505b50505050505056fea2646970667358221220a47f729ac02bc1170805da5dd2d4100246418ef990a9e82663ad063d0e6c6b8964736f6c634300081e0033",
					"opcodes": "PUSH1 0x80 PUSH1 0x40 MSTORE CALLVALUE DUP1 ISZERO PUSH1 0xE JUMPI PUSH0 PUSH0 REVERT JUMPDEST POP PUSH2 0x86C DUP1 PUSH2 0x1C PUSH0 CODECOPY PUSH0 RETURN INVALID PUSH1 0x80 PUSH1 0x40 MSTORE CALLVALUE DUP1 ISZERO PUSH2 0xF JUMPI PUSH0 PUSH0 REVERT JUMPDEST POP PUSH1 0x4 CALLDATASIZE LT PUSH2 0x34 JUMPI PUSH0 CALLDATALOAD PUSH1 0xE0 SHR DUP1 PUSH4 0x2E64CEC1 EQ PUSH2 0x38 JUMPI DUP1 PUSH4 0x4187A17D EQ PUSH2 0x59 JUMPI JUMPDEST PUSH0 PUSH0 REVERT JUMPDEST PUSH2 0x40 PUSH2 0x75 JUMP JUMPDEST PUSH1 0x40 MLOAD PUSH2 0x50 SWAP5 SWAP4 SWAP3 SWAP2 SWAP1 PUSH2 0x2F3 JUMP JUMPDEST PUSH1 0x40 MLOAD DUP1 SWAP2 SUB SWAP1 RETURN JUMPDEST PUSH2 0x73 PUSH1 0x4 DUP1 CALLDATASIZE SUB DUP2 ADD SWAP1 PUSH2 0x6E SWAP2 SWAP1 PUSH2 0x4B2 JUMP JUMPDEST PUSH2 0x22F JUMP JUMPDEST STOP JUMPDEST PUSH1 0x60 DUP1 PUSH0 PUSH1 0x60 PUSH0 PUSH1 0x1 PUSH1 0x2 SLOAD PUSH1 0x3 DUP4 DUP1 SLOAD PUSH2 0x8F SWAP1 PUSH2 0x597 JUMP JUMPDEST DUP1 PUSH1 0x1F ADD PUSH1 0x20 DUP1 SWAP2 DIV MUL PUSH1 0x20 ADD PUSH1 0x40 MLOAD SWAP1 DUP2 ADD PUSH1 0x40 MSTORE DUP1 SWAP3 SWAP2 SWAP1 DUP2 DUP2 MSTORE PUSH1 0x20 ADD DUP3 DUP1 SLOAD PUSH2 0xBB SWAP1 PUSH2 0x597 JUMP JUMPDEST DUP1 ISZERO PUSH2 0x106 JUMPI DUP1 PUSH1 0x1F LT PUSH2 0xDD JUMPI PUSH2 0x100 DUP1 DUP4 SLOAD DIV MUL DUP4 MSTORE SWAP2 PUSH1 0x20 ADD SWAP2 PUSH2 0x106 JUMP JUMPDEST DUP3 ADD SWAP2 SWAP1 PUSH0 MSTORE PUSH1 0x20 PUSH0 KECCAK256 SWAP1 JUMPDEST DUP2 SLOAD DUP2 MSTORE SWAP1 PUSH1 0x1 ADD SWAP1 PUSH1 0x20 ADD DUP1 DUP4 GT PUSH2 0xE9 JUMPI DUP3 SWAP1 SUB PUSH1 0x1F AND DUP3 ADD SWAP2 JUMPDEST POP POP POP POP POP SWAP4 POP DUP3 DUP1 SLOAD PUSH2 0x119 SWAP1 PUSH2 0x597 JUMP JUMPDEST DUP1 PUSH1 0x1F ADD PUSH1 0x20 DUP1 SWAP2 DIV MUL PUSH1 0x20 ADD PUSH1 0x40 MLOAD SWAP1 DUP2 ADD PUSH1 0x40 MSTORE DUP1 SWAP3 SWAP2 SWAP1 DUP2 DUP2 MSTORE PUSH1 0x20 ADD DUP3 DUP1 SLOAD PUSH2 0x145 SWAP1 PUSH2 0x597 JUMP JUMPDEST DUP1 ISZERO PUSH2 0x190 JUMPI DUP1 PUSH1 0x1F LT PUSH2 0x167 JUMPI PUSH2 0x100 DUP1 DUP4 SLOAD DIV MUL DUP4 MSTORE SWAP2 PUSH1 0x20 ADD SWAP2 PUSH2 0x190 JUMP JUMPDEST DUP3 ADD SWAP2 SWAP1 PUSH0 MSTORE PUSH1 0x20 PUSH0 KECCAK256 SWAP1 JUMPDEST DUP2 SLOAD DUP2 MSTORE SWAP1 PUSH1 0x1 ADD SWAP1 PUSH1 0x20 ADD DUP1 DUP4 GT PUSH2 0x173 JUMPI DUP3 SWAP1 SUB PUSH1 0x1F AND DUP3 ADD SWAP2 JUMPDEST POP POP POP POP POP SWAP3 POP DUP1 DUP1 SLOAD PUSH2 0x1A3 SWAP1 PUSH2 0x597 JUMP JUMPDEST DUP1 PUSH1 0x1F ADD PUSH1 0x20 DUP1 SWAP2 DIV MUL PUSH1 0x20 ADD PUSH1 0x40 MLOAD SWAP1 DUP2 ADD PUSH1 0x40 MSTORE DUP1 SWAP3 SWAP2 SWAP1 DUP2 DUP2 MSTORE PUSH1 0x20 ADD DUP3 DUP1 SLOAD PUSH2 0x1CF SWAP1 PUSH2 0x597 JUMP JUMPDEST DUP1 ISZERO PUSH2 0x21A JUMPI DUP1 PUSH1 0x1F LT PUSH2 0x1F1 JUMPI PUSH2 0x100 DUP1 DUP4 SLOAD DIV MUL DUP4 MSTORE SWAP2 PUSH1 0x20 ADD SWAP2 PUSH2 0x21A JUMP JUMPDEST DUP3 ADD SWAP2 SWAP1 PUSH0 MSTORE PUSH1 0x20 PUSH0 KECCAK256 SWAP1 JUMPDEST DUP2 SLOAD DUP2 MSTORE SWAP1 PUSH1 0x1 ADD SWAP1 PUSH1 0x20 ADD DUP1 DUP4 GT PUSH2 0x1FD JUMPI DUP3 SWAP1 SUB PUSH1 0x1F AND DUP3 ADD SWAP2 JUMPDEST POP POP POP POP POP SWAP1 POP SWAP4 POP SWAP4 POP SWAP4 POP SWAP4 POP SWAP1 SWAP2 SWAP3 SWAP4 JUMP JUMPDEST DUP4 PUSH0 SWAP1 DUP2 PUSH2 0x23D SWAP2 SWAP1 PUSH2 0x767 JUMP JUMPDEST POP DUP3 PUSH1 0x1 SWAP1 DUP2 PUSH2 0x24D SWAP2 SWAP1 PUSH2 0x767 JUMP JUMPDEST POP DUP2 PUSH1 0x2 DUP2 SWAP1 SSTORE POP DUP1 PUSH1 0x3 SWAP1 DUP2 PUSH2 0x264 SWAP2 SWAP1 PUSH2 0x767 JUMP JUMPDEST POP POP POP POP POP JUMP JUMPDEST PUSH0 DUP2 MLOAD SWAP1 POP SWAP2 SWAP1 POP JUMP JUMPDEST PUSH0 DUP3 DUP3 MSTORE PUSH1 0x20 DUP3 ADD SWAP1 POP SWAP3 SWAP2 POP POP JUMP JUMPDEST DUP3 DUP2 DUP4 MCOPY PUSH0 DUP4 DUP4 ADD MSTORE POP POP POP JUMP JUMPDEST PUSH0 PUSH1 0x1F NOT PUSH1 0x1F DUP4 ADD AND SWAP1 POP SWAP2 SWAP1 POP JUMP JUMPDEST PUSH0 PUSH2 0x2AD DUP3 PUSH2 0x26B JUMP JUMPDEST PUSH2 0x2B7 DUP2 DUP6 PUSH2 0x275 JUMP JUMPDEST SWAP4 POP PUSH2 0x2C7 DUP2 DUP6 PUSH1 0x20 DUP7 ADD PUSH2 0x285 JUMP JUMPDEST PUSH2 0x2D0 DUP2 PUSH2 0x293 JUMP JUMPDEST DUP5 ADD SWAP2 POP POP SWAP3 SWAP2 POP POP JUMP JUMPDEST PUSH0 DUP2 SWAP1 POP SWAP2 SWAP1 POP JUMP JUMPDEST PUSH2 0x2ED DUP2 PUSH2 0x2DB JUMP JUMPDEST DUP3 MSTORE POP POP JUMP JUMPDEST PUSH0 PUSH1 0x80 DUP3 ADD SWAP1 POP DUP2 DUP2 SUB PUSH0 DUP4 ADD MSTORE PUSH2 0x30B DUP2 DUP8 PUSH2 0x2A3 JUMP JUMPDEST SWAP1 POP DUP2 DUP2 SUB PUSH1 0x20 DUP4 ADD MSTORE PUSH2 0x31F DUP2 DUP7 PUSH2 0x2A3 JUMP JUMPDEST SWAP1 POP PUSH2 0x32E PUSH1 0x40 DUP4 ADD DUP6 PUSH2 0x2E4 JUMP JUMPDEST DUP2 DUP2 SUB PUSH1 0x60 DUP4 ADD MSTORE PUSH2 0x340 DUP2 DUP5 PUSH2 0x2A3 JUMP JUMPDEST SWAP1 POP SWAP6 SWAP5 POP POP POP POP POP JUMP JUMPDEST PUSH0 PUSH1 0x40 MLOAD SWAP1 POP SWAP1 JUMP JUMPDEST PUSH0 PUSH0 REVERT JUMPDEST PUSH0 PUSH0 REVERT JUMPDEST PUSH0 PUSH0 REVERT JUMPDEST PUSH0 PUSH0 REVERT JUMPDEST PUSH32 0x4E487B7100000000000000000000000000000000000000000000000000000000 PUSH0 MSTORE PUSH1 0x41 PUSH1 0x4 MSTORE PUSH1 0x24 PUSH0 REVERT JUMPDEST PUSH2 0x39A DUP3 PUSH2 0x293 JUMP JUMPDEST DUP2 ADD DUP2 DUP2 LT PUSH8 0xFFFFFFFFFFFFFFFF DUP3 GT OR ISZERO PUSH2 0x3B9 JUMPI PUSH2 0x3B8 PUSH2 0x364 JUMP JUMPDEST JUMPDEST DUP1 PUSH1 0x40 MSTORE POP POP POP JUMP JUMPDEST PUSH0 PUSH2 0x3CB PUSH2 0x34B JUMP JUMPDEST SWAP1 POP PUSH2 0x3D7 DUP3 DUP3 PUSH2 0x391 JUMP JUMPDEST SWAP2 SWAP1 POP JUMP JUMPDEST PUSH0 PUSH8 0xFFFFFFFFFFFFFFFF DUP3 GT ISZERO PUSH2 0x3F6 JUMPI PUSH2 0x3F5 PUSH2 0x364 JUMP JUMPDEST JUMPDEST PUSH2 0x3FF DUP3 PUSH2 0x293 JUMP JUMPDEST SWAP1 POP PUSH1 0x20 DUP2 ADD SWAP1 POP SWAP2 SWAP1 POP JUMP JUMPDEST DUP3 DUP2 DUP4 CALLDATACOPY PUSH0 DUP4 DUP4 ADD MSTORE POP POP POP JUMP JUMPDEST PUSH0 PUSH2 0x42C PUSH2 0x427 DUP5 PUSH2 0x3DC JUMP JUMPDEST PUSH2 0x3C2 JUMP JUMPDEST SWAP1 POP DUP3 DUP2 MSTORE PUSH1 0x20 DUP2 ADD DUP5 DUP5 DUP5 ADD GT ISZERO PUSH2 0x448 JUMPI PUSH2 0x447 PUSH2 0x360 JUMP JUMPDEST JUMPDEST PUSH2 0x453 DUP5 DUP3 DUP6 PUSH2 0x40C JUMP JUMPDEST POP SWAP4 SWAP3 POP POP POP JUMP JUMPDEST PUSH0 DUP3 PUSH1 0x1F DUP4 ADD SLT PUSH2 0x46F JUMPI PUSH2 0x46E PUSH2 0x35C JUMP JUMPDEST JUMPDEST DUP2 CALLDATALOAD PUSH2 0x47F DUP5 DUP3 PUSH1 0x20 DUP7 ADD PUSH2 0x41A JUMP JUMPDEST SWAP2 POP POP SWAP3 SWAP2 POP POP JUMP JUMPDEST PUSH2 0x491 DUP2 PUSH2 0x2DB JUMP JUMPDEST DUP2 EQ PUSH2 0x49B JUMPI PUSH0 PUSH0 REVERT JUMPDEST POP JUMP JUMPDEST PUSH0 DUP2 CALLDATALOAD SWAP1 POP PUSH2 0x4AC DUP2 PUSH2 0x488 JUMP JUMPDEST SWAP3 SWAP2 POP POP JUMP JUMPDEST PUSH0 PUSH0 PUSH0 PUSH0 PUSH1 0x80 DUP6 DUP8 SUB SLT ISZERO PUSH2 0x4CA JUMPI PUSH2 0x4C9 PUSH2 0x354 JUMP JUMPDEST JUMPDEST PUSH0 DUP6 ADD CALLDATALOAD PUSH8 0xFFFFFFFFFFFFFFFF DUP2 GT ISZERO PUSH2 0x4E7 JUMPI PUSH2 0x4E6 PUSH2 0x358 JUMP JUMPDEST JUMPDEST PUSH2 0x4F3 DUP8 DUP3 DUP9 ADD PUSH2 0x45B JUMP JUMPDEST SWAP5 POP POP PUSH1 0x20 DUP6 ADD CALLDATALOAD PUSH8 0xFFFFFFFFFFFFFFFF DUP2 GT ISZERO PUSH2 0x514 JUMPI PUSH2 0x513 PUSH2 0x358 JUMP JUMPDEST JUMPDEST PUSH2 0x520 DUP8 DUP3 DUP9 ADD PUSH2 0x45B JUMP JUMPDEST SWAP4 POP POP PUSH1 0x40 PUSH2 0x531 DUP8 DUP3 DUP9 ADD PUSH2 0x49E JUMP JUMPDEST SWAP3 POP POP PUSH1 0x60 DUP6 ADD CALLDATALOAD PUSH8 0xFFFFFFFFFFFFFFFF DUP2 GT ISZERO PUSH2 0x552 JUMPI PUSH2 0x551 PUSH2 0x358 JUMP JUMPDEST JUMPDEST PUSH2 0x55E DUP8 DUP3 DUP9 ADD PUSH2 0x45B JUMP JUMPDEST SWAP2 POP POP SWAP3 SWAP6 SWAP2 SWAP5 POP SWAP3 POP JUMP JUMPDEST PUSH32 0x4E487B7100000000000000000000000000000000000000000000000000000000 PUSH0 MSTORE PUSH1 0x22 PUSH1 0x4 MSTORE PUSH1 0x24 PUSH0 REVERT JUMPDEST PUSH0 PUSH1 0x2 DUP3 DIV SWAP1 POP PUSH1 0x1 DUP3 AND DUP1 PUSH2 0x5AE JUMPI PUSH1 0x7F DUP3 AND SWAP2 POP JUMPDEST PUSH1 0x20 DUP3 LT DUP2 SUB PUSH2 0x5C1 JUMPI PUSH2 0x5C0 PUSH2 0x56A JUMP JUMPDEST JUMPDEST POP SWAP2 SWAP1 POP JUMP JUMPDEST PUSH0 DUP2 SWAP1 POP DUP2 PUSH0 MSTORE PUSH1 0x20 PUSH0 KECCAK256 SWAP1 POP SWAP2 SWAP1 POP JUMP JUMPDEST PUSH0 PUSH1 0x20 PUSH1 0x1F DUP4 ADD DIV SWAP1 POP SWAP2 SWAP1 POP JUMP JUMPDEST PUSH0 DUP3 DUP3 SHL SWAP1 POP SWAP3 SWAP2 POP POP JUMP JUMPDEST PUSH0 PUSH1 0x8 DUP4 MUL PUSH2 0x623 PUSH32 0xFFFFFFFFFFFFFFFFFFFFFFFFFFFFFFFFFFFFFFFFFFFFFFFFFFFFFFFFFFFFFFFF DUP3 PUSH2 0x5E8 JUMP JUMPDEST PUSH2 0x62D DUP7 DUP4 PUSH2 0x5E8 JUMP JUMPDEST SWAP6 POP DUP1 NOT DUP5 AND SWAP4 POP DUP1 DUP7 AND DUP5 OR SWAP3 POP POP POP SWAP4 SWAP3 POP POP POP JUMP JUMPDEST PUSH0 DUP2 SWAP1 POP SWAP2 SWAP1 POP JUMP JUMPDEST PUSH0 PUSH2 0x668 PUSH2 0x663 PUSH2 0x65E DUP5 PUSH2 0x2DB JUMP JUMPDEST PUSH2 0x645 JUMP JUMPDEST PUSH2 0x2DB JUMP JUMPDEST SWAP1 POP SWAP2 SWAP1 POP JUMP JUMPDEST PUSH0 DUP2 SWAP1 POP SWAP2 SWAP1 POP JUMP JUMPDEST PUSH2 0x681 DUP4 PUSH2 0x64E JUMP JUMPDEST PUSH2 0x695 PUSH2 0x68D DUP3 PUSH2 0x66F JUMP JUMPDEST DUP5 DUP5 SLOAD PUSH2 0x5F4 JUMP JUMPDEST DUP3 SSTORE POP POP POP POP JUMP JUMPDEST PUSH0 PUSH0 SWAP1 POP SWAP1 JUMP JUMPDEST PUSH2 0x6AC PUSH2 0x69D JUMP JUMPDEST PUSH2 0x6B7 DUP2 DUP5 DUP5 PUSH2 0x678 JUMP JUMPDEST POP POP POP JUMP JUMPDEST JUMPDEST DUP2 DUP2 LT ISZERO PUSH2 0x6DA JUMPI PUSH2 0x6CF PUSH0 DUP3 PUSH2 0x6A4 JUMP JUMPDEST PUSH1 0x1 DUP2 ADD SWAP1 POP PUSH2 0x6BD JUMP JUMPDEST POP POP JUMP JUMPDEST PUSH1 0x1F DUP3 GT ISZERO PUSH2 0x71F JUMPI PUSH2 0x6F0 DUP2 PUSH2 0x5C7 JUMP JUMPDEST PUSH2 0x6F9 DUP5 PUSH2 0x5D9 JUMP JUMPDEST DUP2 ADD PUSH1 0x20 DUP6 LT ISZERO PUSH2 0x708 JUMPI DUP2 SWAP1 POP JUMPDEST PUSH2 0x71C PUSH2 0x714 DUP6 PUSH2 0x5D9 JUMP JUMPDEST DUP4 ADD DUP3 PUSH2 0x6BC JUMP JUMPDEST POP POP JUMPDEST POP POP POP JUMP JUMPDEST PUSH0 DUP3 DUP3 SHR SWAP1 POP SWAP3 SWAP2 POP POP JUMP JUMPDEST PUSH0 PUSH2 0x73F PUSH0 NOT DUP5 PUSH1 0x8 MUL PUSH2 0x724 JUMP JUMPDEST NOT DUP1 DUP4 AND SWAP2 POP POP SWAP3 SWAP2 POP POP JUMP JUMPDEST PUSH0 PUSH2 0x757 DUP4 DUP4 PUSH2 0x730 JUMP JUMPDEST SWAP2 POP DUP3 PUSH1 0x2 MUL DUP3 OR SWAP1 POP SWAP3 SWAP2 POP POP JUMP JUMPDEST PUSH2 0x770 DUP3 PUSH2 0x26B JUMP JUMPDEST PUSH8 0xFFFFFFFFFFFFFFFF DUP2 GT ISZERO PUSH2 0x789 JUMPI PUSH2 0x788 PUSH2 0x364 JUMP JUMPDEST JUMPDEST PUSH2 0x793 DUP3 SLOAD PUSH2 0x597 JUMP JUMPDEST PUSH2 0x79E DUP3 DUP3 DUP6 PUSH2 0x6DE JUMP JUMPDEST PUSH0 PUSH1 0x20 SWAP1 POP PUSH1 0x1F DUP4 GT PUSH1 0x1 DUP2 EQ PUSH2 0x7CF JUMPI PUSH0 DUP5 ISZERO PUSH2 0x7BD JUMPI DUP3 DUP8 ADD MLOAD SWAP1 POP JUMPDEST PUSH2 0x7C7 DUP6 DUP3 PUSH2 0x74C JUMP JUMPDEST DUP7 SSTORE POP PUSH2 0x82E JUMP JUMPDEST PUSH1 0x1F NOT DUP5 AND PUSH2 0x7DD DUP7 PUSH2 0x5C7 JUMP JUMPDEST PUSH0 JUMPDEST DUP3 DUP2 LT ISZERO PUSH2 0x804 JUMPI DUP5 DUP10 ADD MLOAD DUP3 SSTORE PUSH1 0x1 DUP3 ADD SWAP2 POP PUSH1 0x20 DUP6 ADD SWAP5 POP PUSH1 0x20 DUP2 ADD SWAP1 POP PUSH2 0x7DF JUMP JUMPDEST DUP7 DUP4 LT ISZERO PUSH2 0x821 JUMPI DUP5 DUP10 ADD MLOAD PUSH2 0x81D PUSH1 0x1F DUP10 AND DUP3 PUSH2 0x730 JUMP JUMPDEST DUP4 SSTORE POP JUMPDEST PUSH1 0x1 PUSH1 0x2 DUP9 MUL ADD DUP9 SSTORE POP POP POP JUMPDEST POP POP POP POP POP POP JUMP INVALID LOG2 PUSH5 0x6970667358 0x22 SLT KECCAK256 LOG4 PUSH32 0x729AC02BC1170805DA5DD2D4100246418EF990A9E82663AD063D0E6C6B896473 PUSH16 0x6C634300081E00330000000000000000 "
				},
				"gasEstimates": {
					"creation": {
						"codeDepositCost": "431200",
						"executionCost": "466",
						"totalCost": "431666"
					},
					"external": {
						"add(string,string,uint256,string)": "infinite",
						"retrieve()": "infinite"
					}
				},
				"methodIdentifiers": {
					"add(string,string,uint256,string)": "4187a17d",
					"retrieve()": "2e64cec1"
				}
			},
			"storageLayout": {
				"storage": [
					{
						"astId": 3,
						"contract": "Tessa/day02-SaveMyName.sol:SaveMyName",
						"label": "name",
						"offset": 0,
						"slot": "0",
						"type": "t_string_storage"
					},
					{
						"astId": 5,
						"contract": "Tessa/day02-SaveMyName.sol:SaveMyName",
						"label": "bio",
						"offset": 0,
						"slot": "1",
						"type": "t_string_storage"
					},
					{
						"astId": 7,
						"contract": "Tessa/day02-SaveMyName.sol:SaveMyName",
						"label": "age",
						"offset": 0,
						"slot": "2",
						"type": "t_uint256"
					},
					{
						"astId": 9,
						"contract": "Tessa/day02-SaveMyName.sol:SaveMyName",
						"label": "job",
						"offset": 0,
						"slot": "3",
						"type": "t_string_storage"
					}
				],
				"types": {
					"t_string_storage": {
						"encoding": "bytes",
						"label": "string",
						"numberOfBytes": "32"
					},
					"t_uint256": {
						"encoding": "inplace",
						"label": "uint256",
						"numberOfBytes": "32"
					}
				}
			},
			"userdoc": {
				"kind": "user",
				"methods": {},
				"version": 1
			}
		}
	}
}