{
	"Tessa/day15-GasEfficientVoting.sol": {
		"GasEfficientVoting": {
			"abi": [
				{
					"anonymous": false,
					"inputs": [
						{
							"indexed": true,
							"internalType": "uint8",
							"name": "proposalId",
							"type": "uint8"
						},
						{
							"indexed": false,
							"internalType": "bytes32",
							"name": "name",
							"type": "bytes32"
						}
					],
					"name": "ProposalCreated",
					"type": "event"
				},
				{
					"anonymous": false,
					"inputs": [
						{
							"indexed": true,
							"internalType": "uint8",
							"name": "proposalId",
							"type": "uint8"
						}
					],
					"name": "ProposalExecuted",
					"type": "event"
				},
				{
					"anonymous": false,
					"inputs": [
						{
							"indexed": true,
							"internalType": "address",
							"name": "voter",
							"type": "address"
						},
						{
							"indexed": true,
							"internalType": "uint8",
							"name": "proposalId",
							"type": "uint8"
						}
					],
					"name": "Voted",
					"type": "event"
				},
				{
					"inputs": [
						{
							"internalType": "bytes32",
							"name": "_name",
							"type": "bytes32"
						},
						{
							"internalType": "uint32",
							"name": "duration",
							"type": "uint32"
						}
					],
					"name": "createProposal",
					"outputs": [],
					"stateMutability": "nonpayable",
					"type": "function"
				},
				{
					"inputs": [
						{
							"internalType": "uint8",
							"name": "proposalId",
							"type": "uint8"
						}
					],
					"name": "executeProposal",
					"outputs": [],
					"stateMutability": "nonpayable",
					"type": "function"
				},
				{
					"inputs": [
						{
							"internalType": "uint8",
							"name": "proposalId",
							"type": "uint8"
						}
					],
					"name": "getProposal",
					"outputs": [
						{
							"internalType": "bytes32",
							"name": "name",
							"type": "bytes32"
						},
						{
							"internalType": "uint32",
							"name": "voteCount",
							"type": "uint32"
						},
						{
							"internalType": "uint32",
							"name": "startTime",
							"type": "uint32"
						},
						{
							"internalType": "uint32",
							"name": "endTime",
							"type": "uint32"
						},
						{
							"internalType": "bool",
							"name": "executed",
							"type": "bool"
						},
						{
							"internalType": "bool",
							"name": "active",
							"type": "bool"
						}
					],
					"stateMutability": "view",
					"type": "function"
				},
				{
					"inputs": [
						{
							"internalType": "address",
							"name": "voter",
							"type": "address"
						},
						{
							"internalType": "uint8",
							"name": "proposalId",
							"type": "uint8"
						}
					],
					"name": "hasVoted",
					"outputs": [
						{
							"internalType": "bool",
							"name": "",
							"type": "bool"
						}
					],
					"stateMutability": "view",
					"type": "function"
				},
				{
					"inputs": [],
					"name": "proposalCount",
					"outputs": [
						{
							"internalType": "uint8",
							"name": "",
							"type": "uint8"
						}
					],
					"stateMutability": "view",
					"type": "function"
				},
				{
					"inputs": [
						{
							"internalType": "uint8",
							"name": "",
							"type": "uint8"
						}
					],
					"name": "proposalVoterCount",
					"outputs": [
						{
							"internalType": "uint32",
							"name": "",
							"type": "uint32"
						}
					],
					"stateMutability": "view",
					"type": "function"
				},
				{
					"inputs": [
						{
							"internalType": "uint8",
							"name": "",
							"type": "uint8"
						}
					],
					"name": "proposals",
					"outputs": [
						{
							"internalType": "bytes32",
							"name": "name",
							"type": "bytes32"
						},
						{
							"internalType": "uint32",
							"name": "voteCount",
							"type": "uint32"
						},
						{
							"internalType": "uint32",
							"name": "startTime",
							"type": "uint32"
						},
						{
							"internalType": "uint32",
							"name": "endTime",
							"type": "uint32"
						},
						{
							"internalType": "bool",
							"name": "executed",
							"type": "bool"
						}
					],
					"stateMutability": "view",
					"type": "function"
				},
				{
					"inputs": [
						{
							"internalType": "uint8",
							"name": "proposalId",
							"type": "uint8"
						}
					],
					"name": "vote",
					"outputs": [],
					"stateMutability": "nonpayable",
					"type": "function"
				}
			],
			"devdoc": {
				"kind": "dev",
				"methods": {},
				"version": 1
			},
			"evm": {
				"assembly": "    /* \"Tessa/day15-GasEfficientVoting.sol\":96:4862  contract GasEfficientVoting{    //投票系统（省gas版）... */\n  mstore(0x40, 0x80)\n  callvalue\n  dup1\n  iszero\n  tag_1\n  jumpi\n  revert(0x00, 0x00)\ntag_1:\n  pop\n  dataSize(sub_0)\n  dup1\n  dataOffset(sub_0)\n  0x00\n  codecopy\n  0x00\n  return\nstop\n\nsub_0: assembly {\n        /* \"Tessa/day15-GasEfficientVoting.sol\":96:4862  contract GasEfficientVoting{    //投票系统（省gas版）... */\n      mstore(0x40, 0x80)\n      callvalue\n      dup1\n      iszero\n      tag_1\n      jumpi\n      revert(0x00, 0x00)\n    tag_1:\n      pop\n      jumpi(tag_2, lt(calldatasize, 0x04))\n      shr(0xe0, calldataload(0x00))\n      dup1\n      0xb62f72f3\n      gt\n      tag_11\n      jumpi\n      dup1\n      0xb62f72f3\n      eq\n      tag_7\n      jumpi\n      dup1\n      0xd3c6a0f2\n      eq\n      tag_8\n      jumpi\n      dup1\n      0xda35c664\n      eq\n      tag_9\n      jumpi\n      dup1\n      0xdac001fe\n      eq\n      tag_10\n      jumpi\n      jump(tag_2)\n    tag_11:\n      dup1\n      0x59aef53c\n      eq\n      tag_3\n      jumpi\n      dup1\n      0x6760b1c0\n      eq\n      tag_4\n      jumpi\n      dup1\n      0x84acf0f5\n      eq\n      tag_5\n      jumpi\n      dup1\n      0xb3f98adc\n      eq\n      tag_6\n      jumpi\n    tag_2:\n      revert(0x00, 0x00)\n        /* \"Tessa/day15-GasEfficientVoting.sol\":1365:2159  function createProposal(bytes32 _name, uint32 duration) external{... */\n    tag_3:\n      tag_12\n      0x04\n      dup1\n      calldatasize\n      sub\n      dup2\n      add\n      swap1\n      tag_13\n      swap2\n      swap1\n      tag_14\n      jump\t// in\n    tag_13:\n      tag_15\n      jump\t// in\n    tag_12:\n      stop\n        /* \"Tessa/day15-GasEfficientVoting.sol\":958:1007  mapping(uint8 => uint32)public proposalVoterCount */\n    tag_4:\n      tag_16\n      0x04\n      dup1\n      calldatasize\n      sub\n      dup2\n      add\n      swap1\n      tag_17\n      swap2\n      swap1\n      tag_18\n      jump\t// in\n    tag_17:\n      tag_19\n      jump\t// in\n    tag_16:\n      mload(0x40)\n      tag_20\n      swap2\n      swap1\n      tag_21\n      jump\t// in\n    tag_20:\n      mload(0x40)\n      dup1\n      swap2\n      sub\n      swap1\n      return\n        /* \"Tessa/day15-GasEfficientVoting.sol\":748:791  mapping(uint8 => Proposal) public proposals */\n    tag_5:\n      tag_22\n      0x04\n      dup1\n      calldatasize\n      sub\n      dup2\n      add\n      swap1\n      tag_23\n      swap2\n      swap1\n      tag_18\n      jump\t// in\n    tag_23:\n      tag_24\n      jump\t// in\n    tag_22:\n      mload(0x40)\n      tag_25\n      swap6\n      swap5\n      swap4\n      swap3\n      swap2\n      swap1\n      tag_26\n      jump\t// in\n    tag_25:\n      mload(0x40)\n      dup1\n      swap2\n      sub\n      swap1\n      return\n        /* \"Tessa/day15-GasEfficientVoting.sol\":2200:3349  function vote(uint8 proposalId) external{... */\n    tag_6:\n      tag_27\n      0x04\n      dup1\n      calldatasize\n      sub\n      dup2\n      add\n      swap1\n      tag_28\n      swap2\n      swap1\n      tag_18\n      jump\t// in\n    tag_28:\n      tag_29\n      jump\t// in\n    tag_27:\n      stop\n        /* \"Tessa/day15-GasEfficientVoting.sol\":3420:3903  function executeProposal(uint8 proposalId) external {... */\n    tag_7:\n      tag_30\n      0x04\n      dup1\n      calldatasize\n      sub\n      dup2\n      add\n      swap1\n      tag_31\n      swap2\n      swap1\n      tag_18\n      jump\t// in\n    tag_31:\n      tag_32\n      jump\t// in\n    tag_30:\n      stop\n        /* \"Tessa/day15-GasEfficientVoting.sol\":3968:4117  function hasVoted(address voter, uint8 proposalId)external view returns(bool){... */\n    tag_8:\n      tag_33\n      0x04\n      dup1\n      calldatasize\n      sub\n      dup2\n      add\n      swap1\n      tag_34\n      swap2\n      swap1\n      tag_35\n      jump\t// in\n    tag_34:\n      tag_36\n      jump\t// in\n    tag_33:\n      mload(0x40)\n      tag_37\n      swap2\n      swap1\n      tag_38\n      jump\t// in\n    tag_37:\n      mload(0x40)\n      dup1\n      swap2\n      sub\n      swap1\n      return\n        /* \"Tessa/day15-GasEfficientVoting.sol\":165:191  uint8 public proposalCount */\n    tag_9:\n      tag_39\n      tag_40\n      jump\t// in\n    tag_39:\n      mload(0x40)\n      tag_41\n      swap2\n      swap1\n      tag_42\n      jump\t// in\n    tag_41:\n      mload(0x40)\n      dup1\n      swap2\n      sub\n      swap1\n      return\n        /* \"Tessa/day15-GasEfficientVoting.sol\":4163:4859  function getProposal(uint8 proposalId) external view returns (... */\n    tag_10:\n      tag_43\n      0x04\n      dup1\n      calldatasize\n      sub\n      dup2\n      add\n      swap1\n      tag_44\n      swap2\n      swap1\n      tag_18\n      jump\t// in\n    tag_44:\n      tag_45\n      jump\t// in\n    tag_43:\n      mload(0x40)\n      tag_46\n      swap7\n      swap6\n      swap5\n      swap4\n      swap3\n      swap2\n      swap1\n      tag_47\n      jump\t// in\n    tag_46:\n      mload(0x40)\n      dup1\n      swap2\n      sub\n      swap1\n      return\n        /* \"Tessa/day15-GasEfficientVoting.sol\":1365:2159  function createProposal(bytes32 _name, uint32 duration) external{... */\n    tag_15:\n        /* \"Tessa/day15-GasEfficientVoting.sol\":1459:1460  0 */\n      0x00\n        /* \"Tessa/day15-GasEfficientVoting.sol\":1448:1456  duration */\n      dup2\n        /* \"Tessa/day15-GasEfficientVoting.sol\":1448:1460  duration > 0 */\n      0xffffffff\n      and\n      gt\n        /* \"Tessa/day15-GasEfficientVoting.sol\":1440:1496  require(duration > 0, \"Durations should be more than 0\") */\n      tag_49\n      jumpi\n      mload(0x40)\n      0x08c379a000000000000000000000000000000000000000000000000000000000\n      dup2\n      mstore\n      0x04\n      add\n      tag_50\n      swap1\n      tag_51\n      jump\t// in\n    tag_50:\n      mload(0x40)\n      dup1\n      swap2\n      sub\n      swap1\n      revert\n    tag_49:\n        /* \"Tessa/day15-GasEfficientVoting.sol\":1548:1564  uint8 proposalId */\n      0x00\n        /* \"Tessa/day15-GasEfficientVoting.sol\":1567:1580  proposalCount */\n      0x00\n      0x00\n      swap1\n      sload\n      swap1\n      0x0100\n      exp\n      swap1\n      div\n      0xff\n      and\n        /* \"Tessa/day15-GasEfficientVoting.sol\":1548:1580  uint8 proposalId = proposalCount */\n      swap1\n      pop\n        /* \"Tessa/day15-GasEfficientVoting.sol\":1615:1628  proposalCount */\n      0x00\n      0x00\n        /* \"Tessa/day15-GasEfficientVoting.sol\":1615:1630  proposalCount++ */\n      dup2\n      dup2\n      swap1\n      sload\n      swap1\n      0x0100\n      exp\n      swap1\n      div\n      0xff\n      and\n      dup1\n      swap3\n      swap2\n      swap1\n      tag_52\n      swap1\n      tag_53\n      jump\t// in\n    tag_52:\n      swap2\n      swap1\n      0x0100\n      exp\n      dup2\n      sload\n      dup2\n      0xff\n      mul\n      not\n      and\n      swap1\n      dup4\n      0xff\n      and\n      mul\n      or\n      swap1\n      sstore\n      pop\n      pop\n        /* \"Tessa/day15-GasEfficientVoting.sol\":1723:1750  Proposal memory newProposal */\n      0x00\n        /* \"Tessa/day15-GasEfficientVoting.sol\":1753:1988  Proposal({... */\n      mload(0x40)\n      dup1\n      0xa0\n      add\n      0x40\n      mstore\n      dup1\n        /* \"Tessa/day15-GasEfficientVoting.sol\":1783:1788  _name */\n      dup6\n        /* \"Tessa/day15-GasEfficientVoting.sol\":1753:1988  Proposal({... */\n      dup2\n      mstore\n      0x20\n      add\n        /* \"Tessa/day15-GasEfficientVoting.sol\":1814:1815  0 */\n      0x00\n        /* \"Tessa/day15-GasEfficientVoting.sol\":1753:1988  Proposal({... */\n      0xffffffff\n      and\n      dup2\n      mstore\n      0x20\n      add\n        /* \"Tessa/day15-GasEfficientVoting.sol\":1848:1863  block.timestamp */\n      timestamp\n        /* \"Tessa/day15-GasEfficientVoting.sol\":1753:1988  Proposal({... */\n      0xffffffff\n      and\n      dup2\n      mstore\n      0x20\n      add\n        /* \"Tessa/day15-GasEfficientVoting.sol\":1938:1946  duration */\n      dup5\n        /* \"Tessa/day15-GasEfficientVoting.sol\":1919:1934  block.timestamp */\n      timestamp\n        /* \"Tessa/day15-GasEfficientVoting.sol\":1912:1946  uint32(block.timestamp) + duration */\n      tag_54\n      swap2\n      swap1\n      tag_55\n      jump\t// in\n    tag_54:\n        /* \"Tessa/day15-GasEfficientVoting.sol\":1753:1988  Proposal({... */\n      0xffffffff\n      and\n      dup2\n      mstore\n      0x20\n      add\n        /* \"Tessa/day15-GasEfficientVoting.sol\":1971:1976  false */\n      0x00\n        /* \"Tessa/day15-GasEfficientVoting.sol\":1753:1988  Proposal({... */\n      iszero\n      iszero\n      dup2\n      mstore\n      pop\n        /* \"Tessa/day15-GasEfficientVoting.sol\":1723:1988  Proposal memory newProposal = Proposal({... */\n      swap1\n      pop\n        /* \"Tessa/day15-GasEfficientVoting.sol\":2023:2034  newProposal */\n      dup1\n        /* \"Tessa/day15-GasEfficientVoting.sol\":1999:2008  proposals */\n      0x01\n        /* \"Tessa/day15-GasEfficientVoting.sol\":1999:2020  proposals[proposalId] */\n      0x00\n        /* \"Tessa/day15-GasEfficientVoting.sol\":2009:2019  proposalId */\n      dup5\n        /* \"Tessa/day15-GasEfficientVoting.sol\":1999:2020  proposals[proposalId] */\n      0xff\n      and\n      0xff\n      and\n      dup2\n      mstore\n      0x20\n      add\n      swap1\n      dup2\n      mstore\n      0x20\n      add\n      0x00\n      keccak256\n        /* \"Tessa/day15-GasEfficientVoting.sol\":1999:2034  proposals[proposalId] = newProposal */\n      0x00\n      dup3\n      add\n      mload\n      dup2\n      0x00\n      add\n      sstore\n      0x20\n      dup3\n      add\n      mload\n      dup2\n      0x01\n      add\n      exp(0x0100, 0x00)\n      dup2\n      sload\n      dup2\n      0xffffffff\n      mul\n      not\n      and\n      swap1\n      dup4\n      0xffffffff\n      and\n      mul\n      or\n      swap1\n      sstore\n      pop\n      0x40\n      dup3\n      add\n      mload\n      dup2\n      0x01\n      add\n      exp(0x0100, 0x04)\n      dup2\n      sload\n      dup2\n      0xffffffff\n      mul\n      not\n      and\n      swap1\n      dup4\n      0xffffffff\n      and\n      mul\n      or\n      swap1\n      sstore\n      pop\n      0x60\n      dup3\n      add\n      mload\n      dup2\n      0x01\n      add\n      exp(0x0100, 0x08)\n      dup2\n      sload\n      dup2\n      0xffffffff\n      mul\n      not\n      and\n      swap1\n      dup4\n      0xffffffff\n      and\n      mul\n      or\n      swap1\n      sstore\n      pop\n      0x80\n      dup3\n      add\n      mload\n      dup2\n      0x01\n      add\n      exp(0x0100, 0x0c)\n      dup2\n      sload\n      dup2\n      0xff\n      mul\n      not\n      and\n      swap1\n      dup4\n      iszero\n      iszero\n      mul\n      or\n      swap1\n      sstore\n      pop\n      swap1\n      pop\n      pop\n        /* \"Tessa/day15-GasEfficientVoting.sol\":2100:2110  proposalId */\n      dup2\n        /* \"Tessa/day15-GasEfficientVoting.sol\":2084:2118  ProposalCreated(proposalId, _name) */\n      0xff\n      and\n      0x778068a8b34cd2ab006c1c96cd8b819623539c5979eea060167a8376ab51ae26\n        /* \"Tessa/day15-GasEfficientVoting.sol\":2112:2117  _name */\n      dup6\n        /* \"Tessa/day15-GasEfficientVoting.sol\":2084:2118  ProposalCreated(proposalId, _name) */\n      mload(0x40)\n      tag_56\n      swap2\n      swap1\n      tag_57\n      jump\t// in\n    tag_56:\n      mload(0x40)\n      dup1\n      swap2\n      sub\n      swap1\n      log2\n        /* \"Tessa/day15-GasEfficientVoting.sol\":1429:2159  {... */\n      pop\n      pop\n        /* \"Tessa/day15-GasEfficientVoting.sol\":1365:2159  function createProposal(bytes32 _name, uint32 duration) external{... */\n      pop\n      pop\n      jump\t// out\n        /* \"Tessa/day15-GasEfficientVoting.sol\":958:1007  mapping(uint8 => uint32)public proposalVoterCount */\n    tag_19:\n      mstore(0x20, 0x03)\n      dup1\n      0x00\n      mstore\n      keccak256(0x00, 0x40)\n      0x00\n      swap2\n      pop\n      sload\n      swap1\n      0x0100\n      exp\n      swap1\n      div\n      0xffffffff\n      and\n      dup2\n      jump\t// out\n        /* \"Tessa/day15-GasEfficientVoting.sol\":748:791  mapping(uint8 => Proposal) public proposals */\n    tag_24:\n      mstore(0x20, 0x01)\n      dup1\n      0x00\n      mstore\n      keccak256(0x00, 0x40)\n      0x00\n      swap2\n      pop\n      swap1\n      pop\n      dup1\n      0x00\n      add\n      sload\n      swap1\n      dup1\n      0x01\n      add\n      0x00\n      swap1\n      sload\n      swap1\n      0x0100\n      exp\n      swap1\n      div\n      0xffffffff\n      and\n      swap1\n      dup1\n      0x01\n      add\n      0x04\n      swap1\n      sload\n      swap1\n      0x0100\n      exp\n      swap1\n      div\n      0xffffffff\n      and\n      swap1\n      dup1\n      0x01\n      add\n      0x08\n      swap1\n      sload\n      swap1\n      0x0100\n      exp\n      swap1\n      div\n      0xffffffff\n      and\n      swap1\n      dup1\n      0x01\n      add\n      0x0c\n      swap1\n      sload\n      swap1\n      0x0100\n      exp\n      swap1\n      div\n      0xff\n      and\n      swap1\n      pop\n      dup6\n      jump\t// out\n        /* \"Tessa/day15-GasEfficientVoting.sol\":2200:3349  function vote(uint8 proposalId) external{... */\n    tag_29:\n        /* \"Tessa/day15-GasEfficientVoting.sol\":2272:2285  proposalCount */\n      0x00\n      0x00\n      swap1\n      sload\n      swap1\n      0x0100\n      exp\n      swap1\n      div\n      0xff\n      and\n        /* \"Tessa/day15-GasEfficientVoting.sol\":2259:2285  proposalId < proposalCount */\n      0xff\n      and\n        /* \"Tessa/day15-GasEfficientVoting.sol\":2259:2269  proposalId */\n      dup2\n        /* \"Tessa/day15-GasEfficientVoting.sol\":2259:2285  proposalId < proposalCount */\n      0xff\n      and\n      lt\n        /* \"Tessa/day15-GasEfficientVoting.sol\":2251:2306  require(proposalId < proposalCount, \"Invalid Proposal\") */\n      tag_59\n      jumpi\n      mload(0x40)\n      0x08c379a000000000000000000000000000000000000000000000000000000000\n      dup2\n      mstore\n      0x04\n      add\n      tag_60\n      swap1\n      tag_61\n      jump\t// in\n    tag_60:\n      mload(0x40)\n      dup1\n      swap2\n      sub\n      swap1\n      revert\n    tag_59:\n        /* \"Tessa/day15-GasEfficientVoting.sol\":2381:2399  uint32 currentTime */\n      0x00\n        /* \"Tessa/day15-GasEfficientVoting.sol\":2409:2424  block.timestamp */\n      timestamp\n        /* \"Tessa/day15-GasEfficientVoting.sol\":2381:2425  uint32 currentTime = uint32(block.timestamp) */\n      swap1\n      pop\n        /* \"Tessa/day15-GasEfficientVoting.sol\":2459:2468  proposals */\n      0x01\n        /* \"Tessa/day15-GasEfficientVoting.sol\":2459:2480  proposals[proposalId] */\n      0x00\n        /* \"Tessa/day15-GasEfficientVoting.sol\":2469:2479  proposalId */\n      dup4\n        /* \"Tessa/day15-GasEfficientVoting.sol\":2459:2480  proposals[proposalId] */\n      0xff\n      and\n      0xff\n      and\n      dup2\n      mstore\n      0x20\n      add\n      swap1\n      dup2\n      mstore\n      0x20\n      add\n      0x00\n      keccak256\n        /* \"Tessa/day15-GasEfficientVoting.sol\":2459:2490  proposals[proposalId].startTime */\n      0x01\n      add\n      0x04\n      swap1\n      sload\n      swap1\n      0x0100\n      exp\n      swap1\n      div\n      0xffffffff\n      and\n        /* \"Tessa/day15-GasEfficientVoting.sol\":2444:2490  currentTime >= proposals[proposalId].startTime */\n      0xffffffff\n      and\n        /* \"Tessa/day15-GasEfficientVoting.sol\":2444:2455  currentTime */\n      dup2\n        /* \"Tessa/day15-GasEfficientVoting.sol\":2444:2490  currentTime >= proposals[proposalId].startTime */\n      0xffffffff\n      and\n      lt\n      iszero\n        /* \"Tessa/day15-GasEfficientVoting.sol\":2436:2516  require(currentTime >= proposals[proposalId].startTime,\"Voting has not started\") */\n      tag_62\n      jumpi\n      mload(0x40)\n      0x08c379a000000000000000000000000000000000000000000000000000000000\n      dup2\n      mstore\n      0x04\n      add\n      tag_63\n      swap1\n      tag_64\n      jump\t// in\n    tag_63:\n      mload(0x40)\n      dup1\n      swap2\n      sub\n      swap1\n      revert\n    tag_62:\n        /* \"Tessa/day15-GasEfficientVoting.sol\":2593:2602  proposals */\n      0x01\n        /* \"Tessa/day15-GasEfficientVoting.sol\":2593:2614  proposals[proposalId] */\n      0x00\n        /* \"Tessa/day15-GasEfficientVoting.sol\":2603:2613  proposalId */\n      dup4\n        /* \"Tessa/day15-GasEfficientVoting.sol\":2593:2614  proposals[proposalId] */\n      0xff\n      and\n      0xff\n      and\n      dup2\n      mstore\n      0x20\n      add\n      swap1\n      dup2\n      mstore\n      0x20\n      add\n      0x00\n      keccak256\n        /* \"Tessa/day15-GasEfficientVoting.sol\":2593:2622  proposals[proposalId].endTime */\n      0x01\n      add\n      0x08\n      swap1\n      sload\n      swap1\n      0x0100\n      exp\n      swap1\n      div\n      0xffffffff\n      and\n        /* \"Tessa/day15-GasEfficientVoting.sol\":2578:2622  currentTime <= proposals[proposalId].endTime */\n      0xffffffff\n      and\n        /* \"Tessa/day15-GasEfficientVoting.sol\":2578:2589  currentTime */\n      dup2\n        /* \"Tessa/day15-GasEfficientVoting.sol\":2578:2622  currentTime <= proposals[proposalId].endTime */\n      0xffffffff\n      and\n      gt\n      iszero\n        /* \"Tessa/day15-GasEfficientVoting.sol\":2570:2643  require(currentTime <= proposals[proposalId].endTime, \"Voting has ended\") */\n      tag_65\n      jumpi\n      mload(0x40)\n      0x08c379a000000000000000000000000000000000000000000000000000000000\n      dup2\n      mstore\n      0x04\n      add\n      tag_66\n      swap1\n      tag_67\n      jump\t// in\n    tag_66:\n      mload(0x40)\n      dup1\n      swap2\n      sub\n      swap1\n      revert\n    tag_65:\n        /* \"Tessa/day15-GasEfficientVoting.sol\":2696:2713  uint256 voterData */\n      0x00\n        /* \"Tessa/day15-GasEfficientVoting.sol\":2716:2729  voterRegistry */\n      0x02\n        /* \"Tessa/day15-GasEfficientVoting.sol\":2716:2741  voterRegistry[msg.sender] */\n      0x00\n        /* \"Tessa/day15-GasEfficientVoting.sol\":2730:2740  msg.sender */\n      caller\n        /* \"Tessa/day15-GasEfficientVoting.sol\":2716:2741  voterRegistry[msg.sender] */\n      0xffffffffffffffffffffffffffffffffffffffff\n      and\n      0xffffffffffffffffffffffffffffffffffffffff\n      and\n      dup2\n      mstore\n      0x20\n      add\n      swap1\n      dup2\n      mstore\n      0x20\n      add\n      0x00\n      keccak256\n      sload\n        /* \"Tessa/day15-GasEfficientVoting.sol\":2696:2741  uint256 voterData = voterRegistry[msg.sender] */\n      swap1\n      pop\n        /* \"Tessa/day15-GasEfficientVoting.sol\":2817:2829  uint256 mask */\n      0x00\n        /* \"Tessa/day15-GasEfficientVoting.sol\":2837:2847  proposalId */\n      dup4\n        /* \"Tessa/day15-GasEfficientVoting.sol\":2832:2847  1 << proposalId */\n      0xff\n      and\n        /* \"Tessa/day15-GasEfficientVoting.sol\":2832:2833  1 */\n      0x01\n        /* \"Tessa/day15-GasEfficientVoting.sol\":2832:2847  1 << proposalId */\n      swap1\n      shl\n        /* \"Tessa/day15-GasEfficientVoting.sol\":2817:2847  uint256 mask = 1 << proposalId */\n      swap1\n      pop\n        /* \"Tessa/day15-GasEfficientVoting.sol\":2951:2952  0 */\n      0x00\n        /* \"Tessa/day15-GasEfficientVoting.sol\":2942:2946  mask */\n      dup2\n        /* \"Tessa/day15-GasEfficientVoting.sol\":2914:2927  voterRegistry */\n      0x02\n        /* \"Tessa/day15-GasEfficientVoting.sol\":2914:2939  voterRegistry[msg.sender] */\n      0x00\n        /* \"Tessa/day15-GasEfficientVoting.sol\":2928:2938  msg.sender */\n      caller\n        /* \"Tessa/day15-GasEfficientVoting.sol\":2914:2939  voterRegistry[msg.sender] */\n      0xffffffffffffffffffffffffffffffffffffffff\n      and\n      0xffffffffffffffffffffffffffffffffffffffff\n      and\n      dup2\n      mstore\n      0x20\n      add\n      swap1\n      dup2\n      mstore\n      0x20\n      add\n      0x00\n      keccak256\n      sload\n        /* \"Tessa/day15-GasEfficientVoting.sol\":2914:2946  voterRegistry[msg.sender] & mask */\n      and\n        /* \"Tessa/day15-GasEfficientVoting.sol\":2913:2952  (voterRegistry[msg.sender] & mask) == 0 */\n      eq\n        /* \"Tessa/day15-GasEfficientVoting.sol\":2905:2970  require((voterRegistry[msg.sender] & mask) == 0, \"Already voted\") */\n      tag_68\n      jumpi\n      mload(0x40)\n      0x08c379a000000000000000000000000000000000000000000000000000000000\n      dup2\n      mstore\n      0x04\n      add\n      tag_69\n      swap1\n      tag_70\n      jump\t// in\n    tag_69:\n      mload(0x40)\n      dup1\n      swap2\n      sub\n      swap1\n      revert\n    tag_68:\n        /* \"Tessa/day15-GasEfficientVoting.sol\":3081:3085  mask */\n      dup1\n        /* \"Tessa/day15-GasEfficientVoting.sol\":3069:3078  voterData */\n      dup3\n        /* \"Tessa/day15-GasEfficientVoting.sol\":3069:3085  voterData | mask */\n      or\n        /* \"Tessa/day15-GasEfficientVoting.sol\":3041:3054  voterRegistry */\n      0x02\n        /* \"Tessa/day15-GasEfficientVoting.sol\":3041:3066  voterRegistry[msg.sender] */\n      0x00\n        /* \"Tessa/day15-GasEfficientVoting.sol\":3055:3065  msg.sender */\n      caller\n        /* \"Tessa/day15-GasEfficientVoting.sol\":3041:3066  voterRegistry[msg.sender] */\n      0xffffffffffffffffffffffffffffffffffffffff\n      and\n      0xffffffffffffffffffffffffffffffffffffffff\n      and\n      dup2\n      mstore\n      0x20\n      add\n      swap1\n      dup2\n      mstore\n      0x20\n      add\n      0x00\n      keccak256\n        /* \"Tessa/day15-GasEfficientVoting.sol\":3041:3085  voterRegistry[msg.sender] = voterData | mask */\n      dup2\n      swap1\n      sstore\n      pop\n        /* \"Tessa/day15-GasEfficientVoting.sol\":3129:3138  proposals */\n      0x01\n        /* \"Tessa/day15-GasEfficientVoting.sol\":3129:3150  proposals[proposalId] */\n      0x00\n        /* \"Tessa/day15-GasEfficientVoting.sol\":3139:3149  proposalId */\n      dup6\n        /* \"Tessa/day15-GasEfficientVoting.sol\":3129:3150  proposals[proposalId] */\n      0xff\n      and\n      0xff\n      and\n      dup2\n      mstore\n      0x20\n      add\n      swap1\n      dup2\n      mstore\n      0x20\n      add\n      0x00\n      keccak256\n        /* \"Tessa/day15-GasEfficientVoting.sol\":3129:3160  proposals[proposalId].voteCount */\n      0x01\n      add\n      0x00\n        /* \"Tessa/day15-GasEfficientVoting.sol\":3129:3162  proposals[proposalId].voteCount++ */\n      dup2\n      dup2\n      swap1\n      sload\n      swap1\n      0x0100\n      exp\n      swap1\n      div\n      0xffffffff\n      and\n      dup1\n      swap3\n      swap2\n      swap1\n      tag_71\n      swap1\n      tag_72\n      jump\t// in\n    tag_71:\n      swap2\n      swap1\n      0x0100\n      exp\n      dup2\n      sload\n      dup2\n      0xffffffff\n      mul\n      not\n      and\n      swap1\n      dup4\n      0xffffffff\n      and\n      mul\n      or\n      swap1\n      sstore\n      pop\n      pop\n        /* \"Tessa/day15-GasEfficientVoting.sol\":3191:3209  proposalVoterCount */\n      0x03\n        /* \"Tessa/day15-GasEfficientVoting.sol\":3191:3221  proposalVoterCount[proposalId] */\n      0x00\n        /* \"Tessa/day15-GasEfficientVoting.sol\":3210:3220  proposalId */\n      dup6\n        /* \"Tessa/day15-GasEfficientVoting.sol\":3191:3221  proposalVoterCount[proposalId] */\n      0xff\n      and\n      0xff\n      and\n      dup2\n      mstore\n      0x20\n      add\n      swap1\n      dup2\n      mstore\n      0x20\n      add\n      0x00\n      keccak256\n      0x00\n        /* \"Tessa/day15-GasEfficientVoting.sol\":3191:3223  proposalVoterCount[proposalId]++ */\n      dup2\n      dup2\n      swap1\n      sload\n      swap1\n      0x0100\n      exp\n      swap1\n      div\n      0xffffffff\n      and\n      dup1\n      swap3\n      swap2\n      swap1\n      tag_73\n      swap1\n      tag_72\n      jump\t// in\n    tag_73:\n      swap2\n      swap1\n      0x0100\n      exp\n      dup2\n      sload\n      dup2\n      0xffffffff\n      mul\n      not\n      and\n      swap1\n      dup4\n      0xffffffff\n      and\n      mul\n      or\n      swap1\n      sstore\n      pop\n      pop\n        /* \"Tessa/day15-GasEfficientVoting.sol\":3282:3292  proposalId */\n      dup4\n        /* \"Tessa/day15-GasEfficientVoting.sol\":3265:3293  Voted(msg.sender,proposalId) */\n      0xff\n      and\n        /* \"Tessa/day15-GasEfficientVoting.sol\":3271:3281  msg.sender */\n      caller\n        /* \"Tessa/day15-GasEfficientVoting.sol\":3265:3293  Voted(msg.sender,proposalId) */\n      0xffffffffffffffffffffffffffffffffffffffff\n      and\n      0x14075e33dffdc00c1fcaf75d0f86d667170be57fb566b12b41b499e5fa53b125\n      mload(0x40)\n      mload(0x40)\n      dup1\n      swap2\n      sub\n      swap1\n      log3\n        /* \"Tessa/day15-GasEfficientVoting.sol\":2240:3349  {... */\n      pop\n      pop\n      pop\n        /* \"Tessa/day15-GasEfficientVoting.sol\":2200:3349  function vote(uint8 proposalId) external{... */\n      pop\n      jump\t// out\n        /* \"Tessa/day15-GasEfficientVoting.sol\":3420:3903  function executeProposal(uint8 proposalId) external {... */\n    tag_32:\n        /* \"Tessa/day15-GasEfficientVoting.sol\":3504:3517  proposalCount */\n      0x00\n      0x00\n      swap1\n      sload\n      swap1\n      0x0100\n      exp\n      swap1\n      div\n      0xff\n      and\n        /* \"Tessa/day15-GasEfficientVoting.sol\":3491:3517  proposalId < proposalCount */\n      0xff\n      and\n        /* \"Tessa/day15-GasEfficientVoting.sol\":3491:3501  proposalId */\n      dup2\n        /* \"Tessa/day15-GasEfficientVoting.sol\":3491:3517  proposalId < proposalCount */\n      0xff\n      and\n      lt\n        /* \"Tessa/day15-GasEfficientVoting.sol\":3483:3538  require(proposalId < proposalCount, \"Invalid Proposal\") */\n      tag_75\n      jumpi\n      mload(0x40)\n      0x08c379a000000000000000000000000000000000000000000000000000000000\n      dup2\n      mstore\n      0x04\n      add\n      tag_76\n      swap1\n      tag_61\n      jump\t// in\n    tag_76:\n      mload(0x40)\n      dup1\n      swap2\n      sub\n      swap1\n      revert\n    tag_75:\n        /* \"Tessa/day15-GasEfficientVoting.sol\":3575:3584  proposals */\n      0x01\n        /* \"Tessa/day15-GasEfficientVoting.sol\":3575:3596  proposals[proposalId] */\n      0x00\n        /* \"Tessa/day15-GasEfficientVoting.sol\":3585:3595  proposalId */\n      dup3\n        /* \"Tessa/day15-GasEfficientVoting.sol\":3575:3596  proposals[proposalId] */\n      0xff\n      and\n      0xff\n      and\n      dup2\n      mstore\n      0x20\n      add\n      swap1\n      dup2\n      mstore\n      0x20\n      add\n      0x00\n      keccak256\n        /* \"Tessa/day15-GasEfficientVoting.sol\":3575:3604  proposals[proposalId].endTime */\n      0x01\n      add\n      0x08\n      swap1\n      sload\n      swap1\n      0x0100\n      exp\n      swap1\n      div\n      0xffffffff\n      and\n        /* \"Tessa/day15-GasEfficientVoting.sol\":3557:3604  block.timestamp > proposals[proposalId].endTime */\n      0xffffffff\n      and\n        /* \"Tessa/day15-GasEfficientVoting.sol\":3557:3572  block.timestamp */\n      timestamp\n        /* \"Tessa/day15-GasEfficientVoting.sol\":3557:3604  block.timestamp > proposals[proposalId].endTime */\n      gt\n        /* \"Tessa/day15-GasEfficientVoting.sol\":3549:3628  require(block.timestamp > proposals[proposalId].endTime, \"Voting is not ended\") */\n      tag_77\n      jumpi\n      mload(0x40)\n      0x08c379a000000000000000000000000000000000000000000000000000000000\n      dup2\n      mstore\n      0x04\n      add\n      tag_78\n      swap1\n      tag_79\n      jump\t// in\n    tag_78:\n      mload(0x40)\n      dup1\n      swap2\n      sub\n      swap1\n      revert\n    tag_77:\n        /* \"Tessa/day15-GasEfficientVoting.sol\":3691:3700  proposals */\n      0x01\n        /* \"Tessa/day15-GasEfficientVoting.sol\":3691:3712  proposals[proposalId] */\n      0x00\n        /* \"Tessa/day15-GasEfficientVoting.sol\":3701:3711  proposalId */\n      dup3\n        /* \"Tessa/day15-GasEfficientVoting.sol\":3691:3712  proposals[proposalId] */\n      0xff\n      and\n      0xff\n      and\n      dup2\n      mstore\n      0x20\n      add\n      swap1\n      dup2\n      mstore\n      0x20\n      add\n      0x00\n      keccak256\n        /* \"Tessa/day15-GasEfficientVoting.sol\":3691:3721  proposals[proposalId].executed */\n      0x01\n      add\n      0x0c\n      swap1\n      sload\n      swap1\n      0x0100\n      exp\n      swap1\n      div\n      0xff\n      and\n        /* \"Tessa/day15-GasEfficientVoting.sol\":3690:3721  !proposals[proposalId].executed */\n      iszero\n        /* \"Tessa/day15-GasEfficientVoting.sol\":3682:3742  require(!proposals[proposalId].executed, \"Already executed\") */\n      tag_80\n      jumpi\n      mload(0x40)\n      0x08c379a000000000000000000000000000000000000000000000000000000000\n      dup2\n      mstore\n      0x04\n      add\n      tag_81\n      swap1\n      tag_82\n      jump\t// in\n    tag_81:\n      mload(0x40)\n      dup1\n      swap2\n      sub\n      swap1\n      revert\n    tag_80:\n        /* \"Tessa/day15-GasEfficientVoting.sol\":3829:3833  true */\n      0x01\n        /* \"Tessa/day15-GasEfficientVoting.sol\":3796:3805  proposals */\n      dup1\n        /* \"Tessa/day15-GasEfficientVoting.sol\":3796:3817  proposals[proposalId] */\n      0x00\n        /* \"Tessa/day15-GasEfficientVoting.sol\":3806:3816  proposalId */\n      dup4\n        /* \"Tessa/day15-GasEfficientVoting.sol\":3796:3817  proposals[proposalId] */\n      0xff\n      and\n      0xff\n      and\n      dup2\n      mstore\n      0x20\n      add\n      swap1\n      dup2\n      mstore\n      0x20\n      add\n      0x00\n      keccak256\n        /* \"Tessa/day15-GasEfficientVoting.sol\":3796:3826  proposals[proposalId].executed */\n      0x01\n      add\n      0x0c\n        /* \"Tessa/day15-GasEfficientVoting.sol\":3796:3833  proposals[proposalId].executed = true */\n      0x0100\n      exp\n      dup2\n      sload\n      dup2\n      0xff\n      mul\n      not\n      and\n      swap1\n      dup4\n      iszero\n      iszero\n      mul\n      or\n      swap1\n      sstore\n      pop\n        /* \"Tessa/day15-GasEfficientVoting.sol\":3884:3894  proposalId */\n      dup1\n        /* \"Tessa/day15-GasEfficientVoting.sol\":3867:3895  ProposalExecuted(proposalId) */\n      0xff\n      and\n      0x51568d9f9e578f2e31bbe0b161f3bf7b8e5abfbe4f2a1e41d2af5052a4fe5368\n      mload(0x40)\n      mload(0x40)\n      dup1\n      swap2\n      sub\n      swap1\n      log2\n        /* \"Tessa/day15-GasEfficientVoting.sol\":3420:3903  function executeProposal(uint8 proposalId) external {... */\n      pop\n      jump\t// out\n        /* \"Tessa/day15-GasEfficientVoting.sol\":3968:4117  function hasVoted(address voter, uint8 proposalId)external view returns(bool){... */\n    tag_36:\n        /* \"Tessa/day15-GasEfficientVoting.sol\":4040:4044  bool */\n      0x00\n        /* \"Tessa/day15-GasEfficientVoting.sol\":4107:4108  0 */\n      0x00\n        /* \"Tessa/day15-GasEfficientVoting.sol\":4092:4102  proposalId */\n      dup3\n        /* \"Tessa/day15-GasEfficientVoting.sol\":4087:4102  1 << proposalId */\n      0xff\n      and\n        /* \"Tessa/day15-GasEfficientVoting.sol\":4087:4088  1 */\n      0x01\n        /* \"Tessa/day15-GasEfficientVoting.sol\":4087:4102  1 << proposalId */\n      swap1\n      shl\n        /* \"Tessa/day15-GasEfficientVoting.sol\":4063:4076  voterRegistry */\n      0x02\n        /* \"Tessa/day15-GasEfficientVoting.sol\":4063:4083  voterRegistry[voter] */\n      0x00\n        /* \"Tessa/day15-GasEfficientVoting.sol\":4077:4082  voter */\n      dup7\n        /* \"Tessa/day15-GasEfficientVoting.sol\":4063:4083  voterRegistry[voter] */\n      0xffffffffffffffffffffffffffffffffffffffff\n      and\n      0xffffffffffffffffffffffffffffffffffffffff\n      and\n      dup2\n      mstore\n      0x20\n      add\n      swap1\n      dup2\n      mstore\n      0x20\n      add\n      0x00\n      keccak256\n      sload\n        /* \"Tessa/day15-GasEfficientVoting.sol\":4063:4103  voterRegistry[voter] & (1 << proposalId) */\n      and\n        /* \"Tessa/day15-GasEfficientVoting.sol\":4063:4108  voterRegistry[voter] & (1 << proposalId) != 0 */\n      eq\n      iszero\n        /* \"Tessa/day15-GasEfficientVoting.sol\":4056:4109  return(voterRegistry[voter] & (1 << proposalId) != 0) */\n      swap1\n      pop\n        /* \"Tessa/day15-GasEfficientVoting.sol\":3968:4117  function hasVoted(address voter, uint8 proposalId)external view returns(bool){... */\n      swap3\n      swap2\n      pop\n      pop\n      jump\t// out\n        /* \"Tessa/day15-GasEfficientVoting.sol\":165:191  uint8 public proposalCount */\n    tag_40:\n      0x00\n      0x00\n      swap1\n      sload\n      swap1\n      0x0100\n      exp\n      swap1\n      div\n      0xff\n      and\n      dup2\n      jump\t// out\n        /* \"Tessa/day15-GasEfficientVoting.sol\":4163:4859  function getProposal(uint8 proposalId) external view returns (... */\n    tag_45:\n        /* \"Tessa/day15-GasEfficientVoting.sol\":4235:4247  bytes32 name */\n      0x00\n        /* \"Tessa/day15-GasEfficientVoting.sol\":4258:4274  uint32 voteCount */\n      0x00\n        /* \"Tessa/day15-GasEfficientVoting.sol\":4297:4313  uint32 startTime */\n      0x00\n        /* \"Tessa/day15-GasEfficientVoting.sol\":4324:4338  uint32 endTime */\n      0x00\n        /* \"Tessa/day15-GasEfficientVoting.sol\":4349:4362  bool executed */\n      0x00\n        /* \"Tessa/day15-GasEfficientVoting.sol\":4391:4402  bool active */\n      0x00\n        /* \"Tessa/day15-GasEfficientVoting.sol\":4464:4477  proposalCount */\n      0x00\n      0x00\n      swap1\n      sload\n      swap1\n      0x0100\n      exp\n      swap1\n      div\n      0xff\n      and\n        /* \"Tessa/day15-GasEfficientVoting.sol\":4451:4477  proposalId < proposalCount */\n      0xff\n      and\n        /* \"Tessa/day15-GasEfficientVoting.sol\":4451:4461  proposalId */\n      dup8\n        /* \"Tessa/day15-GasEfficientVoting.sol\":4451:4477  proposalId < proposalCount */\n      0xff\n      and\n      lt\n        /* \"Tessa/day15-GasEfficientVoting.sol\":4443:4498  require(proposalId < proposalCount, \"Invalid proposal\") */\n      tag_85\n      jumpi\n      mload(0x40)\n      0x08c379a000000000000000000000000000000000000000000000000000000000\n      dup2\n      mstore\n      0x04\n      add\n      tag_86\n      swap1\n      tag_87\n      jump\t// in\n    tag_86:\n      mload(0x40)\n      dup1\n      swap2\n      sub\n      swap1\n      revert\n    tag_85:\n        /* \"Tessa/day15-GasEfficientVoting.sol\":4507:4532  Proposal storage proposal */\n      0x00\n        /* \"Tessa/day15-GasEfficientVoting.sol\":4535:4544  proposals */\n      0x01\n        /* \"Tessa/day15-GasEfficientVoting.sol\":4535:4556  proposals[proposalId] */\n      0x00\n        /* \"Tessa/day15-GasEfficientVoting.sol\":4545:4555  proposalId */\n      dup10\n        /* \"Tessa/day15-GasEfficientVoting.sol\":4535:4556  proposals[proposalId] */\n      0xff\n      and\n      0xff\n      and\n      dup2\n      mstore\n      0x20\n      add\n      swap1\n      dup2\n      mstore\n      0x20\n      add\n      0x00\n      keccak256\n        /* \"Tessa/day15-GasEfficientVoting.sol\":4507:4556  Proposal storage proposal = proposals[proposalId] */\n      swap1\n      pop\n        /* \"Tessa/day15-GasEfficientVoting.sol\":4580:4588  proposal */\n      dup1\n        /* \"Tessa/day15-GasEfficientVoting.sol\":4580:4593  proposal.name */\n      0x00\n      add\n      sload\n        /* \"Tessa/day15-GasEfficientVoting.sol\":4604:4612  proposal */\n      dup2\n        /* \"Tessa/day15-GasEfficientVoting.sol\":4604:4622  proposal.voteCount */\n      0x01\n      add\n      0x00\n      swap1\n      sload\n      swap1\n      0x0100\n      exp\n      swap1\n      div\n      0xffffffff\n      and\n        /* \"Tessa/day15-GasEfficientVoting.sol\":4633:4641  proposal */\n      dup3\n        /* \"Tessa/day15-GasEfficientVoting.sol\":4633:4651  proposal.startTime */\n      0x01\n      add\n      0x04\n      swap1\n      sload\n      swap1\n      0x0100\n      exp\n      swap1\n      div\n      0xffffffff\n      and\n        /* \"Tessa/day15-GasEfficientVoting.sol\":4662:4670  proposal */\n      dup4\n        /* \"Tessa/day15-GasEfficientVoting.sol\":4662:4678  proposal.endTime */\n      0x01\n      add\n      0x08\n      swap1\n      sload\n      swap1\n      0x0100\n      exp\n      swap1\n      div\n      0xffffffff\n      and\n        /* \"Tessa/day15-GasEfficientVoting.sol\":4689:4697  proposal */\n      dup5\n        /* \"Tessa/day15-GasEfficientVoting.sol\":4689:4706  proposal.executed */\n      0x01\n      add\n      0x0c\n      swap1\n      sload\n      swap1\n      0x0100\n      exp\n      swap1\n      div\n      0xff\n      and\n        /* \"Tessa/day15-GasEfficientVoting.sol\":4737:4745  proposal */\n      dup6\n        /* \"Tessa/day15-GasEfficientVoting.sol\":4737:4755  proposal.startTime */\n      0x01\n      add\n      0x04\n      swap1\n      sload\n      swap1\n      0x0100\n      exp\n      swap1\n      div\n      0xffffffff\n      and\n        /* \"Tessa/day15-GasEfficientVoting.sol\":4718:4755  block.timestamp >= proposal.startTime */\n      0xffffffff\n      and\n        /* \"Tessa/day15-GasEfficientVoting.sol\":4718:4733  block.timestamp */\n      timestamp\n        /* \"Tessa/day15-GasEfficientVoting.sol\":4718:4755  block.timestamp >= proposal.startTime */\n      lt\n      iszero\n        /* \"Tessa/day15-GasEfficientVoting.sol\":4718:4794  block.timestamp >= proposal.startTime && block.timestamp <= proposal.endTime */\n      dup1\n      iszero\n      tag_88\n      jumpi\n      pop\n        /* \"Tessa/day15-GasEfficientVoting.sol\":4778:4786  proposal */\n      dup6\n        /* \"Tessa/day15-GasEfficientVoting.sol\":4778:4794  proposal.endTime */\n      0x01\n      add\n      0x08\n      swap1\n      sload\n      swap1\n      0x0100\n      exp\n      swap1\n      div\n      0xffffffff\n      and\n        /* \"Tessa/day15-GasEfficientVoting.sol\":4759:4794  block.timestamp <= proposal.endTime */\n      0xffffffff\n      and\n        /* \"Tessa/day15-GasEfficientVoting.sol\":4759:4774  block.timestamp */\n      timestamp\n        /* \"Tessa/day15-GasEfficientVoting.sol\":4759:4794  block.timestamp <= proposal.endTime */\n      gt\n      iszero\n        /* \"Tessa/day15-GasEfficientVoting.sol\":4718:4794  block.timestamp >= proposal.startTime && block.timestamp <= proposal.endTime */\n    tag_88:\n        /* \"Tessa/day15-GasEfficientVoting.sol\":4563:4853  return(... */\n      swap7\n      pop\n      swap7\n      pop\n      swap7\n      pop\n      swap7\n      pop\n      swap7\n      pop\n      swap7\n      pop\n      pop\n        /* \"Tessa/day15-GasEfficientVoting.sol\":4163:4859  function getProposal(uint8 proposalId) external view returns (... */\n      swap2\n      swap4\n      swap6\n      pop\n      swap2\n      swap4\n      swap6\n      jump\t// out\n        /* \"#utility.yul\":88:205   */\n    tag_90:\n        /* \"#utility.yul\":197:198   */\n      0x00\n        /* \"#utility.yul\":194:195   */\n      0x00\n        /* \"#utility.yul\":187:199   */\n      revert\n        /* \"#utility.yul\":334:411   */\n    tag_92:\n        /* \"#utility.yul\":371:378   */\n      0x00\n        /* \"#utility.yul\":400:405   */\n      dup2\n        /* \"#utility.yul\":389:405   */\n      swap1\n      pop\n        /* \"#utility.yul\":334:411   */\n      swap2\n      swap1\n      pop\n      jump\t// out\n        /* \"#utility.yul\":417:539   */\n    tag_93:\n        /* \"#utility.yul\":490:514   */\n      tag_134\n        /* \"#utility.yul\":508:513   */\n      dup2\n        /* \"#utility.yul\":490:514   */\n      tag_92\n      jump\t// in\n    tag_134:\n        /* \"#utility.yul\":483:488   */\n      dup2\n        /* \"#utility.yul\":480:515   */\n      eq\n        /* \"#utility.yul\":470:533   */\n      tag_135\n      jumpi\n        /* \"#utility.yul\":529:530   */\n      0x00\n        /* \"#utility.yul\":526:527   */\n      0x00\n        /* \"#utility.yul\":519:531   */\n      revert\n        /* \"#utility.yul\":470:533   */\n    tag_135:\n        /* \"#utility.yul\":417:539   */\n      pop\n      jump\t// out\n        /* \"#utility.yul\":545:684   */\n    tag_94:\n        /* \"#utility.yul\":591:596   */\n      0x00\n        /* \"#utility.yul\":629:635   */\n      dup2\n        /* \"#utility.yul\":616:636   */\n      calldataload\n        /* \"#utility.yul\":607:636   */\n      swap1\n      pop\n        /* \"#utility.yul\":645:678   */\n      tag_137\n        /* \"#utility.yul\":672:677   */\n      dup2\n        /* \"#utility.yul\":645:678   */\n      tag_93\n      jump\t// in\n    tag_137:\n        /* \"#utility.yul\":545:684   */\n      swap3\n      swap2\n      pop\n      pop\n      jump\t// out\n        /* \"#utility.yul\":690:783   */\n    tag_95:\n        /* \"#utility.yul\":726:733   */\n      0x00\n        /* \"#utility.yul\":766:776   */\n      0xffffffff\n        /* \"#utility.yul\":759:764   */\n      dup3\n        /* \"#utility.yul\":755:777   */\n      and\n        /* \"#utility.yul\":744:777   */\n      swap1\n      pop\n        /* \"#utility.yul\":690:783   */\n      swap2\n      swap1\n      pop\n      jump\t// out\n        /* \"#utility.yul\":789:909   */\n    tag_96:\n        /* \"#utility.yul\":861:884   */\n      tag_140\n        /* \"#utility.yul\":878:883   */\n      dup2\n        /* \"#utility.yul\":861:884   */\n      tag_95\n      jump\t// in\n    tag_140:\n        /* \"#utility.yul\":854:859   */\n      dup2\n        /* \"#utility.yul\":851:885   */\n      eq\n        /* \"#utility.yul\":841:903   */\n      tag_141\n      jumpi\n        /* \"#utility.yul\":899:900   */\n      0x00\n        /* \"#utility.yul\":896:897   */\n      0x00\n        /* \"#utility.yul\":889:901   */\n      revert\n        /* \"#utility.yul\":841:903   */\n    tag_141:\n        /* \"#utility.yul\":789:909   */\n      pop\n      jump\t// out\n        /* \"#utility.yul\":915:1052   */\n    tag_97:\n        /* \"#utility.yul\":960:965   */\n      0x00\n        /* \"#utility.yul\":998:1004   */\n      dup2\n        /* \"#utility.yul\":985:1005   */\n      calldataload\n        /* \"#utility.yul\":976:1005   */\n      swap1\n      pop\n        /* \"#utility.yul\":1014:1046   */\n      tag_143\n        /* \"#utility.yul\":1040:1045   */\n      dup2\n        /* \"#utility.yul\":1014:1046   */\n      tag_96\n      jump\t// in\n    tag_143:\n        /* \"#utility.yul\":915:1052   */\n      swap3\n      swap2\n      pop\n      pop\n      jump\t// out\n        /* \"#utility.yul\":1058:1530   */\n    tag_14:\n        /* \"#utility.yul\":1125:1131   */\n      0x00\n        /* \"#utility.yul\":1133:1139   */\n      0x00\n        /* \"#utility.yul\":1182:1184   */\n      0x40\n        /* \"#utility.yul\":1170:1179   */\n      dup4\n        /* \"#utility.yul\":1161:1168   */\n      dup6\n        /* \"#utility.yul\":1157:1180   */\n      sub\n        /* \"#utility.yul\":1153:1185   */\n      slt\n        /* \"#utility.yul\":1150:1269   */\n      iszero\n      tag_145\n      jumpi\n        /* \"#utility.yul\":1188:1267   */\n      tag_146\n      tag_90\n      jump\t// in\n    tag_146:\n        /* \"#utility.yul\":1150:1269   */\n    tag_145:\n        /* \"#utility.yul\":1308:1309   */\n      0x00\n        /* \"#utility.yul\":1333:1386   */\n      tag_147\n        /* \"#utility.yul\":1378:1385   */\n      dup6\n        /* \"#utility.yul\":1369:1375   */\n      dup3\n        /* \"#utility.yul\":1358:1367   */\n      dup7\n        /* \"#utility.yul\":1354:1376   */\n      add\n        /* \"#utility.yul\":1333:1386   */\n      tag_94\n      jump\t// in\n    tag_147:\n        /* \"#utility.yul\":1323:1386   */\n      swap3\n      pop\n        /* \"#utility.yul\":1279:1396   */\n      pop\n        /* \"#utility.yul\":1435:1437   */\n      0x20\n        /* \"#utility.yul\":1461:1513   */\n      tag_148\n        /* \"#utility.yul\":1505:1512   */\n      dup6\n        /* \"#utility.yul\":1496:1502   */\n      dup3\n        /* \"#utility.yul\":1485:1494   */\n      dup7\n        /* \"#utility.yul\":1481:1503   */\n      add\n        /* \"#utility.yul\":1461:1513   */\n      tag_97\n      jump\t// in\n    tag_148:\n        /* \"#utility.yul\":1451:1513   */\n      swap2\n      pop\n        /* \"#utility.yul\":1406:1523   */\n      pop\n        /* \"#utility.yul\":1058:1530   */\n      swap3\n      pop\n      swap3\n      swap1\n      pop\n      jump\t// out\n        /* \"#utility.yul\":1536:1622   */\n    tag_98:\n        /* \"#utility.yul\":1571:1578   */\n      0x00\n        /* \"#utility.yul\":1611:1615   */\n      0xff\n        /* \"#utility.yul\":1604:1609   */\n      dup3\n        /* \"#utility.yul\":1600:1616   */\n      and\n        /* \"#utility.yul\":1589:1616   */\n      swap1\n      pop\n        /* \"#utility.yul\":1536:1622   */\n      swap2\n      swap1\n      pop\n      jump\t// out\n        /* \"#utility.yul\":1628:1746   */\n    tag_99:\n        /* \"#utility.yul\":1699:1721   */\n      tag_151\n        /* \"#utility.yul\":1715:1720   */\n      dup2\n        /* \"#utility.yul\":1699:1721   */\n      tag_98\n      jump\t// in\n    tag_151:\n        /* \"#utility.yul\":1692:1697   */\n      dup2\n        /* \"#utility.yul\":1689:1722   */\n      eq\n        /* \"#utility.yul\":1679:1740   */\n      tag_152\n      jumpi\n        /* \"#utility.yul\":1736:1737   */\n      0x00\n        /* \"#utility.yul\":1733:1734   */\n      0x00\n        /* \"#utility.yul\":1726:1738   */\n      revert\n        /* \"#utility.yul\":1679:1740   */\n    tag_152:\n        /* \"#utility.yul\":1628:1746   */\n      pop\n      jump\t// out\n        /* \"#utility.yul\":1752:1887   */\n    tag_100:\n        /* \"#utility.yul\":1796:1801   */\n      0x00\n        /* \"#utility.yul\":1834:1840   */\n      dup2\n        /* \"#utility.yul\":1821:1841   */\n      calldataload\n        /* \"#utility.yul\":1812:1841   */\n      swap1\n      pop\n        /* \"#utility.yul\":1850:1881   */\n      tag_154\n        /* \"#utility.yul\":1875:1880   */\n      dup2\n        /* \"#utility.yul\":1850:1881   */\n      tag_99\n      jump\t// in\n    tag_154:\n        /* \"#utility.yul\":1752:1887   */\n      swap3\n      swap2\n      pop\n      pop\n      jump\t// out\n        /* \"#utility.yul\":1893:2218   */\n    tag_18:\n        /* \"#utility.yul\":1950:1956   */\n      0x00\n        /* \"#utility.yul\":1999:2001   */\n      0x20\n        /* \"#utility.yul\":1987:1996   */\n      dup3\n        /* \"#utility.yul\":1978:1985   */\n      dup5\n        /* \"#utility.yul\":1974:1997   */\n      sub\n        /* \"#utility.yul\":1970:2002   */\n      slt\n        /* \"#utility.yul\":1967:2086   */\n      iszero\n      tag_156\n      jumpi\n        /* \"#utility.yul\":2005:2084   */\n      tag_157\n      tag_90\n      jump\t// in\n    tag_157:\n        /* \"#utility.yul\":1967:2086   */\n    tag_156:\n        /* \"#utility.yul\":2125:2126   */\n      0x00\n        /* \"#utility.yul\":2150:2201   */\n      tag_158\n        /* \"#utility.yul\":2193:2200   */\n      dup5\n        /* \"#utility.yul\":2184:2190   */\n      dup3\n        /* \"#utility.yul\":2173:2182   */\n      dup6\n        /* \"#utility.yul\":2169:2191   */\n      add\n        /* \"#utility.yul\":2150:2201   */\n      tag_100\n      jump\t// in\n    tag_158:\n        /* \"#utility.yul\":2140:2201   */\n      swap2\n      pop\n        /* \"#utility.yul\":2096:2211   */\n      pop\n        /* \"#utility.yul\":1893:2218   */\n      swap3\n      swap2\n      pop\n      pop\n      jump\t// out\n        /* \"#utility.yul\":2224:2339   */\n    tag_101:\n        /* \"#utility.yul\":2309:2332   */\n      tag_160\n        /* \"#utility.yul\":2326:2331   */\n      dup2\n        /* \"#utility.yul\":2309:2332   */\n      tag_95\n      jump\t// in\n    tag_160:\n        /* \"#utility.yul\":2304:2307   */\n      dup3\n        /* \"#utility.yul\":2297:2333   */\n      mstore\n        /* \"#utility.yul\":2224:2339   */\n      pop\n      pop\n      jump\t// out\n        /* \"#utility.yul\":2345:2563   */\n    tag_21:\n        /* \"#utility.yul\":2436:2440   */\n      0x00\n        /* \"#utility.yul\":2474:2476   */\n      0x20\n        /* \"#utility.yul\":2463:2472   */\n      dup3\n        /* \"#utility.yul\":2459:2477   */\n      add\n        /* \"#utility.yul\":2451:2477   */\n      swap1\n      pop\n        /* \"#utility.yul\":2487:2556   */\n      tag_162\n        /* \"#utility.yul\":2553:2554   */\n      0x00\n        /* \"#utility.yul\":2542:2551   */\n      dup4\n        /* \"#utility.yul\":2538:2555   */\n      add\n        /* \"#utility.yul\":2529:2535   */\n      dup5\n        /* \"#utility.yul\":2487:2556   */\n      tag_101\n      jump\t// in\n    tag_162:\n        /* \"#utility.yul\":2345:2563   */\n      swap3\n      swap2\n      pop\n      pop\n      jump\t// out\n        /* \"#utility.yul\":2569:2687   */\n    tag_102:\n        /* \"#utility.yul\":2656:2680   */\n      tag_164\n        /* \"#utility.yul\":2674:2679   */\n      dup2\n        /* \"#utility.yul\":2656:2680   */\n      tag_92\n      jump\t// in\n    tag_164:\n        /* \"#utility.yul\":2651:2654   */\n      dup3\n        /* \"#utility.yul\":2644:2681   */\n      mstore\n        /* \"#utility.yul\":2569:2687   */\n      pop\n      pop\n      jump\t// out\n        /* \"#utility.yul\":2693:2783   */\n    tag_103:\n        /* \"#utility.yul\":2727:2734   */\n      0x00\n        /* \"#utility.yul\":2770:2775   */\n      dup2\n        /* \"#utility.yul\":2763:2776   */\n      iszero\n        /* \"#utility.yul\":2756:2777   */\n      iszero\n        /* \"#utility.yul\":2745:2777   */\n      swap1\n      pop\n        /* \"#utility.yul\":2693:2783   */\n      swap2\n      swap1\n      pop\n      jump\t// out\n        /* \"#utility.yul\":2789:2898   */\n    tag_104:\n        /* \"#utility.yul\":2870:2891   */\n      tag_167\n        /* \"#utility.yul\":2885:2890   */\n      dup2\n        /* \"#utility.yul\":2870:2891   */\n      tag_103\n      jump\t// in\n    tag_167:\n        /* \"#utility.yul\":2865:2868   */\n      dup3\n        /* \"#utility.yul\":2858:2892   */\n      mstore\n        /* \"#utility.yul\":2789:2898   */\n      pop\n      pop\n      jump\t// out\n        /* \"#utility.yul\":2904:3544   */\n    tag_26:\n        /* \"#utility.yul\":3097:3101   */\n      0x00\n        /* \"#utility.yul\":3135:3138   */\n      0xa0\n        /* \"#utility.yul\":3124:3133   */\n      dup3\n        /* \"#utility.yul\":3120:3139   */\n      add\n        /* \"#utility.yul\":3112:3139   */\n      swap1\n      pop\n        /* \"#utility.yul\":3149:3220   */\n      tag_169\n        /* \"#utility.yul\":3217:3218   */\n      0x00\n        /* \"#utility.yul\":3206:3215   */\n      dup4\n        /* \"#utility.yul\":3202:3219   */\n      add\n        /* \"#utility.yul\":3193:3199   */\n      dup9\n        /* \"#utility.yul\":3149:3220   */\n      tag_102\n      jump\t// in\n    tag_169:\n        /* \"#utility.yul\":3230:3300   */\n      tag_170\n        /* \"#utility.yul\":3296:3298   */\n      0x20\n        /* \"#utility.yul\":3285:3294   */\n      dup4\n        /* \"#utility.yul\":3281:3299   */\n      add\n        /* \"#utility.yul\":3272:3278   */\n      dup8\n        /* \"#utility.yul\":3230:3300   */\n      tag_101\n      jump\t// in\n    tag_170:\n        /* \"#utility.yul\":3310:3380   */\n      tag_171\n        /* \"#utility.yul\":3376:3378   */\n      0x40\n        /* \"#utility.yul\":3365:3374   */\n      dup4\n        /* \"#utility.yul\":3361:3379   */\n      add\n        /* \"#utility.yul\":3352:3358   */\n      dup7\n        /* \"#utility.yul\":3310:3380   */\n      tag_101\n      jump\t// in\n    tag_171:\n        /* \"#utility.yul\":3390:3460   */\n      tag_172\n        /* \"#utility.yul\":3456:3458   */\n      0x60\n        /* \"#utility.yul\":3445:3454   */\n      dup4\n        /* \"#utility.yul\":3441:3459   */\n      add\n        /* \"#utility.yul\":3432:3438   */\n      dup6\n        /* \"#utility.yul\":3390:3460   */\n      tag_101\n      jump\t// in\n    tag_172:\n        /* \"#utility.yul\":3470:3537   */\n      tag_173\n        /* \"#utility.yul\":3532:3535   */\n      0x80\n        /* \"#utility.yul\":3521:3530   */\n      dup4\n        /* \"#utility.yul\":3517:3536   */\n      add\n        /* \"#utility.yul\":3508:3514   */\n      dup5\n        /* \"#utility.yul\":3470:3537   */\n      tag_104\n      jump\t// in\n    tag_173:\n        /* \"#utility.yul\":2904:3544   */\n      swap7\n      swap6\n      pop\n      pop\n      pop\n      pop\n      pop\n      pop\n      jump\t// out\n        /* \"#utility.yul\":3550:3676   */\n    tag_105:\n        /* \"#utility.yul\":3587:3594   */\n      0x00\n        /* \"#utility.yul\":3627:3669   */\n      0xffffffffffffffffffffffffffffffffffffffff\n        /* \"#utility.yul\":3620:3625   */\n      dup3\n        /* \"#utility.yul\":3616:3670   */\n      and\n        /* \"#utility.yul\":3605:3670   */\n      swap1\n      pop\n        /* \"#utility.yul\":3550:3676   */\n      swap2\n      swap1\n      pop\n      jump\t// out\n        /* \"#utility.yul\":3682:3778   */\n    tag_106:\n        /* \"#utility.yul\":3719:3726   */\n      0x00\n        /* \"#utility.yul\":3748:3772   */\n      tag_176\n        /* \"#utility.yul\":3766:3771   */\n      dup3\n        /* \"#utility.yul\":3748:3772   */\n      tag_105\n      jump\t// in\n    tag_176:\n        /* \"#utility.yul\":3737:3772   */\n      swap1\n      pop\n        /* \"#utility.yul\":3682:3778   */\n      swap2\n      swap1\n      pop\n      jump\t// out\n        /* \"#utility.yul\":3784:3906   */\n    tag_107:\n        /* \"#utility.yul\":3857:3881   */\n      tag_178\n        /* \"#utility.yul\":3875:3880   */\n      dup2\n        /* \"#utility.yul\":3857:3881   */\n      tag_106\n      jump\t// in\n    tag_178:\n        /* \"#utility.yul\":3850:3855   */\n      dup2\n        /* \"#utility.yul\":3847:3882   */\n      eq\n        /* \"#utility.yul\":3837:3900   */\n      tag_179\n      jumpi\n        /* \"#utility.yul\":3896:3897   */\n      0x00\n        /* \"#utility.yul\":3893:3894   */\n      0x00\n        /* \"#utility.yul\":3886:3898   */\n      revert\n        /* \"#utility.yul\":3837:3900   */\n    tag_179:\n        /* \"#utility.yul\":3784:3906   */\n      pop\n      jump\t// out\n        /* \"#utility.yul\":3912:4051   */\n    tag_108:\n        /* \"#utility.yul\":3958:3963   */\n      0x00\n        /* \"#utility.yul\":3996:4002   */\n      dup2\n        /* \"#utility.yul\":3983:4003   */\n      calldataload\n        /* \"#utility.yul\":3974:4003   */\n      swap1\n      pop\n        /* \"#utility.yul\":4012:4045   */\n      tag_181\n        /* \"#utility.yul\":4039:4044   */\n      dup2\n        /* \"#utility.yul\":4012:4045   */\n      tag_107\n      jump\t// in\n    tag_181:\n        /* \"#utility.yul\":3912:4051   */\n      swap3\n      swap2\n      pop\n      pop\n      jump\t// out\n        /* \"#utility.yul\":4057:4527   */\n    tag_35:\n        /* \"#utility.yul\":4123:4129   */\n      0x00\n        /* \"#utility.yul\":4131:4137   */\n      0x00\n        /* \"#utility.yul\":4180:4182   */\n      0x40\n        /* \"#utility.yul\":4168:4177   */\n      dup4\n        /* \"#utility.yul\":4159:4166   */\n      dup6\n        /* \"#utility.yul\":4155:4178   */\n      sub\n        /* \"#utility.yul\":4151:4183   */\n      slt\n        /* \"#utility.yul\":4148:4267   */\n      iszero\n      tag_183\n      jumpi\n        /* \"#utility.yul\":4186:4265   */\n      tag_184\n      tag_90\n      jump\t// in\n    tag_184:\n        /* \"#utility.yul\":4148:4267   */\n    tag_183:\n        /* \"#utility.yul\":4306:4307   */\n      0x00\n        /* \"#utility.yul\":4331:4384   */\n      tag_185\n        /* \"#utility.yul\":4376:4383   */\n      dup6\n        /* \"#utility.yul\":4367:4373   */\n      dup3\n        /* \"#utility.yul\":4356:4365   */\n      dup7\n        /* \"#utility.yul\":4352:4374   */\n      add\n        /* \"#utility.yul\":4331:4384   */\n      tag_108\n      jump\t// in\n    tag_185:\n        /* \"#utility.yul\":4321:4384   */\n      swap3\n      pop\n        /* \"#utility.yul\":4277:4394   */\n      pop\n        /* \"#utility.yul\":4433:4435   */\n      0x20\n        /* \"#utility.yul\":4459:4510   */\n      tag_186\n        /* \"#utility.yul\":4502:4509   */\n      dup6\n        /* \"#utility.yul\":4493:4499   */\n      dup3\n        /* \"#utility.yul\":4482:4491   */\n      dup7\n        /* \"#utility.yul\":4478:4500   */\n      add\n        /* \"#utility.yul\":4459:4510   */\n      tag_100\n      jump\t// in\n    tag_186:\n        /* \"#utility.yul\":4449:4510   */\n      swap2\n      pop\n        /* \"#utility.yul\":4404:4520   */\n      pop\n        /* \"#utility.yul\":4057:4527   */\n      swap3\n      pop\n      swap3\n      swap1\n      pop\n      jump\t// out\n        /* \"#utility.yul\":4533:4743   */\n    tag_38:\n        /* \"#utility.yul\":4620:4624   */\n      0x00\n        /* \"#utility.yul\":4658:4660   */\n      0x20\n        /* \"#utility.yul\":4647:4656   */\n      dup3\n        /* \"#utility.yul\":4643:4661   */\n      add\n        /* \"#utility.yul\":4635:4661   */\n      swap1\n      pop\n        /* \"#utility.yul\":4671:4736   */\n      tag_188\n        /* \"#utility.yul\":4733:4734   */\n      0x00\n        /* \"#utility.yul\":4722:4731   */\n      dup4\n        /* \"#utility.yul\":4718:4735   */\n      add\n        /* \"#utility.yul\":4709:4715   */\n      dup5\n        /* \"#utility.yul\":4671:4736   */\n      tag_104\n      jump\t// in\n    tag_188:\n        /* \"#utility.yul\":4533:4743   */\n      swap3\n      swap2\n      pop\n      pop\n      jump\t// out\n        /* \"#utility.yul\":4749:4861   */\n    tag_109:\n        /* \"#utility.yul\":4832:4854   */\n      tag_190\n        /* \"#utility.yul\":4848:4853   */\n      dup2\n        /* \"#utility.yul\":4832:4854   */\n      tag_98\n      jump\t// in\n    tag_190:\n        /* \"#utility.yul\":4827:4830   */\n      dup3\n        /* \"#utility.yul\":4820:4855   */\n      mstore\n        /* \"#utility.yul\":4749:4861   */\n      pop\n      pop\n      jump\t// out\n        /* \"#utility.yul\":4867:5081   */\n    tag_42:\n        /* \"#utility.yul\":4956:4960   */\n      0x00\n        /* \"#utility.yul\":4994:4996   */\n      0x20\n        /* \"#utility.yul\":4983:4992   */\n      dup3\n        /* \"#utility.yul\":4979:4997   */\n      add\n        /* \"#utility.yul\":4971:4997   */\n      swap1\n      pop\n        /* \"#utility.yul\":5007:5074   */\n      tag_192\n        /* \"#utility.yul\":5071:5072   */\n      0x00\n        /* \"#utility.yul\":5060:5069   */\n      dup4\n        /* \"#utility.yul\":5056:5073   */\n      add\n        /* \"#utility.yul\":5047:5053   */\n      dup5\n        /* \"#utility.yul\":5007:5074   */\n      tag_109\n      jump\t// in\n    tag_192:\n        /* \"#utility.yul\":4867:5081   */\n      swap3\n      swap2\n      pop\n      pop\n      jump\t// out\n        /* \"#utility.yul\":5087:5826   */\n    tag_47:\n        /* \"#utility.yul\":5302:5306   */\n      0x00\n        /* \"#utility.yul\":5340:5343   */\n      0xc0\n        /* \"#utility.yul\":5329:5338   */\n      dup3\n        /* \"#utility.yul\":5325:5344   */\n      add\n        /* \"#utility.yul\":5317:5344   */\n      swap1\n      pop\n        /* \"#utility.yul\":5354:5425   */\n      tag_194\n        /* \"#utility.yul\":5422:5423   */\n      0x00\n        /* \"#utility.yul\":5411:5420   */\n      dup4\n        /* \"#utility.yul\":5407:5424   */\n      add\n        /* \"#utility.yul\":5398:5404   */\n      dup10\n        /* \"#utility.yul\":5354:5425   */\n      tag_102\n      jump\t// in\n    tag_194:\n        /* \"#utility.yul\":5435:5505   */\n      tag_195\n        /* \"#utility.yul\":5501:5503   */\n      0x20\n        /* \"#utility.yul\":5490:5499   */\n      dup4\n        /* \"#utility.yul\":5486:5504   */\n      add\n        /* \"#utility.yul\":5477:5483   */\n      dup9\n        /* \"#utility.yul\":5435:5505   */\n      tag_101\n      jump\t// in\n    tag_195:\n        /* \"#utility.yul\":5515:5585   */\n      tag_196\n        /* \"#utility.yul\":5581:5583   */\n      0x40\n        /* \"#utility.yul\":5570:5579   */\n      dup4\n        /* \"#utility.yul\":5566:5584   */\n      add\n        /* \"#utility.yul\":5557:5563   */\n      dup8\n        /* \"#utility.yul\":5515:5585   */\n      tag_101\n      jump\t// in\n    tag_196:\n        /* \"#utility.yul\":5595:5665   */\n      tag_197\n        /* \"#utility.yul\":5661:5663   */\n      0x60\n        /* \"#utility.yul\":5650:5659   */\n      dup4\n        /* \"#utility.yul\":5646:5664   */\n      add\n        /* \"#utility.yul\":5637:5643   */\n      dup7\n        /* \"#utility.yul\":5595:5665   */\n      tag_101\n      jump\t// in\n    tag_197:\n        /* \"#utility.yul\":5675:5742   */\n      tag_198\n        /* \"#utility.yul\":5737:5740   */\n      0x80\n        /* \"#utility.yul\":5726:5735   */\n      dup4\n        /* \"#utility.yul\":5722:5741   */\n      add\n        /* \"#utility.yul\":5713:5719   */\n      dup6\n        /* \"#utility.yul\":5675:5742   */\n      tag_104\n      jump\t// in\n    tag_198:\n        /* \"#utility.yul\":5752:5819   */\n      tag_199\n        /* \"#utility.yul\":5814:5817   */\n      0xa0\n        /* \"#utility.yul\":5803:5812   */\n      dup4\n        /* \"#utility.yul\":5799:5818   */\n      add\n        /* \"#utility.yul\":5790:5796   */\n      dup5\n        /* \"#utility.yul\":5752:5819   */\n      tag_104\n      jump\t// in\n    tag_199:\n        /* \"#utility.yul\":5087:5826   */\n      swap8\n      swap7\n      pop\n      pop\n      pop\n      pop\n      pop\n      pop\n      pop\n      jump\t// out\n        /* \"#utility.yul\":5832:6001   */\n    tag_110:\n        /* \"#utility.yul\":5916:5927   */\n      0x00\n        /* \"#utility.yul\":5950:5956   */\n      dup3\n        /* \"#utility.yul\":5945:5948   */\n      dup3\n        /* \"#utility.yul\":5938:5957   */\n      mstore\n        /* \"#utility.yul\":5990:5994   */\n      0x20\n        /* \"#utility.yul\":5985:5988   */\n      dup3\n        /* \"#utility.yul\":5981:5995   */\n      add\n        /* \"#utility.yul\":5966:5995   */\n      swap1\n      pop\n        /* \"#utility.yul\":5832:6001   */\n      swap3\n      swap2\n      pop\n      pop\n      jump\t// out\n        /* \"#utility.yul\":6007:6188   */\n    tag_111:\n        /* \"#utility.yul\":6147:6180   */\n      0x4475726174696f6e732073686f756c64206265206d6f7265207468616e203000\n        /* \"#utility.yul\":6143:6144   */\n      0x00\n        /* \"#utility.yul\":6135:6141   */\n      dup3\n        /* \"#utility.yul\":6131:6145   */\n      add\n        /* \"#utility.yul\":6124:6181   */\n      mstore\n        /* \"#utility.yul\":6007:6188   */\n      pop\n      jump\t// out\n        /* \"#utility.yul\":6194:6560   */\n    tag_112:\n        /* \"#utility.yul\":6336:6339   */\n      0x00\n        /* \"#utility.yul\":6357:6424   */\n      tag_203\n        /* \"#utility.yul\":6421:6423   */\n      0x1f\n        /* \"#utility.yul\":6416:6419   */\n      dup4\n        /* \"#utility.yul\":6357:6424   */\n      tag_110\n      jump\t// in\n    tag_203:\n        /* \"#utility.yul\":6350:6424   */\n      swap2\n      pop\n        /* \"#utility.yul\":6433:6526   */\n      tag_204\n        /* \"#utility.yul\":6522:6525   */\n      dup3\n        /* \"#utility.yul\":6433:6526   */\n      tag_111\n      jump\t// in\n    tag_204:\n        /* \"#utility.yul\":6551:6553   */\n      0x20\n        /* \"#utility.yul\":6546:6549   */\n      dup3\n        /* \"#utility.yul\":6542:6554   */\n      add\n        /* \"#utility.yul\":6535:6554   */\n      swap1\n      pop\n        /* \"#utility.yul\":6194:6560   */\n      swap2\n      swap1\n      pop\n      jump\t// out\n        /* \"#utility.yul\":6566:6985   */\n    tag_51:\n        /* \"#utility.yul\":6732:6736   */\n      0x00\n        /* \"#utility.yul\":6770:6772   */\n      0x20\n        /* \"#utility.yul\":6759:6768   */\n      dup3\n        /* \"#utility.yul\":6755:6773   */\n      add\n        /* \"#utility.yul\":6747:6773   */\n      swap1\n      pop\n        /* \"#utility.yul\":6819:6828   */\n      dup2\n        /* \"#utility.yul\":6813:6817   */\n      dup2\n        /* \"#utility.yul\":6809:6829   */\n      sub\n        /* \"#utility.yul\":6805:6806   */\n      0x00\n        /* \"#utility.yul\":6794:6803   */\n      dup4\n        /* \"#utility.yul\":6790:6807   */\n      add\n        /* \"#utility.yul\":6783:6830   */\n      mstore\n        /* \"#utility.yul\":6847:6978   */\n      tag_206\n        /* \"#utility.yul\":6973:6977   */\n      dup2\n        /* \"#utility.yul\":6847:6978   */\n      tag_112\n      jump\t// in\n    tag_206:\n        /* \"#utility.yul\":6839:6978   */\n      swap1\n      pop\n        /* \"#utility.yul\":6566:6985   */\n      swap2\n      swap1\n      pop\n      jump\t// out\n        /* \"#utility.yul\":6991:7171   */\n    tag_113:\n        /* \"#utility.yul\":7039:7116   */\n      0x4e487b7100000000000000000000000000000000000000000000000000000000\n        /* \"#utility.yul\":7036:7037   */\n      0x00\n        /* \"#utility.yul\":7029:7117   */\n      mstore\n        /* \"#utility.yul\":7136:7140   */\n      0x11\n        /* \"#utility.yul\":7133:7134   */\n      0x04\n        /* \"#utility.yul\":7126:7141   */\n      mstore\n        /* \"#utility.yul\":7160:7164   */\n      0x24\n        /* \"#utility.yul\":7157:7158   */\n      0x00\n        /* \"#utility.yul\":7150:7165   */\n      revert\n        /* \"#utility.yul\":7177:7344   */\n    tag_53:\n        /* \"#utility.yul\":7214:7217   */\n      0x00\n        /* \"#utility.yul\":7237:7259   */\n      tag_209\n        /* \"#utility.yul\":7253:7258   */\n      dup3\n        /* \"#utility.yul\":7237:7259   */\n      tag_98\n      jump\t// in\n    tag_209:\n        /* \"#utility.yul\":7228:7259   */\n      swap2\n      pop\n        /* \"#utility.yul\":7281:7285   */\n      0xff\n        /* \"#utility.yul\":7274:7279   */\n      dup3\n        /* \"#utility.yul\":7271:7286   */\n      sub\n        /* \"#utility.yul\":7268:7309   */\n      tag_210\n      jumpi\n        /* \"#utility.yul\":7289:7307   */\n      tag_211\n      tag_113\n      jump\t// in\n    tag_211:\n        /* \"#utility.yul\":7268:7309   */\n    tag_210:\n        /* \"#utility.yul\":7336:7337   */\n      0x01\n        /* \"#utility.yul\":7329:7334   */\n      dup3\n        /* \"#utility.yul\":7325:7338   */\n      add\n        /* \"#utility.yul\":7318:7338   */\n      swap1\n      pop\n        /* \"#utility.yul\":7177:7344   */\n      swap2\n      swap1\n      pop\n      jump\t// out\n        /* \"#utility.yul\":7350:7547   */\n    tag_55:\n        /* \"#utility.yul\":7389:7392   */\n      0x00\n        /* \"#utility.yul\":7408:7427   */\n      tag_213\n        /* \"#utility.yul\":7425:7426   */\n      dup3\n        /* \"#utility.yul\":7408:7427   */\n      tag_95\n      jump\t// in\n    tag_213:\n        /* \"#utility.yul\":7403:7427   */\n      swap2\n      pop\n        /* \"#utility.yul\":7441:7460   */\n      tag_214\n        /* \"#utility.yul\":7458:7459   */\n      dup4\n        /* \"#utility.yul\":7441:7460   */\n      tag_95\n      jump\t// in\n    tag_214:\n        /* \"#utility.yul\":7436:7460   */\n      swap3\n      pop\n        /* \"#utility.yul\":7483:7484   */\n      dup3\n        /* \"#utility.yul\":7480:7481   */\n      dup3\n        /* \"#utility.yul\":7476:7485   */\n      add\n        /* \"#utility.yul\":7469:7485   */\n      swap1\n      pop\n        /* \"#utility.yul\":7506:7516   */\n      0xffffffff\n        /* \"#utility.yul\":7501:7504   */\n      dup2\n        /* \"#utility.yul\":7498:7517   */\n      gt\n        /* \"#utility.yul\":7495:7540   */\n      iszero\n      tag_215\n      jumpi\n        /* \"#utility.yul\":7520:7538   */\n      tag_216\n      tag_113\n      jump\t// in\n    tag_216:\n        /* \"#utility.yul\":7495:7540   */\n    tag_215:\n        /* \"#utility.yul\":7350:7547   */\n      swap3\n      swap2\n      pop\n      pop\n      jump\t// out\n        /* \"#utility.yul\":7553:7775   */\n    tag_57:\n        /* \"#utility.yul\":7646:7650   */\n      0x00\n        /* \"#utility.yul\":7684:7686   */\n      0x20\n        /* \"#utility.yul\":7673:7682   */\n      dup3\n        /* \"#utility.yul\":7669:7687   */\n      add\n        /* \"#utility.yul\":7661:7687   */\n      swap1\n      pop\n        /* \"#utility.yul\":7697:7768   */\n      tag_218\n        /* \"#utility.yul\":7765:7766   */\n      0x00\n        /* \"#utility.yul\":7754:7763   */\n      dup4\n        /* \"#utility.yul\":7750:7767   */\n      add\n        /* \"#utility.yul\":7741:7747   */\n      dup5\n        /* \"#utility.yul\":7697:7768   */\n      tag_102\n      jump\t// in\n    tag_218:\n        /* \"#utility.yul\":7553:7775   */\n      swap3\n      swap2\n      pop\n      pop\n      jump\t// out\n        /* \"#utility.yul\":7781:7947   */\n    tag_114:\n        /* \"#utility.yul\":7921:7939   */\n      0x496e76616c69642050726f706f73616c00000000000000000000000000000000\n        /* \"#utility.yul\":7917:7918   */\n      0x00\n        /* \"#utility.yul\":7909:7915   */\n      dup3\n        /* \"#utility.yul\":7905:7919   */\n      add\n        /* \"#utility.yul\":7898:7940   */\n      mstore\n        /* \"#utility.yul\":7781:7947   */\n      pop\n      jump\t// out\n        /* \"#utility.yul\":7953:8319   */\n    tag_115:\n        /* \"#utility.yul\":8095:8098   */\n      0x00\n        /* \"#utility.yul\":8116:8183   */\n      tag_221\n        /* \"#utility.yul\":8180:8182   */\n      0x10\n        /* \"#utility.yul\":8175:8178   */\n      dup4\n        /* \"#utility.yul\":8116:8183   */\n      tag_110\n      jump\t// in\n    tag_221:\n        /* \"#utility.yul\":8109:8183   */\n      swap2\n      pop\n        /* \"#utility.yul\":8192:8285   */\n      tag_222\n        /* \"#utility.yul\":8281:8284   */\n      dup3\n        /* \"#utility.yul\":8192:8285   */\n      tag_114\n      jump\t// in\n    tag_222:\n        /* \"#utility.yul\":8310:8312   */\n      0x20\n        /* \"#utility.yul\":8305:8308   */\n      dup3\n        /* \"#utility.yul\":8301:8313   */\n      add\n        /* \"#utility.yul\":8294:8313   */\n      swap1\n      pop\n        /* \"#utility.yul\":7953:8319   */\n      swap2\n      swap1\n      pop\n      jump\t// out\n        /* \"#utility.yul\":8325:8744   */\n    tag_61:\n        /* \"#utility.yul\":8491:8495   */\n      0x00\n        /* \"#utility.yul\":8529:8531   */\n      0x20\n        /* \"#utility.yul\":8518:8527   */\n      dup3\n        /* \"#utility.yul\":8514:8532   */\n      add\n        /* \"#utility.yul\":8506:8532   */\n      swap1\n      pop\n        /* \"#utility.yul\":8578:8587   */\n      dup2\n        /* \"#utility.yul\":8572:8576   */\n      dup2\n        /* \"#utility.yul\":8568:8588   */\n      sub\n        /* \"#utility.yul\":8564:8565   */\n      0x00\n        /* \"#utility.yul\":8553:8562   */\n      dup4\n        /* \"#utility.yul\":8549:8566   */\n      add\n        /* \"#utility.yul\":8542:8589   */\n      mstore\n        /* \"#utility.yul\":8606:8737   */\n      tag_224\n        /* \"#utility.yul\":8732:8736   */\n      dup2\n        /* \"#utility.yul\":8606:8737   */\n      tag_115\n      jump\t// in\n    tag_224:\n        /* \"#utility.yul\":8598:8737   */\n      swap1\n      pop\n        /* \"#utility.yul\":8325:8744   */\n      swap2\n      swap1\n      pop\n      jump\t// out\n        /* \"#utility.yul\":8750:8922   */\n    tag_116:\n        /* \"#utility.yul\":8890:8914   */\n      0x566f74696e6720686173206e6f74207374617274656400000000000000000000\n        /* \"#utility.yul\":8886:8887   */\n      0x00\n        /* \"#utility.yul\":8878:8884   */\n      dup3\n        /* \"#utility.yul\":8874:8888   */\n      add\n        /* \"#utility.yul\":8867:8915   */\n      mstore\n        /* \"#utility.yul\":8750:8922   */\n      pop\n      jump\t// out\n        /* \"#utility.yul\":8928:9294   */\n    tag_117:\n        /* \"#utility.yul\":9070:9073   */\n      0x00\n        /* \"#utility.yul\":9091:9158   */\n      tag_227\n        /* \"#utility.yul\":9155:9157   */\n      0x16\n        /* \"#utility.yul\":9150:9153   */\n      dup4\n        /* \"#utility.yul\":9091:9158   */\n      tag_110\n      jump\t// in\n    tag_227:\n        /* \"#utility.yul\":9084:9158   */\n      swap2\n      pop\n        /* \"#utility.yul\":9167:9260   */\n      tag_228\n        /* \"#utility.yul\":9256:9259   */\n      dup3\n        /* \"#utility.yul\":9167:9260   */\n      tag_116\n      jump\t// in\n    tag_228:\n        /* \"#utility.yul\":9285:9287   */\n      0x20\n        /* \"#utility.yul\":9280:9283   */\n      dup3\n        /* \"#utility.yul\":9276:9288   */\n      add\n        /* \"#utility.yul\":9269:9288   */\n      swap1\n      pop\n        /* \"#utility.yul\":8928:9294   */\n      swap2\n      swap1\n      pop\n      jump\t// out\n        /* \"#utility.yul\":9300:9719   */\n    tag_64:\n        /* \"#utility.yul\":9466:9470   */\n      0x00\n        /* \"#utility.yul\":9504:9506   */\n      0x20\n        /* \"#utility.yul\":9493:9502   */\n      dup3\n        /* \"#utility.yul\":9489:9507   */\n      add\n        /* \"#utility.yul\":9481:9507   */\n      swap1\n      pop\n        /* \"#utility.yul\":9553:9562   */\n      dup2\n        /* \"#utility.yul\":9547:9551   */\n      dup2\n        /* \"#utility.yul\":9543:9563   */\n      sub\n        /* \"#utility.yul\":9539:9540   */\n      0x00\n        /* \"#utility.yul\":9528:9537   */\n      dup4\n        /* \"#utility.yul\":9524:9541   */\n      add\n        /* \"#utility.yul\":9517:9564   */\n      mstore\n        /* \"#utility.yul\":9581:9712   */\n      tag_230\n        /* \"#utility.yul\":9707:9711   */\n      dup2\n        /* \"#utility.yul\":9581:9712   */\n      tag_117\n      jump\t// in\n    tag_230:\n        /* \"#utility.yul\":9573:9712   */\n      swap1\n      pop\n        /* \"#utility.yul\":9300:9719   */\n      swap2\n      swap1\n      pop\n      jump\t// out\n        /* \"#utility.yul\":9725:9891   */\n    tag_118:\n        /* \"#utility.yul\":9865:9883   */\n      0x566f74696e672068617320656e64656400000000000000000000000000000000\n        /* \"#utility.yul\":9861:9862   */\n      0x00\n        /* \"#utility.yul\":9853:9859   */\n      dup3\n        /* \"#utility.yul\":9849:9863   */\n      add\n        /* \"#utility.yul\":9842:9884   */\n      mstore\n        /* \"#utility.yul\":9725:9891   */\n      pop\n      jump\t// out\n        /* \"#utility.yul\":9897:10263   */\n    tag_119:\n        /* \"#utility.yul\":10039:10042   */\n      0x00\n        /* \"#utility.yul\":10060:10127   */\n      tag_233\n        /* \"#utility.yul\":10124:10126   */\n      0x10\n        /* \"#utility.yul\":10119:10122   */\n      dup4\n        /* \"#utility.yul\":10060:10127   */\n      tag_110\n      jump\t// in\n    tag_233:\n        /* \"#utility.yul\":10053:10127   */\n      swap2\n      pop\n        /* \"#utility.yul\":10136:10229   */\n      tag_234\n        /* \"#utility.yul\":10225:10228   */\n      dup3\n        /* \"#utility.yul\":10136:10229   */\n      tag_118\n      jump\t// in\n    tag_234:\n        /* \"#utility.yul\":10254:10256   */\n      0x20\n        /* \"#utility.yul\":10249:10252   */\n      dup3\n        /* \"#utility.yul\":10245:10257   */\n      add\n        /* \"#utility.yul\":10238:10257   */\n      swap1\n      pop\n        /* \"#utility.yul\":9897:10263   */\n      swap2\n      swap1\n      pop\n      jump\t// out\n        /* \"#utility.yul\":10269:10688   */\n    tag_67:\n        /* \"#utility.yul\":10435:10439   */\n      0x00\n        /* \"#utility.yul\":10473:10475   */\n      0x20\n        /* \"#utility.yul\":10462:10471   */\n      dup3\n        /* \"#utility.yul\":10458:10476   */\n      add\n        /* \"#utility.yul\":10450:10476   */\n      swap1\n      pop\n        /* \"#utility.yul\":10522:10531   */\n      dup2\n        /* \"#utility.yul\":10516:10520   */\n      dup2\n        /* \"#utility.yul\":10512:10532   */\n      sub\n        /* \"#utility.yul\":10508:10509   */\n      0x00\n        /* \"#utility.yul\":10497:10506   */\n      dup4\n        /* \"#utility.yul\":10493:10510   */\n      add\n        /* \"#utility.yul\":10486:10533   */\n      mstore\n        /* \"#utility.yul\":10550:10681   */\n      tag_236\n        /* \"#utility.yul\":10676:10680   */\n      dup2\n        /* \"#utility.yul\":10550:10681   */\n      tag_119\n      jump\t// in\n    tag_236:\n        /* \"#utility.yul\":10542:10681   */\n      swap1\n      pop\n        /* \"#utility.yul\":10269:10688   */\n      swap2\n      swap1\n      pop\n      jump\t// out\n        /* \"#utility.yul\":10694:10857   */\n    tag_120:\n        /* \"#utility.yul\":10834:10849   */\n      0x416c726561647920766f74656400000000000000000000000000000000000000\n        /* \"#utility.yul\":10830:10831   */\n      0x00\n        /* \"#utility.yul\":10822:10828   */\n      dup3\n        /* \"#utility.yul\":10818:10832   */\n      add\n        /* \"#utility.yul\":10811:10850   */\n      mstore\n        /* \"#utility.yul\":10694:10857   */\n      pop\n      jump\t// out\n        /* \"#utility.yul\":10863:11229   */\n    tag_121:\n        /* \"#utility.yul\":11005:11008   */\n      0x00\n        /* \"#utility.yul\":11026:11093   */\n      tag_239\n        /* \"#utility.yul\":11090:11092   */\n      0x0d\n        /* \"#utility.yul\":11085:11088   */\n      dup4\n        /* \"#utility.yul\":11026:11093   */\n      tag_110\n      jump\t// in\n    tag_239:\n        /* \"#utility.yul\":11019:11093   */\n      swap2\n      pop\n        /* \"#utility.yul\":11102:11195   */\n      tag_240\n        /* \"#utility.yul\":11191:11194   */\n      dup3\n        /* \"#utility.yul\":11102:11195   */\n      tag_120\n      jump\t// in\n    tag_240:\n        /* \"#utility.yul\":11220:11222   */\n      0x20\n        /* \"#utility.yul\":11215:11218   */\n      dup3\n        /* \"#utility.yul\":11211:11223   */\n      add\n        /* \"#utility.yul\":11204:11223   */\n      swap1\n      pop\n        /* \"#utility.yul\":10863:11229   */\n      swap2\n      swap1\n      pop\n      jump\t// out\n        /* \"#utility.yul\":11235:11654   */\n    tag_70:\n        /* \"#utility.yul\":11401:11405   */\n      0x00\n        /* \"#utility.yul\":11439:11441   */\n      0x20\n        /* \"#utility.yul\":11428:11437   */\n      dup3\n        /* \"#utility.yul\":11424:11442   */\n      add\n        /* \"#utility.yul\":11416:11442   */\n      swap1\n      pop\n        /* \"#utility.yul\":11488:11497   */\n      dup2\n        /* \"#utility.yul\":11482:11486   */\n      dup2\n        /* \"#utility.yul\":11478:11498   */\n      sub\n        /* \"#utility.yul\":11474:11475   */\n      0x00\n        /* \"#utility.yul\":11463:11472   */\n      dup4\n        /* \"#utility.yul\":11459:11476   */\n      add\n        /* \"#utility.yul\":11452:11499   */\n      mstore\n        /* \"#utility.yul\":11516:11647   */\n      tag_242\n        /* \"#utility.yul\":11642:11646   */\n      dup2\n        /* \"#utility.yul\":11516:11647   */\n      tag_121\n      jump\t// in\n    tag_242:\n        /* \"#utility.yul\":11508:11647   */\n      swap1\n      pop\n        /* \"#utility.yul\":11235:11654   */\n      swap2\n      swap1\n      pop\n      jump\t// out\n        /* \"#utility.yul\":11660:11835   */\n    tag_72:\n        /* \"#utility.yul\":11698:11701   */\n      0x00\n        /* \"#utility.yul\":11721:11744   */\n      tag_244\n        /* \"#utility.yul\":11738:11743   */\n      dup3\n        /* \"#utility.yul\":11721:11744   */\n      tag_95\n      jump\t// in\n    tag_244:\n        /* \"#utility.yul\":11712:11744   */\n      swap2\n      pop\n        /* \"#utility.yul\":11766:11776   */\n      0xffffffff\n        /* \"#utility.yul\":11759:11764   */\n      dup3\n        /* \"#utility.yul\":11756:11777   */\n      sub\n        /* \"#utility.yul\":11753:11800   */\n      tag_245\n      jumpi\n        /* \"#utility.yul\":11780:11798   */\n      tag_246\n      tag_113\n      jump\t// in\n    tag_246:\n        /* \"#utility.yul\":11753:11800   */\n    tag_245:\n        /* \"#utility.yul\":11827:11828   */\n      0x01\n        /* \"#utility.yul\":11820:11825   */\n      dup3\n        /* \"#utility.yul\":11816:11829   */\n      add\n        /* \"#utility.yul\":11809:11829   */\n      swap1\n      pop\n        /* \"#utility.yul\":11660:11835   */\n      swap2\n      swap1\n      pop\n      jump\t// out\n        /* \"#utility.yul\":11841:12010   */\n    tag_122:\n        /* \"#utility.yul\":11981:12002   */\n      0x566f74696e67206973206e6f7420656e64656400000000000000000000000000\n        /* \"#utility.yul\":11977:11978   */\n      0x00\n        /* \"#utility.yul\":11969:11975   */\n      dup3\n        /* \"#utility.yul\":11965:11979   */\n      add\n        /* \"#utility.yul\":11958:12003   */\n      mstore\n        /* \"#utility.yul\":11841:12010   */\n      pop\n      jump\t// out\n        /* \"#utility.yul\":12016:12382   */\n    tag_123:\n        /* \"#utility.yul\":12158:12161   */\n      0x00\n        /* \"#utility.yul\":12179:12246   */\n      tag_249\n        /* \"#utility.yul\":12243:12245   */\n      0x13\n        /* \"#utility.yul\":12238:12241   */\n      dup4\n        /* \"#utility.yul\":12179:12246   */\n      tag_110\n      jump\t// in\n    tag_249:\n        /* \"#utility.yul\":12172:12246   */\n      swap2\n      pop\n        /* \"#utility.yul\":12255:12348   */\n      tag_250\n        /* \"#utility.yul\":12344:12347   */\n      dup3\n        /* \"#utility.yul\":12255:12348   */\n      tag_122\n      jump\t// in\n    tag_250:\n        /* \"#utility.yul\":12373:12375   */\n      0x20\n        /* \"#utility.yul\":12368:12371   */\n      dup3\n        /* \"#utility.yul\":12364:12376   */\n      add\n        /* \"#utility.yul\":12357:12376   */\n      swap1\n      pop\n        /* \"#utility.yul\":12016:12382   */\n      swap2\n      swap1\n      pop\n      jump\t// out\n        /* \"#utility.yul\":12388:12807   */\n    tag_79:\n        /* \"#utility.yul\":12554:12558   */\n      0x00\n        /* \"#utility.yul\":12592:12594   */\n      0x20\n        /* \"#utility.yul\":12581:12590   */\n      dup3\n        /* \"#utility.yul\":12577:12595   */\n      add\n        /* \"#utility.yul\":12569:12595   */\n      swap1\n      pop\n        /* \"#utility.yul\":12641:12650   */\n      dup2\n        /* \"#utility.yul\":12635:12639   */\n      dup2\n        /* \"#utility.yul\":12631:12651   */\n      sub\n        /* \"#utility.yul\":12627:12628   */\n      0x00\n        /* \"#utility.yul\":12616:12625   */\n      dup4\n        /* \"#utility.yul\":12612:12629   */\n      add\n        /* \"#utility.yul\":12605:12652   */\n      mstore\n        /* \"#utility.yul\":12669:12800   */\n      tag_252\n        /* \"#utility.yul\":12795:12799   */\n      dup2\n        /* \"#utility.yul\":12669:12800   */\n      tag_123\n      jump\t// in\n    tag_252:\n        /* \"#utility.yul\":12661:12800   */\n      swap1\n      pop\n        /* \"#utility.yul\":12388:12807   */\n      swap2\n      swap1\n      pop\n      jump\t// out\n        /* \"#utility.yul\":12813:12979   */\n    tag_124:\n        /* \"#utility.yul\":12953:12971   */\n      0x416c726561647920657865637574656400000000000000000000000000000000\n        /* \"#utility.yul\":12949:12950   */\n      0x00\n        /* \"#utility.yul\":12941:12947   */\n      dup3\n        /* \"#utility.yul\":12937:12951   */\n      add\n        /* \"#utility.yul\":12930:12972   */\n      mstore\n        /* \"#utility.yul\":12813:12979   */\n      pop\n      jump\t// out\n        /* \"#utility.yul\":12985:13351   */\n    tag_125:\n        /* \"#utility.yul\":13127:13130   */\n      0x00\n        /* \"#utility.yul\":13148:13215   */\n      tag_255\n        /* \"#utility.yul\":13212:13214   */\n      0x10\n        /* \"#utility.yul\":13207:13210   */\n      dup4\n        /* \"#utility.yul\":13148:13215   */\n      tag_110\n      jump\t// in\n    tag_255:\n        /* \"#utility.yul\":13141:13215   */\n      swap2\n      pop\n        /* \"#utility.yul\":13224:13317   */\n      tag_256\n        /* \"#utility.yul\":13313:13316   */\n      dup3\n        /* \"#utility.yul\":13224:13317   */\n      tag_124\n      jump\t// in\n    tag_256:\n        /* \"#utility.yul\":13342:13344   */\n      0x20\n        /* \"#utility.yul\":13337:13340   */\n      dup3\n        /* \"#utility.yul\":13333:13345   */\n      add\n        /* \"#utility.yul\":13326:13345   */\n      swap1\n      pop\n        /* \"#utility.yul\":12985:13351   */\n      swap2\n      swap1\n      pop\n      jump\t// out\n        /* \"#utility.yul\":13357:13776   */\n    tag_82:\n        /* \"#utility.yul\":13523:13527   */\n      0x00\n        /* \"#utility.yul\":13561:13563   */\n      0x20\n        /* \"#utility.yul\":13550:13559   */\n      dup3\n        /* \"#utility.yul\":13546:13564   */\n      add\n        /* \"#utility.yul\":13538:13564   */\n      swap1\n      pop\n        /* \"#utility.yul\":13610:13619   */\n      dup2\n        /* \"#utility.yul\":13604:13608   */\n      dup2\n        /* \"#utility.yul\":13600:13620   */\n      sub\n        /* \"#utility.yul\":13596:13597   */\n      0x00\n        /* \"#utility.yul\":13585:13594   */\n      dup4\n        /* \"#utility.yul\":13581:13598   */\n      add\n        /* \"#utility.yul\":13574:13621   */\n      mstore\n        /* \"#utility.yul\":13638:13769   */\n      tag_258\n        /* \"#utility.yul\":13764:13768   */\n      dup2\n        /* \"#utility.yul\":13638:13769   */\n      tag_125\n      jump\t// in\n    tag_258:\n        /* \"#utility.yul\":13630:13769   */\n      swap1\n      pop\n        /* \"#utility.yul\":13357:13776   */\n      swap2\n      swap1\n      pop\n      jump\t// out\n        /* \"#utility.yul\":13782:13948   */\n    tag_126:\n        /* \"#utility.yul\":13922:13940   */\n      0x496e76616c69642070726f706f73616c00000000000000000000000000000000\n        /* \"#utility.yul\":13918:13919   */\n      0x00\n        /* \"#utility.yul\":13910:13916   */\n      dup3\n        /* \"#utility.yul\":13906:13920   */\n      add\n        /* \"#utility.yul\":13899:13941   */\n      mstore\n        /* \"#utility.yul\":13782:13948   */\n      pop\n      jump\t// out\n        /* \"#utility.yul\":13954:14320   */\n    tag_127:\n        /* \"#utility.yul\":14096:14099   */\n      0x00\n        /* \"#utility.yul\":14117:14184   */\n      tag_261\n        /* \"#utility.yul\":14181:14183   */\n      0x10\n        /* \"#utility.yul\":14176:14179   */\n      dup4\n        /* \"#utility.yul\":14117:14184   */\n      tag_110\n      jump\t// in\n    tag_261:\n        /* \"#utility.yul\":14110:14184   */\n      swap2\n      pop\n        /* \"#utility.yul\":14193:14286   */\n      tag_262\n        /* \"#utility.yul\":14282:14285   */\n      dup3\n        /* \"#utility.yul\":14193:14286   */\n      tag_126\n      jump\t// in\n    tag_262:\n        /* \"#utility.yul\":14311:14313   */\n      0x20\n        /* \"#utility.yul\":14306:14309   */\n      dup3\n        /* \"#utility.yul\":14302:14314   */\n      add\n        /* \"#utility.yul\":14295:14314   */\n      swap1\n      pop\n        /* \"#utility.yul\":13954:14320   */\n      swap2\n      swap1\n      pop\n      jump\t// out\n        /* \"#utility.yul\":14326:14745   */\n    tag_87:\n        /* \"#utility.yul\":14492:14496   */\n      0x00\n        /* \"#utility.yul\":14530:14532   */\n      0x20\n        /* \"#utility.yul\":14519:14528   */\n      dup3\n        /* \"#utility.yul\":14515:14533   */\n      add\n        /* \"#utility.yul\":14507:14533   */\n      swap1\n      pop\n        /* \"#utility.yul\":14579:14588   */\n      dup2\n        /* \"#utility.yul\":14573:14577   */\n      dup2\n        /* \"#utility.yul\":14569:14589   */\n      sub\n        /* \"#utility.yul\":14565:14566   */\n      0x00\n        /* \"#utility.yul\":14554:14563   */\n      dup4\n        /* \"#utility.yul\":14550:14567   */\n      add\n        /* \"#utility.yul\":14543:14590   */\n      mstore\n        /* \"#utility.yul\":14607:14738   */\n      tag_264\n        /* \"#utility.yul\":14733:14737   */\n      dup2\n        /* \"#utility.yul\":14607:14738   */\n      tag_127\n      jump\t// in\n    tag_264:\n        /* \"#utility.yul\":14599:14738   */\n      swap1\n      pop\n        /* \"#utility.yul\":14326:14745   */\n      swap2\n      swap1\n      pop\n      jump\t// out\n\n    auxdata: 0xa26469706673582212206f07fe6378dea6f8ef1b5cb6687f002188206b85a1c3a72cd32d02bc81bf899964736f6c634300081e0033\n}\n",
				"bytecode": {
					"linkReferences": {},
					"object": "6080604052348015600e575f5ffd5b506111d38061001c5f395ff3fe608060405234801561000f575f5ffd5b5060043610610086575f3560e01c8063b62f72f311610059578063b62f72f314610126578063d3c6a0f214610142578063da35c66414610172578063dac001fe1461019057610086565b806359aef53c1461008a5780636760b1c0146100a657806384acf0f5146100d6578063b3f98adc1461010a575b5f5ffd5b6100a4600480360381019061009f9190610b04565b6101c5565b005b6100c060048036038101906100bb9190610b78565b610395565b6040516100cd9190610bb2565b60405180910390f35b6100f060048036038101906100eb9190610b78565b6103b5565b604051610101959493929190610bf4565b60405180910390f35b610124600480360381019061011f9190610b78565b610423565b005b610140600480360381019061013b9190610b78565b610779565b005b61015c60048036038101906101579190610c9f565b61090d565b6040516101699190610cdd565b60405180910390f35b61017a610960565b6040516101879190610d05565b60405180910390f35b6101aa60048036038101906101a59190610b78565b610971565b6040516101bc96959493929190610d1e565b60405180910390f35b5f8163ffffffff161161020d576040517f08c379a000000000000000000000000000000000000000000000000000000000815260040161020490610dd7565b60405180910390fd5b5f5f5f9054906101000a900460ff1690505f5f81819054906101000a900460ff168092919061023b90610e22565b91906101000a81548160ff021916908360ff160217905550505f6040518060a001604052808581526020015f63ffffffff1681526020014263ffffffff168152602001844261028a9190610e4a565b63ffffffff1681526020015f151581525090508060015f8460ff1660ff1681526020019081526020015f205f820151815f01556020820151816001015f6101000a81548163ffffffff021916908363ffffffff16021790555060408201518160010160046101000a81548163ffffffff021916908363ffffffff16021790555060608201518160010160086101000a81548163ffffffff021916908363ffffffff160217905550608082015181600101600c6101000a81548160ff0219169083151502179055509050508160ff167f778068a8b34cd2ab006c1c96cd8b819623539c5979eea060167a8376ab51ae26856040516103879190610e81565b60405180910390a250505050565b6003602052805f5260405f205f915054906101000a900463ffffffff1681565b6001602052805f5260405f205f91509050805f015490806001015f9054906101000a900463ffffffff16908060010160049054906101000a900463ffffffff16908060010160089054906101000a900463ffffffff169080600101600c9054906101000a900460ff16905085565b5f5f9054906101000a900460ff1660ff168160ff1610610478576040517f08c379a000000000000000000000000000000000000000000000000000000000815260040161046f90610ee4565b60405180910390fd5b5f42905060015f8360ff1660ff1681526020019081526020015f2060010160049054906101000a900463ffffffff1663ffffffff168163ffffffff1610156104f5576040517f08c379a00000000000000000000000000000000000000000000000000000000081526004016104ec90610f4c565b60405180910390fd5b60015f8360ff1660ff1681526020019081526020015f2060010160089054906101000a900463ffffffff1663ffffffff168163ffffffff16111561056e576040517f08c379a000000000000000000000000000000000000000000000000000000000815260040161056590610fb4565b60405180910390fd5b5f60025f3373ffffffffffffffffffffffffffffffffffffffff1673ffffffffffffffffffffffffffffffffffffffff1681526020019081526020015f205490505f8360ff166001901b90505f8160025f3373ffffffffffffffffffffffffffffffffffffffff1673ffffffffffffffffffffffffffffffffffffffff1681526020019081526020015f2054161461063b576040517f08c379a00000000000000000000000000000000000000000000000000000000081526004016106329061101c565b60405180910390fd5b80821760025f3373ffffffffffffffffffffffffffffffffffffffff1673ffffffffffffffffffffffffffffffffffffffff1681526020019081526020015f208190555060015f8560ff1660ff1681526020019081526020015f206001015f81819054906101000a900463ffffffff16809291906106b89061103a565b91906101000a81548163ffffffff021916908363ffffffff1602179055505060035f8560ff1660ff1681526020019081526020015f205f81819054906101000a900463ffffffff168092919061070d9061103a565b91906101000a81548163ffffffff021916908363ffffffff160217905550508360ff163373ffffffffffffffffffffffffffffffffffffffff167f14075e33dffdc00c1fcaf75d0f86d667170be57fb566b12b41b499e5fa53b12560405160405180910390a350505050565b5f5f9054906101000a900460ff1660ff168160ff16106107ce576040517f08c379a00000000000000000000000000000000000000000000000000000000081526004016107c590610ee4565b60405180910390fd5b60015f8260ff1660ff1681526020019081526020015f2060010160089054906101000a900463ffffffff1663ffffffff164211610840576040517f08c379a0000000000000000000000000000000000000000000000000000000008152600401610837906110af565b60405180910390fd5b60015f8260ff1660ff1681526020019081526020015f20600101600c9054906101000a900460ff16156108a8576040517f08c379a000000000000000000000000000000000000000000000000000000000815260040161089f90611117565b60405180910390fd5b6001805f8360ff1660ff1681526020019081526020015f20600101600c6101000a81548160ff0219169083151502179055508060ff167f51568d9f9e578f2e31bbe0b161f3bf7b8e5abfbe4f2a1e41d2af5052a4fe536860405160405180910390a250565b5f5f8260ff166001901b60025f8673ffffffffffffffffffffffffffffffffffffffff1673ffffffffffffffffffffffffffffffffffffffff1681526020019081526020015f2054161415905092915050565b5f5f9054906101000a900460ff1681565b5f5f5f5f5f5f5f5f9054906101000a900460ff1660ff168760ff16106109cc576040517f08c379a00000000000000000000000000000000000000000000000000000000081526004016109c39061117f565b60405180910390fd5b5f60015f8960ff1660ff1681526020019081526020015f209050805f0154816001015f9054906101000a900463ffffffff168260010160049054906101000a900463ffffffff168360010160089054906101000a900463ffffffff1684600101600c9054906101000a900460ff168560010160049054906101000a900463ffffffff1663ffffffff164210158015610a7e57508560010160089054906101000a900463ffffffff1663ffffffff164211155b9650965096509650965096505091939550919395565b5f5ffd5b5f819050919050565b610aaa81610a98565b8114610ab4575f5ffd5b50565b5f81359050610ac581610aa1565b92915050565b5f63ffffffff82169050919050565b610ae381610acb565b8114610aed575f5ffd5b50565b5f81359050610afe81610ada565b92915050565b5f5f60408385031215610b1a57610b19610a94565b5b5f610b2785828601610ab7565b9250506020610b3885828601610af0565b9150509250929050565b5f60ff82169050919050565b610b5781610b42565b8114610b61575f5ffd5b50565b5f81359050610b7281610b4e565b92915050565b5f60208284031215610b8d57610b8c610a94565b5b5f610b9a84828501610b64565b91505092915050565b610bac81610acb565b82525050565b5f602082019050610bc55f830184610ba3565b92915050565b610bd481610a98565b82525050565b5f8115159050919050565b610bee81610bda565b82525050565b5f60a082019050610c075f830188610bcb565b610c146020830187610ba3565b610c216040830186610ba3565b610c2e6060830185610ba3565b610c3b6080830184610be5565b9695505050505050565b5f73ffffffffffffffffffffffffffffffffffffffff82169050919050565b5f610c6e82610c45565b9050919050565b610c7e81610c64565b8114610c88575f5ffd5b50565b5f81359050610c9981610c75565b92915050565b5f5f60408385031215610cb557610cb4610a94565b5b5f610cc285828601610c8b565b9250506020610cd385828601610b64565b9150509250929050565b5f602082019050610cf05f830184610be5565b92915050565b610cff81610b42565b82525050565b5f602082019050610d185f830184610cf6565b92915050565b5f60c082019050610d315f830189610bcb565b610d3e6020830188610ba3565b610d4b6040830187610ba3565b610d586060830186610ba3565b610d656080830185610be5565b610d7260a0830184610be5565b979650505050505050565b5f82825260208201905092915050565b7f4475726174696f6e732073686f756c64206265206d6f7265207468616e2030005f82015250565b5f610dc1601f83610d7d565b9150610dcc82610d8d565b602082019050919050565b5f6020820190508181035f830152610dee81610db5565b9050919050565b7f4e487b71000000000000000000000000000000000000000000000000000000005f52601160045260245ffd5b5f610e2c82610b42565b915060ff8203610e3f57610e3e610df5565b5b600182019050919050565b5f610e5482610acb565b9150610e5f83610acb565b9250828201905063ffffffff811115610e7b57610e7a610df5565b5b92915050565b5f602082019050610e945f830184610bcb565b92915050565b7f496e76616c69642050726f706f73616c000000000000000000000000000000005f82015250565b5f610ece601083610d7d565b9150610ed982610e9a565b602082019050919050565b5f6020820190508181035f830152610efb81610ec2565b9050919050565b7f566f74696e6720686173206e6f742073746172746564000000000000000000005f82015250565b5f610f36601683610d7d565b9150610f4182610f02565b602082019050919050565b5f6020820190508181035f830152610f6381610f2a565b9050919050565b7f566f74696e672068617320656e646564000000000000000000000000000000005f82015250565b5f610f9e601083610d7d565b9150610fa982610f6a565b602082019050919050565b5f6020820190508181035f830152610fcb81610f92565b9050919050565b7f416c726561647920766f746564000000000000000000000000000000000000005f82015250565b5f611006600d83610d7d565b915061101182610fd2565b602082019050919050565b5f6020820190508181035f83015261103381610ffa565b9050919050565b5f61104482610acb565b915063ffffffff820361105a57611059610df5565b5b600182019050919050565b7f566f74696e67206973206e6f7420656e646564000000000000000000000000005f82015250565b5f611099601383610d7d565b91506110a482611065565b602082019050919050565b5f6020820190508181035f8301526110c68161108d565b9050919050565b7f416c7265616479206578656375746564000000000000000000000000000000005f82015250565b5f611101601083610d7d565b915061110c826110cd565b602082019050919050565b5f6020820190508181035f83015261112e816110f5565b9050919050565b7f496e76616c69642070726f706f73616c000000000000000000000000000000005f82015250565b5f611169601083610d7d565b915061117482611135565b602082019050919050565b5f6020820190508181035f8301526111968161115d565b905091905056fea26469706673582212206f07fe6378dea6f8ef1b5cb6687f002188206b85a1c3a72cd32d02bc81bf899964736f6c634300081e0033",
					"opcodes": "PUSH1 0x80 PUSH1 0x40 MSTORE CALLVALUE DUP1 ISZERO PUSH1 0xE JUMPI PUSH0 PUSH0 REVERT JUMPDEST POP PUSH2 0x11D3 DUP1 PUSH2 0x1C PUSH0 CODECOPY PUSH0 RETURN INVALID PUSH1 0x80 PUSH1 0x40 MSTORE CALLVALUE DUP1 ISZERO PUSH2 0xF JUMPI PUSH0 PUSH0 REVERT JUMPDEST POP PUSH1 0x4 CALLDATASIZE LT PUSH2 0x86 JUMPI PUSH0 CALLDATALOAD PUSH1 0xE0 SHR DUP1 PUSH4 0xB62F72F3 GT PUSH2 0x59 JUMPI DUP1 PUSH4 0xB62F72F3 EQ PUSH2 0x126 JUMPI DUP1 PUSH4 0xD3C6A0F2 EQ PUSH2 0x142 JUMPI DUP1 PUSH4 0xDA35C664 EQ PUSH2 0x172 JUMPI DUP1 PUSH4 0xDAC001FE EQ PUSH2 0x190 JUMPI PUSH2 0x86 JUMP JUMPDEST DUP1 PUSH4 0x59AEF53C EQ PUSH2 0x8A JUMPI DUP1 PUSH4 0x6760B1C0 EQ PUSH2 0xA6 JUMPI DUP1 PUSH4 0x84ACF0F5 EQ PUSH2 0xD6 JUMPI DUP1 PUSH4 0xB3F98ADC EQ PUSH2 0x10A JUMPI JUMPDEST PUSH0 PUSH0 REVERT JUMPDEST PUSH2 0xA4 PUSH1 0x4 DUP1 CALLDATASIZE SUB DUP2 ADD SWAP1 PUSH2 0x9F SWAP2 SWAP1 PUSH2 0xB04 JUMP JUMPDEST PUSH2 0x1C5 JUMP JUMPDEST STOP JUMPDEST PUSH2 0xC0 PUSH1 0x4 DUP1 CALLDATASIZE SUB DUP2 ADD SWAP1 PUSH2 0xBB SWAP2 SWAP1 PUSH2 0xB78 JUMP JUMPDEST PUSH2 0x395 JUMP JUMPDEST PUSH1 0x40 MLOAD PUSH2 0xCD SWAP2 SWAP1 PUSH2 0xBB2 JUMP JUMPDEST PUSH1 0x40 MLOAD DUP1 SWAP2 SUB SWAP1 RETURN JUMPDEST PUSH2 0xF0 PUSH1 0x4 DUP1 CALLDATASIZE SUB DUP2 ADD SWAP1 PUSH2 0xEB SWAP2 SWAP1 PUSH2 0xB78 JUMP JUMPDEST PUSH2 0x3B5 JUMP JUMPDEST PUSH1 0x40 MLOAD PUSH2 0x101 SWAP6 SWAP5 SWAP4 SWAP3 SWAP2 SWAP1 PUSH2 0xBF4 JUMP JUMPDEST PUSH1 0x40 MLOAD DUP1 SWAP2 SUB SWAP1 RETURN JUMPDEST PUSH2 0x124 PUSH1 0x4 DUP1 CALLDATASIZE SUB DUP2 ADD SWAP1 PUSH2 0x11F SWAP2 SWAP1 PUSH2 0xB78 JUMP JUMPDEST PUSH2 0x423 JUMP JUMPDEST STOP JUMPDEST PUSH2 0x140 PUSH1 0x4 DUP1 CALLDATASIZE SUB DUP2 ADD SWAP1 PUSH2 0x13B SWAP2 SWAP1 PUSH2 0xB78 JUMP JUMPDEST PUSH2 0x779 JUMP JUMPDEST STOP JUMPDEST PUSH2 0x15C PUSH1 0x4 DUP1 CALLDATASIZE SUB DUP2 ADD SWAP1 PUSH2 0x157 SWAP2 SWAP1 PUSH2 0xC9F JUMP JUMPDEST PUSH2 0x90D JUMP JUMPDEST PUSH1 0x40 MLOAD PUSH2 0x169 SWAP2 SWAP1 PUSH2 0xCDD JUMP JUMPDEST PUSH1 0x40 MLOAD DUP1 SWAP2 SUB SWAP1 RETURN JUMPDEST PUSH2 0x17A PUSH2 0x960 JUMP JUMPDEST PUSH1 0x40 MLOAD PUSH2 0x187 SWAP2 SWAP1 PUSH2 0xD05 JUMP JUMPDEST PUSH1 0x40 MLOAD DUP1 SWAP2 SUB SWAP1 RETURN JUMPDEST PUSH2 0x1AA PUSH1 0x4 DUP1 CALLDATASIZE SUB DUP2 ADD SWAP1 PUSH2 0x1A5 SWAP2 SWAP1 PUSH2 0xB78 JUMP JUMPDEST PUSH2 0x971 JUMP JUMPDEST PUSH1 0x40 MLOAD PUSH2 0x1BC SWAP7 SWAP6 SWAP5 SWAP4 SWAP3 SWAP2 SWAP1 PUSH2 0xD1E JUMP JUMPDEST PUSH1 0x40 MLOAD DUP1 SWAP2 SUB SWAP1 RETURN JUMPDEST PUSH0 DUP2 PUSH4 0xFFFFFFFF AND GT PUSH2 0x20D JUMPI PUSH1 0x40 MLOAD PUSH32 0x8C379A000000000000000000000000000000000000000000000000000000000 DUP2 MSTORE PUSH1 0x4 ADD PUSH2 0x204 SWAP1 PUSH2 0xDD7 JUMP JUMPDEST PUSH1 0x40 MLOAD DUP1 SWAP2 SUB SWAP1 REVERT JUMPDEST PUSH0 PUSH0 PUSH0 SWAP1 SLOAD SWAP1 PUSH2 0x100 EXP SWAP1 DIV PUSH1 0xFF AND SWAP1 POP PUSH0 PUSH0 DUP2 DUP2 SWAP1 SLOAD SWAP1 PUSH2 0x100 EXP SWAP1 DIV PUSH1 0xFF AND DUP1 SWAP3 SWAP2 SWAP1 PUSH2 0x23B SWAP1 PUSH2 0xE22 JUMP JUMPDEST SWAP2 SWAP1 PUSH2 0x100 EXP DUP2 SLOAD DUP2 PUSH1 0xFF MUL NOT AND SWAP1 DUP4 PUSH1 0xFF AND MUL OR SWAP1 SSTORE POP POP PUSH0 PUSH1 0x40 MLOAD DUP1 PUSH1 0xA0 ADD PUSH1 0x40 MSTORE DUP1 DUP6 DUP2 MSTORE PUSH1 0x20 ADD PUSH0 PUSH4 0xFFFFFFFF AND DUP2 MSTORE PUSH1 0x20 ADD TIMESTAMP PUSH4 0xFFFFFFFF AND DUP2 MSTORE PUSH1 0x20 ADD DUP5 TIMESTAMP PUSH2 0x28A SWAP2 SWAP1 PUSH2 0xE4A JUMP JUMPDEST PUSH4 0xFFFFFFFF AND DUP2 MSTORE PUSH1 0x20 ADD PUSH0 ISZERO ISZERO DUP2 MSTORE POP SWAP1 POP DUP1 PUSH1 0x1 PUSH0 DUP5 PUSH1 0xFF AND PUSH1 0xFF AND DUP2 MSTORE PUSH1 0x20 ADD SWAP1 DUP2 MSTORE PUSH1 0x20 ADD PUSH0 KECCAK256 PUSH0 DUP3 ADD MLOAD DUP2 PUSH0 ADD SSTORE PUSH1 0x20 DUP3 ADD MLOAD DUP2 PUSH1 0x1 ADD PUSH0 PUSH2 0x100 EXP DUP2 SLOAD DUP2 PUSH4 0xFFFFFFFF MUL NOT AND SWAP1 DUP4 PUSH4 0xFFFFFFFF AND MUL OR SWAP1 SSTORE POP PUSH1 0x40 DUP3 ADD MLOAD DUP2 PUSH1 0x1 ADD PUSH1 0x4 PUSH2 0x100 EXP DUP2 SLOAD DUP2 PUSH4 0xFFFFFFFF MUL NOT AND SWAP1 DUP4 PUSH4 0xFFFFFFFF AND MUL OR SWAP1 SSTORE POP PUSH1 0x60 DUP3 ADD MLOAD DUP2 PUSH1 0x1 ADD PUSH1 0x8 PUSH2 0x100 EXP DUP2 SLOAD DUP2 PUSH4 0xFFFFFFFF MUL NOT AND SWAP1 DUP4 PUSH4 0xFFFFFFFF AND MUL OR SWAP1 SSTORE POP PUSH1 0x80 DUP3 ADD MLOAD DUP2 PUSH1 0x1 ADD PUSH1 0xC PUSH2 0x100 EXP DUP2 SLOAD DUP2 PUSH1 0xFF MUL NOT AND SWAP1 DUP4 ISZERO ISZERO MUL OR SWAP1 SSTORE POP SWAP1 POP POP DUP2 PUSH1 0xFF AND PUSH32 0x778068A8B34CD2AB006C1C96CD8B819623539C5979EEA060167A8376AB51AE26 DUP6 PUSH1 0x40 MLOAD PUSH2 0x387 SWAP2 SWAP1 PUSH2 0xE81 JUMP JUMPDEST PUSH1 0x40 MLOAD DUP1 SWAP2 SUB SWAP1 LOG2 POP POP POP POP JUMP JUMPDEST PUSH1 0x3 PUSH1 0x20 MSTORE DUP1 PUSH0 MSTORE PUSH1 0x40 PUSH0 KECCAK256 PUSH0 SWAP2 POP SLOAD SWAP1 PUSH2 0x100 EXP SWAP1 DIV PUSH4 0xFFFFFFFF AND DUP2 JUMP JUMPDEST PUSH1 0x1 PUSH1 0x20 MSTORE DUP1 PUSH0 MSTORE PUSH1 0x40 PUSH0 KECCAK256 PUSH0 SWAP2 POP SWAP1 POP DUP1 PUSH0 ADD SLOAD SWAP1 DUP1 PUSH1 0x1 ADD PUSH0 SWAP1 SLOAD SWAP1 PUSH2 0x100 EXP SWAP1 DIV PUSH4 0xFFFFFFFF AND SWAP1 DUP1 PUSH1 0x1 ADD PUSH1 0x4 SWAP1 SLOAD SWAP1 PUSH2 0x100 EXP SWAP1 DIV PUSH4 0xFFFFFFFF AND SWAP1 DUP1 PUSH1 0x1 ADD PUSH1 0x8 SWAP1 SLOAD SWAP1 PUSH2 0x100 EXP SWAP1 DIV PUSH4 0xFFFFFFFF AND SWAP1 DUP1 PUSH1 0x1 ADD PUSH1 0xC SWAP1 SLOAD SWAP1 PUSH2 0x100 EXP SWAP1 DIV PUSH1 0xFF AND SWAP1 POP DUP6 JUMP JUMPDEST PUSH0 PUSH0 SWAP1 SLOAD SWAP1 PUSH2 0x100 EXP SWAP1 DIV PUSH1 0xFF AND PUSH1 0xFF AND DUP2 PUSH1 0xFF AND LT PUSH2 0x478 JUMPI PUSH1 0x40 MLOAD PUSH32 0x8C379A000000000000000000000000000000000000000000000000000000000 DUP2 MSTORE PUSH1 0x4 ADD PUSH2 0x46F SWAP1 PUSH2 0xEE4 JUMP JUMPDEST PUSH1 0x40 MLOAD DUP1 SWAP2 SUB SWAP1 REVERT JUMPDEST PUSH0 TIMESTAMP SWAP1 POP PUSH1 0x1 PUSH0 DUP4 PUSH1 0xFF AND PUSH1 0xFF AND DUP2 MSTORE PUSH1 0x20 ADD SWAP1 DUP2 MSTORE PUSH1 0x20 ADD PUSH0 KECCAK256 PUSH1 0x1 ADD PUSH1 0x4 SWAP1 SLOAD SWAP1 PUSH2 0x100 EXP SWAP1 DIV PUSH4 0xFFFFFFFF AND PUSH4 0xFFFFFFFF AND DUP2 PUSH4 0xFFFFFFFF AND LT ISZERO PUSH2 0x4F5 JUMPI PUSH1 0x40 MLOAD PUSH32 0x8C379A000000000000000000000000000000000000000000000000000000000 DUP2 MSTORE PUSH1 0x4 ADD PUSH2 0x4EC SWAP1 PUSH2 0xF4C JUMP JUMPDEST PUSH1 0x40 MLOAD DUP1 SWAP2 SUB SWAP1 REVERT JUMPDEST PUSH1 0x1 PUSH0 DUP4 PUSH1 0xFF AND PUSH1 0xFF AND DUP2 MSTORE PUSH1 0x20 ADD SWAP1 DUP2 MSTORE PUSH1 0x20 ADD PUSH0 KECCAK256 PUSH1 0x1 ADD PUSH1 0x8 SWAP1 SLOAD SWAP1 PUSH2 0x100 EXP SWAP1 DIV PUSH4 0xFFFFFFFF AND PUSH4 0xFFFFFFFF AND DUP2 PUSH4 0xFFFFFFFF AND GT ISZERO PUSH2 0x56E JUMPI PUSH1 0x40 MLOAD PUSH32 0x8C379A000000000000000000000000000000000000000000000000000000000 DUP2 MSTORE PUSH1 0x4 ADD PUSH2 0x565 SWAP1 PUSH2 0xFB4 JUMP JUMPDEST PUSH1 0x40 MLOAD DUP1 SWAP2 SUB SWAP1 REVERT JUMPDEST PUSH0 PUSH1 0x2 PUSH0 CALLER PUSH20 0xFFFFFFFFFFFFFFFFFFFFFFFFFFFFFFFFFFFFFFFF AND PUSH20 0xFFFFFFFFFFFFFFFFFFFFFFFFFFFFFFFFFFFFFFFF AND DUP2 MSTORE PUSH1 0x20 ADD SWAP1 DUP2 MSTORE PUSH1 0x20 ADD PUSH0 KECCAK256 SLOAD SWAP1 POP PUSH0 DUP4 PUSH1 0xFF AND PUSH1 0x1 SWAP1 SHL SWAP1 POP PUSH0 DUP2 PUSH1 0x2 PUSH0 CALLER PUSH20 0xFFFFFFFFFFFFFFFFFFFFFFFFFFFFFFFFFFFFFFFF AND PUSH20 0xFFFFFFFFFFFFFFFFFFFFFFFFFFFFFFFFFFFFFFFF AND DUP2 MSTORE PUSH1 0x20 ADD SWAP1 DUP2 MSTORE PUSH1 0x20 ADD PUSH0 KECCAK256 SLOAD AND EQ PUSH2 0x63B JUMPI PUSH1 0x40 MLOAD PUSH32 0x8C379A000000000000000000000000000000000000000000000000000000000 DUP2 MSTORE PUSH1 0x4 ADD PUSH2 0x632 SWAP1 PUSH2 0x101C JUMP JUMPDEST PUSH1 0x40 MLOAD DUP1 SWAP2 SUB SWAP1 REVERT JUMPDEST DUP1 DUP3 OR PUSH1 0x2 PUSH0 CALLER PUSH20 0xFFFFFFFFFFFFFFFFFFFFFFFFFFFFFFFFFFFFFFFF AND PUSH20 0xFFFFFFFFFFFFFFFFFFFFFFFFFFFFFFFFFFFFFFFF AND DUP2 MSTORE PUSH1 0x20 ADD SWAP1 DUP2 MSTORE PUSH1 0x20 ADD PUSH0 KECCAK256 DUP2 SWAP1 SSTORE POP PUSH1 0x1 PUSH0 DUP6 PUSH1 0xFF AND PUSH1 0xFF AND DUP2 MSTORE PUSH1 0x20 ADD SWAP1 DUP2 MSTORE PUSH1 0x20 ADD PUSH0 KECCAK256 PUSH1 0x1 ADD PUSH0 DUP2 DUP2 SWAP1 SLOAD SWAP1 PUSH2 0x100 EXP SWAP1 DIV PUSH4 0xFFFFFFFF AND DUP1 SWAP3 SWAP2 SWAP1 PUSH2 0x6B8 SWAP1 PUSH2 0x103A JUMP JUMPDEST SWAP2 SWAP1 PUSH2 0x100 EXP DUP2 SLOAD DUP2 PUSH4 0xFFFFFFFF MUL NOT AND SWAP1 DUP4 PUSH4 0xFFFFFFFF AND MUL OR SWAP1 SSTORE POP POP PUSH1 0x3 PUSH0 DUP6 PUSH1 0xFF AND PUSH1 0xFF AND DUP2 MSTORE PUSH1 0x20 ADD SWAP1 DUP2 MSTORE PUSH1 0x20 ADD PUSH0 KECCAK256 PUSH0 DUP2 DUP2 SWAP1 SLOAD SWAP1 PUSH2 0x100 EXP SWAP1 DIV PUSH4 0xFFFFFFFF AND DUP1 SWAP3 SWAP2 SWAP1 PUSH2 0x70D SWAP1 PUSH2 0x103A JUMP JUMPDEST SWAP2 SWAP1 PUSH2 0x100 EXP DUP2 SLOAD DUP2 PUSH4 0xFFFFFFFF MUL NOT AND SWAP1 DUP4 PUSH4 0xFFFFFFFF AND MUL OR SWAP1 SSTORE POP POP DUP4 PUSH1 0xFF AND CALLER PUSH20 0xFFFFFFFFFFFFFFFFFFFFFFFFFFFFFFFFFFFFFFFF AND PUSH32 0x14075E33DFFDC00C1FCAF75D0F86D667170BE57FB566B12B41B499E5FA53B125 PUSH1 0x40 MLOAD PUSH1 0x40 MLOAD DUP1 SWAP2 SUB SWAP1 LOG3 POP POP POP POP JUMP JUMPDEST PUSH0 PUSH0 SWAP1 SLOAD SWAP1 PUSH2 0x100 EXP SWAP1 DIV PUSH1 0xFF AND PUSH1 0xFF AND DUP2 PUSH1 0xFF AND LT PUSH2 0x7CE JUMPI PUSH1 0x40 MLOAD PUSH32 0x8C379A000000000000000000000000000000000000000000000000000000000 DUP2 MSTORE PUSH1 0x4 ADD PUSH2 0x7C5 SWAP1 PUSH2 0xEE4 JUMP JUMPDEST PUSH1 0x40 MLOAD DUP1 SWAP2 SUB SWAP1 REVERT JUMPDEST PUSH1 0x1 PUSH0 DUP3 PUSH1 0xFF AND PUSH1 0xFF AND DUP2 MSTORE PUSH1 0x20 ADD SWAP1 DUP2 MSTORE PUSH1 0x20 ADD PUSH0 KECCAK256 PUSH1 0x1 ADD PUSH1 0x8 SWAP1 SLOAD SWAP1 PUSH2 0x100 EXP SWAP1 DIV PUSH4 0xFFFFFFFF AND PUSH4 0xFFFFFFFF AND TIMESTAMP GT PUSH2 0x840 JUMPI PUSH1 0x40 MLOAD PUSH32 0x8C379A000000000000000000000000000000000000000000000000000000000 DUP2 MSTORE PUSH1 0x4 ADD PUSH2 0x837 SWAP1 PUSH2 0x10AF JUMP JUMPDEST PUSH1 0x40 MLOAD DUP1 SWAP2 SUB SWAP1 REVERT JUMPDEST PUSH1 0x1 PUSH0 DUP3 PUSH1 0xFF AND PUSH1 0xFF AND DUP2 MSTORE PUSH1 0x20 ADD SWAP1 DUP2 MSTORE PUSH1 0x20 ADD PUSH0 KECCAK256 PUSH1 0x1 ADD PUSH1 0xC SWAP1 SLOAD SWAP1 PUSH2 0x100 EXP SWAP1 DIV PUSH1 0xFF AND ISZERO PUSH2 0x8A8 JUMPI PUSH1 0x40 MLOAD PUSH32 0x8C379A000000000000000000000000000000000000000000000000000000000 DUP2 MSTORE PUSH1 0x4 ADD PUSH2 0x89F SWAP1 PUSH2 0x1117 JUMP JUMPDEST PUSH1 0x40 MLOAD DUP1 SWAP2 SUB SWAP1 REVERT JUMPDEST PUSH1 0x1 DUP1 PUSH0 DUP4 PUSH1 0xFF AND PUSH1 0xFF AND DUP2 MSTORE PUSH1 0x20 ADD SWAP1 DUP2 MSTORE PUSH1 0x20 ADD PUSH0 KECCAK256 PUSH1 0x1 ADD PUSH1 0xC PUSH2 0x100 EXP DUP2 SLOAD DUP2 PUSH1 0xFF MUL NOT AND SWAP1 DUP4 ISZERO ISZERO MUL OR SWAP1 SSTORE POP DUP1 PUSH1 0xFF AND PUSH32 0x51568D9F9E578F2E31BBE0B161F3BF7B8E5ABFBE4F2A1E41D2AF5052A4FE5368 PUSH1 0x40 MLOAD PUSH1 0x40 MLOAD DUP1 SWAP2 SUB SWAP1 LOG2 POP JUMP JUMPDEST PUSH0 PUSH0 DUP3 PUSH1 0xFF AND PUSH1 0x1 SWAP1 SHL PUSH1 0x2 PUSH0 DUP7 PUSH20 0xFFFFFFFFFFFFFFFFFFFFFFFFFFFFFFFFFFFFFFFF AND PUSH20 0xFFFFFFFFFFFFFFFFFFFFFFFFFFFFFFFFFFFFFFFF AND DUP2 MSTORE PUSH1 0x20 ADD SWAP1 DUP2 MSTORE PUSH1 0x20 ADD PUSH0 KECCAK256 SLOAD AND EQ ISZERO SWAP1 POP SWAP3 SWAP2 POP POP JUMP JUMPDEST PUSH0 PUSH0 SWAP1 SLOAD SWAP1 PUSH2 0x100 EXP SWAP1 DIV PUSH1 0xFF AND DUP2 JUMP JUMPDEST PUSH0 PUSH0 PUSH0 PUSH0 PUSH0 PUSH0 PUSH0 PUSH0 SWAP1 SLOAD SWAP1 PUSH2 0x100 EXP SWAP1 DIV PUSH1 0xFF AND PUSH1 0xFF AND DUP8 PUSH1 0xFF AND LT PUSH2 0x9CC JUMPI PUSH1 0x40 MLOAD PUSH32 0x8C379A000000000000000000000000000000000000000000000000000000000 DUP2 MSTORE PUSH1 0x4 ADD PUSH2 0x9C3 SWAP1 PUSH2 0x117F JUMP JUMPDEST PUSH1 0x40 MLOAD DUP1 SWAP2 SUB SWAP1 REVERT JUMPDEST PUSH0 PUSH1 0x1 PUSH0 DUP10 PUSH1 0xFF AND PUSH1 0xFF AND DUP2 MSTORE PUSH1 0x20 ADD SWAP1 DUP2 MSTORE PUSH1 0x20 ADD PUSH0 KECCAK256 SWAP1 POP DUP1 PUSH0 ADD SLOAD DUP2 PUSH1 0x1 ADD PUSH0 SWAP1 SLOAD SWAP1 PUSH2 0x100 EXP SWAP1 DIV PUSH4 0xFFFFFFFF AND DUP3 PUSH1 0x1 ADD PUSH1 0x4 SWAP1 SLOAD SWAP1 PUSH2 0x100 EXP SWAP1 DIV PUSH4 0xFFFFFFFF AND DUP4 PUSH1 0x1 ADD PUSH1 0x8 SWAP1 SLOAD SWAP1 PUSH2 0x100 EXP SWAP1 DIV PUSH4 0xFFFFFFFF AND DUP5 PUSH1 0x1 ADD PUSH1 0xC SWAP1 SLOAD SWAP1 PUSH2 0x100 EXP SWAP1 DIV PUSH1 0xFF AND DUP6 PUSH1 0x1 ADD PUSH1 0x4 SWAP1 SLOAD SWAP1 PUSH2 0x100 EXP SWAP1 DIV PUSH4 0xFFFFFFFF AND PUSH4 0xFFFFFFFF AND TIMESTAMP LT ISZERO DUP1 ISZERO PUSH2 0xA7E JUMPI POP DUP6 PUSH1 0x1 ADD PUSH1 0x8 SWAP1 SLOAD SWAP1 PUSH2 0x100 EXP SWAP1 DIV PUSH4 0xFFFFFFFF AND PUSH4 0xFFFFFFFF AND TIMESTAMP GT ISZERO JUMPDEST SWAP7 POP SWAP7 POP SWAP7 POP SWAP7 POP SWAP7 POP SWAP7 POP POP SWAP2 SWAP4 SWAP6 POP SWAP2 SWAP4 SWAP6 JUMP JUMPDEST PUSH0 PUSH0 REVERT JUMPDEST PUSH0 DUP2 SWAP1 POP SWAP2 SWAP1 POP JUMP JUMPDEST PUSH2 0xAAA DUP2 PUSH2 0xA98 JUMP JUMPDEST DUP2 EQ PUSH2 0xAB4 JUMPI PUSH0 PUSH0 REVERT JUMPDEST POP JUMP JUMPDEST PUSH0 DUP2 CALLDATALOAD SWAP1 POP PUSH2 0xAC5 DUP2 PUSH2 0xAA1 JUMP JUMPDEST SWAP3 SWAP2 POP POP JUMP JUMPDEST PUSH0 PUSH4 0xFFFFFFFF DUP3 AND SWAP1 POP SWAP2 SWAP1 POP JUMP JUMPDEST PUSH2 0xAE3 DUP2 PUSH2 0xACB JUMP JUMPDEST DUP2 EQ PUSH2 0xAED JUMPI PUSH0 PUSH0 REVERT JUMPDEST POP JUMP JUMPDEST PUSH0 DUP2 CALLDATALOAD SWAP1 POP PUSH2 0xAFE DUP2 PUSH2 0xADA JUMP JUMPDEST SWAP3 SWAP2 POP POP JUMP JUMPDEST PUSH0 PUSH0 PUSH1 0x40 DUP4 DUP6 SUB SLT ISZERO PUSH2 0xB1A JUMPI PUSH2 0xB19 PUSH2 0xA94 JUMP JUMPDEST JUMPDEST PUSH0 PUSH2 0xB27 DUP6 DUP3 DUP7 ADD PUSH2 0xAB7 JUMP JUMPDEST SWAP3 POP POP PUSH1 0x20 PUSH2 0xB38 DUP6 DUP3 DUP7 ADD PUSH2 0xAF0 JUMP JUMPDEST SWAP2 POP POP SWAP3 POP SWAP3 SWAP1 POP JUMP JUMPDEST PUSH0 PUSH1 0xFF DUP3 AND SWAP1 POP SWAP2 SWAP1 POP JUMP JUMPDEST PUSH2 0xB57 DUP2 PUSH2 0xB42 JUMP JUMPDEST DUP2 EQ PUSH2 0xB61 JUMPI PUSH0 PUSH0 REVERT JUMPDEST POP JUMP JUMPDEST PUSH0 DUP2 CALLDATALOAD SWAP1 POP PUSH2 0xB72 DUP2 PUSH2 0xB4E JUMP JUMPDEST SWAP3 SWAP2 POP POP JUMP JUMPDEST PUSH0 PUSH1 0x20 DUP3 DUP5 SUB SLT ISZERO PUSH2 0xB8D JUMPI PUSH2 0xB8C PUSH2 0xA94 JUMP JUMPDEST JUMPDEST PUSH0 PUSH2 0xB9A DUP5 DUP3 DUP6 ADD PUSH2 0xB64 JUMP JUMPDEST SWAP2 POP POP SWAP3 SWAP2 POP POP JUMP JUMPDEST PUSH2 0xBAC DUP2 PUSH2 0xACB JUMP JUMPDEST DUP3 MSTORE POP POP JUMP JUMPDEST PUSH0 PUSH1 0x20 DUP3 ADD SWAP1 POP PUSH2 0xBC5 PUSH0 DUP4 ADD DUP5 PUSH2 0xBA3 JUMP JUMPDEST SWAP3 SWAP2 POP POP JUMP JUMPDEST PUSH2 0xBD4 DUP2 PUSH2 0xA98 JUMP JUMPDEST DUP3 MSTORE POP POP JUMP JUMPDEST PUSH0 DUP2 ISZERO ISZERO SWAP1 POP SWAP2 SWAP1 POP JUMP JUMPDEST PUSH2 0xBEE DUP2 PUSH2 0xBDA JUMP JUMPDEST DUP3 MSTORE POP POP JUMP JUMPDEST PUSH0 PUSH1 0xA0 DUP3 ADD SWAP1 POP PUSH2 0xC07 PUSH0 DUP4 ADD DUP9 PUSH2 0xBCB JUMP JUMPDEST PUSH2 0xC14 PUSH1 0x20 DUP4 ADD DUP8 PUSH2 0xBA3 JUMP JUMPDEST PUSH2 0xC21 PUSH1 0x40 DUP4 ADD DUP7 PUSH2 0xBA3 JUMP JUMPDEST PUSH2 0xC2E PUSH1 0x60 DUP4 ADD DUP6 PUSH2 0xBA3 JUMP JUMPDEST PUSH2 0xC3B PUSH1 0x80 DUP4 ADD DUP5 PUSH2 0xBE5 JUMP JUMPDEST SWAP7 SWAP6 POP POP POP POP POP POP JUMP JUMPDEST PUSH0 PUSH20 0xFFFFFFFFFFFFFFFFFFFFFFFFFFFFFFFFFFFFFFFF DUP3 AND SWAP1 POP SWAP2 SWAP1 POP JUMP JUMPDEST PUSH0 PUSH2 0xC6E DUP3 PUSH2 0xC45 JUMP JUMPDEST SWAP1 POP SWAP2 SWAP1 POP JUMP JUMPDEST PUSH2 0xC7E DUP2 PUSH2 0xC64 JUMP JUMPDEST DUP2 EQ PUSH2 0xC88 JUMPI PUSH0 PUSH0 REVERT JUMPDEST POP JUMP JUMPDEST PUSH0 DUP2 CALLDATALOAD SWAP1 POP PUSH2 0xC99 DUP2 PUSH2 0xC75 JUMP JUMPDEST SWAP3 SWAP2 POP POP JUMP JUMPDEST PUSH0 PUSH0 PUSH1 0x40 DUP4 DUP6 SUB SLT ISZERO PUSH2 0xCB5 JUMPI PUSH2 0xCB4 PUSH2 0xA94 JUMP JUMPDEST JUMPDEST PUSH0 PUSH2 0xCC2 DUP6 DUP3 DUP7 ADD PUSH2 0xC8B JUMP JUMPDEST SWAP3 POP POP PUSH1 0x20 PUSH2 0xCD3 DUP6 DUP3 DUP7 ADD PUSH2 0xB64 JUMP JUMPDEST SWAP2 POP POP SWAP3 POP SWAP3 SWAP1 POP JUMP JUMPDEST PUSH0 PUSH1 0x20 DUP3 ADD SWAP1 POP PUSH2 0xCF0 PUSH0 DUP4 ADD DUP5 PUSH2 0xBE5 JUMP JUMPDEST SWAP3 SWAP2 POP POP JUMP JUMPDEST PUSH2 0xCFF DUP2 PUSH2 0xB42 JUMP JUMPDEST DUP3 MSTORE POP POP JUMP JUMPDEST PUSH0 PUSH1 0x20 DUP3 ADD SWAP1 POP PUSH2 0xD18 PUSH0 DUP4 ADD DUP5 PUSH2 0xCF6 JUMP JUMPDEST SWAP3 SWAP2 POP POP JUMP JUMPDEST PUSH0 PUSH1 0xC0 DUP3 ADD SWAP1 POP PUSH2 0xD31 PUSH0 DUP4 ADD DUP10 PUSH2 0xBCB JUMP JUMPDEST PUSH2 0xD3E PUSH1 0x20 DUP4 ADD DUP9 PUSH2 0xBA3 JUMP JUMPDEST PUSH2 0xD4B PUSH1 0x40 DUP4 ADD DUP8 PUSH2 0xBA3 JUMP JUMPDEST PUSH2 0xD58 PUSH1 0x60 DUP4 ADD DUP7 PUSH2 0xBA3 JUMP JUMPDEST PUSH2 0xD65 PUSH1 0x80 DUP4 ADD DUP6 PUSH2 0xBE5 JUMP JUMPDEST PUSH2 0xD72 PUSH1 0xA0 DUP4 ADD DUP5 PUSH2 0xBE5 JUMP JUMPDEST SWAP8 SWAP7 POP POP POP POP POP POP POP JUMP JUMPDEST PUSH0 DUP3 DUP3 MSTORE PUSH1 0x20 DUP3 ADD SWAP1 POP SWAP3 SWAP2 POP POP JUMP JUMPDEST PUSH32 0x4475726174696F6E732073686F756C64206265206D6F7265207468616E203000 PUSH0 DUP3 ADD MSTORE POP JUMP JUMPDEST PUSH0 PUSH2 0xDC1 PUSH1 0x1F DUP4 PUSH2 0xD7D JUMP JUMPDEST SWAP2 POP PUSH2 0xDCC DUP3 PUSH2 0xD8D JUMP JUMPDEST PUSH1 0x20 DUP3 ADD SWAP1 POP SWAP2 SWAP1 POP JUMP JUMPDEST PUSH0 PUSH1 0x20 DUP3 ADD SWAP1 POP DUP2 DUP2 SUB PUSH0 DUP4 ADD MSTORE PUSH2 0xDEE DUP2 PUSH2 0xDB5 JUMP JUMPDEST SWAP1 POP SWAP2 SWAP1 POP JUMP JUMPDEST PUSH32 0x4E487B7100000000000000000000000000000000000000000000000000000000 PUSH0 MSTORE PUSH1 0x11 PUSH1 0x4 MSTORE PUSH1 0x24 PUSH0 REVERT JUMPDEST PUSH0 PUSH2 0xE2C DUP3 PUSH2 0xB42 JUMP JUMPDEST SWAP2 POP PUSH1 0xFF DUP3 SUB PUSH2 0xE3F JUMPI PUSH2 0xE3E PUSH2 0xDF5 JUMP JUMPDEST JUMPDEST PUSH1 0x1 DUP3 ADD SWAP1 POP SWAP2 SWAP1 POP JUMP JUMPDEST PUSH0 PUSH2 0xE54 DUP3 PUSH2 0xACB JUMP JUMPDEST SWAP2 POP PUSH2 0xE5F DUP4 PUSH2 0xACB JUMP JUMPDEST SWAP3 POP DUP3 DUP3 ADD SWAP1 POP PUSH4 0xFFFFFFFF DUP2 GT ISZERO PUSH2 0xE7B JUMPI PUSH2 0xE7A PUSH2 0xDF5 JUMP JUMPDEST JUMPDEST SWAP3 SWAP2 POP POP JUMP JUMPDEST PUSH0 PUSH1 0x20 DUP3 ADD SWAP1 POP PUSH2 0xE94 PUSH0 DUP4 ADD DUP5 PUSH2 0xBCB JUMP JUMPDEST SWAP3 SWAP2 POP POP JUMP JUMPDEST PUSH32 0x496E76616C69642050726F706F73616C00000000000000000000000000000000 PUSH0 DUP3 ADD MSTORE POP JUMP JUMPDEST PUSH0 PUSH2 0xECE PUSH1 0x10 DUP4 PUSH2 0xD7D JUMP JUMPDEST SWAP2 POP PUSH2 0xED9 DUP3 PUSH2 0xE9A JUMP JUMPDEST PUSH1 0x20 DUP3 ADD SWAP1 POP SWAP2 SWAP1 POP JUMP JUMPDEST PUSH0 PUSH1 0x20 DUP3 ADD SWAP1 POP DUP2 DUP2 SUB PUSH0 DUP4 ADD MSTORE PUSH2 0xEFB DUP2 PUSH2 0xEC2 JUMP JUMPDEST SWAP1 POP SWAP2 SWAP1 POP JUMP JUMPDEST PUSH32 0x566F74696E6720686173206E6F74207374617274656400000000000000000000 PUSH0 DUP3 ADD MSTORE POP JUMP JUMPDEST PUSH0 PUSH2 0xF36 PUSH1 0x16 DUP4 PUSH2 0xD7D JUMP JUMPDEST SWAP2 POP PUSH2 0xF41 DUP3 PUSH2 0xF02 JUMP JUMPDEST PUSH1 0x20 DUP3 ADD SWAP1 POP SWAP2 SWAP1 POP JUMP JUMPDEST PUSH0 PUSH1 0x20 DUP3 ADD SWAP1 POP DUP2 DUP2 SUB PUSH0 DUP4 ADD MSTORE PUSH2 0xF63 DUP2 PUSH2 0xF2A JUMP JUMPDEST SWAP1 POP SWAP2 SWAP1 POP JUMP JUMPDEST PUSH32 0x566F74696E672068617320656E64656400000000000000000000000000000000 PUSH0 DUP3 ADD MSTORE POP JUMP JUMPDEST PUSH0 PUSH2 0xF9E PUSH1 0x10 DUP4 PUSH2 0xD7D JUMP JUMPDEST SWAP2 POP PUSH2 0xFA9 DUP3 PUSH2 0xF6A JUMP JUMPDEST PUSH1 0x20 DUP3 ADD SWAP1 POP SWAP2 SWAP1 POP JUMP JUMPDEST PUSH0 PUSH1 0x20 DUP3 ADD SWAP1 POP DUP2 DUP2 SUB PUSH0 DUP4 ADD MSTORE PUSH2 0xFCB DUP2 PUSH2 0xF92 JUMP JUMPDEST SWAP1 POP SWAP2 SWAP1 POP JUMP JUMPDEST PUSH32 0x416C726561647920766F74656400000000000000000000000000000000000000 PUSH0 DUP3 ADD MSTORE POP JUMP JUMPDEST PUSH0 PUSH2 0x1006 PUSH1 0xD DUP4 PUSH2 0xD7D JUMP JUMPDEST SWAP2 POP PUSH2 0x1011 DUP3 PUSH2 0xFD2 JUMP JUMPDEST PUSH1 0x20 DUP3 ADD SWAP1 POP SWAP2 SWAP1 POP JUMP JUMPDEST PUSH0 PUSH1 0x20 DUP3 ADD SWAP1 POP DUP2 DUP2 SUB PUSH0 DUP4 ADD MSTORE PUSH2 0x1033 DUP2 PUSH2 0xFFA JUMP JUMPDEST SWAP1 POP SWAP2 SWAP1 POP JUMP JUMPDEST PUSH0 PUSH2 0x1044 DUP3 PUSH2 0xACB JUMP JUMPDEST SWAP2 POP PUSH4 0xFFFFFFFF DUP3 SUB PUSH2 0x105A JUMPI PUSH2 0x1059 PUSH2 0xDF5 JUMP JUMPDEST JUMPDEST PUSH1 0x1 DUP3 ADD SWAP1 POP SWAP2 SWAP1 POP JUMP JUMPDEST PUSH32 0x566F74696E67206973206E6F7420656E64656400000000000000000000000000 PUSH0 DUP3 ADD MSTORE POP JUMP JUMPDEST PUSH0 PUSH2 0x1099 PUSH1 0x13 DUP4 PUSH2 0xD7D JUMP JUMPDEST SWAP2 POP PUSH2 0x10A4 DUP3 PUSH2 0x1065 JUMP JUMPDEST PUSH1 0x20 DUP3 ADD SWAP1 POP SWAP2 SWAP1 POP JUMP JUMPDEST PUSH0 PUSH1 0x20 DUP3 ADD SWAP1 POP DUP2 DUP2 SUB PUSH0 DUP4 ADD MSTORE PUSH2 0x10C6 DUP2 PUSH2 0x108D JUMP JUMPDEST SWAP1 POP SWAP2 SWAP1 POP JUMP JUMPDEST PUSH32 0x416C726561647920657865637574656400000000000000000000000000000000 PUSH0 DUP3 ADD MSTORE POP JUMP JUMPDEST PUSH0 PUSH2 0x1101 PUSH1 0x10 DUP4 PUSH2 0xD7D JUMP JUMPDEST SWAP2 POP PUSH2 0x110C DUP3 PUSH2 0x10CD JUMP JUMPDEST PUSH1 0x20 DUP3 ADD SWAP1 POP SWAP2 SWAP1 POP JUMP JUMPDEST PUSH0 PUSH1 0x20 DUP3 ADD SWAP1 POP DUP2 DUP2 SUB PUSH0 DUP4 ADD MSTORE PUSH2 0x112E DUP2 PUSH2 0x10F5 JUMP JUMPDEST SWAP1 POP SWAP2 SWAP1 POP JUMP JUMPDEST PUSH32 0x496E76616C69642070726F706F73616C00000000000000000000000000000000 PUSH0 DUP3 ADD MSTORE POP JUMP JUMPDEST PUSH0 PUSH2 0x1169 PUSH1 0x10 DUP4 PUSH2 0xD7D JUMP JUMPDEST SWAP2 POP PUSH2 0x1174 DUP3 PUSH2 0x1135 JUMP JUMPDEST PUSH1 0x20 DUP3 ADD SWAP1 POP SWAP2 SWAP1 POP JUMP JUMPDEST PUSH0 PUSH1 0x20 DUP3 ADD SWAP1 POP DUP2 DUP2 SUB PUSH0 DUP4 ADD MSTORE PUSH2 0x1196 DUP2 PUSH2 0x115D JUMP JUMPDEST SWAP1 POP SWAP2 SWAP1 POP JUMP INVALID LOG2 PUSH5 0x6970667358 0x22 SLT KECCAK256 PUSH16 0x7FE6378DEA6F8EF1B5CB6687F002188 KECCAK256 PUSH12 0x85A1C3A72CD32D02BC81BF89 SWAP10 PUSH5 0x736F6C6343 STOP ADDMOD 0x1E STOP CALLER "
				},
				"gasEstimates": {
					"creation": {
						"codeDepositCost": "912600",
						"executionCost": "946",
						"totalCost": "913546"
					},
					"external": {
						"createProposal(bytes32,uint32)": "infinite",
						"executeProposal(uint8)": "32756",
						"getProposal(uint8)": "infinite",
						"hasVoted(address,uint8)": "3062",
						"proposalCount()": "2509",
						"proposalVoterCount(uint8)": "2814",
						"proposals(uint8)": "infinite",
						"vote(uint8)": "infinite"
					}
				},
				"methodIdentifiers": {
					"createProposal(bytes32,uint32)": "59aef53c",
					"executeProposal(uint8)": "b62f72f3",
					"getProposal(uint8)": "dac001fe",
					"hasVoted(address,uint8)": "d3c6a0f2",
					"proposalCount()": "da35c664",
					"proposalVoterCount(uint8)": "6760b1c0",
					"proposals(uint8)": "84acf0f5",
					"vote(uint8)": "b3f98adc"
				}
			},
			"storageLayout": {
				"storage": [
					{
						"astId": 3,
						"contract": "Tessa/day15-GasEfficientVoting.sol:GasEfficientVoting",
						"label": "proposalCount",
						"offset": 0,
						"slot": "0",
						"type": "t_uint8"
					},
					{
						"astId": 19,
						"contract": "Tessa/day15-GasEfficientVoting.sol:GasEfficientVoting",
						"label": "proposals",
						"offset": 0,
						"slot": "1",
						"type": "t_mapping(t_uint8,t_struct(Proposal)14_storage)"
					},
					{
						"astId": 23,
						"contract": "Tessa/day15-GasEfficientVoting.sol:GasEfficientVoting",
						"label": "voterRegistry",
						"offset": 0,
						"slot": "2",
						"type": "t_mapping(t_address,t_uint256)"
					},
					{
						"astId": 27,
						"contract": "Tessa/day15-GasEfficientVoting.sol:GasEfficientVoting",
						"label": "proposalVoterCount",
						"offset": 0,
						"slot": "3",
						"type": "t_mapping(t_uint8,t_uint32)"
					}
				],
				"types": {
					"t_address": {
						"encoding": "inplace",
						"label": "address",
						"numberOfBytes": "20"
					},
					"t_bool": {
						"encoding": "inplace",
						"label": "bool",
						"numberOfBytes": "1"
					},
					"t_bytes32": {
						"encoding": "inplace",
						"label": "bytes32",
						"numberOfBytes": "32"
					},
					"t_mapping(t_address,t_uint256)": {
						"encoding": "mapping",
						"key": "t_address",
						"label": "mapping(address => uint256)",
						"numberOfBytes": "32",
						"value": "t_uint256"
					},
					"t_mapping(t_uint8,t_struct(Proposal)14_storage)": {
						"encoding": "mapping",
						"key": "t_uint8",
						"label": "mapping(uint8 => struct GasEfficientVoting.Proposal)",
						"numberOfBytes": "32",
						"value": "t_struct(Proposal)14_storage"
					},
					"t_mapping(t_uint8,t_uint32)": {
						"encoding": "mapping",
						"key": "t_uint8",
						"label": "mapping(uint8 => uint32)",
						"numberOfBytes": "32",
						"value": "t_uint32"
					},
					"t_struct(Proposal)14_storage": {
						"encoding": "inplace",
						"label": "struct GasEfficientVoting.Proposal",
						"members": [
							{
								"astId": 5,
								"contract": "Tessa/day15-GasEfficientVoting.sol:GasEfficientVoting",
								"label": "name",
								"offset": 0,
								"slot": "0",
								"type": "t_bytes32"
							},
							{
								"astId": 7,
								"contract": "Tessa/day15-GasEfficientVoting.sol:GasEfficientVoting",
								"label": "voteCount",
								"offset": 0,
								"slot": "1",
								"type": "t_uint32"
							},
							{
								"astId": 9,
								"contract": "Tessa/day15-GasEfficientVoting.sol:GasEfficientVoting",
								"label": "startTime",
								"offset": 4,
								"slot": "1",
								"type": "t_uint32"
							},
							{
								"astId": 11,
								"contract": "Tessa/day15-GasEfficientVoting.sol:GasEfficientVoting",
								"label": "endTime",
								"offset": 8,
								"slot": "1",
								"type": "t_uint32"
							},
							{
								"astId": 13,
								"contract": "Tessa/day15-GasEfficientVoting.sol:GasEfficientVoting",
								"label": "executed",
								"offset": 12,
								"slot": "1",
								"type": "t_bool"
							}
						],
						"numberOfBytes": "64"
					},
					"t_uint256": {
						"encoding": "inplace",
						"label": "uint256",
						"numberOfBytes": "32"
					},
					"t_uint32": {
						"encoding": "inplace",
						"label": "uint32",
						"numberOfBytes": "4"
					},
					"t_uint8": {
						"encoding": "inplace",
						"label": "uint8",
						"numberOfBytes": "1"
					}
				}
			},
			"userdoc": {
				"kind": "user",
				"methods": {},
				"version": 1
			}
		}
	}
}