{
	"Blaze/day08_MultiCurrencyPayment.sol": {
		"MultiCurrencyPayment": {
			"abi": [
				{
					"inputs": [],
					"stateMutability": "nonpayable",
					"type": "constructor"
				},
				{
					"inputs": [
						{
							"internalType": "string",
							"name": "_currencyCode",
							"type": "string"
						},
						{
							"internalType": "uint256",
							"name": "_rateToEth",
							"type": "uint256"
						}
					],
					"name": "addCurrency",
					"outputs": [],
					"stateMutability": "nonpayable",
					"type": "function"
				},
				{
					"inputs": [
						{
							"internalType": "string",
							"name": "",
							"type": "string"
						}
					],
					"name": "conversionRates",
					"outputs": [
						{
							"internalType": "uint256",
							"name": "",
							"type": "uint256"
						}
					],
					"stateMutability": "view",
					"type": "function"
				},
				{
					"inputs": [
						{
							"internalType": "string",
							"name": "_currencyCode",
							"type": "string"
						},
						{
							"internalType": "uint256",
							"name": "_amount",
							"type": "uint256"
						}
					],
					"name": "convertToEth",
					"outputs": [
						{
							"internalType": "uint256",
							"name": "",
							"type": "uint256"
						}
					],
					"stateMutability": "view",
					"type": "function"
				},
				{
					"inputs": [],
					"name": "getContractBalance",
					"outputs": [
						{
							"internalType": "uint256",
							"name": "",
							"type": "uint256"
						}
					],
					"stateMutability": "view",
					"type": "function"
				},
				{
					"inputs": [
						{
							"internalType": "string",
							"name": "_currencyCode",
							"type": "string"
						}
					],
					"name": "getConversionRate",
					"outputs": [
						{
							"internalType": "uint256",
							"name": "",
							"type": "uint256"
						}
					],
					"stateMutability": "view",
					"type": "function"
				},
				{
					"inputs": [],
					"name": "getSupportedCurrencies",
					"outputs": [
						{
							"internalType": "string[]",
							"name": "",
							"type": "string[]"
						}
					],
					"stateMutability": "view",
					"type": "function"
				},
				{
					"inputs": [
						{
							"internalType": "address",
							"name": "_tipper",
							"type": "address"
						}
					],
					"name": "getTipperContribution",
					"outputs": [
						{
							"internalType": "uint256",
							"name": "",
							"type": "uint256"
						}
					],
					"stateMutability": "view",
					"type": "function"
				},
				{
					"inputs": [],
					"name": "owner",
					"outputs": [
						{
							"internalType": "address",
							"name": "",
							"type": "address"
						}
					],
					"stateMutability": "view",
					"type": "function"
				},
				{
					"inputs": [
						{
							"internalType": "uint256",
							"name": "",
							"type": "uint256"
						}
					],
					"name": "supportedCurrencies",
					"outputs": [
						{
							"internalType": "string",
							"name": "",
							"type": "string"
						}
					],
					"stateMutability": "view",
					"type": "function"
				},
				{
					"inputs": [
						{
							"internalType": "string",
							"name": "_currencyCode",
							"type": "string"
						},
						{
							"internalType": "uint256",
							"name": "_amount",
							"type": "uint256"
						}
					],
					"name": "tipInCurrency",
					"outputs": [],
					"stateMutability": "payable",
					"type": "function"
				},
				{
					"inputs": [],
					"name": "tipInEth",
					"outputs": [],
					"stateMutability": "payable",
					"type": "function"
				},
				{
					"inputs": [
						{
							"internalType": "address",
							"name": "",
							"type": "address"
						}
					],
					"name": "tipperContributions",
					"outputs": [
						{
							"internalType": "uint256",
							"name": "",
							"type": "uint256"
						}
					],
					"stateMutability": "view",
					"type": "function"
				},
				{
					"inputs": [
						{
							"internalType": "string",
							"name": "",
							"type": "string"
						}
					],
					"name": "tipsPerCurrency",
					"outputs": [
						{
							"internalType": "uint256",
							"name": "",
							"type": "uint256"
						}
					],
					"stateMutability": "view",
					"type": "function"
				},
				{
					"inputs": [],
					"name": "totalTipsReceived",
					"outputs": [
						{
							"internalType": "uint256",
							"name": "",
							"type": "uint256"
						}
					],
					"stateMutability": "view",
					"type": "function"
				},
				{
					"inputs": [
						{
							"internalType": "address",
							"name": "_newOwner",
							"type": "address"
						}
					],
					"name": "transferOwnership",
					"outputs": [],
					"stateMutability": "nonpayable",
					"type": "function"
				},
				{
					"inputs": [],
					"name": "withdrawTips",
					"outputs": [],
					"stateMutability": "nonpayable",
					"type": "function"
				}
			],
			"devdoc": {
				"kind": "dev",
				"methods": {},
				"version": 1
			},
			"evm": {
				"assembly": "    /* \"Blaze/day08_MultiCurrencyPayment.sol\":56:4132  contract MultiCurrencyPayment {... */\n  mstore(0x40, 0x80)\n    /* \"Blaze/day08_MultiCurrencyPayment.sol\":1455:1665  constructor() {... */\n  callvalue\n  dup1\n  iszero\n  tag_1\n  jumpi\n  revert(0x00, 0x00)\ntag_1:\n  pop\n    /* \"Blaze/day08_MultiCurrencyPayment.sol\":1487:1497  msg.sender */\n  caller\n    /* \"Blaze/day08_MultiCurrencyPayment.sol\":1479:1484  owner */\n  0x00\n  0x00\n    /* \"Blaze/day08_MultiCurrencyPayment.sol\":1479:1497  owner = msg.sender */\n  0x0100\n  exp\n  dup2\n  sload\n  dup2\n  0xffffffffffffffffffffffffffffffffffffffff\n  mul\n  not\n  and\n  swap1\n  dup4\n  0xffffffffffffffffffffffffffffffffffffffff\n  and\n  mul\n  or\n  swap1\n  sstore\n  pop\n    /* \"Blaze/day08_MultiCurrencyPayment.sol\":1508:1538  addCurrency(\"USD\", 5 * 10**14) */\n  tag_4\n  mload(0x40)\n  dup1\n  0x40\n  add\n  0x40\n  mstore\n  dup1\n  0x03\n  dup2\n  mstore\n  0x20\n  add\n  0x5553440000000000000000000000000000000000000000000000000000000000\n  dup2\n  mstore\n  pop\n    /* \"Blaze/day08_MultiCurrencyPayment.sol\":1527:1537  5 * 10**14 */\n  0x01c6bf52634000\n    /* \"Blaze/day08_MultiCurrencyPayment.sol\":1508:1519  addCurrency */\n  shl(0x20, tag_5)\n    /* \"Blaze/day08_MultiCurrencyPayment.sol\":1508:1538  addCurrency(\"USD\", 5 * 10**14) */\n  0x20\n  shr\n  jump\t// in\ntag_4:\n    /* \"Blaze/day08_MultiCurrencyPayment.sol\":1548:1578  addCurrency(\"EUR\", 6 * 10**14) */\n  tag_6\n  mload(0x40)\n  dup1\n  0x40\n  add\n  0x40\n  mstore\n  dup1\n  0x03\n  dup2\n  mstore\n  0x20\n  add\n  0x4555520000000000000000000000000000000000000000000000000000000000\n  dup2\n  mstore\n  pop\n    /* \"Blaze/day08_MultiCurrencyPayment.sol\":1567:1577  6 * 10**14 */\n  0x0221b262dd8000\n    /* \"Blaze/day08_MultiCurrencyPayment.sol\":1548:1559  addCurrency */\n  shl(0x20, tag_5)\n    /* \"Blaze/day08_MultiCurrencyPayment.sol\":1548:1578  addCurrency(\"EUR\", 6 * 10**14) */\n  0x20\n  shr\n  jump\t// in\ntag_6:\n    /* \"Blaze/day08_MultiCurrencyPayment.sol\":1588:1618  addCurrency(\"JPY\", 4 * 10**12) */\n  tag_7\n  mload(0x40)\n  dup1\n  0x40\n  add\n  0x40\n  mstore\n  dup1\n  0x03\n  dup2\n  mstore\n  0x20\n  add\n  0x4a50590000000000000000000000000000000000000000000000000000000000\n  dup2\n  mstore\n  pop\n    /* \"Blaze/day08_MultiCurrencyPayment.sol\":1607:1617  4 * 10**12 */\n  0x03a352944000\n    /* \"Blaze/day08_MultiCurrencyPayment.sol\":1588:1599  addCurrency */\n  shl(0x20, tag_5)\n    /* \"Blaze/day08_MultiCurrencyPayment.sol\":1588:1618  addCurrency(\"JPY\", 4 * 10**12) */\n  0x20\n  shr\n  jump\t// in\ntag_7:\n    /* \"Blaze/day08_MultiCurrencyPayment.sol\":1628:1658  addCurrency(\"GBP\", 7 * 10**14) */\n  tag_8\n  mload(0x40)\n  dup1\n  0x40\n  add\n  0x40\n  mstore\n  dup1\n  0x03\n  dup2\n  mstore\n  0x20\n  add\n  0x4742500000000000000000000000000000000000000000000000000000000000\n  dup2\n  mstore\n  pop\n    /* \"Blaze/day08_MultiCurrencyPayment.sol\":1647:1657  7 * 10**14 */\n  0x027ca57357c000\n    /* \"Blaze/day08_MultiCurrencyPayment.sol\":1628:1639  addCurrency */\n  shl(0x20, tag_5)\n    /* \"Blaze/day08_MultiCurrencyPayment.sol\":1628:1658  addCurrency(\"GBP\", 7 * 10**14) */\n  0x20\n  shr\n  jump\t// in\ntag_8:\n    /* \"Blaze/day08_MultiCurrencyPayment.sol\":56:4132  contract MultiCurrencyPayment {... */\n  jump(tag_9)\n    /* \"Blaze/day08_MultiCurrencyPayment.sol\":711:1430  function addCurrency(string memory _currencyCode, uint256 _rateToEth) public onlyOwner {... */\ntag_5:\n    /* \"Blaze/day08_MultiCurrencyPayment.sol\":582:587  owner */\n  0x00\n  0x00\n  swap1\n  sload\n  swap1\n  0x0100\n  exp\n  swap1\n  div\n  0xffffffffffffffffffffffffffffffffffffffff\n  and\n    /* \"Blaze/day08_MultiCurrencyPayment.sol\":568:587  msg.sender == owner */\n  0xffffffffffffffffffffffffffffffffffffffff\n  and\n    /* \"Blaze/day08_MultiCurrencyPayment.sol\":568:578  msg.sender */\n  caller\n    /* \"Blaze/day08_MultiCurrencyPayment.sol\":568:587  msg.sender == owner */\n  0xffffffffffffffffffffffffffffffffffffffff\n  and\n  eq\n    /* \"Blaze/day08_MultiCurrencyPayment.sol\":560:626  require(msg.sender == owner, \"Only owner can perform this action\") */\n  tag_11\n  jumpi\n  mload(0x40)\n  0x08c379a000000000000000000000000000000000000000000000000000000000\n  dup2\n  mstore\n  0x04\n  add\n  tag_12\n  swap1\n  tag_13\n  jump\t// in\ntag_12:\n  mload(0x40)\n  dup1\n  swap2\n  sub\n  swap1\n  revert\ntag_11:\n    /* \"Blaze/day08_MultiCurrencyPayment.sol\":829:830  0 */\n  0x00\n    /* \"Blaze/day08_MultiCurrencyPayment.sol\":816:826  _rateToEth */\n  dup2\n    /* \"Blaze/day08_MultiCurrencyPayment.sol\":816:830  _rateToEth > 0 */\n  gt\n    /* \"Blaze/day08_MultiCurrencyPayment.sol\":808:873  require(_rateToEth > 0, \"Conversion rate must be greater than 0\") */\n  tag_15\n  jumpi\n  mload(0x40)\n  0x08c379a000000000000000000000000000000000000000000000000000000000\n  dup2\n  mstore\n  0x04\n  add\n  tag_16\n  swap1\n  tag_17\n  jump\t// in\ntag_16:\n  mload(0x40)\n  dup1\n  swap2\n  sub\n  swap1\n  revert\ntag_15:\n    /* \"Blaze/day08_MultiCurrencyPayment.sol\":928:947  bool currencyExists */\n  0x00\n    /* \"Blaze/day08_MultiCurrencyPayment.sol\":950:955  false */\n  0x00\n    /* \"Blaze/day08_MultiCurrencyPayment.sol\":928:955  bool currencyExists = false */\n  swap1\n  pop\n    /* \"Blaze/day08_MultiCurrencyPayment.sol\":970:976  uint i */\n  0x00\n    /* \"Blaze/day08_MultiCurrencyPayment.sol\":979:980  0 */\n  0x00\n    /* \"Blaze/day08_MultiCurrencyPayment.sol\":970:980  uint i = 0 */\n  swap1\n  pop\n    /* \"Blaze/day08_MultiCurrencyPayment.sol\":965:1201  for (uint i = 0; i < supportedCurrencies.length; i++) {... */\ntag_18:\n    /* \"Blaze/day08_MultiCurrencyPayment.sol\":986:1005  supportedCurrencies */\n  0x02\n    /* \"Blaze/day08_MultiCurrencyPayment.sol\":986:1012  supportedCurrencies.length */\n  dup1\n  sload\n  swap1\n  pop\n    /* \"Blaze/day08_MultiCurrencyPayment.sol\":982:983  i */\n  dup2\n    /* \"Blaze/day08_MultiCurrencyPayment.sol\":982:1012  i < supportedCurrencies.length */\n  lt\n    /* \"Blaze/day08_MultiCurrencyPayment.sol\":965:1201  for (uint i = 0; i < supportedCurrencies.length; i++) {... */\n  iszero\n  tag_19\n  jumpi\n    /* \"Blaze/day08_MultiCurrencyPayment.sol\":1097:1110  _currencyCode */\n  dup4\n    /* \"Blaze/day08_MultiCurrencyPayment.sol\":1081:1112  keccak256(bytes(_currencyCode)) */\n  dup1\n  mload\n  swap1\n  0x20\n  add\n  keccak256\n    /* \"Blaze/day08_MultiCurrencyPayment.sol\":1053:1072  supportedCurrencies */\n  0x02\n    /* \"Blaze/day08_MultiCurrencyPayment.sol\":1073:1074  i */\n  dup3\n    /* \"Blaze/day08_MultiCurrencyPayment.sol\":1053:1075  supportedCurrencies[i] */\n  dup2\n  sload\n  dup2\n  lt\n  tag_21\n  jumpi\n  tag_22\n  tag_23\n  jump\t// in\ntag_22:\ntag_21:\n  swap1\n  0x00\n  mstore\n  keccak256(0x00, 0x20)\n  add\n    /* \"Blaze/day08_MultiCurrencyPayment.sol\":1037:1077  keccak256(bytes(supportedCurrencies[i])) */\n  mload(0x40)\n  tag_25\n  swap2\n  swap1\n  tag_26\n  jump\t// in\ntag_25:\n  mload(0x40)\n  dup1\n  swap2\n  sub\n  swap1\n  keccak256\n    /* \"Blaze/day08_MultiCurrencyPayment.sol\":1037:1112  keccak256(bytes(supportedCurrencies[i])) == keccak256(bytes(_currencyCode)) */\n  sub\n    /* \"Blaze/day08_MultiCurrencyPayment.sol\":1033:1191  if (keccak256(bytes(supportedCurrencies[i])) == keccak256(bytes(_currencyCode))) {... */\n  tag_27\n  jumpi\n    /* \"Blaze/day08_MultiCurrencyPayment.sol\":1149:1153  true */\n  0x01\n    /* \"Blaze/day08_MultiCurrencyPayment.sol\":1132:1153  currencyExists = true */\n  swap2\n  pop\n    /* \"Blaze/day08_MultiCurrencyPayment.sol\":1171:1176  break */\n  jump(tag_19)\n    /* \"Blaze/day08_MultiCurrencyPayment.sol\":1033:1191  if (keccak256(bytes(supportedCurrencies[i])) == keccak256(bytes(_currencyCode))) {... */\ntag_27:\n    /* \"Blaze/day08_MultiCurrencyPayment.sol\":1014:1017  i++ */\n  dup1\n  dup1\n  0x01\n  add\n  swap2\n  pop\n  pop\n    /* \"Blaze/day08_MultiCurrencyPayment.sol\":965:1201  for (uint i = 0; i < supportedCurrencies.length; i++) {... */\n  jump(tag_18)\ntag_19:\n  pop\n    /* \"Blaze/day08_MultiCurrencyPayment.sol\":1255:1269  currencyExists */\n  dup1\n    /* \"Blaze/day08_MultiCurrencyPayment.sol\":1250:1335  if (!currencyExists) {... */\n  tag_28\n  jumpi\n    /* \"Blaze/day08_MultiCurrencyPayment.sol\":1285:1304  supportedCurrencies */\n  0x02\n    /* \"Blaze/day08_MultiCurrencyPayment.sol\":1310:1323  _currencyCode */\n  dup4\n    /* \"Blaze/day08_MultiCurrencyPayment.sol\":1285:1324  supportedCurrencies.push(_currencyCode) */\n  swap1\n  dup1\n  0x01\n  dup2\n  sload\n  add\n  dup1\n  dup3\n  sstore\n  dup1\n  swap2\n  pop\n  pop\n  0x01\n  swap1\n  sub\n  swap1\n  0x00\n  mstore\n  keccak256(0x00, 0x20)\n  add\n  0x00\n  swap1\n  swap2\n  swap1\n  swap2\n  swap1\n  swap2\n  pop\n  swap1\n  dup2\n  tag_30\n  swap2\n  swap1\n  tag_31\n  jump\t// in\ntag_30:\n  pop\n    /* \"Blaze/day08_MultiCurrencyPayment.sol\":1250:1335  if (!currencyExists) {... */\ntag_28:\n    /* \"Blaze/day08_MultiCurrencyPayment.sol\":1413:1423  _rateToEth */\n  dup2\n    /* \"Blaze/day08_MultiCurrencyPayment.sol\":1380:1395  conversionRates */\n  0x01\n    /* \"Blaze/day08_MultiCurrencyPayment.sol\":1396:1409  _currencyCode */\n  dup5\n    /* \"Blaze/day08_MultiCurrencyPayment.sol\":1380:1410  conversionRates[_currencyCode] */\n  mload(0x40)\n  tag_32\n  swap2\n  swap1\n  tag_33\n  jump\t// in\ntag_32:\n  swap1\n  dup2\n  mstore\n  0x20\n  add\n  mload(0x40)\n  dup1\n  swap2\n  sub\n  swap1\n  keccak256\n    /* \"Blaze/day08_MultiCurrencyPayment.sol\":1380:1423  conversionRates[_currencyCode] = _rateToEth */\n  dup2\n  swap1\n  sstore\n  pop\n    /* \"Blaze/day08_MultiCurrencyPayment.sol\":798:1430  {... */\n  pop\n    /* \"Blaze/day08_MultiCurrencyPayment.sol\":711:1430  function addCurrency(string memory _currencyCode, uint256 _rateToEth) public onlyOwner {... */\n  pop\n  pop\n  jump\t// out\n    /* \"#utility.yul\":7:176   */\ntag_34:\n    /* \"#utility.yul\":91:102   */\n  0x00\n    /* \"#utility.yul\":125:131   */\n  dup3\n    /* \"#utility.yul\":120:123   */\n  dup3\n    /* \"#utility.yul\":113:132   */\n  mstore\n    /* \"#utility.yul\":165:169   */\n  0x20\n    /* \"#utility.yul\":160:163   */\n  dup3\n    /* \"#utility.yul\":156:170   */\n  add\n    /* \"#utility.yul\":141:170   */\n  swap1\n  pop\n    /* \"#utility.yul\":7:176   */\n  swap3\n  swap2\n  pop\n  pop\n  jump\t// out\n    /* \"#utility.yul\":182:403   */\ntag_35:\n    /* \"#utility.yul\":322:356   */\n  0x4f6e6c79206f776e65722063616e20706572666f726d20746869732061637469\n    /* \"#utility.yul\":318:319   */\n  0x00\n    /* \"#utility.yul\":310:316   */\n  dup3\n    /* \"#utility.yul\":306:320   */\n  add\n    /* \"#utility.yul\":299:357   */\n  mstore\n    /* \"#utility.yul\":391:395   */\n  0x6f6e000000000000000000000000000000000000000000000000000000000000\n    /* \"#utility.yul\":386:388   */\n  0x20\n    /* \"#utility.yul\":378:384   */\n  dup3\n    /* \"#utility.yul\":374:389   */\n  add\n    /* \"#utility.yul\":367:396   */\n  mstore\n    /* \"#utility.yul\":182:403   */\n  pop\n  jump\t// out\n    /* \"#utility.yul\":409:775   */\ntag_36:\n    /* \"#utility.yul\":551:554   */\n  0x00\n    /* \"#utility.yul\":572:639   */\n  tag_69\n    /* \"#utility.yul\":636:638   */\n  0x22\n    /* \"#utility.yul\":631:634   */\n  dup4\n    /* \"#utility.yul\":572:639   */\n  tag_34\n  jump\t// in\ntag_69:\n    /* \"#utility.yul\":565:639   */\n  swap2\n  pop\n    /* \"#utility.yul\":648:741   */\n  tag_70\n    /* \"#utility.yul\":737:740   */\n  dup3\n    /* \"#utility.yul\":648:741   */\n  tag_35\n  jump\t// in\ntag_70:\n    /* \"#utility.yul\":766:768   */\n  0x40\n    /* \"#utility.yul\":761:764   */\n  dup3\n    /* \"#utility.yul\":757:769   */\n  add\n    /* \"#utility.yul\":750:769   */\n  swap1\n  pop\n    /* \"#utility.yul\":409:775   */\n  swap2\n  swap1\n  pop\n  jump\t// out\n    /* \"#utility.yul\":781:1200   */\ntag_13:\n    /* \"#utility.yul\":947:951   */\n  0x00\n    /* \"#utility.yul\":985:987   */\n  0x20\n    /* \"#utility.yul\":974:983   */\n  dup3\n    /* \"#utility.yul\":970:988   */\n  add\n    /* \"#utility.yul\":962:988   */\n  swap1\n  pop\n    /* \"#utility.yul\":1034:1043   */\n  dup2\n    /* \"#utility.yul\":1028:1032   */\n  dup2\n    /* \"#utility.yul\":1024:1044   */\n  sub\n    /* \"#utility.yul\":1020:1021   */\n  0x00\n    /* \"#utility.yul\":1009:1018   */\n  dup4\n    /* \"#utility.yul\":1005:1022   */\n  add\n    /* \"#utility.yul\":998:1045   */\n  mstore\n    /* \"#utility.yul\":1062:1193   */\n  tag_72\n    /* \"#utility.yul\":1188:1192   */\n  dup2\n    /* \"#utility.yul\":1062:1193   */\n  tag_36\n  jump\t// in\ntag_72:\n    /* \"#utility.yul\":1054:1193   */\n  swap1\n  pop\n    /* \"#utility.yul\":781:1200   */\n  swap2\n  swap1\n  pop\n  jump\t// out\n    /* \"#utility.yul\":1206:1431   */\ntag_37:\n    /* \"#utility.yul\":1346:1380   */\n  0x436f6e76657273696f6e2072617465206d757374206265206772656174657220\n    /* \"#utility.yul\":1342:1343   */\n  0x00\n    /* \"#utility.yul\":1334:1340   */\n  dup3\n    /* \"#utility.yul\":1330:1344   */\n  add\n    /* \"#utility.yul\":1323:1381   */\n  mstore\n    /* \"#utility.yul\":1415:1423   */\n  0x7468616e20300000000000000000000000000000000000000000000000000000\n    /* \"#utility.yul\":1410:1412   */\n  0x20\n    /* \"#utility.yul\":1402:1408   */\n  dup3\n    /* \"#utility.yul\":1398:1413   */\n  add\n    /* \"#utility.yul\":1391:1424   */\n  mstore\n    /* \"#utility.yul\":1206:1431   */\n  pop\n  jump\t// out\n    /* \"#utility.yul\":1437:1803   */\ntag_38:\n    /* \"#utility.yul\":1579:1582   */\n  0x00\n    /* \"#utility.yul\":1600:1667   */\n  tag_75\n    /* \"#utility.yul\":1664:1666   */\n  0x26\n    /* \"#utility.yul\":1659:1662   */\n  dup4\n    /* \"#utility.yul\":1600:1667   */\n  tag_34\n  jump\t// in\ntag_75:\n    /* \"#utility.yul\":1593:1667   */\n  swap2\n  pop\n    /* \"#utility.yul\":1676:1769   */\n  tag_76\n    /* \"#utility.yul\":1765:1768   */\n  dup3\n    /* \"#utility.yul\":1676:1769   */\n  tag_37\n  jump\t// in\ntag_76:\n    /* \"#utility.yul\":1794:1796   */\n  0x40\n    /* \"#utility.yul\":1789:1792   */\n  dup3\n    /* \"#utility.yul\":1785:1797   */\n  add\n    /* \"#utility.yul\":1778:1797   */\n  swap1\n  pop\n    /* \"#utility.yul\":1437:1803   */\n  swap2\n  swap1\n  pop\n  jump\t// out\n    /* \"#utility.yul\":1809:2228   */\ntag_17:\n    /* \"#utility.yul\":1975:1979   */\n  0x00\n    /* \"#utility.yul\":2013:2015   */\n  0x20\n    /* \"#utility.yul\":2002:2011   */\n  dup3\n    /* \"#utility.yul\":1998:2016   */\n  add\n    /* \"#utility.yul\":1990:2016   */\n  swap1\n  pop\n    /* \"#utility.yul\":2062:2071   */\n  dup2\n    /* \"#utility.yul\":2056:2060   */\n  dup2\n    /* \"#utility.yul\":2052:2072   */\n  sub\n    /* \"#utility.yul\":2048:2049   */\n  0x00\n    /* \"#utility.yul\":2037:2046   */\n  dup4\n    /* \"#utility.yul\":2033:2050   */\n  add\n    /* \"#utility.yul\":2026:2073   */\n  mstore\n    /* \"#utility.yul\":2090:2221   */\n  tag_78\n    /* \"#utility.yul\":2216:2220   */\n  dup2\n    /* \"#utility.yul\":2090:2221   */\n  tag_38\n  jump\t// in\ntag_78:\n    /* \"#utility.yul\":2082:2221   */\n  swap1\n  pop\n    /* \"#utility.yul\":1809:2228   */\n  swap2\n  swap1\n  pop\n  jump\t// out\n    /* \"#utility.yul\":2234:2414   */\ntag_23:\n    /* \"#utility.yul\":2282:2359   */\n  0x4e487b7100000000000000000000000000000000000000000000000000000000\n    /* \"#utility.yul\":2279:2280   */\n  0x00\n    /* \"#utility.yul\":2272:2360   */\n  mstore\n    /* \"#utility.yul\":2379:2383   */\n  0x32\n    /* \"#utility.yul\":2376:2377   */\n  0x04\n    /* \"#utility.yul\":2369:2384   */\n  mstore\n    /* \"#utility.yul\":2403:2407   */\n  0x24\n    /* \"#utility.yul\":2400:2401   */\n  0x00\n    /* \"#utility.yul\":2393:2408   */\n  revert\n    /* \"#utility.yul\":2420:2600   */\ntag_39:\n    /* \"#utility.yul\":2468:2545   */\n  0x4e487b7100000000000000000000000000000000000000000000000000000000\n    /* \"#utility.yul\":2465:2466   */\n  0x00\n    /* \"#utility.yul\":2458:2546   */\n  mstore\n    /* \"#utility.yul\":2565:2569   */\n  0x22\n    /* \"#utility.yul\":2562:2563   */\n  0x04\n    /* \"#utility.yul\":2555:2570   */\n  mstore\n    /* \"#utility.yul\":2589:2593   */\n  0x24\n    /* \"#utility.yul\":2586:2587   */\n  0x00\n    /* \"#utility.yul\":2579:2594   */\n  revert\n    /* \"#utility.yul\":2606:2926   */\ntag_40:\n    /* \"#utility.yul\":2650:2656   */\n  0x00\n    /* \"#utility.yul\":2687:2688   */\n  0x02\n    /* \"#utility.yul\":2681:2685   */\n  dup3\n    /* \"#utility.yul\":2677:2689   */\n  div\n    /* \"#utility.yul\":2667:2689   */\n  swap1\n  pop\n    /* \"#utility.yul\":2734:2735   */\n  0x01\n    /* \"#utility.yul\":2728:2732   */\n  dup3\n    /* \"#utility.yul\":2724:2736   */\n  and\n    /* \"#utility.yul\":2755:2773   */\n  dup1\n    /* \"#utility.yul\":2745:2826   */\n  tag_82\n  jumpi\n    /* \"#utility.yul\":2811:2815   */\n  0x7f\n    /* \"#utility.yul\":2803:2809   */\n  dup3\n    /* \"#utility.yul\":2799:2816   */\n  and\n    /* \"#utility.yul\":2789:2816   */\n  swap2\n  pop\n    /* \"#utility.yul\":2745:2826   */\ntag_82:\n    /* \"#utility.yul\":2873:2875   */\n  0x20\n    /* \"#utility.yul\":2865:2871   */\n  dup3\n    /* \"#utility.yul\":2862:2876   */\n  lt\n    /* \"#utility.yul\":2842:2860   */\n  dup2\n    /* \"#utility.yul\":2839:2877   */\n  sub\n    /* \"#utility.yul\":2836:2920   */\n  tag_83\n  jumpi\n    /* \"#utility.yul\":2892:2910   */\n  tag_84\n  tag_39\n  jump\t// in\ntag_84:\n    /* \"#utility.yul\":2836:2920   */\ntag_83:\n    /* \"#utility.yul\":2657:2926   */\n  pop\n    /* \"#utility.yul\":2606:2926   */\n  swap2\n  swap1\n  pop\n  jump\t// out\n    /* \"#utility.yul\":2932:3079   */\ntag_41:\n    /* \"#utility.yul\":3033:3044   */\n  0x00\n    /* \"#utility.yul\":3070:3073   */\n  dup2\n    /* \"#utility.yul\":3055:3073   */\n  swap1\n  pop\n    /* \"#utility.yul\":2932:3079   */\n  swap3\n  swap2\n  pop\n  pop\n  jump\t// out\n    /* \"#utility.yul\":3085:3229   */\ntag_42:\n    /* \"#utility.yul\":3137:3141   */\n  0x00\n    /* \"#utility.yul\":3160:3163   */\n  dup2\n    /* \"#utility.yul\":3152:3163   */\n  swap1\n  pop\n    /* \"#utility.yul\":3183:3186   */\n  dup2\n    /* \"#utility.yul\":3180:3181   */\n  0x00\n    /* \"#utility.yul\":3173:3187   */\n  mstore\n    /* \"#utility.yul\":3217:3221   */\n  0x20\n    /* \"#utility.yul\":3214:3215   */\n  0x00\n    /* \"#utility.yul\":3204:3222   */\n  keccak256\n    /* \"#utility.yul\":3196:3222   */\n  swap1\n  pop\n    /* \"#utility.yul\":3085:3229   */\n  swap2\n  swap1\n  pop\n  jump\t// out\n    /* \"#utility.yul\":3257:4135   */\ntag_43:\n    /* \"#utility.yul\":3362:3365   */\n  0x00\n    /* \"#utility.yul\":3399:3404   */\n  dup2\n    /* \"#utility.yul\":3393:3405   */\n  sload\n    /* \"#utility.yul\":3428:3464   */\n  tag_88\n    /* \"#utility.yul\":3454:3463   */\n  dup2\n    /* \"#utility.yul\":3428:3464   */\n  tag_40\n  jump\t// in\ntag_88:\n    /* \"#utility.yul\":3480:3568   */\n  tag_89\n    /* \"#utility.yul\":3561:3567   */\n  dup2\n    /* \"#utility.yul\":3556:3559   */\n  dup7\n    /* \"#utility.yul\":3480:3568   */\n  tag_41\n  jump\t// in\ntag_89:\n    /* \"#utility.yul\":3473:3568   */\n  swap5\n  pop\n    /* \"#utility.yul\":3599:3600   */\n  0x01\n    /* \"#utility.yul\":3588:3597   */\n  dup3\n    /* \"#utility.yul\":3584:3601   */\n  and\n    /* \"#utility.yul\":3615:3616   */\n  0x00\n    /* \"#utility.yul\":3610:3776   */\n  dup2\n  eq\n  tag_91\n  jumpi\n    /* \"#utility.yul\":3790:3791   */\n  0x01\n    /* \"#utility.yul\":3785:4129   */\n  dup2\n  eq\n  tag_92\n  jumpi\n    /* \"#utility.yul\":3577:4129   */\n  jump(tag_90)\n    /* \"#utility.yul\":3610:3776   */\ntag_91:\n    /* \"#utility.yul\":3694:3698   */\n  0xff\n    /* \"#utility.yul\":3690:3699   */\n  not\n    /* \"#utility.yul\":3679:3688   */\n  dup4\n    /* \"#utility.yul\":3675:3700   */\n  and\n    /* \"#utility.yul\":3670:3673   */\n  dup7\n    /* \"#utility.yul\":3663:3701   */\n  mstore\n    /* \"#utility.yul\":3756:3762   */\n  dup2\n    /* \"#utility.yul\":3749:3763   */\n  iszero\n    /* \"#utility.yul\":3742:3764   */\n  iszero\n    /* \"#utility.yul\":3734:3740   */\n  dup3\n    /* \"#utility.yul\":3730:3765   */\n  mul\n    /* \"#utility.yul\":3725:3728   */\n  dup7\n    /* \"#utility.yul\":3721:3766   */\n  add\n    /* \"#utility.yul\":3714:3766   */\n  swap4\n  pop\n    /* \"#utility.yul\":3610:3776   */\n  jump(tag_90)\n    /* \"#utility.yul\":3785:4129   */\ntag_92:\n    /* \"#utility.yul\":3852:3893   */\n  tag_93\n    /* \"#utility.yul\":3887:3892   */\n  dup6\n    /* \"#utility.yul\":3852:3893   */\n  tag_42\n  jump\t// in\ntag_93:\n    /* \"#utility.yul\":3915:3916   */\n  0x00\n    /* \"#utility.yul\":3929:4083   */\ntag_94:\n    /* \"#utility.yul\":3943:3949   */\n  dup4\n    /* \"#utility.yul\":3940:3941   */\n  dup2\n    /* \"#utility.yul\":3937:3950   */\n  lt\n    /* \"#utility.yul\":3929:4083   */\n  iszero\n  tag_96\n  jumpi\n    /* \"#utility.yul\":4017:4024   */\n  dup2\n    /* \"#utility.yul\":4011:4025   */\n  sload\n    /* \"#utility.yul\":4007:4008   */\n  dup2\n    /* \"#utility.yul\":4002:4005   */\n  dup10\n    /* \"#utility.yul\":3998:4009   */\n  add\n    /* \"#utility.yul\":3991:4026   */\n  mstore\n    /* \"#utility.yul\":4067:4068   */\n  0x01\n    /* \"#utility.yul\":4058:4065   */\n  dup3\n    /* \"#utility.yul\":4054:4069   */\n  add\n    /* \"#utility.yul\":4043:4069   */\n  swap2\n  pop\n    /* \"#utility.yul\":3965:3969   */\n  0x20\n    /* \"#utility.yul\":3962:3963   */\n  dup2\n    /* \"#utility.yul\":3958:3970   */\n  add\n    /* \"#utility.yul\":3953:3970   */\n  swap1\n  pop\n    /* \"#utility.yul\":3929:4083   */\n  jump(tag_94)\ntag_96:\n    /* \"#utility.yul\":4112:4118   */\n  dup4\n    /* \"#utility.yul\":4107:4110   */\n  dup9\n    /* \"#utility.yul\":4103:4119   */\n  add\n    /* \"#utility.yul\":4096:4119   */\n  swap6\n  pop\n    /* \"#utility.yul\":3792:4129   */\n  pop\n  pop\n    /* \"#utility.yul\":3577:4129   */\ntag_90:\n  pop\n    /* \"#utility.yul\":3366:4135   */\n  pop\n  pop\n    /* \"#utility.yul\":3257:4135   */\n  swap3\n  swap2\n  pop\n  pop\n  jump\t// out\n    /* \"#utility.yul\":4141:4414   */\ntag_26:\n    /* \"#utility.yul\":4272:4275   */\n  0x00\n    /* \"#utility.yul\":4294:4388   */\n  tag_98\n    /* \"#utility.yul\":4384:4387   */\n  dup3\n    /* \"#utility.yul\":4375:4381   */\n  dup5\n    /* \"#utility.yul\":4294:4388   */\n  tag_43\n  jump\t// in\ntag_98:\n    /* \"#utility.yul\":4287:4388   */\n  swap2\n  pop\n    /* \"#utility.yul\":4405:4408   */\n  dup2\n    /* \"#utility.yul\":4398:4408   */\n  swap1\n  pop\n    /* \"#utility.yul\":4141:4414   */\n  swap3\n  swap2\n  pop\n  pop\n  jump\t// out\n    /* \"#utility.yul\":4420:4519   */\ntag_44:\n    /* \"#utility.yul\":4472:4478   */\n  0x00\n    /* \"#utility.yul\":4506:4511   */\n  dup2\n    /* \"#utility.yul\":4500:4512   */\n  mload\n    /* \"#utility.yul\":4490:4512   */\n  swap1\n  pop\n    /* \"#utility.yul\":4420:4519   */\n  swap2\n  swap1\n  pop\n  jump\t// out\n    /* \"#utility.yul\":4525:4705   */\ntag_45:\n    /* \"#utility.yul\":4573:4650   */\n  0x4e487b7100000000000000000000000000000000000000000000000000000000\n    /* \"#utility.yul\":4570:4571   */\n  0x00\n    /* \"#utility.yul\":4563:4651   */\n  mstore\n    /* \"#utility.yul\":4670:4674   */\n  0x41\n    /* \"#utility.yul\":4667:4668   */\n  0x04\n    /* \"#utility.yul\":4660:4675   */\n  mstore\n    /* \"#utility.yul\":4694:4698   */\n  0x24\n    /* \"#utility.yul\":4691:4692   */\n  0x00\n    /* \"#utility.yul\":4684:4699   */\n  revert\n    /* \"#utility.yul\":4711:4852   */\ntag_46:\n    /* \"#utility.yul\":4760:4764   */\n  0x00\n    /* \"#utility.yul\":4783:4786   */\n  dup2\n    /* \"#utility.yul\":4775:4786   */\n  swap1\n  pop\n    /* \"#utility.yul\":4806:4809   */\n  dup2\n    /* \"#utility.yul\":4803:4804   */\n  0x00\n    /* \"#utility.yul\":4796:4810   */\n  mstore\n    /* \"#utility.yul\":4840:4844   */\n  0x20\n    /* \"#utility.yul\":4837:4838   */\n  0x00\n    /* \"#utility.yul\":4827:4845   */\n  keccak256\n    /* \"#utility.yul\":4819:4845   */\n  swap1\n  pop\n    /* \"#utility.yul\":4711:4852   */\n  swap2\n  swap1\n  pop\n  jump\t// out\n    /* \"#utility.yul\":4858:4951   */\ntag_47:\n    /* \"#utility.yul\":4895:4901   */\n  0x00\n    /* \"#utility.yul\":4942:4944   */\n  0x20\n    /* \"#utility.yul\":4937:4939   */\n  0x1f\n    /* \"#utility.yul\":4930:4935   */\n  dup4\n    /* \"#utility.yul\":4926:4940   */\n  add\n    /* \"#utility.yul\":4922:4945   */\n  div\n    /* \"#utility.yul\":4912:4945   */\n  swap1\n  pop\n    /* \"#utility.yul\":4858:4951   */\n  swap2\n  swap1\n  pop\n  jump\t// out\n    /* \"#utility.yul\":4957:5064   */\ntag_48:\n    /* \"#utility.yul\":5001:5009   */\n  0x00\n    /* \"#utility.yul\":5051:5056   */\n  dup3\n    /* \"#utility.yul\":5045:5049   */\n  dup3\n    /* \"#utility.yul\":5041:5057   */\n  shl\n    /* \"#utility.yul\":5020:5057   */\n  swap1\n  pop\n    /* \"#utility.yul\":4957:5064   */\n  swap3\n  swap2\n  pop\n  pop\n  jump\t// out\n    /* \"#utility.yul\":5070:5463   */\ntag_49:\n    /* \"#utility.yul\":5139:5145   */\n  0x00\n    /* \"#utility.yul\":5189:5190   */\n  0x08\n    /* \"#utility.yul\":5177:5187   */\n  dup4\n    /* \"#utility.yul\":5173:5191   */\n  mul\n    /* \"#utility.yul\":5212:5309   */\n  tag_105\n    /* \"#utility.yul\":5242:5308   */\n  0xffffffffffffffffffffffffffffffffffffffffffffffffffffffffffffffff\n    /* \"#utility.yul\":5231:5240   */\n  dup3\n    /* \"#utility.yul\":5212:5309   */\n  tag_48\n  jump\t// in\ntag_105:\n    /* \"#utility.yul\":5330:5369   */\n  tag_106\n    /* \"#utility.yul\":5360:5368   */\n  dup7\n    /* \"#utility.yul\":5349:5358   */\n  dup4\n    /* \"#utility.yul\":5330:5369   */\n  tag_48\n  jump\t// in\ntag_106:\n    /* \"#utility.yul\":5318:5369   */\n  swap6\n  pop\n    /* \"#utility.yul\":5402:5406   */\n  dup1\n    /* \"#utility.yul\":5398:5407   */\n  not\n    /* \"#utility.yul\":5391:5396   */\n  dup5\n    /* \"#utility.yul\":5387:5408   */\n  and\n    /* \"#utility.yul\":5378:5408   */\n  swap4\n  pop\n    /* \"#utility.yul\":5451:5455   */\n  dup1\n    /* \"#utility.yul\":5441:5449   */\n  dup7\n    /* \"#utility.yul\":5437:5456   */\n  and\n    /* \"#utility.yul\":5430:5435   */\n  dup5\n    /* \"#utility.yul\":5427:5457   */\n  or\n    /* \"#utility.yul\":5417:5457   */\n  swap3\n  pop\n    /* \"#utility.yul\":5146:5463   */\n  pop\n  pop\n    /* \"#utility.yul\":5070:5463   */\n  swap4\n  swap3\n  pop\n  pop\n  pop\n  jump\t// out\n    /* \"#utility.yul\":5469:5546   */\ntag_50:\n    /* \"#utility.yul\":5506:5513   */\n  0x00\n    /* \"#utility.yul\":5535:5540   */\n  dup2\n    /* \"#utility.yul\":5524:5540   */\n  swap1\n  pop\n    /* \"#utility.yul\":5469:5546   */\n  swap2\n  swap1\n  pop\n  jump\t// out\n    /* \"#utility.yul\":5552:5612   */\ntag_51:\n    /* \"#utility.yul\":5580:5583   */\n  0x00\n    /* \"#utility.yul\":5601:5606   */\n  dup2\n    /* \"#utility.yul\":5594:5606   */\n  swap1\n  pop\n    /* \"#utility.yul\":5552:5612   */\n  swap2\n  swap1\n  pop\n  jump\t// out\n    /* \"#utility.yul\":5618:5760   */\ntag_52:\n    /* \"#utility.yul\":5668:5677   */\n  0x00\n    /* \"#utility.yul\":5701:5754   */\n  tag_110\n    /* \"#utility.yul\":5719:5753   */\n  tag_111\n    /* \"#utility.yul\":5728:5752   */\n  tag_112\n    /* \"#utility.yul\":5746:5751   */\n  dup5\n    /* \"#utility.yul\":5728:5752   */\n  tag_50\n  jump\t// in\ntag_112:\n    /* \"#utility.yul\":5719:5753   */\n  tag_51\n  jump\t// in\ntag_111:\n    /* \"#utility.yul\":5701:5754   */\n  tag_50\n  jump\t// in\ntag_110:\n    /* \"#utility.yul\":5688:5754   */\n  swap1\n  pop\n    /* \"#utility.yul\":5618:5760   */\n  swap2\n  swap1\n  pop\n  jump\t// out\n    /* \"#utility.yul\":5766:5841   */\ntag_53:\n    /* \"#utility.yul\":5809:5812   */\n  0x00\n    /* \"#utility.yul\":5830:5835   */\n  dup2\n    /* \"#utility.yul\":5823:5835   */\n  swap1\n  pop\n    /* \"#utility.yul\":5766:5841   */\n  swap2\n  swap1\n  pop\n  jump\t// out\n    /* \"#utility.yul\":5847:6116   */\ntag_54:\n    /* \"#utility.yul\":5957:5996   */\n  tag_115\n    /* \"#utility.yul\":5988:5995   */\n  dup4\n    /* \"#utility.yul\":5957:5996   */\n  tag_52\n  jump\t// in\ntag_115:\n    /* \"#utility.yul\":6018:6109   */\n  tag_116\n    /* \"#utility.yul\":6067:6108   */\n  tag_117\n    /* \"#utility.yul\":6091:6107   */\n  dup3\n    /* \"#utility.yul\":6067:6108   */\n  tag_53\n  jump\t// in\ntag_117:\n    /* \"#utility.yul\":6059:6065   */\n  dup5\n    /* \"#utility.yul\":6052:6056   */\n  dup5\n    /* \"#utility.yul\":6046:6057   */\n  sload\n    /* \"#utility.yul\":6018:6109   */\n  tag_49\n  jump\t// in\ntag_116:\n    /* \"#utility.yul\":6012:6016   */\n  dup3\n    /* \"#utility.yul\":6005:6110   */\n  sstore\n    /* \"#utility.yul\":5923:6116   */\n  pop\n    /* \"#utility.yul\":5847:6116   */\n  pop\n  pop\n  pop\n  jump\t// out\n    /* \"#utility.yul\":6122:6195   */\ntag_55:\n    /* \"#utility.yul\":6167:6170   */\n  0x00\n    /* \"#utility.yul\":6188:6189   */\n  0x00\n    /* \"#utility.yul\":6181:6189   */\n  swap1\n  pop\n    /* \"#utility.yul\":6122:6195   */\n  swap1\n  jump\t// out\n    /* \"#utility.yul\":6201:6390   */\ntag_56:\n    /* \"#utility.yul\":6278:6310   */\n  tag_120\n  tag_55\n  jump\t// in\ntag_120:\n    /* \"#utility.yul\":6319:6384   */\n  tag_121\n    /* \"#utility.yul\":6377:6383   */\n  dup2\n    /* \"#utility.yul\":6369:6375   */\n  dup5\n    /* \"#utility.yul\":6363:6367   */\n  dup5\n    /* \"#utility.yul\":6319:6384   */\n  tag_54\n  jump\t// in\ntag_121:\n    /* \"#utility.yul\":6254:6390   */\n  pop\n    /* \"#utility.yul\":6201:6390   */\n  pop\n  pop\n  jump\t// out\n    /* \"#utility.yul\":6396:6582   */\ntag_57:\n    /* \"#utility.yul\":6456:6576   */\ntag_123:\n    /* \"#utility.yul\":6473:6476   */\n  dup2\n    /* \"#utility.yul\":6466:6471   */\n  dup2\n    /* \"#utility.yul\":6463:6477   */\n  lt\n    /* \"#utility.yul\":6456:6576   */\n  iszero\n  tag_125\n  jumpi\n    /* \"#utility.yul\":6527:6566   */\n  tag_126\n    /* \"#utility.yul\":6564:6565   */\n  0x00\n    /* \"#utility.yul\":6557:6562   */\n  dup3\n    /* \"#utility.yul\":6527:6566   */\n  tag_56\n  jump\t// in\ntag_126:\n    /* \"#utility.yul\":6500:6501   */\n  0x01\n    /* \"#utility.yul\":6493:6498   */\n  dup2\n    /* \"#utility.yul\":6489:6502   */\n  add\n    /* \"#utility.yul\":6480:6502   */\n  swap1\n  pop\n    /* \"#utility.yul\":6456:6576   */\n  jump(tag_123)\ntag_125:\n    /* \"#utility.yul\":6396:6582   */\n  pop\n  pop\n  jump\t// out\n    /* \"#utility.yul\":6588:7131   */\ntag_58:\n    /* \"#utility.yul\":6689:6691   */\n  0x1f\n    /* \"#utility.yul\":6684:6687   */\n  dup3\n    /* \"#utility.yul\":6681:6692   */\n  gt\n    /* \"#utility.yul\":6678:7124   */\n  iszero\n  tag_128\n  jumpi\n    /* \"#utility.yul\":6723:6761   */\n  tag_129\n    /* \"#utility.yul\":6755:6760   */\n  dup2\n    /* \"#utility.yul\":6723:6761   */\n  tag_46\n  jump\t// in\ntag_129:\n    /* \"#utility.yul\":6807:6836   */\n  tag_130\n    /* \"#utility.yul\":6825:6835   */\n  dup5\n    /* \"#utility.yul\":6807:6836   */\n  tag_47\n  jump\t// in\ntag_130:\n    /* \"#utility.yul\":6797:6805   */\n  dup2\n    /* \"#utility.yul\":6793:6837   */\n  add\n    /* \"#utility.yul\":6990:6992   */\n  0x20\n    /* \"#utility.yul\":6978:6988   */\n  dup6\n    /* \"#utility.yul\":6975:6993   */\n  lt\n    /* \"#utility.yul\":6972:7021   */\n  iszero\n  tag_131\n  jumpi\n    /* \"#utility.yul\":7011:7019   */\n  dup2\n    /* \"#utility.yul\":6996:7019   */\n  swap1\n  pop\n    /* \"#utility.yul\":6972:7021   */\ntag_131:\n    /* \"#utility.yul\":7034:7114   */\n  tag_132\n    /* \"#utility.yul\":7090:7112   */\n  tag_133\n    /* \"#utility.yul\":7108:7111   */\n  dup6\n    /* \"#utility.yul\":7090:7112   */\n  tag_47\n  jump\t// in\ntag_133:\n    /* \"#utility.yul\":7080:7088   */\n  dup4\n    /* \"#utility.yul\":7076:7113   */\n  add\n    /* \"#utility.yul\":7063:7074   */\n  dup3\n    /* \"#utility.yul\":7034:7114   */\n  tag_57\n  jump\t// in\ntag_132:\n    /* \"#utility.yul\":6693:7124   */\n  pop\n  pop\n    /* \"#utility.yul\":6678:7124   */\ntag_128:\n    /* \"#utility.yul\":6588:7131   */\n  pop\n  pop\n  pop\n  jump\t// out\n    /* \"#utility.yul\":7137:7254   */\ntag_59:\n    /* \"#utility.yul\":7191:7199   */\n  0x00\n    /* \"#utility.yul\":7241:7246   */\n  dup3\n    /* \"#utility.yul\":7235:7239   */\n  dup3\n    /* \"#utility.yul\":7231:7247   */\n  shr\n    /* \"#utility.yul\":7210:7247   */\n  swap1\n  pop\n    /* \"#utility.yul\":7137:7254   */\n  swap3\n  swap2\n  pop\n  pop\n  jump\t// out\n    /* \"#utility.yul\":7260:7429   */\ntag_60:\n    /* \"#utility.yul\":7304:7310   */\n  0x00\n    /* \"#utility.yul\":7337:7388   */\n  tag_136\n    /* \"#utility.yul\":7385:7386   */\n  0x00\n    /* \"#utility.yul\":7381:7387   */\n  not\n    /* \"#utility.yul\":7373:7378   */\n  dup5\n    /* \"#utility.yul\":7370:7371   */\n  0x08\n    /* \"#utility.yul\":7366:7379   */\n  mul\n    /* \"#utility.yul\":7337:7388   */\n  tag_59\n  jump\t// in\ntag_136:\n    /* \"#utility.yul\":7333:7389   */\n  not\n    /* \"#utility.yul\":7418:7422   */\n  dup1\n    /* \"#utility.yul\":7412:7416   */\n  dup4\n    /* \"#utility.yul\":7408:7423   */\n  and\n    /* \"#utility.yul\":7398:7423   */\n  swap2\n  pop\n    /* \"#utility.yul\":7311:7429   */\n  pop\n    /* \"#utility.yul\":7260:7429   */\n  swap3\n  swap2\n  pop\n  pop\n  jump\t// out\n    /* \"#utility.yul\":7434:7729   */\ntag_61:\n    /* \"#utility.yul\":7510:7514   */\n  0x00\n    /* \"#utility.yul\":7656:7685   */\n  tag_138\n    /* \"#utility.yul\":7681:7684   */\n  dup4\n    /* \"#utility.yul\":7675:7679   */\n  dup4\n    /* \"#utility.yul\":7656:7685   */\n  tag_60\n  jump\t// in\ntag_138:\n    /* \"#utility.yul\":7648:7685   */\n  swap2\n  pop\n    /* \"#utility.yul\":7718:7721   */\n  dup3\n    /* \"#utility.yul\":7715:7716   */\n  0x02\n    /* \"#utility.yul\":7711:7722   */\n  mul\n    /* \"#utility.yul\":7705:7709   */\n  dup3\n    /* \"#utility.yul\":7702:7723   */\n  or\n    /* \"#utility.yul\":7694:7723   */\n  swap1\n  pop\n    /* \"#utility.yul\":7434:7729   */\n  swap3\n  swap2\n  pop\n  pop\n  jump\t// out\n    /* \"#utility.yul\":7734:9129   */\ntag_31:\n    /* \"#utility.yul\":7851:7888   */\n  tag_140\n    /* \"#utility.yul\":7884:7887   */\n  dup3\n    /* \"#utility.yul\":7851:7888   */\n  tag_44\n  jump\t// in\ntag_140:\n    /* \"#utility.yul\":7953:7971   */\n  0xffffffffffffffff\n    /* \"#utility.yul\":7945:7951   */\n  dup2\n    /* \"#utility.yul\":7942:7972   */\n  gt\n    /* \"#utility.yul\":7939:7995   */\n  iszero\n  tag_141\n  jumpi\n    /* \"#utility.yul\":7975:7993   */\n  tag_142\n  tag_45\n  jump\t// in\ntag_142:\n    /* \"#utility.yul\":7939:7995   */\ntag_141:\n    /* \"#utility.yul\":8019:8057   */\n  tag_143\n    /* \"#utility.yul\":8051:8055   */\n  dup3\n    /* \"#utility.yul\":8045:8056   */\n  sload\n    /* \"#utility.yul\":8019:8057   */\n  tag_40\n  jump\t// in\ntag_143:\n    /* \"#utility.yul\":8104:8171   */\n  tag_144\n    /* \"#utility.yul\":8164:8170   */\n  dup3\n    /* \"#utility.yul\":8156:8162   */\n  dup3\n    /* \"#utility.yul\":8150:8154   */\n  dup6\n    /* \"#utility.yul\":8104:8171   */\n  tag_58\n  jump\t// in\ntag_144:\n    /* \"#utility.yul\":8198:8199   */\n  0x00\n    /* \"#utility.yul\":8222:8226   */\n  0x20\n    /* \"#utility.yul\":8209:8226   */\n  swap1\n  pop\n    /* \"#utility.yul\":8254:8256   */\n  0x1f\n    /* \"#utility.yul\":8246:8252   */\n  dup4\n    /* \"#utility.yul\":8243:8257   */\n  gt\n    /* \"#utility.yul\":8271:8272   */\n  0x01\n    /* \"#utility.yul\":8266:8884   */\n  dup2\n  eq\n  tag_146\n  jumpi\n    /* \"#utility.yul\":8928:8929   */\n  0x00\n    /* \"#utility.yul\":8945:8951   */\n  dup5\n    /* \"#utility.yul\":8942:9019   */\n  iszero\n  tag_147\n  jumpi\n    /* \"#utility.yul\":8994:9003   */\n  dup3\n    /* \"#utility.yul\":8989:8992   */\n  dup8\n    /* \"#utility.yul\":8985:9004   */\n  add\n    /* \"#utility.yul\":8979:9005   */\n  mload\n    /* \"#utility.yul\":8970:9005   */\n  swap1\n  pop\n    /* \"#utility.yul\":8942:9019   */\ntag_147:\n    /* \"#utility.yul\":9045:9112   */\n  tag_148\n    /* \"#utility.yul\":9105:9111   */\n  dup6\n    /* \"#utility.yul\":9098:9103   */\n  dup3\n    /* \"#utility.yul\":9045:9112   */\n  tag_61\n  jump\t// in\ntag_148:\n    /* \"#utility.yul\":9039:9043   */\n  dup7\n    /* \"#utility.yul\":9032:9113   */\n  sstore\n    /* \"#utility.yul\":8901:9123   */\n  pop\n    /* \"#utility.yul\":8236:9123   */\n  jump(tag_145)\n    /* \"#utility.yul\":8266:8884   */\ntag_146:\n    /* \"#utility.yul\":8318:8322   */\n  0x1f\n    /* \"#utility.yul\":8314:8323   */\n  not\n    /* \"#utility.yul\":8306:8312   */\n  dup5\n    /* \"#utility.yul\":8302:8324   */\n  and\n    /* \"#utility.yul\":8352:8389   */\n  tag_149\n    /* \"#utility.yul\":8384:8388   */\n  dup7\n    /* \"#utility.yul\":8352:8389   */\n  tag_46\n  jump\t// in\ntag_149:\n    /* \"#utility.yul\":8411:8412   */\n  0x00\n    /* \"#utility.yul\":8425:8633   */\ntag_150:\n    /* \"#utility.yul\":8439:8446   */\n  dup3\n    /* \"#utility.yul\":8436:8437   */\n  dup2\n    /* \"#utility.yul\":8433:8447   */\n  lt\n    /* \"#utility.yul\":8425:8633   */\n  iszero\n  tag_152\n  jumpi\n    /* \"#utility.yul\":8518:8527   */\n  dup5\n    /* \"#utility.yul\":8513:8516   */\n  dup10\n    /* \"#utility.yul\":8509:8528   */\n  add\n    /* \"#utility.yul\":8503:8529   */\n  mload\n    /* \"#utility.yul\":8495:8501   */\n  dup3\n    /* \"#utility.yul\":8488:8530   */\n  sstore\n    /* \"#utility.yul\":8569:8570   */\n  0x01\n    /* \"#utility.yul\":8561:8567   */\n  dup3\n    /* \"#utility.yul\":8557:8571   */\n  add\n    /* \"#utility.yul\":8547:8571   */\n  swap2\n  pop\n    /* \"#utility.yul\":8616:8618   */\n  0x20\n    /* \"#utility.yul\":8605:8614   */\n  dup6\n    /* \"#utility.yul\":8601:8619   */\n  add\n    /* \"#utility.yul\":8588:8619   */\n  swap5\n  pop\n    /* \"#utility.yul\":8462:8466   */\n  0x20\n    /* \"#utility.yul\":8459:8460   */\n  dup2\n    /* \"#utility.yul\":8455:8467   */\n  add\n    /* \"#utility.yul\":8450:8467   */\n  swap1\n  pop\n    /* \"#utility.yul\":8425:8633   */\n  jump(tag_150)\ntag_152:\n    /* \"#utility.yul\":8661:8667   */\n  dup7\n    /* \"#utility.yul\":8652:8659   */\n  dup4\n    /* \"#utility.yul\":8649:8668   */\n  lt\n    /* \"#utility.yul\":8646:8825   */\n  iszero\n  tag_153\n  jumpi\n    /* \"#utility.yul\":8719:8728   */\n  dup5\n    /* \"#utility.yul\":8714:8717   */\n  dup10\n    /* \"#utility.yul\":8710:8729   */\n  add\n    /* \"#utility.yul\":8704:8730   */\n  mload\n    /* \"#utility.yul\":8762:8810   */\n  tag_154\n    /* \"#utility.yul\":8804:8808   */\n  0x1f\n    /* \"#utility.yul\":8796:8802   */\n  dup10\n    /* \"#utility.yul\":8792:8809   */\n  and\n    /* \"#utility.yul\":8781:8790   */\n  dup3\n    /* \"#utility.yul\":8762:8810   */\n  tag_60\n  jump\t// in\ntag_154:\n    /* \"#utility.yul\":8754:8760   */\n  dup4\n    /* \"#utility.yul\":8747:8811   */\n  sstore\n    /* \"#utility.yul\":8669:8825   */\n  pop\n    /* \"#utility.yul\":8646:8825   */\ntag_153:\n    /* \"#utility.yul\":8871:8872   */\n  0x01\n    /* \"#utility.yul\":8867:8868   */\n  0x02\n    /* \"#utility.yul\":8859:8865   */\n  dup9\n    /* \"#utility.yul\":8855:8869   */\n  mul\n    /* \"#utility.yul\":8851:8873   */\n  add\n    /* \"#utility.yul\":8845:8849   */\n  dup9\n    /* \"#utility.yul\":8838:8874   */\n  sstore\n    /* \"#utility.yul\":8273:8884   */\n  pop\n  pop\n  pop\n    /* \"#utility.yul\":8236:9123   */\ntag_145:\n  pop\n    /* \"#utility.yul\":7826:9129   */\n  pop\n  pop\n  pop\n    /* \"#utility.yul\":7734:9129   */\n  pop\n  pop\n  jump\t// out\n    /* \"#utility.yul\":9135:9283   */\ntag_62:\n    /* \"#utility.yul\":9237:9248   */\n  0x00\n    /* \"#utility.yul\":9274:9277   */\n  dup2\n    /* \"#utility.yul\":9259:9277   */\n  swap1\n  pop\n    /* \"#utility.yul\":9135:9283   */\n  swap3\n  swap2\n  pop\n  pop\n  jump\t// out\n    /* \"#utility.yul\":9289:9428   */\ntag_63:\n    /* \"#utility.yul\":9378:9384   */\n  dup3\n    /* \"#utility.yul\":9373:9376   */\n  dup2\n    /* \"#utility.yul\":9368:9371   */\n  dup4\n    /* \"#utility.yul\":9362:9385   */\n  mcopy\n    /* \"#utility.yul\":9419:9420   */\n  0x00\n    /* \"#utility.yul\":9410:9416   */\n  dup4\n    /* \"#utility.yul\":9405:9408   */\n  dup4\n    /* \"#utility.yul\":9401:9417   */\n  add\n    /* \"#utility.yul\":9394:9421   */\n  mstore\n    /* \"#utility.yul\":9289:9428   */\n  pop\n  pop\n  pop\n  jump\t// out\n    /* \"#utility.yul\":9434:9824   */\ntag_64:\n    /* \"#utility.yul\":9540:9543   */\n  0x00\n    /* \"#utility.yul\":9568:9607   */\n  tag_158\n    /* \"#utility.yul\":9601:9606   */\n  dup3\n    /* \"#utility.yul\":9568:9607   */\n  tag_44\n  jump\t// in\ntag_158:\n    /* \"#utility.yul\":9623:9712   */\n  tag_159\n    /* \"#utility.yul\":9705:9711   */\n  dup2\n    /* \"#utility.yul\":9700:9703   */\n  dup6\n    /* \"#utility.yul\":9623:9712   */\n  tag_62\n  jump\t// in\ntag_159:\n    /* \"#utility.yul\":9616:9712   */\n  swap4\n  pop\n    /* \"#utility.yul\":9721:9786   */\n  tag_160\n    /* \"#utility.yul\":9779:9785   */\n  dup2\n    /* \"#utility.yul\":9774:9777   */\n  dup6\n    /* \"#utility.yul\":9767:9771   */\n  0x20\n    /* \"#utility.yul\":9760:9765   */\n  dup7\n    /* \"#utility.yul\":9756:9772   */\n  add\n    /* \"#utility.yul\":9721:9786   */\n  tag_63\n  jump\t// in\ntag_160:\n    /* \"#utility.yul\":9811:9817   */\n  dup1\n    /* \"#utility.yul\":9806:9809   */\n  dup5\n    /* \"#utility.yul\":9802:9818   */\n  add\n    /* \"#utility.yul\":9795:9818   */\n  swap2\n  pop\n    /* \"#utility.yul\":9544:9824   */\n  pop\n    /* \"#utility.yul\":9434:9824   */\n  swap3\n  swap2\n  pop\n  pop\n  jump\t// out\n    /* \"#utility.yul\":9830:10105   */\ntag_33:\n    /* \"#utility.yul\":9962:9965   */\n  0x00\n    /* \"#utility.yul\":9984:10079   */\n  tag_162\n    /* \"#utility.yul\":10075:10078   */\n  dup3\n    /* \"#utility.yul\":10066:10072   */\n  dup5\n    /* \"#utility.yul\":9984:10079   */\n  tag_64\n  jump\t// in\ntag_162:\n    /* \"#utility.yul\":9977:10079   */\n  swap2\n  pop\n    /* \"#utility.yul\":10096:10099   */\n  dup2\n    /* \"#utility.yul\":10089:10099   */\n  swap1\n  pop\n    /* \"#utility.yul\":9830:10105   */\n  swap3\n  swap2\n  pop\n  pop\n  jump\t// out\n    /* \"Blaze/day08_MultiCurrencyPayment.sol\":56:4132  contract MultiCurrencyPayment {... */\ntag_9:\n  dataSize(sub_0)\n  dup1\n  dataOffset(sub_0)\n  0x00\n  codecopy\n  0x00\n  return\nstop\n\nsub_0: assembly {\n        /* \"Blaze/day08_MultiCurrencyPayment.sol\":56:4132  contract MultiCurrencyPayment {... */\n      mstore(0x40, 0x80)\n      jumpi(tag_1, lt(calldatasize, 0x04))\n      shr(0xe0, calldataload(0x00))\n      dup1\n      0x6de0938b\n      gt\n      tag_18\n      jumpi\n      dup1\n      0x9c88e42d\n      gt\n      tag_19\n      jumpi\n      dup1\n      0x9c88e42d\n      eq\n      tag_14\n      jumpi\n      dup1\n      0xb8443702\n      eq\n      tag_15\n      jumpi\n      dup1\n      0xefe8c084\n      eq\n      tag_16\n      jumpi\n      dup1\n      0xf2fde38b\n      eq\n      tag_17\n      jumpi\n      jump(tag_1)\n    tag_19:\n      dup1\n      0x6de0938b\n      eq\n      tag_10\n      jumpi\n      dup1\n      0x6f9fb98a\n      eq\n      tag_11\n      jumpi\n      dup1\n      0x8da5cb5b\n      eq\n      tag_12\n      jumpi\n      dup1\n      0x97bf7935\n      eq\n      tag_13\n      jumpi\n      jump(tag_1)\n    tag_18:\n      dup1\n      0x2ce75863\n      gt\n      tag_20\n      jumpi\n      dup1\n      0x2ce75863\n      eq\n      tag_6\n      jumpi\n      dup1\n      0x3aaa74b2\n      eq\n      tag_7\n      jumpi\n      dup1\n      0x5c41fece\n      eq\n      tag_8\n      jumpi\n      dup1\n      0x5c49c825\n      eq\n      tag_9\n      jumpi\n      jump(tag_1)\n    tag_20:\n      dup1\n      0x0d9ba15f\n      eq\n      tag_2\n      jumpi\n      dup1\n      0x10e1d1d4\n      eq\n      tag_3\n      jumpi\n      dup1\n      0x1fac531b\n      eq\n      tag_4\n      jumpi\n      dup1\n      0x223506a7\n      eq\n      tag_5\n      jumpi\n    tag_1:\n      revert(0x00, 0x00)\n        /* \"Blaze/day08_MultiCurrencyPayment.sol\":473:522  mapping(string => uint256) public tipsPerCurrency */\n    tag_2:\n      callvalue\n      dup1\n      iszero\n      tag_21\n      jumpi\n      revert(0x00, 0x00)\n    tag_21:\n      pop\n      tag_22\n      0x04\n      dup1\n      calldatasize\n      sub\n      dup2\n      add\n      swap1\n      tag_23\n      swap2\n      swap1\n      tag_24\n      jump\t// in\n    tag_23:\n      tag_25\n      jump\t// in\n    tag_22:\n      mload(0x40)\n      tag_26\n      swap2\n      swap1\n      tag_27\n      jump\t// in\n    tag_26:\n      mload(0x40)\n      dup1\n      swap2\n      sub\n      swap1\n      return\n        /* \"Blaze/day08_MultiCurrencyPayment.sol\":379:433  mapping(address => uint256) public tipperContributions */\n    tag_3:\n      callvalue\n      dup1\n      iszero\n      tag_28\n      jumpi\n      revert(0x00, 0x00)\n    tag_28:\n      pop\n      tag_29\n      0x04\n      dup1\n      calldatasize\n      sub\n      dup2\n      add\n      swap1\n      tag_30\n      swap2\n      swap1\n      tag_31\n      jump\t// in\n    tag_30:\n      tag_32\n      jump\t// in\n    tag_29:\n      mload(0x40)\n      tag_33\n      swap2\n      swap1\n      tag_27\n      jump\t// in\n    tag_33:\n      mload(0x40)\n      dup1\n      swap2\n      sub\n      swap1\n      return\n        /* \"Blaze/day08_MultiCurrencyPayment.sol\":3907:4126  function getConversionRate(string memory _currencyCode) public view returns (uint256) {... */\n    tag_4:\n      callvalue\n      dup1\n      iszero\n      tag_34\n      jumpi\n      revert(0x00, 0x00)\n    tag_34:\n      pop\n      tag_35\n      0x04\n      dup1\n      calldatasize\n      sub\n      dup2\n      add\n      swap1\n      tag_36\n      swap2\n      swap1\n      tag_24\n      jump\t// in\n    tag_36:\n      tag_37\n      jump\t// in\n    tag_35:\n      mload(0x40)\n      tag_38\n      swap2\n      swap1\n      tag_27\n      jump\t// in\n    tag_38:\n      mload(0x40)\n      dup1\n      swap2\n      sub\n      swap1\n      return\n        /* \"Blaze/day08_MultiCurrencyPayment.sol\":3752:3882  function getTipperContribution(address _tipper) public view returns (uint256) {... */\n    tag_5:\n      callvalue\n      dup1\n      iszero\n      tag_39\n      jumpi\n      revert(0x00, 0x00)\n    tag_39:\n      pop\n      tag_40\n      0x04\n      dup1\n      calldatasize\n      sub\n      dup2\n      add\n      swap1\n      tag_41\n      swap2\n      swap1\n      tag_31\n      jump\t// in\n    tag_41:\n      tag_42\n      jump\t// in\n    tag_40:\n      mload(0x40)\n      tag_43\n      swap2\n      swap1\n      tag_27\n      jump\t// in\n    tag_43:\n      mload(0x40)\n      dup1\n      swap2\n      sub\n      swap1\n      return\n        /* \"Blaze/day08_MultiCurrencyPayment.sol\":3447:3562  function getSupportedCurrencies() public view returns (string[] memory) {... */\n    tag_6:\n      callvalue\n      dup1\n      iszero\n      tag_44\n      jumpi\n      revert(0x00, 0x00)\n    tag_44:\n      pop\n      tag_45\n      tag_46\n      jump\t// in\n    tag_45:\n      mload(0x40)\n      tag_47\n      swap2\n      swap1\n      tag_48\n      jump\t// in\n    tag_47:\n      mload(0x40)\n      dup1\n      swap2\n      sub\n      swap1\n      return\n        /* \"Blaze/day08_MultiCurrencyPayment.sol\":2895:3215  function withdrawTips() public onlyOwner {... */\n    tag_7:\n      callvalue\n      dup1\n      iszero\n      tag_49\n      jumpi\n      revert(0x00, 0x00)\n    tag_49:\n      pop\n      tag_50\n      tag_51\n      jump\t// in\n    tag_50:\n      stop\n        /* \"Blaze/day08_MultiCurrencyPayment.sol\":140:189  mapping(string => uint256) public conversionRates */\n    tag_8:\n      callvalue\n      dup1\n      iszero\n      tag_52\n      jumpi\n      revert(0x00, 0x00)\n    tag_52:\n      pop\n      tag_53\n      0x04\n      dup1\n      calldatasize\n      sub\n      dup2\n      add\n      swap1\n      tag_54\n      swap2\n      swap1\n      tag_24\n      jump\t// in\n    tag_54:\n      tag_55\n      jump\t// in\n    tag_53:\n      mload(0x40)\n      tag_56\n      swap2\n      swap1\n      tag_27\n      jump\t// in\n    tag_56:\n      mload(0x40)\n      dup1\n      swap2\n      sub\n      swap1\n      return\n        /* \"Blaze/day08_MultiCurrencyPayment.sol\":711:1430  function addCurrency(string memory _currencyCode, uint256 _rateToEth) public onlyOwner {... */\n    tag_9:\n      callvalue\n      dup1\n      iszero\n      tag_57\n      jumpi\n      revert(0x00, 0x00)\n    tag_57:\n      pop\n      tag_58\n      0x04\n      dup1\n      calldatasize\n      sub\n      dup2\n      add\n      swap1\n      tag_59\n      swap2\n      swap1\n      tag_60\n      jump\t// in\n    tag_59:\n      tag_61\n      jump\t// in\n    tag_58:\n      stop\n        /* \"Blaze/day08_MultiCurrencyPayment.sol\":1714:1995  function convertToEth(string memory _currencyCode, uint256 _amount) public view returns (uint256) {... */\n    tag_10:\n      callvalue\n      dup1\n      iszero\n      tag_62\n      jumpi\n      revert(0x00, 0x00)\n    tag_62:\n      pop\n      tag_63\n      0x04\n      dup1\n      calldatasize\n      sub\n      dup2\n      add\n      swap1\n      tag_64\n      swap2\n      swap1\n      tag_60\n      jump\t// in\n    tag_64:\n      tag_65\n      jump\t// in\n    tag_63:\n      mload(0x40)\n      tag_66\n      swap2\n      swap1\n      tag_27\n      jump\t// in\n    tag_66:\n      mload(0x40)\n      dup1\n      swap2\n      sub\n      swap1\n      return\n        /* \"Blaze/day08_MultiCurrencyPayment.sol\":3604:3709  function getContractBalance() public view returns (uint256) {... */\n    tag_11:\n      callvalue\n      dup1\n      iszero\n      tag_67\n      jumpi\n      revert(0x00, 0x00)\n    tag_67:\n      pop\n      tag_68\n      tag_69\n      jump\t// in\n    tag_68:\n      mload(0x40)\n      tag_70\n      swap2\n      swap1\n      tag_27\n      jump\t// in\n    tag_70:\n      mload(0x40)\n      dup1\n      swap2\n      sub\n      swap1\n      return\n        /* \"Blaze/day08_MultiCurrencyPayment.sol\":92:112  address public owner */\n    tag_12:\n      callvalue\n      dup1\n      iszero\n      tag_71\n      jumpi\n      revert(0x00, 0x00)\n    tag_71:\n      pop\n      tag_72\n      tag_73\n      jump\t// in\n    tag_72:\n      mload(0x40)\n      tag_74\n      swap2\n      swap1\n      tag_75\n      jump\t// in\n    tag_74:\n      mload(0x40)\n      dup1\n      swap2\n      sub\n      swap1\n      return\n        /* \"Blaze/day08_MultiCurrencyPayment.sol\":220:255  string[] public supportedCurrencies */\n    tag_13:\n      callvalue\n      dup1\n      iszero\n      tag_76\n      jumpi\n      revert(0x00, 0x00)\n    tag_76:\n      pop\n      tag_77\n      0x04\n      dup1\n      calldatasize\n      sub\n      dup2\n      add\n      swap1\n      tag_78\n      swap2\n      swap1\n      tag_79\n      jump\t// in\n    tag_78:\n      tag_80\n      jump\t// in\n    tag_77:\n      mload(0x40)\n      tag_81\n      swap2\n      swap1\n      tag_82\n      jump\t// in\n    tag_81:\n      mload(0x40)\n      dup1\n      swap2\n      sub\n      swap1\n      return\n        /* \"Blaze/day08_MultiCurrencyPayment.sol\":2313:2847  function tipInCurrency(string memory _currencyCode, uint256 _amount) public payable {... */\n    tag_14:\n      tag_83\n      0x04\n      dup1\n      calldatasize\n      sub\n      dup2\n      add\n      swap1\n      tag_84\n      swap2\n      swap1\n      tag_60\n      jump\t// in\n    tag_84:\n      tag_85\n      jump\t// in\n    tag_83:\n      stop\n        /* \"Blaze/day08_MultiCurrencyPayment.sol\":2020:2271  function tipInEth() public payable {... */\n    tag_15:\n      tag_86\n      tag_87\n      jump\t// in\n    tag_86:\n      stop\n        /* \"Blaze/day08_MultiCurrencyPayment.sol\":292:324  uint256 public totalTipsReceived */\n    tag_16:\n      callvalue\n      dup1\n      iszero\n      tag_88\n      jumpi\n      revert(0x00, 0x00)\n    tag_88:\n      pop\n      tag_89\n      tag_90\n      jump\t// in\n    tag_89:\n      mload(0x40)\n      tag_91\n      swap2\n      swap1\n      tag_27\n      jump\t// in\n    tag_91:\n      mload(0x40)\n      dup1\n      swap2\n      sub\n      swap1\n      return\n        /* \"Blaze/day08_MultiCurrencyPayment.sol\":3243:3401  function transferOwnership(address _newOwner) public onlyOwner {... */\n    tag_17:\n      callvalue\n      dup1\n      iszero\n      tag_92\n      jumpi\n      revert(0x00, 0x00)\n    tag_92:\n      pop\n      tag_93\n      0x04\n      dup1\n      calldatasize\n      sub\n      dup2\n      add\n      swap1\n      tag_94\n      swap2\n      swap1\n      tag_31\n      jump\t// in\n    tag_94:\n      tag_95\n      jump\t// in\n    tag_93:\n      stop\n        /* \"Blaze/day08_MultiCurrencyPayment.sol\":473:522  mapping(string => uint256) public tipsPerCurrency */\n    tag_25:\n      0x05\n      dup2\n      dup1\n      mload\n      0x20\n      dup2\n      add\n      dup3\n      add\n      dup1\n      mload\n      dup5\n      dup3\n      mstore\n      0x20\n      dup4\n      add\n      0x20\n      dup6\n      add\n      keccak256\n      dup2\n      dup4\n      mstore\n      dup1\n      swap6\n      pop\n      pop\n      pop\n      pop\n      pop\n      pop\n      0x00\n      swap2\n      pop\n      swap1\n      pop\n      sload\n      dup2\n      jump\t// out\n        /* \"Blaze/day08_MultiCurrencyPayment.sol\":379:433  mapping(address => uint256) public tipperContributions */\n    tag_32:\n      mstore(0x20, 0x04)\n      dup1\n      0x00\n      mstore\n      keccak256(0x00, 0x40)\n      0x00\n      swap2\n      pop\n      swap1\n      pop\n      sload\n      dup2\n      jump\t// out\n        /* \"Blaze/day08_MultiCurrencyPayment.sol\":3907:4126  function getConversionRate(string memory _currencyCode) public view returns (uint256) {... */\n    tag_37:\n        /* \"Blaze/day08_MultiCurrencyPayment.sol\":3984:3991  uint256 */\n      0x00\n        /* \"Blaze/day08_MultiCurrencyPayment.sol\":4044:4045  0 */\n      0x00\n        /* \"Blaze/day08_MultiCurrencyPayment.sol\":4011:4026  conversionRates */\n      0x01\n        /* \"Blaze/day08_MultiCurrencyPayment.sol\":4027:4040  _currencyCode */\n      dup4\n        /* \"Blaze/day08_MultiCurrencyPayment.sol\":4011:4041  conversionRates[_currencyCode] */\n      mload(0x40)\n      tag_97\n      swap2\n      swap1\n      tag_98\n      jump\t// in\n    tag_97:\n      swap1\n      dup2\n      mstore\n      0x20\n      add\n      mload(0x40)\n      dup1\n      swap2\n      sub\n      swap1\n      keccak256\n      sload\n        /* \"Blaze/day08_MultiCurrencyPayment.sol\":4011:4045  conversionRates[_currencyCode] > 0 */\n      gt\n        /* \"Blaze/day08_MultiCurrencyPayment.sol\":4003:4072  require(conversionRates[_currencyCode] > 0, \"Currency not supported\") */\n      tag_99\n      jumpi\n      mload(0x40)\n      0x08c379a000000000000000000000000000000000000000000000000000000000\n      dup2\n      mstore\n      0x04\n      add\n      tag_100\n      swap1\n      tag_101\n      jump\t// in\n    tag_100:\n      mload(0x40)\n      dup1\n      swap2\n      sub\n      swap1\n      revert\n    tag_99:\n        /* \"Blaze/day08_MultiCurrencyPayment.sol\":4089:4104  conversionRates */\n      0x01\n        /* \"Blaze/day08_MultiCurrencyPayment.sol\":4105:4118  _currencyCode */\n      dup3\n        /* \"Blaze/day08_MultiCurrencyPayment.sol\":4089:4119  conversionRates[_currencyCode] */\n      mload(0x40)\n      tag_102\n      swap2\n      swap1\n      tag_98\n      jump\t// in\n    tag_102:\n      swap1\n      dup2\n      mstore\n      0x20\n      add\n      mload(0x40)\n      dup1\n      swap2\n      sub\n      swap1\n      keccak256\n      sload\n        /* \"Blaze/day08_MultiCurrencyPayment.sol\":4082:4119  return conversionRates[_currencyCode] */\n      swap1\n      pop\n        /* \"Blaze/day08_MultiCurrencyPayment.sol\":3907:4126  function getConversionRate(string memory _currencyCode) public view returns (uint256) {... */\n      swap2\n      swap1\n      pop\n      jump\t// out\n        /* \"Blaze/day08_MultiCurrencyPayment.sol\":3752:3882  function getTipperContribution(address _tipper) public view returns (uint256) {... */\n    tag_42:\n        /* \"Blaze/day08_MultiCurrencyPayment.sol\":3821:3828  uint256 */\n      0x00\n        /* \"Blaze/day08_MultiCurrencyPayment.sol\":3847:3866  tipperContributions */\n      0x04\n        /* \"Blaze/day08_MultiCurrencyPayment.sol\":3847:3875  tipperContributions[_tipper] */\n      0x00\n        /* \"Blaze/day08_MultiCurrencyPayment.sol\":3867:3874  _tipper */\n      dup4\n        /* \"Blaze/day08_MultiCurrencyPayment.sol\":3847:3875  tipperContributions[_tipper] */\n      0xffffffffffffffffffffffffffffffffffffffff\n      and\n      0xffffffffffffffffffffffffffffffffffffffff\n      and\n      dup2\n      mstore\n      0x20\n      add\n      swap1\n      dup2\n      mstore\n      0x20\n      add\n      0x00\n      keccak256\n      sload\n        /* \"Blaze/day08_MultiCurrencyPayment.sol\":3840:3875  return tipperContributions[_tipper] */\n      swap1\n      pop\n        /* \"Blaze/day08_MultiCurrencyPayment.sol\":3752:3882  function getTipperContribution(address _tipper) public view returns (uint256) {... */\n      swap2\n      swap1\n      pop\n      jump\t// out\n        /* \"Blaze/day08_MultiCurrencyPayment.sol\":3447:3562  function getSupportedCurrencies() public view returns (string[] memory) {... */\n    tag_46:\n        /* \"Blaze/day08_MultiCurrencyPayment.sol\":3502:3517  string[] memory */\n      0x60\n        /* \"Blaze/day08_MultiCurrencyPayment.sol\":3536:3555  supportedCurrencies */\n      0x02\n        /* \"Blaze/day08_MultiCurrencyPayment.sol\":3529:3555  return supportedCurrencies */\n      dup1\n      sload\n      dup1\n      0x20\n      mul\n      0x20\n      add\n      mload(0x40)\n      swap1\n      dup2\n      add\n      0x40\n      mstore\n      dup1\n      swap3\n      swap2\n      swap1\n      dup2\n      dup2\n      mstore\n      0x20\n      add\n      0x00\n      swap1\n    tag_105:\n      dup3\n      dup3\n      lt\n      iszero\n      tag_106\n      jumpi\n      dup4\n      dup3\n      swap1\n      0x00\n      mstore\n      keccak256(0x00, 0x20)\n      add\n      dup1\n      sload\n      tag_108\n      swap1\n      tag_109\n      jump\t// in\n    tag_108:\n      dup1\n      0x1f\n      add\n      0x20\n      dup1\n      swap2\n      div\n      mul\n      0x20\n      add\n      mload(0x40)\n      swap1\n      dup2\n      add\n      0x40\n      mstore\n      dup1\n      swap3\n      swap2\n      swap1\n      dup2\n      dup2\n      mstore\n      0x20\n      add\n      dup3\n      dup1\n      sload\n      tag_110\n      swap1\n      tag_109\n      jump\t// in\n    tag_110:\n      dup1\n      iszero\n      tag_111\n      jumpi\n      dup1\n      0x1f\n      lt\n      tag_112\n      jumpi\n      0x0100\n      dup1\n      dup4\n      sload\n      div\n      mul\n      dup4\n      mstore\n      swap2\n      0x20\n      add\n      swap2\n      jump(tag_111)\n    tag_112:\n      dup3\n      add\n      swap2\n      swap1\n      0x00\n      mstore\n      keccak256(0x00, 0x20)\n      swap1\n    tag_113:\n      dup2\n      sload\n      dup2\n      mstore\n      swap1\n      0x01\n      add\n      swap1\n      0x20\n      add\n      dup1\n      dup4\n      gt\n      tag_113\n      jumpi\n      dup3\n      swap1\n      sub\n      0x1f\n      and\n      dup3\n      add\n      swap2\n    tag_111:\n      pop\n      pop\n      pop\n      pop\n      pop\n      dup2\n      mstore\n      0x20\n      add\n      swap1\n      0x01\n      add\n      swap1\n      jump(tag_105)\n    tag_106:\n      pop\n      pop\n      pop\n      pop\n      swap1\n      pop\n        /* \"Blaze/day08_MultiCurrencyPayment.sol\":3447:3562  function getSupportedCurrencies() public view returns (string[] memory) {... */\n      swap1\n      jump\t// out\n        /* \"Blaze/day08_MultiCurrencyPayment.sol\":2895:3215  function withdrawTips() public onlyOwner {... */\n    tag_51:\n        /* \"Blaze/day08_MultiCurrencyPayment.sol\":582:587  owner */\n      0x00\n      0x00\n      swap1\n      sload\n      swap1\n      0x0100\n      exp\n      swap1\n      div\n      0xffffffffffffffffffffffffffffffffffffffff\n      and\n        /* \"Blaze/day08_MultiCurrencyPayment.sol\":568:587  msg.sender == owner */\n      0xffffffffffffffffffffffffffffffffffffffff\n      and\n        /* \"Blaze/day08_MultiCurrencyPayment.sol\":568:578  msg.sender */\n      caller\n        /* \"Blaze/day08_MultiCurrencyPayment.sol\":568:587  msg.sender == owner */\n      0xffffffffffffffffffffffffffffffffffffffff\n      and\n      eq\n        /* \"Blaze/day08_MultiCurrencyPayment.sol\":560:626  require(msg.sender == owner, \"Only owner can perform this action\") */\n      tag_115\n      jumpi\n      mload(0x40)\n      0x08c379a000000000000000000000000000000000000000000000000000000000\n      dup2\n      mstore\n      0x04\n      add\n      tag_116\n      swap1\n      tag_117\n      jump\t// in\n    tag_116:\n      mload(0x40)\n      dup1\n      swap2\n      sub\n      swap1\n      revert\n    tag_115:\n        /* \"Blaze/day08_MultiCurrencyPayment.sol\":2946:2969  uint256 contractBalance */\n      0x00\n        /* \"Blaze/day08_MultiCurrencyPayment.sol\":2972:2993  address(this).balance */\n      selfbalance\n        /* \"Blaze/day08_MultiCurrencyPayment.sol\":2946:2993  uint256 contractBalance = address(this).balance */\n      swap1\n      pop\n        /* \"Blaze/day08_MultiCurrencyPayment.sol\":3029:3030  0 */\n      0x00\n        /* \"Blaze/day08_MultiCurrencyPayment.sol\":3011:3026  contractBalance */\n      dup2\n        /* \"Blaze/day08_MultiCurrencyPayment.sol\":3011:3030  contractBalance > 0 */\n      gt\n        /* \"Blaze/day08_MultiCurrencyPayment.sol\":3003:3054  require(contractBalance > 0, \"No tips to withdraw\") */\n      tag_119\n      jumpi\n      mload(0x40)\n      0x08c379a000000000000000000000000000000000000000000000000000000000\n      dup2\n      mstore\n      0x04\n      add\n      tag_120\n      swap1\n      tag_121\n      jump\t// in\n    tag_120:\n      mload(0x40)\n      dup1\n      swap2\n      sub\n      swap1\n      revert\n    tag_119:\n        /* \"Blaze/day08_MultiCurrencyPayment.sol\":3066:3078  bool success */\n      0x00\n        /* \"Blaze/day08_MultiCurrencyPayment.sol\":3092:3097  owner */\n      0x00\n      0x00\n      swap1\n      sload\n      swap1\n      0x0100\n      exp\n      swap1\n      div\n      0xffffffffffffffffffffffffffffffffffffffff\n      and\n        /* \"Blaze/day08_MultiCurrencyPayment.sol\":3084:3103  payable(owner).call */\n      0xffffffffffffffffffffffffffffffffffffffff\n      and\n        /* \"Blaze/day08_MultiCurrencyPayment.sol\":3111:3126  contractBalance */\n      dup3\n        /* \"Blaze/day08_MultiCurrencyPayment.sol\":3084:3131  payable(owner).call{value: contractBalance}(\"\") */\n      mload(0x40)\n      tag_122\n      swap1\n      tag_123\n      jump\t// in\n    tag_122:\n      0x00\n      mload(0x40)\n      dup1\n      dup4\n      sub\n      dup2\n      dup6\n      dup8\n      gas\n      call\n      swap3\n      pop\n      pop\n      pop\n      returndatasize\n      dup1\n      0x00\n      dup2\n      eq\n      tag_126\n      jumpi\n      mload(0x40)\n      swap2\n      pop\n      and(add(returndatasize, 0x3f), not(0x1f))\n      dup3\n      add\n      0x40\n      mstore\n      returndatasize\n      dup3\n      mstore\n      returndatasize\n      0x00\n      0x20\n      dup5\n      add\n      returndatacopy\n      jump(tag_125)\n    tag_126:\n      0x60\n      swap2\n      pop\n    tag_125:\n      pop\n        /* \"Blaze/day08_MultiCurrencyPayment.sol\":3065:3131  (bool success, ) = payable(owner).call{value: contractBalance}(\"\") */\n      pop\n      swap1\n      pop\n        /* \"Blaze/day08_MultiCurrencyPayment.sol\":3149:3156  success */\n      dup1\n        /* \"Blaze/day08_MultiCurrencyPayment.sol\":3141:3176  require(success, \"Transfer failed\") */\n      tag_127\n      jumpi\n      mload(0x40)\n      0x08c379a000000000000000000000000000000000000000000000000000000000\n      dup2\n      mstore\n      0x04\n      add\n      tag_128\n      swap1\n      tag_129\n      jump\t// in\n    tag_128:\n      mload(0x40)\n      dup1\n      swap2\n      sub\n      swap1\n      revert\n    tag_127:\n        /* \"Blaze/day08_MultiCurrencyPayment.sol\":3207:3208  0 */\n      0x00\n        /* \"Blaze/day08_MultiCurrencyPayment.sol\":3187:3204  totalTipsReceived */\n      0x03\n        /* \"Blaze/day08_MultiCurrencyPayment.sol\":3187:3208  totalTipsReceived = 0 */\n      dup2\n      swap1\n      sstore\n      pop\n        /* \"Blaze/day08_MultiCurrencyPayment.sol\":2936:3215  {... */\n      pop\n      pop\n        /* \"Blaze/day08_MultiCurrencyPayment.sol\":2895:3215  function withdrawTips() public onlyOwner {... */\n      jump\t// out\n        /* \"Blaze/day08_MultiCurrencyPayment.sol\":140:189  mapping(string => uint256) public conversionRates */\n    tag_55:\n      0x01\n      dup2\n      dup1\n      mload\n      0x20\n      dup2\n      add\n      dup3\n      add\n      dup1\n      mload\n      dup5\n      dup3\n      mstore\n      0x20\n      dup4\n      add\n      0x20\n      dup6\n      add\n      keccak256\n      dup2\n      dup4\n      mstore\n      dup1\n      swap6\n      pop\n      pop\n      pop\n      pop\n      pop\n      pop\n      0x00\n      swap2\n      pop\n      swap1\n      pop\n      sload\n      dup2\n      jump\t// out\n        /* \"Blaze/day08_MultiCurrencyPayment.sol\":711:1430  function addCurrency(string memory _currencyCode, uint256 _rateToEth) public onlyOwner {... */\n    tag_61:\n        /* \"Blaze/day08_MultiCurrencyPayment.sol\":582:587  owner */\n      0x00\n      0x00\n      swap1\n      sload\n      swap1\n      0x0100\n      exp\n      swap1\n      div\n      0xffffffffffffffffffffffffffffffffffffffff\n      and\n        /* \"Blaze/day08_MultiCurrencyPayment.sol\":568:587  msg.sender == owner */\n      0xffffffffffffffffffffffffffffffffffffffff\n      and\n        /* \"Blaze/day08_MultiCurrencyPayment.sol\":568:578  msg.sender */\n      caller\n        /* \"Blaze/day08_MultiCurrencyPayment.sol\":568:587  msg.sender == owner */\n      0xffffffffffffffffffffffffffffffffffffffff\n      and\n      eq\n        /* \"Blaze/day08_MultiCurrencyPayment.sol\":560:626  require(msg.sender == owner, \"Only owner can perform this action\") */\n      tag_131\n      jumpi\n      mload(0x40)\n      0x08c379a000000000000000000000000000000000000000000000000000000000\n      dup2\n      mstore\n      0x04\n      add\n      tag_132\n      swap1\n      tag_117\n      jump\t// in\n    tag_132:\n      mload(0x40)\n      dup1\n      swap2\n      sub\n      swap1\n      revert\n    tag_131:\n        /* \"Blaze/day08_MultiCurrencyPayment.sol\":829:830  0 */\n      0x00\n        /* \"Blaze/day08_MultiCurrencyPayment.sol\":816:826  _rateToEth */\n      dup2\n        /* \"Blaze/day08_MultiCurrencyPayment.sol\":816:830  _rateToEth > 0 */\n      gt\n        /* \"Blaze/day08_MultiCurrencyPayment.sol\":808:873  require(_rateToEth > 0, \"Conversion rate must be greater than 0\") */\n      tag_134\n      jumpi\n      mload(0x40)\n      0x08c379a000000000000000000000000000000000000000000000000000000000\n      dup2\n      mstore\n      0x04\n      add\n      tag_135\n      swap1\n      tag_136\n      jump\t// in\n    tag_135:\n      mload(0x40)\n      dup1\n      swap2\n      sub\n      swap1\n      revert\n    tag_134:\n        /* \"Blaze/day08_MultiCurrencyPayment.sol\":928:947  bool currencyExists */\n      0x00\n        /* \"Blaze/day08_MultiCurrencyPayment.sol\":950:955  false */\n      0x00\n        /* \"Blaze/day08_MultiCurrencyPayment.sol\":928:955  bool currencyExists = false */\n      swap1\n      pop\n        /* \"Blaze/day08_MultiCurrencyPayment.sol\":970:976  uint i */\n      0x00\n        /* \"Blaze/day08_MultiCurrencyPayment.sol\":979:980  0 */\n      0x00\n        /* \"Blaze/day08_MultiCurrencyPayment.sol\":970:980  uint i = 0 */\n      swap1\n      pop\n        /* \"Blaze/day08_MultiCurrencyPayment.sol\":965:1201  for (uint i = 0; i < supportedCurrencies.length; i++) {... */\n    tag_137:\n        /* \"Blaze/day08_MultiCurrencyPayment.sol\":986:1005  supportedCurrencies */\n      0x02\n        /* \"Blaze/day08_MultiCurrencyPayment.sol\":986:1012  supportedCurrencies.length */\n      dup1\n      sload\n      swap1\n      pop\n        /* \"Blaze/day08_MultiCurrencyPayment.sol\":982:983  i */\n      dup2\n        /* \"Blaze/day08_MultiCurrencyPayment.sol\":982:1012  i < supportedCurrencies.length */\n      lt\n        /* \"Blaze/day08_MultiCurrencyPayment.sol\":965:1201  for (uint i = 0; i < supportedCurrencies.length; i++) {... */\n      iszero\n      tag_138\n      jumpi\n        /* \"Blaze/day08_MultiCurrencyPayment.sol\":1097:1110  _currencyCode */\n      dup4\n        /* \"Blaze/day08_MultiCurrencyPayment.sol\":1081:1112  keccak256(bytes(_currencyCode)) */\n      dup1\n      mload\n      swap1\n      0x20\n      add\n      keccak256\n        /* \"Blaze/day08_MultiCurrencyPayment.sol\":1053:1072  supportedCurrencies */\n      0x02\n        /* \"Blaze/day08_MultiCurrencyPayment.sol\":1073:1074  i */\n      dup3\n        /* \"Blaze/day08_MultiCurrencyPayment.sol\":1053:1075  supportedCurrencies[i] */\n      dup2\n      sload\n      dup2\n      lt\n      tag_140\n      jumpi\n      tag_141\n      tag_142\n      jump\t// in\n    tag_141:\n    tag_140:\n      swap1\n      0x00\n      mstore\n      keccak256(0x00, 0x20)\n      add\n        /* \"Blaze/day08_MultiCurrencyPayment.sol\":1037:1077  keccak256(bytes(supportedCurrencies[i])) */\n      mload(0x40)\n      tag_144\n      swap2\n      swap1\n      tag_145\n      jump\t// in\n    tag_144:\n      mload(0x40)\n      dup1\n      swap2\n      sub\n      swap1\n      keccak256\n        /* \"Blaze/day08_MultiCurrencyPayment.sol\":1037:1112  keccak256(bytes(supportedCurrencies[i])) == keccak256(bytes(_currencyCode)) */\n      sub\n        /* \"Blaze/day08_MultiCurrencyPayment.sol\":1033:1191  if (keccak256(bytes(supportedCurrencies[i])) == keccak256(bytes(_currencyCode))) {... */\n      tag_146\n      jumpi\n        /* \"Blaze/day08_MultiCurrencyPayment.sol\":1149:1153  true */\n      0x01\n        /* \"Blaze/day08_MultiCurrencyPayment.sol\":1132:1153  currencyExists = true */\n      swap2\n      pop\n        /* \"Blaze/day08_MultiCurrencyPayment.sol\":1171:1176  break */\n      jump(tag_138)\n        /* \"Blaze/day08_MultiCurrencyPayment.sol\":1033:1191  if (keccak256(bytes(supportedCurrencies[i])) == keccak256(bytes(_currencyCode))) {... */\n    tag_146:\n        /* \"Blaze/day08_MultiCurrencyPayment.sol\":1014:1017  i++ */\n      dup1\n      dup1\n      0x01\n      add\n      swap2\n      pop\n      pop\n        /* \"Blaze/day08_MultiCurrencyPayment.sol\":965:1201  for (uint i = 0; i < supportedCurrencies.length; i++) {... */\n      jump(tag_137)\n    tag_138:\n      pop\n        /* \"Blaze/day08_MultiCurrencyPayment.sol\":1255:1269  currencyExists */\n      dup1\n        /* \"Blaze/day08_MultiCurrencyPayment.sol\":1250:1335  if (!currencyExists) {... */\n      tag_147\n      jumpi\n        /* \"Blaze/day08_MultiCurrencyPayment.sol\":1285:1304  supportedCurrencies */\n      0x02\n        /* \"Blaze/day08_MultiCurrencyPayment.sol\":1310:1323  _currencyCode */\n      dup4\n        /* \"Blaze/day08_MultiCurrencyPayment.sol\":1285:1324  supportedCurrencies.push(_currencyCode) */\n      swap1\n      dup1\n      0x01\n      dup2\n      sload\n      add\n      dup1\n      dup3\n      sstore\n      dup1\n      swap2\n      pop\n      pop\n      0x01\n      swap1\n      sub\n      swap1\n      0x00\n      mstore\n      keccak256(0x00, 0x20)\n      add\n      0x00\n      swap1\n      swap2\n      swap1\n      swap2\n      swap1\n      swap2\n      pop\n      swap1\n      dup2\n      tag_149\n      swap2\n      swap1\n      tag_150\n      jump\t// in\n    tag_149:\n      pop\n        /* \"Blaze/day08_MultiCurrencyPayment.sol\":1250:1335  if (!currencyExists) {... */\n    tag_147:\n        /* \"Blaze/day08_MultiCurrencyPayment.sol\":1413:1423  _rateToEth */\n      dup2\n        /* \"Blaze/day08_MultiCurrencyPayment.sol\":1380:1395  conversionRates */\n      0x01\n        /* \"Blaze/day08_MultiCurrencyPayment.sol\":1396:1409  _currencyCode */\n      dup5\n        /* \"Blaze/day08_MultiCurrencyPayment.sol\":1380:1410  conversionRates[_currencyCode] */\n      mload(0x40)\n      tag_151\n      swap2\n      swap1\n      tag_98\n      jump\t// in\n    tag_151:\n      swap1\n      dup2\n      mstore\n      0x20\n      add\n      mload(0x40)\n      dup1\n      swap2\n      sub\n      swap1\n      keccak256\n        /* \"Blaze/day08_MultiCurrencyPayment.sol\":1380:1423  conversionRates[_currencyCode] = _rateToEth */\n      dup2\n      swap1\n      sstore\n      pop\n        /* \"Blaze/day08_MultiCurrencyPayment.sol\":798:1430  {... */\n      pop\n        /* \"Blaze/day08_MultiCurrencyPayment.sol\":711:1430  function addCurrency(string memory _currencyCode, uint256 _rateToEth) public onlyOwner {... */\n      pop\n      pop\n      jump\t// out\n        /* \"Blaze/day08_MultiCurrencyPayment.sol\":1714:1995  function convertToEth(string memory _currencyCode, uint256 _amount) public view returns (uint256) {... */\n    tag_65:\n        /* \"Blaze/day08_MultiCurrencyPayment.sol\":1803:1810  uint256 */\n      0x00\n        /* \"Blaze/day08_MultiCurrencyPayment.sol\":1863:1864  0 */\n      0x00\n        /* \"Blaze/day08_MultiCurrencyPayment.sol\":1830:1845  conversionRates */\n      0x01\n        /* \"Blaze/day08_MultiCurrencyPayment.sol\":1846:1859  _currencyCode */\n      dup5\n        /* \"Blaze/day08_MultiCurrencyPayment.sol\":1830:1860  conversionRates[_currencyCode] */\n      mload(0x40)\n      tag_153\n      swap2\n      swap1\n      tag_98\n      jump\t// in\n    tag_153:\n      swap1\n      dup2\n      mstore\n      0x20\n      add\n      mload(0x40)\n      dup1\n      swap2\n      sub\n      swap1\n      keccak256\n      sload\n        /* \"Blaze/day08_MultiCurrencyPayment.sol\":1830:1864  conversionRates[_currencyCode] > 0 */\n      gt\n        /* \"Blaze/day08_MultiCurrencyPayment.sol\":1822:1891  require(conversionRates[_currencyCode] > 0, \"Currency not supported\") */\n      tag_154\n      jumpi\n      mload(0x40)\n      0x08c379a000000000000000000000000000000000000000000000000000000000\n      dup2\n      mstore\n      0x04\n      add\n      tag_155\n      swap1\n      tag_101\n      jump\t// in\n    tag_155:\n      mload(0x40)\n      dup1\n      swap2\n      sub\n      swap1\n      revert\n    tag_154:\n        /* \"Blaze/day08_MultiCurrencyPayment.sol\":1902:1919  uint256 ethAmount */\n      0x00\n        /* \"Blaze/day08_MultiCurrencyPayment.sol\":1932:1947  conversionRates */\n      0x01\n        /* \"Blaze/day08_MultiCurrencyPayment.sol\":1948:1961  _currencyCode */\n      dup5\n        /* \"Blaze/day08_MultiCurrencyPayment.sol\":1932:1962  conversionRates[_currencyCode] */\n      mload(0x40)\n      tag_156\n      swap2\n      swap1\n      tag_98\n      jump\t// in\n    tag_156:\n      swap1\n      dup2\n      mstore\n      0x20\n      add\n      mload(0x40)\n      dup1\n      swap2\n      sub\n      swap1\n      keccak256\n      sload\n        /* \"Blaze/day08_MultiCurrencyPayment.sol\":1922:1929  _amount */\n      dup4\n        /* \"Blaze/day08_MultiCurrencyPayment.sol\":1922:1962  _amount * conversionRates[_currencyCode] */\n      tag_157\n      swap2\n      swap1\n      tag_158\n      jump\t// in\n    tag_157:\n        /* \"Blaze/day08_MultiCurrencyPayment.sol\":1902:1962  uint256 ethAmount = _amount * conversionRates[_currencyCode] */\n      swap1\n      pop\n        /* \"Blaze/day08_MultiCurrencyPayment.sol\":1979:1988  ethAmount */\n      dup1\n        /* \"Blaze/day08_MultiCurrencyPayment.sol\":1972:1988  return ethAmount */\n      swap2\n      pop\n      pop\n        /* \"Blaze/day08_MultiCurrencyPayment.sol\":1714:1995  function convertToEth(string memory _currencyCode, uint256 _amount) public view returns (uint256) {... */\n      swap3\n      swap2\n      pop\n      pop\n      jump\t// out\n        /* \"Blaze/day08_MultiCurrencyPayment.sol\":3604:3709  function getContractBalance() public view returns (uint256) {... */\n    tag_69:\n        /* \"Blaze/day08_MultiCurrencyPayment.sol\":3655:3662  uint256 */\n      0x00\n        /* \"Blaze/day08_MultiCurrencyPayment.sol\":3681:3702  address(this).balance */\n      selfbalance\n        /* \"Blaze/day08_MultiCurrencyPayment.sol\":3674:3702  return address(this).balance */\n      swap1\n      pop\n        /* \"Blaze/day08_MultiCurrencyPayment.sol\":3604:3709  function getContractBalance() public view returns (uint256) {... */\n      swap1\n      jump\t// out\n        /* \"Blaze/day08_MultiCurrencyPayment.sol\":92:112  address public owner */\n    tag_73:\n      0x00\n      0x00\n      swap1\n      sload\n      swap1\n      0x0100\n      exp\n      swap1\n      div\n      0xffffffffffffffffffffffffffffffffffffffff\n      and\n      dup2\n      jump\t// out\n        /* \"Blaze/day08_MultiCurrencyPayment.sol\":220:255  string[] public supportedCurrencies */\n    tag_80:\n      0x02\n      dup2\n      dup2\n      sload\n      dup2\n      lt\n      tag_160\n      jumpi\n      0x00\n      dup1\n      revert\n    tag_160:\n      swap1\n      0x00\n      mstore\n      keccak256(0x00, 0x20)\n      add\n      0x00\n      swap2\n      pop\n      swap1\n      pop\n      dup1\n      sload\n      tag_162\n      swap1\n      tag_109\n      jump\t// in\n    tag_162:\n      dup1\n      0x1f\n      add\n      0x20\n      dup1\n      swap2\n      div\n      mul\n      0x20\n      add\n      mload(0x40)\n      swap1\n      dup2\n      add\n      0x40\n      mstore\n      dup1\n      swap3\n      swap2\n      swap1\n      dup2\n      dup2\n      mstore\n      0x20\n      add\n      dup3\n      dup1\n      sload\n      tag_163\n      swap1\n      tag_109\n      jump\t// in\n    tag_163:\n      dup1\n      iszero\n      tag_164\n      jumpi\n      dup1\n      0x1f\n      lt\n      tag_165\n      jumpi\n      0x0100\n      dup1\n      dup4\n      sload\n      div\n      mul\n      dup4\n      mstore\n      swap2\n      0x20\n      add\n      swap2\n      jump(tag_164)\n    tag_165:\n      dup3\n      add\n      swap2\n      swap1\n      0x00\n      mstore\n      keccak256(0x00, 0x20)\n      swap1\n    tag_166:\n      dup2\n      sload\n      dup2\n      mstore\n      swap1\n      0x01\n      add\n      swap1\n      0x20\n      add\n      dup1\n      dup4\n      gt\n      tag_166\n      jumpi\n      dup3\n      swap1\n      sub\n      0x1f\n      and\n      dup3\n      add\n      swap2\n    tag_164:\n      pop\n      pop\n      pop\n      pop\n      pop\n      dup2\n      jump\t// out\n        /* \"Blaze/day08_MultiCurrencyPayment.sol\":2313:2847  function tipInCurrency(string memory _currencyCode, uint256 _amount) public payable {... */\n    tag_85:\n        /* \"Blaze/day08_MultiCurrencyPayment.sol\":2448:2449  0 */\n      0x00\n        /* \"Blaze/day08_MultiCurrencyPayment.sol\":2415:2430  conversionRates */\n      0x01\n        /* \"Blaze/day08_MultiCurrencyPayment.sol\":2431:2444  _currencyCode */\n      dup4\n        /* \"Blaze/day08_MultiCurrencyPayment.sol\":2415:2445  conversionRates[_currencyCode] */\n      mload(0x40)\n      tag_168\n      swap2\n      swap1\n      tag_98\n      jump\t// in\n    tag_168:\n      swap1\n      dup2\n      mstore\n      0x20\n      add\n      mload(0x40)\n      dup1\n      swap2\n      sub\n      swap1\n      keccak256\n      sload\n        /* \"Blaze/day08_MultiCurrencyPayment.sol\":2415:2449  conversionRates[_currencyCode] > 0 */\n      gt\n        /* \"Blaze/day08_MultiCurrencyPayment.sol\":2407:2476  require(conversionRates[_currencyCode] > 0, \"Currency not supported\") */\n      tag_169\n      jumpi\n      mload(0x40)\n      0x08c379a000000000000000000000000000000000000000000000000000000000\n      dup2\n      mstore\n      0x04\n      add\n      tag_170\n      swap1\n      tag_101\n      jump\t// in\n    tag_170:\n      mload(0x40)\n      dup1\n      swap2\n      sub\n      swap1\n      revert\n    tag_169:\n        /* \"Blaze/day08_MultiCurrencyPayment.sol\":2504:2505  0 */\n      0x00\n        /* \"Blaze/day08_MultiCurrencyPayment.sol\":2494:2501  _amount */\n      dup2\n        /* \"Blaze/day08_MultiCurrencyPayment.sol\":2494:2505  _amount > 0 */\n      gt\n        /* \"Blaze/day08_MultiCurrencyPayment.sol\":2486:2539  require(_amount > 0, \"Amount must be greater than 0\") */\n      tag_171\n      jumpi\n      mload(0x40)\n      0x08c379a000000000000000000000000000000000000000000000000000000000\n      dup2\n      mstore\n      0x04\n      add\n      tag_172\n      swap1\n      tag_173\n      jump\t// in\n    tag_172:\n      mload(0x40)\n      dup1\n      swap2\n      sub\n      swap1\n      revert\n    tag_171:\n        /* \"Blaze/day08_MultiCurrencyPayment.sol\":2550:2567  uint256 ethAmount */\n      0x00\n        /* \"Blaze/day08_MultiCurrencyPayment.sol\":2570:2606  convertToEth(_currencyCode, _amount) */\n      tag_174\n        /* \"Blaze/day08_MultiCurrencyPayment.sol\":2583:2596  _currencyCode */\n      dup4\n        /* \"Blaze/day08_MultiCurrencyPayment.sol\":2598:2605  _amount */\n      dup4\n        /* \"Blaze/day08_MultiCurrencyPayment.sol\":2570:2582  convertToEth */\n      tag_65\n        /* \"Blaze/day08_MultiCurrencyPayment.sol\":2570:2606  convertToEth(_currencyCode, _amount) */\n      jump\t// in\n    tag_174:\n        /* \"Blaze/day08_MultiCurrencyPayment.sol\":2550:2606  uint256 ethAmount = convertToEth(_currencyCode, _amount) */\n      swap1\n      pop\n        /* \"Blaze/day08_MultiCurrencyPayment.sol\":2637:2646  ethAmount */\n      dup1\n        /* \"Blaze/day08_MultiCurrencyPayment.sol\":2624:2633  msg.value */\n      callvalue\n        /* \"Blaze/day08_MultiCurrencyPayment.sol\":2624:2646  msg.value == ethAmount */\n      eq\n        /* \"Blaze/day08_MultiCurrencyPayment.sol\":2616:2694  require(msg.value == ethAmount, \"Sent ETH doesn't match the converted amount\") */\n      tag_175\n      jumpi\n      mload(0x40)\n      0x08c379a000000000000000000000000000000000000000000000000000000000\n      dup2\n      mstore\n      0x04\n      add\n      tag_176\n      swap1\n      tag_177\n      jump\t// in\n    tag_176:\n      mload(0x40)\n      dup1\n      swap2\n      sub\n      swap1\n      revert\n    tag_175:\n        /* \"Blaze/day08_MultiCurrencyPayment.sol\":2740:2749  msg.value */\n      callvalue\n        /* \"Blaze/day08_MultiCurrencyPayment.sol\":2705:2724  tipperContributions */\n      0x04\n        /* \"Blaze/day08_MultiCurrencyPayment.sol\":2705:2736  tipperContributions[msg.sender] */\n      0x00\n        /* \"Blaze/day08_MultiCurrencyPayment.sol\":2725:2735  msg.sender */\n      caller\n        /* \"Blaze/day08_MultiCurrencyPayment.sol\":2705:2736  tipperContributions[msg.sender] */\n      0xffffffffffffffffffffffffffffffffffffffff\n      and\n      0xffffffffffffffffffffffffffffffffffffffff\n      and\n      dup2\n      mstore\n      0x20\n      add\n      swap1\n      dup2\n      mstore\n      0x20\n      add\n      0x00\n      keccak256\n      0x00\n        /* \"Blaze/day08_MultiCurrencyPayment.sol\":2705:2749  tipperContributions[msg.sender] += msg.value */\n      dup3\n      dup3\n      sload\n      tag_178\n      swap2\n      swap1\n      tag_179\n      jump\t// in\n    tag_178:\n      swap3\n      pop\n      pop\n      dup2\n      swap1\n      sstore\n      pop\n        /* \"Blaze/day08_MultiCurrencyPayment.sol\":2780:2789  msg.value */\n      callvalue\n        /* \"Blaze/day08_MultiCurrencyPayment.sol\":2759:2776  totalTipsReceived */\n      0x03\n      0x00\n        /* \"Blaze/day08_MultiCurrencyPayment.sol\":2759:2789  totalTipsReceived += msg.value */\n      dup3\n      dup3\n      sload\n      tag_180\n      swap2\n      swap1\n      tag_179\n      jump\t// in\n    tag_180:\n      swap3\n      pop\n      pop\n      dup2\n      swap1\n      sstore\n      pop\n        /* \"Blaze/day08_MultiCurrencyPayment.sol\":2833:2840  _amount */\n      dup2\n        /* \"Blaze/day08_MultiCurrencyPayment.sol\":2799:2814  tipsPerCurrency */\n      0x05\n        /* \"Blaze/day08_MultiCurrencyPayment.sol\":2815:2828  _currencyCode */\n      dup5\n        /* \"Blaze/day08_MultiCurrencyPayment.sol\":2799:2829  tipsPerCurrency[_currencyCode] */\n      mload(0x40)\n      tag_181\n      swap2\n      swap1\n      tag_98\n      jump\t// in\n    tag_181:\n      swap1\n      dup2\n      mstore\n      0x20\n      add\n      mload(0x40)\n      dup1\n      swap2\n      sub\n      swap1\n      keccak256\n      0x00\n        /* \"Blaze/day08_MultiCurrencyPayment.sol\":2799:2840  tipsPerCurrency[_currencyCode] += _amount */\n      dup3\n      dup3\n      sload\n      tag_182\n      swap2\n      swap1\n      tag_179\n      jump\t// in\n    tag_182:\n      swap3\n      pop\n      pop\n      dup2\n      swap1\n      sstore\n      pop\n        /* \"Blaze/day08_MultiCurrencyPayment.sol\":2397:2847  {... */\n      pop\n        /* \"Blaze/day08_MultiCurrencyPayment.sol\":2313:2847  function tipInCurrency(string memory _currencyCode, uint256 _amount) public payable {... */\n      pop\n      pop\n      jump\t// out\n        /* \"Blaze/day08_MultiCurrencyPayment.sol\":2020:2271  function tipInEth() public payable {... */\n    tag_87:\n        /* \"Blaze/day08_MultiCurrencyPayment.sol\":2085:2086  0 */\n      0x00\n        /* \"Blaze/day08_MultiCurrencyPayment.sol\":2073:2082  msg.value */\n      callvalue\n        /* \"Blaze/day08_MultiCurrencyPayment.sol\":2073:2086  msg.value > 0 */\n      gt\n        /* \"Blaze/day08_MultiCurrencyPayment.sol\":2065:2124  require(msg.value > 0, \"Tip amount must be greater than 0\") */\n      tag_184\n      jumpi\n      mload(0x40)\n      0x08c379a000000000000000000000000000000000000000000000000000000000\n      dup2\n      mstore\n      0x04\n      add\n      tag_185\n      swap1\n      tag_186\n      jump\t// in\n    tag_185:\n      mload(0x40)\n      dup1\n      swap2\n      sub\n      swap1\n      revert\n    tag_184:\n        /* \"Blaze/day08_MultiCurrencyPayment.sol\":2170:2179  msg.value */\n      callvalue\n        /* \"Blaze/day08_MultiCurrencyPayment.sol\":2135:2154  tipperContributions */\n      0x04\n        /* \"Blaze/day08_MultiCurrencyPayment.sol\":2135:2166  tipperContributions[msg.sender] */\n      0x00\n        /* \"Blaze/day08_MultiCurrencyPayment.sol\":2155:2165  msg.sender */\n      caller\n        /* \"Blaze/day08_MultiCurrencyPayment.sol\":2135:2166  tipperContributions[msg.sender] */\n      0xffffffffffffffffffffffffffffffffffffffff\n      and\n      0xffffffffffffffffffffffffffffffffffffffff\n      and\n      dup2\n      mstore\n      0x20\n      add\n      swap1\n      dup2\n      mstore\n      0x20\n      add\n      0x00\n      keccak256\n      0x00\n        /* \"Blaze/day08_MultiCurrencyPayment.sol\":2135:2179  tipperContributions[msg.sender] += msg.value */\n      dup3\n      dup3\n      sload\n      tag_187\n      swap2\n      swap1\n      tag_179\n      jump\t// in\n    tag_187:\n      swap3\n      pop\n      pop\n      dup2\n      swap1\n      sstore\n      pop\n        /* \"Blaze/day08_MultiCurrencyPayment.sol\":2210:2219  msg.value */\n      callvalue\n        /* \"Blaze/day08_MultiCurrencyPayment.sol\":2189:2206  totalTipsReceived */\n      0x03\n      0x00\n        /* \"Blaze/day08_MultiCurrencyPayment.sol\":2189:2219  totalTipsReceived += msg.value */\n      dup3\n      dup3\n      sload\n      tag_188\n      swap2\n      swap1\n      tag_179\n      jump\t// in\n    tag_188:\n      swap3\n      pop\n      pop\n      dup2\n      swap1\n      sstore\n      pop\n        /* \"Blaze/day08_MultiCurrencyPayment.sol\":2255:2264  msg.value */\n      callvalue\n        /* \"Blaze/day08_MultiCurrencyPayment.sol\":2229:2244  tipsPerCurrency */\n      0x05\n        /* \"Blaze/day08_MultiCurrencyPayment.sol\":2229:2251  tipsPerCurrency[\"ETH\"] */\n      mload(0x40)\n      tag_189\n      swap1\n      tag_190\n      jump\t// in\n    tag_189:\n      swap1\n      dup2\n      mstore\n      0x20\n      add\n      mload(0x40)\n      dup1\n      swap2\n      sub\n      swap1\n      keccak256\n      0x00\n        /* \"Blaze/day08_MultiCurrencyPayment.sol\":2229:2264  tipsPerCurrency[\"ETH\"] += msg.value */\n      dup3\n      dup3\n      sload\n      tag_191\n      swap2\n      swap1\n      tag_179\n      jump\t// in\n    tag_191:\n      swap3\n      pop\n      pop\n      dup2\n      swap1\n      sstore\n      pop\n        /* \"Blaze/day08_MultiCurrencyPayment.sol\":2020:2271  function tipInEth() public payable {... */\n      jump\t// out\n        /* \"Blaze/day08_MultiCurrencyPayment.sol\":292:324  uint256 public totalTipsReceived */\n    tag_90:\n      sload(0x03)\n      dup2\n      jump\t// out\n        /* \"Blaze/day08_MultiCurrencyPayment.sol\":3243:3401  function transferOwnership(address _newOwner) public onlyOwner {... */\n    tag_95:\n        /* \"Blaze/day08_MultiCurrencyPayment.sol\":582:587  owner */\n      0x00\n      0x00\n      swap1\n      sload\n      swap1\n      0x0100\n      exp\n      swap1\n      div\n      0xffffffffffffffffffffffffffffffffffffffff\n      and\n        /* \"Blaze/day08_MultiCurrencyPayment.sol\":568:587  msg.sender == owner */\n      0xffffffffffffffffffffffffffffffffffffffff\n      and\n        /* \"Blaze/day08_MultiCurrencyPayment.sol\":568:578  msg.sender */\n      caller\n        /* \"Blaze/day08_MultiCurrencyPayment.sol\":568:587  msg.sender == owner */\n      0xffffffffffffffffffffffffffffffffffffffff\n      and\n      eq\n        /* \"Blaze/day08_MultiCurrencyPayment.sol\":560:626  require(msg.sender == owner, \"Only owner can perform this action\") */\n      tag_193\n      jumpi\n      mload(0x40)\n      0x08c379a000000000000000000000000000000000000000000000000000000000\n      dup2\n      mstore\n      0x04\n      add\n      tag_194\n      swap1\n      tag_117\n      jump\t// in\n    tag_194:\n      mload(0x40)\n      dup1\n      swap2\n      sub\n      swap1\n      revert\n    tag_193:\n        /* \"Blaze/day08_MultiCurrencyPayment.sol\":3345:3346  0 */\n      0x00\n        /* \"Blaze/day08_MultiCurrencyPayment.sol\":3324:3347  _newOwner != address(0) */\n      0xffffffffffffffffffffffffffffffffffffffff\n      and\n        /* \"Blaze/day08_MultiCurrencyPayment.sol\":3324:3333  _newOwner */\n      dup2\n        /* \"Blaze/day08_MultiCurrencyPayment.sol\":3324:3347  _newOwner != address(0) */\n      0xffffffffffffffffffffffffffffffffffffffff\n      and\n      sub\n        /* \"Blaze/day08_MultiCurrencyPayment.sol\":3316:3367  require(_newOwner != address(0), \"Invalid address\") */\n      tag_196\n      jumpi\n      mload(0x40)\n      0x08c379a000000000000000000000000000000000000000000000000000000000\n      dup2\n      mstore\n      0x04\n      add\n      tag_197\n      swap1\n      tag_198\n      jump\t// in\n    tag_197:\n      mload(0x40)\n      dup1\n      swap2\n      sub\n      swap1\n      revert\n    tag_196:\n        /* \"Blaze/day08_MultiCurrencyPayment.sol\":3385:3394  _newOwner */\n      dup1\n        /* \"Blaze/day08_MultiCurrencyPayment.sol\":3377:3382  owner */\n      0x00\n      0x00\n        /* \"Blaze/day08_MultiCurrencyPayment.sol\":3377:3394  owner = _newOwner */\n      0x0100\n      exp\n      dup2\n      sload\n      dup2\n      0xffffffffffffffffffffffffffffffffffffffff\n      mul\n      not\n      and\n      swap1\n      dup4\n      0xffffffffffffffffffffffffffffffffffffffff\n      and\n      mul\n      or\n      swap1\n      sstore\n      pop\n        /* \"Blaze/day08_MultiCurrencyPayment.sol\":3243:3401  function transferOwnership(address _newOwner) public onlyOwner {... */\n      pop\n      jump\t// out\n        /* \"#utility.yul\":7:82   */\n    tag_199:\n        /* \"#utility.yul\":40:46   */\n      0x00\n        /* \"#utility.yul\":73:75   */\n      0x40\n        /* \"#utility.yul\":67:76   */\n      mload\n        /* \"#utility.yul\":57:76   */\n      swap1\n      pop\n        /* \"#utility.yul\":7:82   */\n      swap1\n      jump\t// out\n        /* \"#utility.yul\":88:205   */\n    tag_200:\n        /* \"#utility.yul\":197:198   */\n      0x00\n        /* \"#utility.yul\":194:195   */\n      0x00\n        /* \"#utility.yul\":187:199   */\n      revert\n        /* \"#utility.yul\":211:328   */\n    tag_201:\n        /* \"#utility.yul\":320:321   */\n      0x00\n        /* \"#utility.yul\":317:318   */\n      0x00\n        /* \"#utility.yul\":310:322   */\n      revert\n        /* \"#utility.yul\":334:451   */\n    tag_202:\n        /* \"#utility.yul\":443:444   */\n      0x00\n        /* \"#utility.yul\":440:441   */\n      0x00\n        /* \"#utility.yul\":433:445   */\n      revert\n        /* \"#utility.yul\":457:574   */\n    tag_203:\n        /* \"#utility.yul\":566:567   */\n      0x00\n        /* \"#utility.yul\":563:564   */\n      0x00\n        /* \"#utility.yul\":556:568   */\n      revert\n        /* \"#utility.yul\":580:682   */\n    tag_204:\n        /* \"#utility.yul\":621:627   */\n      0x00\n        /* \"#utility.yul\":672:674   */\n      0x1f\n        /* \"#utility.yul\":668:675   */\n      not\n        /* \"#utility.yul\":663:665   */\n      0x1f\n        /* \"#utility.yul\":656:661   */\n      dup4\n        /* \"#utility.yul\":652:666   */\n      add\n        /* \"#utility.yul\":648:676   */\n      and\n        /* \"#utility.yul\":638:676   */\n      swap1\n      pop\n        /* \"#utility.yul\":580:682   */\n      swap2\n      swap1\n      pop\n      jump\t// out\n        /* \"#utility.yul\":688:868   */\n    tag_205:\n        /* \"#utility.yul\":736:813   */\n      0x4e487b7100000000000000000000000000000000000000000000000000000000\n        /* \"#utility.yul\":733:734   */\n      0x00\n        /* \"#utility.yul\":726:814   */\n      mstore\n        /* \"#utility.yul\":833:837   */\n      0x41\n        /* \"#utility.yul\":830:831   */\n      0x04\n        /* \"#utility.yul\":823:838   */\n      mstore\n        /* \"#utility.yul\":857:861   */\n      0x24\n        /* \"#utility.yul\":854:855   */\n      0x00\n        /* \"#utility.yul\":847:862   */\n      revert\n        /* \"#utility.yul\":874:1155   */\n    tag_206:\n        /* \"#utility.yul\":957:984   */\n      tag_286\n        /* \"#utility.yul\":979:983   */\n      dup3\n        /* \"#utility.yul\":957:984   */\n      tag_204\n      jump\t// in\n    tag_286:\n        /* \"#utility.yul\":949:955   */\n      dup2\n        /* \"#utility.yul\":945:985   */\n      add\n        /* \"#utility.yul\":1087:1093   */\n      dup2\n        /* \"#utility.yul\":1075:1085   */\n      dup2\n        /* \"#utility.yul\":1072:1094   */\n      lt\n        /* \"#utility.yul\":1051:1069   */\n      0xffffffffffffffff\n        /* \"#utility.yul\":1039:1049   */\n      dup3\n        /* \"#utility.yul\":1036:1070   */\n      gt\n        /* \"#utility.yul\":1033:1095   */\n      or\n        /* \"#utility.yul\":1030:1118   */\n      iszero\n      tag_287\n      jumpi\n        /* \"#utility.yul\":1098:1116   */\n      tag_288\n      tag_205\n      jump\t// in\n    tag_288:\n        /* \"#utility.yul\":1030:1118   */\n    tag_287:\n        /* \"#utility.yul\":1138:1148   */\n      dup1\n        /* \"#utility.yul\":1134:1136   */\n      0x40\n        /* \"#utility.yul\":1127:1149   */\n      mstore\n        /* \"#utility.yul\":917:1155   */\n      pop\n        /* \"#utility.yul\":874:1155   */\n      pop\n      pop\n      jump\t// out\n        /* \"#utility.yul\":1161:1290   */\n    tag_207:\n        /* \"#utility.yul\":1195:1201   */\n      0x00\n        /* \"#utility.yul\":1222:1242   */\n      tag_290\n      tag_199\n      jump\t// in\n    tag_290:\n        /* \"#utility.yul\":1212:1242   */\n      swap1\n      pop\n        /* \"#utility.yul\":1251:1284   */\n      tag_291\n        /* \"#utility.yul\":1279:1283   */\n      dup3\n        /* \"#utility.yul\":1271:1277   */\n      dup3\n        /* \"#utility.yul\":1251:1284   */\n      tag_206\n      jump\t// in\n    tag_291:\n        /* \"#utility.yul\":1161:1290   */\n      swap2\n      swap1\n      pop\n      jump\t// out\n        /* \"#utility.yul\":1296:1604   */\n    tag_208:\n        /* \"#utility.yul\":1358:1362   */\n      0x00\n        /* \"#utility.yul\":1448:1466   */\n      0xffffffffffffffff\n        /* \"#utility.yul\":1440:1446   */\n      dup3\n        /* \"#utility.yul\":1437:1467   */\n      gt\n        /* \"#utility.yul\":1434:1490   */\n      iszero\n      tag_293\n      jumpi\n        /* \"#utility.yul\":1470:1488   */\n      tag_294\n      tag_205\n      jump\t// in\n    tag_294:\n        /* \"#utility.yul\":1434:1490   */\n    tag_293:\n        /* \"#utility.yul\":1508:1537   */\n      tag_295\n        /* \"#utility.yul\":1530:1536   */\n      dup3\n        /* \"#utility.yul\":1508:1537   */\n      tag_204\n      jump\t// in\n    tag_295:\n        /* \"#utility.yul\":1500:1537   */\n      swap1\n      pop\n        /* \"#utility.yul\":1592:1596   */\n      0x20\n        /* \"#utility.yul\":1586:1590   */\n      dup2\n        /* \"#utility.yul\":1582:1597   */\n      add\n        /* \"#utility.yul\":1574:1597   */\n      swap1\n      pop\n        /* \"#utility.yul\":1296:1604   */\n      swap2\n      swap1\n      pop\n      jump\t// out\n        /* \"#utility.yul\":1610:1758   */\n    tag_209:\n        /* \"#utility.yul\":1708:1714   */\n      dup3\n        /* \"#utility.yul\":1703:1706   */\n      dup2\n        /* \"#utility.yul\":1698:1701   */\n      dup4\n        /* \"#utility.yul\":1685:1715   */\n      calldatacopy\n        /* \"#utility.yul\":1749:1750   */\n      0x00\n        /* \"#utility.yul\":1740:1746   */\n      dup4\n        /* \"#utility.yul\":1735:1738   */\n      dup4\n        /* \"#utility.yul\":1731:1747   */\n      add\n        /* \"#utility.yul\":1724:1751   */\n      mstore\n        /* \"#utility.yul\":1610:1758   */\n      pop\n      pop\n      pop\n      jump\t// out\n        /* \"#utility.yul\":1764:2189   */\n    tag_210:\n        /* \"#utility.yul\":1842:1847   */\n      0x00\n        /* \"#utility.yul\":1867:1933   */\n      tag_298\n        /* \"#utility.yul\":1883:1932   */\n      tag_299\n        /* \"#utility.yul\":1925:1931   */\n      dup5\n        /* \"#utility.yul\":1883:1932   */\n      tag_208\n      jump\t// in\n    tag_299:\n        /* \"#utility.yul\":1867:1933   */\n      tag_207\n      jump\t// in\n    tag_298:\n        /* \"#utility.yul\":1858:1933   */\n      swap1\n      pop\n        /* \"#utility.yul\":1956:1962   */\n      dup3\n        /* \"#utility.yul\":1949:1954   */\n      dup2\n        /* \"#utility.yul\":1942:1963   */\n      mstore\n        /* \"#utility.yul\":1994:1998   */\n      0x20\n        /* \"#utility.yul\":1987:1992   */\n      dup2\n        /* \"#utility.yul\":1983:1999   */\n      add\n        /* \"#utility.yul\":2032:2035   */\n      dup5\n        /* \"#utility.yul\":2023:2029   */\n      dup5\n        /* \"#utility.yul\":2018:2021   */\n      dup5\n        /* \"#utility.yul\":2014:2030   */\n      add\n        /* \"#utility.yul\":2011:2036   */\n      gt\n        /* \"#utility.yul\":2008:2120   */\n      iszero\n      tag_300\n      jumpi\n        /* \"#utility.yul\":2039:2118   */\n      tag_301\n      tag_203\n      jump\t// in\n    tag_301:\n        /* \"#utility.yul\":2008:2120   */\n    tag_300:\n        /* \"#utility.yul\":2129:2183   */\n      tag_302\n        /* \"#utility.yul\":2176:2182   */\n      dup5\n        /* \"#utility.yul\":2171:2174   */\n      dup3\n        /* \"#utility.yul\":2166:2169   */\n      dup6\n        /* \"#utility.yul\":2129:2183   */\n      tag_209\n      jump\t// in\n    tag_302:\n        /* \"#utility.yul\":1848:2189   */\n      pop\n        /* \"#utility.yul\":1764:2189   */\n      swap4\n      swap3\n      pop\n      pop\n      pop\n      jump\t// out\n        /* \"#utility.yul\":2209:2549   */\n    tag_211:\n        /* \"#utility.yul\":2265:2270   */\n      0x00\n        /* \"#utility.yul\":2314:2317   */\n      dup3\n        /* \"#utility.yul\":2307:2311   */\n      0x1f\n        /* \"#utility.yul\":2299:2305   */\n      dup4\n        /* \"#utility.yul\":2295:2312   */\n      add\n        /* \"#utility.yul\":2291:2318   */\n      slt\n        /* \"#utility.yul\":2281:2403   */\n      tag_304\n      jumpi\n        /* \"#utility.yul\":2322:2401   */\n      tag_305\n      tag_202\n      jump\t// in\n    tag_305:\n        /* \"#utility.yul\":2281:2403   */\n    tag_304:\n        /* \"#utility.yul\":2439:2445   */\n      dup2\n        /* \"#utility.yul\":2426:2446   */\n      calldataload\n        /* \"#utility.yul\":2464:2543   */\n      tag_306\n        /* \"#utility.yul\":2539:2542   */\n      dup5\n        /* \"#utility.yul\":2531:2537   */\n      dup3\n        /* \"#utility.yul\":2524:2528   */\n      0x20\n        /* \"#utility.yul\":2516:2522   */\n      dup7\n        /* \"#utility.yul\":2512:2529   */\n      add\n        /* \"#utility.yul\":2464:2543   */\n      tag_210\n      jump\t// in\n    tag_306:\n        /* \"#utility.yul\":2455:2543   */\n      swap2\n      pop\n        /* \"#utility.yul\":2271:2549   */\n      pop\n        /* \"#utility.yul\":2209:2549   */\n      swap3\n      swap2\n      pop\n      pop\n      jump\t// out\n        /* \"#utility.yul\":2555:3064   */\n    tag_24:\n        /* \"#utility.yul\":2624:2630   */\n      0x00\n        /* \"#utility.yul\":2673:2675   */\n      0x20\n        /* \"#utility.yul\":2661:2670   */\n      dup3\n        /* \"#utility.yul\":2652:2659   */\n      dup5\n        /* \"#utility.yul\":2648:2671   */\n      sub\n        /* \"#utility.yul\":2644:2676   */\n      slt\n        /* \"#utility.yul\":2641:2760   */\n      iszero\n      tag_308\n      jumpi\n        /* \"#utility.yul\":2679:2758   */\n      tag_309\n      tag_200\n      jump\t// in\n    tag_309:\n        /* \"#utility.yul\":2641:2760   */\n    tag_308:\n        /* \"#utility.yul\":2827:2828   */\n      0x00\n        /* \"#utility.yul\":2816:2825   */\n      dup3\n        /* \"#utility.yul\":2812:2829   */\n      add\n        /* \"#utility.yul\":2799:2830   */\n      calldataload\n        /* \"#utility.yul\":2857:2875   */\n      0xffffffffffffffff\n        /* \"#utility.yul\":2849:2855   */\n      dup2\n        /* \"#utility.yul\":2846:2876   */\n      gt\n        /* \"#utility.yul\":2843:2960   */\n      iszero\n      tag_310\n      jumpi\n        /* \"#utility.yul\":2879:2958   */\n      tag_311\n      tag_201\n      jump\t// in\n    tag_311:\n        /* \"#utility.yul\":2843:2960   */\n    tag_310:\n        /* \"#utility.yul\":2984:3047   */\n      tag_312\n        /* \"#utility.yul\":3039:3046   */\n      dup5\n        /* \"#utility.yul\":3030:3036   */\n      dup3\n        /* \"#utility.yul\":3019:3028   */\n      dup6\n        /* \"#utility.yul\":3015:3037   */\n      add\n        /* \"#utility.yul\":2984:3047   */\n      tag_211\n      jump\t// in\n    tag_312:\n        /* \"#utility.yul\":2974:3047   */\n      swap2\n      pop\n        /* \"#utility.yul\":2770:3057   */\n      pop\n        /* \"#utility.yul\":2555:3064   */\n      swap3\n      swap2\n      pop\n      pop\n      jump\t// out\n        /* \"#utility.yul\":3070:3147   */\n    tag_212:\n        /* \"#utility.yul\":3107:3114   */\n      0x00\n        /* \"#utility.yul\":3136:3141   */\n      dup2\n        /* \"#utility.yul\":3125:3141   */\n      swap1\n      pop\n        /* \"#utility.yul\":3070:3147   */\n      swap2\n      swap1\n      pop\n      jump\t// out\n        /* \"#utility.yul\":3153:3271   */\n    tag_213:\n        /* \"#utility.yul\":3240:3264   */\n      tag_315\n        /* \"#utility.yul\":3258:3263   */\n      dup2\n        /* \"#utility.yul\":3240:3264   */\n      tag_212\n      jump\t// in\n    tag_315:\n        /* \"#utility.yul\":3235:3238   */\n      dup3\n        /* \"#utility.yul\":3228:3265   */\n      mstore\n        /* \"#utility.yul\":3153:3271   */\n      pop\n      pop\n      jump\t// out\n        /* \"#utility.yul\":3277:3499   */\n    tag_27:\n        /* \"#utility.yul\":3370:3374   */\n      0x00\n        /* \"#utility.yul\":3408:3410   */\n      0x20\n        /* \"#utility.yul\":3397:3406   */\n      dup3\n        /* \"#utility.yul\":3393:3411   */\n      add\n        /* \"#utility.yul\":3385:3411   */\n      swap1\n      pop\n        /* \"#utility.yul\":3421:3492   */\n      tag_317\n        /* \"#utility.yul\":3489:3490   */\n      0x00\n        /* \"#utility.yul\":3478:3487   */\n      dup4\n        /* \"#utility.yul\":3474:3491   */\n      add\n        /* \"#utility.yul\":3465:3471   */\n      dup5\n        /* \"#utility.yul\":3421:3492   */\n      tag_213\n      jump\t// in\n    tag_317:\n        /* \"#utility.yul\":3277:3499   */\n      swap3\n      swap2\n      pop\n      pop\n      jump\t// out\n        /* \"#utility.yul\":3505:3631   */\n    tag_214:\n        /* \"#utility.yul\":3542:3549   */\n      0x00\n        /* \"#utility.yul\":3582:3624   */\n      0xffffffffffffffffffffffffffffffffffffffff\n        /* \"#utility.yul\":3575:3580   */\n      dup3\n        /* \"#utility.yul\":3571:3625   */\n      and\n        /* \"#utility.yul\":3560:3625   */\n      swap1\n      pop\n        /* \"#utility.yul\":3505:3631   */\n      swap2\n      swap1\n      pop\n      jump\t// out\n        /* \"#utility.yul\":3637:3733   */\n    tag_215:\n        /* \"#utility.yul\":3674:3681   */\n      0x00\n        /* \"#utility.yul\":3703:3727   */\n      tag_320\n        /* \"#utility.yul\":3721:3726   */\n      dup3\n        /* \"#utility.yul\":3703:3727   */\n      tag_214\n      jump\t// in\n    tag_320:\n        /* \"#utility.yul\":3692:3727   */\n      swap1\n      pop\n        /* \"#utility.yul\":3637:3733   */\n      swap2\n      swap1\n      pop\n      jump\t// out\n        /* \"#utility.yul\":3739:3861   */\n    tag_216:\n        /* \"#utility.yul\":3812:3836   */\n      tag_322\n        /* \"#utility.yul\":3830:3835   */\n      dup2\n        /* \"#utility.yul\":3812:3836   */\n      tag_215\n      jump\t// in\n    tag_322:\n        /* \"#utility.yul\":3805:3810   */\n      dup2\n        /* \"#utility.yul\":3802:3837   */\n      eq\n        /* \"#utility.yul\":3792:3855   */\n      tag_323\n      jumpi\n        /* \"#utility.yul\":3851:3852   */\n      0x00\n        /* \"#utility.yul\":3848:3849   */\n      0x00\n        /* \"#utility.yul\":3841:3853   */\n      revert\n        /* \"#utility.yul\":3792:3855   */\n    tag_323:\n        /* \"#utility.yul\":3739:3861   */\n      pop\n      jump\t// out\n        /* \"#utility.yul\":3867:4006   */\n    tag_217:\n        /* \"#utility.yul\":3913:3918   */\n      0x00\n        /* \"#utility.yul\":3951:3957   */\n      dup2\n        /* \"#utility.yul\":3938:3958   */\n      calldataload\n        /* \"#utility.yul\":3929:3958   */\n      swap1\n      pop\n        /* \"#utility.yul\":3967:4000   */\n      tag_325\n        /* \"#utility.yul\":3994:3999   */\n      dup2\n        /* \"#utility.yul\":3967:4000   */\n      tag_216\n      jump\t// in\n    tag_325:\n        /* \"#utility.yul\":3867:4006   */\n      swap3\n      swap2\n      pop\n      pop\n      jump\t// out\n        /* \"#utility.yul\":4012:4341   */\n    tag_31:\n        /* \"#utility.yul\":4071:4077   */\n      0x00\n        /* \"#utility.yul\":4120:4122   */\n      0x20\n        /* \"#utility.yul\":4108:4117   */\n      dup3\n        /* \"#utility.yul\":4099:4106   */\n      dup5\n        /* \"#utility.yul\":4095:4118   */\n      sub\n        /* \"#utility.yul\":4091:4123   */\n      slt\n        /* \"#utility.yul\":4088:4207   */\n      iszero\n      tag_327\n      jumpi\n        /* \"#utility.yul\":4126:4205   */\n      tag_328\n      tag_200\n      jump\t// in\n    tag_328:\n        /* \"#utility.yul\":4088:4207   */\n    tag_327:\n        /* \"#utility.yul\":4246:4247   */\n      0x00\n        /* \"#utility.yul\":4271:4324   */\n      tag_329\n        /* \"#utility.yul\":4316:4323   */\n      dup5\n        /* \"#utility.yul\":4307:4313   */\n      dup3\n        /* \"#utility.yul\":4296:4305   */\n      dup6\n        /* \"#utility.yul\":4292:4314   */\n      add\n        /* \"#utility.yul\":4271:4324   */\n      tag_217\n      jump\t// in\n    tag_329:\n        /* \"#utility.yul\":4261:4324   */\n      swap2\n      pop\n        /* \"#utility.yul\":4217:4334   */\n      pop\n        /* \"#utility.yul\":4012:4341   */\n      swap3\n      swap2\n      pop\n      pop\n      jump\t// out\n        /* \"#utility.yul\":4347:4471   */\n    tag_218:\n        /* \"#utility.yul\":4424:4430   */\n      0x00\n        /* \"#utility.yul\":4458:4463   */\n      dup2\n        /* \"#utility.yul\":4452:4464   */\n      mload\n        /* \"#utility.yul\":4442:4464   */\n      swap1\n      pop\n        /* \"#utility.yul\":4347:4471   */\n      swap2\n      swap1\n      pop\n      jump\t// out\n        /* \"#utility.yul\":4477:4671   */\n    tag_219:\n        /* \"#utility.yul\":4586:4597   */\n      0x00\n        /* \"#utility.yul\":4620:4626   */\n      dup3\n        /* \"#utility.yul\":4615:4618   */\n      dup3\n        /* \"#utility.yul\":4608:4627   */\n      mstore\n        /* \"#utility.yul\":4660:4664   */\n      0x20\n        /* \"#utility.yul\":4655:4658   */\n      dup3\n        /* \"#utility.yul\":4651:4665   */\n      add\n        /* \"#utility.yul\":4636:4665   */\n      swap1\n      pop\n        /* \"#utility.yul\":4477:4671   */\n      swap3\n      swap2\n      pop\n      pop\n      jump\t// out\n        /* \"#utility.yul\":4677:4819   */\n    tag_220:\n        /* \"#utility.yul\":4754:4758   */\n      0x00\n        /* \"#utility.yul\":4777:4780   */\n      dup2\n        /* \"#utility.yul\":4769:4780   */\n      swap1\n      pop\n        /* \"#utility.yul\":4807:4811   */\n      0x20\n        /* \"#utility.yul\":4802:4805   */\n      dup3\n        /* \"#utility.yul\":4798:4812   */\n      add\n        /* \"#utility.yul\":4790:4812   */\n      swap1\n      pop\n        /* \"#utility.yul\":4677:4819   */\n      swap2\n      swap1\n      pop\n      jump\t// out\n        /* \"#utility.yul\":4825:4924   */\n    tag_221:\n        /* \"#utility.yul\":4877:4883   */\n      0x00\n        /* \"#utility.yul\":4911:4916   */\n      dup2\n        /* \"#utility.yul\":4905:4917   */\n      mload\n        /* \"#utility.yul\":4895:4917   */\n      swap1\n      pop\n        /* \"#utility.yul\":4825:4924   */\n      swap2\n      swap1\n      pop\n      jump\t// out\n        /* \"#utility.yul\":4930:5089   */\n    tag_222:\n        /* \"#utility.yul\":5004:5015   */\n      0x00\n        /* \"#utility.yul\":5038:5044   */\n      dup3\n        /* \"#utility.yul\":5033:5036   */\n      dup3\n        /* \"#utility.yul\":5026:5045   */\n      mstore\n        /* \"#utility.yul\":5078:5082   */\n      0x20\n        /* \"#utility.yul\":5073:5076   */\n      dup3\n        /* \"#utility.yul\":5069:5083   */\n      add\n        /* \"#utility.yul\":5054:5083   */\n      swap1\n      pop\n        /* \"#utility.yul\":4930:5089   */\n      swap3\n      swap2\n      pop\n      pop\n      jump\t// out\n        /* \"#utility.yul\":5095:5234   */\n    tag_223:\n        /* \"#utility.yul\":5184:5190   */\n      dup3\n        /* \"#utility.yul\":5179:5182   */\n      dup2\n        /* \"#utility.yul\":5174:5177   */\n      dup4\n        /* \"#utility.yul\":5168:5191   */\n      mcopy\n        /* \"#utility.yul\":5225:5226   */\n      0x00\n        /* \"#utility.yul\":5216:5222   */\n      dup4\n        /* \"#utility.yul\":5211:5214   */\n      dup4\n        /* \"#utility.yul\":5207:5223   */\n      add\n        /* \"#utility.yul\":5200:5227   */\n      mstore\n        /* \"#utility.yul\":5095:5234   */\n      pop\n      pop\n      pop\n      jump\t// out\n        /* \"#utility.yul\":5240:5597   */\n    tag_224:\n        /* \"#utility.yul\":5318:5321   */\n      0x00\n        /* \"#utility.yul\":5346:5385   */\n      tag_337\n        /* \"#utility.yul\":5379:5384   */\n      dup3\n        /* \"#utility.yul\":5346:5385   */\n      tag_221\n      jump\t// in\n    tag_337:\n        /* \"#utility.yul\":5401:5462   */\n      tag_338\n        /* \"#utility.yul\":5455:5461   */\n      dup2\n        /* \"#utility.yul\":5450:5453   */\n      dup6\n        /* \"#utility.yul\":5401:5462   */\n      tag_222\n      jump\t// in\n    tag_338:\n        /* \"#utility.yul\":5394:5462   */\n      swap4\n      pop\n        /* \"#utility.yul\":5471:5536   */\n      tag_339\n        /* \"#utility.yul\":5529:5535   */\n      dup2\n        /* \"#utility.yul\":5524:5527   */\n      dup6\n        /* \"#utility.yul\":5517:5521   */\n      0x20\n        /* \"#utility.yul\":5510:5515   */\n      dup7\n        /* \"#utility.yul\":5506:5522   */\n      add\n        /* \"#utility.yul\":5471:5536   */\n      tag_223\n      jump\t// in\n    tag_339:\n        /* \"#utility.yul\":5561:5590   */\n      tag_340\n        /* \"#utility.yul\":5583:5589   */\n      dup2\n        /* \"#utility.yul\":5561:5590   */\n      tag_204\n      jump\t// in\n    tag_340:\n        /* \"#utility.yul\":5556:5559   */\n      dup5\n        /* \"#utility.yul\":5552:5591   */\n      add\n        /* \"#utility.yul\":5545:5591   */\n      swap2\n      pop\n        /* \"#utility.yul\":5322:5597   */\n      pop\n        /* \"#utility.yul\":5240:5597   */\n      swap3\n      swap2\n      pop\n      pop\n      jump\t// out\n        /* \"#utility.yul\":5603:5799   */\n    tag_225:\n        /* \"#utility.yul\":5692:5702   */\n      0x00\n        /* \"#utility.yul\":5727:5793   */\n      tag_342\n        /* \"#utility.yul\":5789:5792   */\n      dup4\n        /* \"#utility.yul\":5781:5787   */\n      dup4\n        /* \"#utility.yul\":5727:5793   */\n      tag_224\n      jump\t// in\n    tag_342:\n        /* \"#utility.yul\":5713:5793   */\n      swap1\n      pop\n        /* \"#utility.yul\":5603:5799   */\n      swap3\n      swap2\n      pop\n      pop\n      jump\t// out\n        /* \"#utility.yul\":5805:5928   */\n    tag_226:\n        /* \"#utility.yul\":5885:5889   */\n      0x00\n        /* \"#utility.yul\":5917:5921   */\n      0x20\n        /* \"#utility.yul\":5912:5915   */\n      dup3\n        /* \"#utility.yul\":5908:5922   */\n      add\n        /* \"#utility.yul\":5900:5922   */\n      swap1\n      pop\n        /* \"#utility.yul\":5805:5928   */\n      swap2\n      swap1\n      pop\n      jump\t// out\n        /* \"#utility.yul\":5962:6953   */\n    tag_227:\n        /* \"#utility.yul\":6101:6104   */\n      0x00\n        /* \"#utility.yul\":6130:6194   */\n      tag_345\n        /* \"#utility.yul\":6188:6193   */\n      dup3\n        /* \"#utility.yul\":6130:6194   */\n      tag_218\n      jump\t// in\n    tag_345:\n        /* \"#utility.yul\":6210:6306   */\n      tag_346\n        /* \"#utility.yul\":6299:6305   */\n      dup2\n        /* \"#utility.yul\":6294:6297   */\n      dup6\n        /* \"#utility.yul\":6210:6306   */\n      tag_219\n      jump\t// in\n    tag_346:\n        /* \"#utility.yul\":6203:6306   */\n      swap4\n      pop\n        /* \"#utility.yul\":6332:6335   */\n      dup4\n        /* \"#utility.yul\":6377:6381   */\n      0x20\n        /* \"#utility.yul\":6369:6375   */\n      dup3\n        /* \"#utility.yul\":6365:6382   */\n      mul\n        /* \"#utility.yul\":6360:6363   */\n      dup6\n        /* \"#utility.yul\":6356:6383   */\n      add\n        /* \"#utility.yul\":6407:6473   */\n      tag_347\n        /* \"#utility.yul\":6467:6472   */\n      dup6\n        /* \"#utility.yul\":6407:6473   */\n      tag_220\n      jump\t// in\n    tag_347:\n        /* \"#utility.yul\":6496:6503   */\n      dup1\n        /* \"#utility.yul\":6527:6528   */\n      0x00\n        /* \"#utility.yul\":6512:6908   */\n    tag_348:\n        /* \"#utility.yul\":6537:6543   */\n      dup6\n        /* \"#utility.yul\":6534:6535   */\n      dup2\n        /* \"#utility.yul\":6531:6544   */\n      lt\n        /* \"#utility.yul\":6512:6908   */\n      iszero\n      tag_350\n      jumpi\n        /* \"#utility.yul\":6608:6617   */\n      dup5\n        /* \"#utility.yul\":6602:6606   */\n      dup5\n        /* \"#utility.yul\":6598:6618   */\n      sub\n        /* \"#utility.yul\":6593:6596   */\n      dup10\n        /* \"#utility.yul\":6586:6619   */\n      mstore\n        /* \"#utility.yul\":6659:6665   */\n      dup2\n        /* \"#utility.yul\":6653:6666   */\n      mload\n        /* \"#utility.yul\":6687:6771   */\n      tag_351\n        /* \"#utility.yul\":6766:6770   */\n      dup6\n        /* \"#utility.yul\":6751:6764   */\n      dup3\n        /* \"#utility.yul\":6687:6771   */\n      tag_225\n      jump\t// in\n    tag_351:\n        /* \"#utility.yul\":6679:6771   */\n      swap5\n      pop\n        /* \"#utility.yul\":6794:6864   */\n      tag_352\n        /* \"#utility.yul\":6857:6863   */\n      dup4\n        /* \"#utility.yul\":6794:6864   */\n      tag_226\n      jump\t// in\n    tag_352:\n        /* \"#utility.yul\":6784:6864   */\n      swap3\n      pop\n        /* \"#utility.yul\":6893:6897   */\n      0x20\n        /* \"#utility.yul\":6888:6891   */\n      dup11\n        /* \"#utility.yul\":6884:6898   */\n      add\n        /* \"#utility.yul\":6877:6898   */\n      swap10\n      pop\n        /* \"#utility.yul\":6572:6908   */\n      pop\n        /* \"#utility.yul\":6559:6560   */\n      0x01\n        /* \"#utility.yul\":6556:6557   */\n      dup2\n        /* \"#utility.yul\":6552:6561   */\n      add\n        /* \"#utility.yul\":6547:6561   */\n      swap1\n      pop\n        /* \"#utility.yul\":6512:6908   */\n      jump(tag_348)\n    tag_350:\n        /* \"#utility.yul\":6516:6530   */\n      pop\n        /* \"#utility.yul\":6924:6928   */\n      dup3\n        /* \"#utility.yul\":6917:6928   */\n      swap8\n      pop\n        /* \"#utility.yul\":6944:6947   */\n      dup8\n        /* \"#utility.yul\":6937:6947   */\n      swap6\n      pop\n        /* \"#utility.yul\":6106:6953   */\n      pop\n      pop\n      pop\n      pop\n      pop\n        /* \"#utility.yul\":5962:6953   */\n      swap3\n      swap2\n      pop\n      pop\n      jump\t// out\n        /* \"#utility.yul\":6959:7372   */\n    tag_48:\n        /* \"#utility.yul\":7122:7126   */\n      0x00\n        /* \"#utility.yul\":7160:7162   */\n      0x20\n        /* \"#utility.yul\":7149:7158   */\n      dup3\n        /* \"#utility.yul\":7145:7163   */\n      add\n        /* \"#utility.yul\":7137:7163   */\n      swap1\n      pop\n        /* \"#utility.yul\":7209:7218   */\n      dup2\n        /* \"#utility.yul\":7203:7207   */\n      dup2\n        /* \"#utility.yul\":7199:7219   */\n      sub\n        /* \"#utility.yul\":7195:7196   */\n      0x00\n        /* \"#utility.yul\":7184:7193   */\n      dup4\n        /* \"#utility.yul\":7180:7197   */\n      add\n        /* \"#utility.yul\":7173:7220   */\n      mstore\n        /* \"#utility.yul\":7237:7365   */\n      tag_354\n        /* \"#utility.yul\":7360:7364   */\n      dup2\n        /* \"#utility.yul\":7351:7357   */\n      dup5\n        /* \"#utility.yul\":7237:7365   */\n      tag_227\n      jump\t// in\n    tag_354:\n        /* \"#utility.yul\":7229:7365   */\n      swap1\n      pop\n        /* \"#utility.yul\":6959:7372   */\n      swap3\n      swap2\n      pop\n      pop\n      jump\t// out\n        /* \"#utility.yul\":7378:7500   */\n    tag_228:\n        /* \"#utility.yul\":7451:7475   */\n      tag_356\n        /* \"#utility.yul\":7469:7474   */\n      dup2\n        /* \"#utility.yul\":7451:7475   */\n      tag_212\n      jump\t// in\n    tag_356:\n        /* \"#utility.yul\":7444:7449   */\n      dup2\n        /* \"#utility.yul\":7441:7476   */\n      eq\n        /* \"#utility.yul\":7431:7494   */\n      tag_357\n      jumpi\n        /* \"#utility.yul\":7490:7491   */\n      0x00\n        /* \"#utility.yul\":7487:7488   */\n      0x00\n        /* \"#utility.yul\":7480:7492   */\n      revert\n        /* \"#utility.yul\":7431:7494   */\n    tag_357:\n        /* \"#utility.yul\":7378:7500   */\n      pop\n      jump\t// out\n        /* \"#utility.yul\":7506:7645   */\n    tag_229:\n        /* \"#utility.yul\":7552:7557   */\n      0x00\n        /* \"#utility.yul\":7590:7596   */\n      dup2\n        /* \"#utility.yul\":7577:7597   */\n      calldataload\n        /* \"#utility.yul\":7568:7597   */\n      swap1\n      pop\n        /* \"#utility.yul\":7606:7639   */\n      tag_359\n        /* \"#utility.yul\":7633:7638   */\n      dup2\n        /* \"#utility.yul\":7606:7639   */\n      tag_228\n      jump\t// in\n    tag_359:\n        /* \"#utility.yul\":7506:7645   */\n      swap3\n      swap2\n      pop\n      pop\n      jump\t// out\n        /* \"#utility.yul\":7651:8305   */\n    tag_60:\n        /* \"#utility.yul\":7729:7735   */\n      0x00\n        /* \"#utility.yul\":7737:7743   */\n      0x00\n        /* \"#utility.yul\":7786:7788   */\n      0x40\n        /* \"#utility.yul\":7774:7783   */\n      dup4\n        /* \"#utility.yul\":7765:7772   */\n      dup6\n        /* \"#utility.yul\":7761:7784   */\n      sub\n        /* \"#utility.yul\":7757:7789   */\n      slt\n        /* \"#utility.yul\":7754:7873   */\n      iszero\n      tag_361\n      jumpi\n        /* \"#utility.yul\":7792:7871   */\n      tag_362\n      tag_200\n      jump\t// in\n    tag_362:\n        /* \"#utility.yul\":7754:7873   */\n    tag_361:\n        /* \"#utility.yul\":7940:7941   */\n      0x00\n        /* \"#utility.yul\":7929:7938   */\n      dup4\n        /* \"#utility.yul\":7925:7942   */\n      add\n        /* \"#utility.yul\":7912:7943   */\n      calldataload\n        /* \"#utility.yul\":7970:7988   */\n      0xffffffffffffffff\n        /* \"#utility.yul\":7962:7968   */\n      dup2\n        /* \"#utility.yul\":7959:7989   */\n      gt\n        /* \"#utility.yul\":7956:8073   */\n      iszero\n      tag_363\n      jumpi\n        /* \"#utility.yul\":7992:8071   */\n      tag_364\n      tag_201\n      jump\t// in\n    tag_364:\n        /* \"#utility.yul\":7956:8073   */\n    tag_363:\n        /* \"#utility.yul\":8097:8160   */\n      tag_365\n        /* \"#utility.yul\":8152:8159   */\n      dup6\n        /* \"#utility.yul\":8143:8149   */\n      dup3\n        /* \"#utility.yul\":8132:8141   */\n      dup7\n        /* \"#utility.yul\":8128:8150   */\n      add\n        /* \"#utility.yul\":8097:8160   */\n      tag_211\n      jump\t// in\n    tag_365:\n        /* \"#utility.yul\":8087:8160   */\n      swap3\n      pop\n        /* \"#utility.yul\":7883:8170   */\n      pop\n        /* \"#utility.yul\":8209:8211   */\n      0x20\n        /* \"#utility.yul\":8235:8288   */\n      tag_366\n        /* \"#utility.yul\":8280:8287   */\n      dup6\n        /* \"#utility.yul\":8271:8277   */\n      dup3\n        /* \"#utility.yul\":8260:8269   */\n      dup7\n        /* \"#utility.yul\":8256:8278   */\n      add\n        /* \"#utility.yul\":8235:8288   */\n      tag_229\n      jump\t// in\n    tag_366:\n        /* \"#utility.yul\":8225:8288   */\n      swap2\n      pop\n        /* \"#utility.yul\":8180:8298   */\n      pop\n        /* \"#utility.yul\":7651:8305   */\n      swap3\n      pop\n      swap3\n      swap1\n      pop\n      jump\t// out\n        /* \"#utility.yul\":8311:8429   */\n    tag_230:\n        /* \"#utility.yul\":8398:8422   */\n      tag_368\n        /* \"#utility.yul\":8416:8421   */\n      dup2\n        /* \"#utility.yul\":8398:8422   */\n      tag_215\n      jump\t// in\n    tag_368:\n        /* \"#utility.yul\":8393:8396   */\n      dup3\n        /* \"#utility.yul\":8386:8423   */\n      mstore\n        /* \"#utility.yul\":8311:8429   */\n      pop\n      pop\n      jump\t// out\n        /* \"#utility.yul\":8435:8657   */\n    tag_75:\n        /* \"#utility.yul\":8528:8532   */\n      0x00\n        /* \"#utility.yul\":8566:8568   */\n      0x20\n        /* \"#utility.yul\":8555:8564   */\n      dup3\n        /* \"#utility.yul\":8551:8569   */\n      add\n        /* \"#utility.yul\":8543:8569   */\n      swap1\n      pop\n        /* \"#utility.yul\":8579:8650   */\n      tag_370\n        /* \"#utility.yul\":8647:8648   */\n      0x00\n        /* \"#utility.yul\":8636:8645   */\n      dup4\n        /* \"#utility.yul\":8632:8649   */\n      add\n        /* \"#utility.yul\":8623:8629   */\n      dup5\n        /* \"#utility.yul\":8579:8650   */\n      tag_230\n      jump\t// in\n    tag_370:\n        /* \"#utility.yul\":8435:8657   */\n      swap3\n      swap2\n      pop\n      pop\n      jump\t// out\n        /* \"#utility.yul\":8663:8992   */\n    tag_79:\n        /* \"#utility.yul\":8722:8728   */\n      0x00\n        /* \"#utility.yul\":8771:8773   */\n      0x20\n        /* \"#utility.yul\":8759:8768   */\n      dup3\n        /* \"#utility.yul\":8750:8757   */\n      dup5\n        /* \"#utility.yul\":8746:8769   */\n      sub\n        /* \"#utility.yul\":8742:8774   */\n      slt\n        /* \"#utility.yul\":8739:8858   */\n      iszero\n      tag_372\n      jumpi\n        /* \"#utility.yul\":8777:8856   */\n      tag_373\n      tag_200\n      jump\t// in\n    tag_373:\n        /* \"#utility.yul\":8739:8858   */\n    tag_372:\n        /* \"#utility.yul\":8897:8898   */\n      0x00\n        /* \"#utility.yul\":8922:8975   */\n      tag_374\n        /* \"#utility.yul\":8967:8974   */\n      dup5\n        /* \"#utility.yul\":8958:8964   */\n      dup3\n        /* \"#utility.yul\":8947:8956   */\n      dup6\n        /* \"#utility.yul\":8943:8965   */\n      add\n        /* \"#utility.yul\":8922:8975   */\n      tag_229\n      jump\t// in\n    tag_374:\n        /* \"#utility.yul\":8912:8975   */\n      swap2\n      pop\n        /* \"#utility.yul\":8868:8985   */\n      pop\n        /* \"#utility.yul\":8663:8992   */\n      swap3\n      swap2\n      pop\n      pop\n      jump\t// out\n        /* \"#utility.yul\":8998:9167   */\n    tag_231:\n        /* \"#utility.yul\":9082:9093   */\n      0x00\n        /* \"#utility.yul\":9116:9122   */\n      dup3\n        /* \"#utility.yul\":9111:9114   */\n      dup3\n        /* \"#utility.yul\":9104:9123   */\n      mstore\n        /* \"#utility.yul\":9156:9160   */\n      0x20\n        /* \"#utility.yul\":9151:9154   */\n      dup3\n        /* \"#utility.yul\":9147:9161   */\n      add\n        /* \"#utility.yul\":9132:9161   */\n      swap1\n      pop\n        /* \"#utility.yul\":8998:9167   */\n      swap3\n      swap2\n      pop\n      pop\n      jump\t// out\n        /* \"#utility.yul\":9173:9550   */\n    tag_232:\n        /* \"#utility.yul\":9261:9264   */\n      0x00\n        /* \"#utility.yul\":9289:9328   */\n      tag_377\n        /* \"#utility.yul\":9322:9327   */\n      dup3\n        /* \"#utility.yul\":9289:9328   */\n      tag_221\n      jump\t// in\n    tag_377:\n        /* \"#utility.yul\":9344:9415   */\n      tag_378\n        /* \"#utility.yul\":9408:9414   */\n      dup2\n        /* \"#utility.yul\":9403:9406   */\n      dup6\n        /* \"#utility.yul\":9344:9415   */\n      tag_231\n      jump\t// in\n    tag_378:\n        /* \"#utility.yul\":9337:9415   */\n      swap4\n      pop\n        /* \"#utility.yul\":9424:9489   */\n      tag_379\n        /* \"#utility.yul\":9482:9488   */\n      dup2\n        /* \"#utility.yul\":9477:9480   */\n      dup6\n        /* \"#utility.yul\":9470:9474   */\n      0x20\n        /* \"#utility.yul\":9463:9468   */\n      dup7\n        /* \"#utility.yul\":9459:9475   */\n      add\n        /* \"#utility.yul\":9424:9489   */\n      tag_223\n      jump\t// in\n    tag_379:\n        /* \"#utility.yul\":9514:9543   */\n      tag_380\n        /* \"#utility.yul\":9536:9542   */\n      dup2\n        /* \"#utility.yul\":9514:9543   */\n      tag_204\n      jump\t// in\n    tag_380:\n        /* \"#utility.yul\":9509:9512   */\n      dup5\n        /* \"#utility.yul\":9505:9544   */\n      add\n        /* \"#utility.yul\":9498:9544   */\n      swap2\n      pop\n        /* \"#utility.yul\":9265:9550   */\n      pop\n        /* \"#utility.yul\":9173:9550   */\n      swap3\n      swap2\n      pop\n      pop\n      jump\t// out\n        /* \"#utility.yul\":9556:9869   */\n    tag_82:\n        /* \"#utility.yul\":9669:9673   */\n      0x00\n        /* \"#utility.yul\":9707:9709   */\n      0x20\n        /* \"#utility.yul\":9696:9705   */\n      dup3\n        /* \"#utility.yul\":9692:9710   */\n      add\n        /* \"#utility.yul\":9684:9710   */\n      swap1\n      pop\n        /* \"#utility.yul\":9756:9765   */\n      dup2\n        /* \"#utility.yul\":9750:9754   */\n      dup2\n        /* \"#utility.yul\":9746:9766   */\n      sub\n        /* \"#utility.yul\":9742:9743   */\n      0x00\n        /* \"#utility.yul\":9731:9740   */\n      dup4\n        /* \"#utility.yul\":9727:9744   */\n      add\n        /* \"#utility.yul\":9720:9767   */\n      mstore\n        /* \"#utility.yul\":9784:9862   */\n      tag_382\n        /* \"#utility.yul\":9857:9861   */\n      dup2\n        /* \"#utility.yul\":9848:9854   */\n      dup5\n        /* \"#utility.yul\":9784:9862   */\n      tag_232\n      jump\t// in\n    tag_382:\n        /* \"#utility.yul\":9776:9862   */\n      swap1\n      pop\n        /* \"#utility.yul\":9556:9869   */\n      swap3\n      swap2\n      pop\n      pop\n      jump\t// out\n        /* \"#utility.yul\":9875:10023   */\n    tag_233:\n        /* \"#utility.yul\":9977:9988   */\n      0x00\n        /* \"#utility.yul\":10014:10017   */\n      dup2\n        /* \"#utility.yul\":9999:10017   */\n      swap1\n      pop\n        /* \"#utility.yul\":9875:10023   */\n      swap3\n      swap2\n      pop\n      pop\n      jump\t// out\n        /* \"#utility.yul\":10029:10419   */\n    tag_234:\n        /* \"#utility.yul\":10135:10138   */\n      0x00\n        /* \"#utility.yul\":10163:10202   */\n      tag_385\n        /* \"#utility.yul\":10196:10201   */\n      dup3\n        /* \"#utility.yul\":10163:10202   */\n      tag_221\n      jump\t// in\n    tag_385:\n        /* \"#utility.yul\":10218:10307   */\n      tag_386\n        /* \"#utility.yul\":10300:10306   */\n      dup2\n        /* \"#utility.yul\":10295:10298   */\n      dup6\n        /* \"#utility.yul\":10218:10307   */\n      tag_233\n      jump\t// in\n    tag_386:\n        /* \"#utility.yul\":10211:10307   */\n      swap4\n      pop\n        /* \"#utility.yul\":10316:10381   */\n      tag_387\n        /* \"#utility.yul\":10374:10380   */\n      dup2\n        /* \"#utility.yul\":10369:10372   */\n      dup6\n        /* \"#utility.yul\":10362:10366   */\n      0x20\n        /* \"#utility.yul\":10355:10360   */\n      dup7\n        /* \"#utility.yul\":10351:10367   */\n      add\n        /* \"#utility.yul\":10316:10381   */\n      tag_223\n      jump\t// in\n    tag_387:\n        /* \"#utility.yul\":10406:10412   */\n      dup1\n        /* \"#utility.yul\":10401:10404   */\n      dup5\n        /* \"#utility.yul\":10397:10413   */\n      add\n        /* \"#utility.yul\":10390:10413   */\n      swap2\n      pop\n        /* \"#utility.yul\":10139:10419   */\n      pop\n        /* \"#utility.yul\":10029:10419   */\n      swap3\n      swap2\n      pop\n      pop\n      jump\t// out\n        /* \"#utility.yul\":10425:10700   */\n    tag_98:\n        /* \"#utility.yul\":10557:10560   */\n      0x00\n        /* \"#utility.yul\":10579:10674   */\n      tag_389\n        /* \"#utility.yul\":10670:10673   */\n      dup3\n        /* \"#utility.yul\":10661:10667   */\n      dup5\n        /* \"#utility.yul\":10579:10674   */\n      tag_234\n      jump\t// in\n    tag_389:\n        /* \"#utility.yul\":10572:10674   */\n      swap2\n      pop\n        /* \"#utility.yul\":10691:10694   */\n      dup2\n        /* \"#utility.yul\":10684:10694   */\n      swap1\n      pop\n        /* \"#utility.yul\":10425:10700   */\n      swap3\n      swap2\n      pop\n      pop\n      jump\t// out\n        /* \"#utility.yul\":10706:10878   */\n    tag_235:\n        /* \"#utility.yul\":10846:10870   */\n      0x43757272656e6379206e6f7420737570706f7274656400000000000000000000\n        /* \"#utility.yul\":10842:10843   */\n      0x00\n        /* \"#utility.yul\":10834:10840   */\n      dup3\n        /* \"#utility.yul\":10830:10844   */\n      add\n        /* \"#utility.yul\":10823:10871   */\n      mstore\n        /* \"#utility.yul\":10706:10878   */\n      pop\n      jump\t// out\n        /* \"#utility.yul\":10884:11250   */\n    tag_236:\n        /* \"#utility.yul\":11026:11029   */\n      0x00\n        /* \"#utility.yul\":11047:11114   */\n      tag_392\n        /* \"#utility.yul\":11111:11113   */\n      0x16\n        /* \"#utility.yul\":11106:11109   */\n      dup4\n        /* \"#utility.yul\":11047:11114   */\n      tag_231\n      jump\t// in\n    tag_392:\n        /* \"#utility.yul\":11040:11114   */\n      swap2\n      pop\n        /* \"#utility.yul\":11123:11216   */\n      tag_393\n        /* \"#utility.yul\":11212:11215   */\n      dup3\n        /* \"#utility.yul\":11123:11216   */\n      tag_235\n      jump\t// in\n    tag_393:\n        /* \"#utility.yul\":11241:11243   */\n      0x20\n        /* \"#utility.yul\":11236:11239   */\n      dup3\n        /* \"#utility.yul\":11232:11244   */\n      add\n        /* \"#utility.yul\":11225:11244   */\n      swap1\n      pop\n        /* \"#utility.yul\":10884:11250   */\n      swap2\n      swap1\n      pop\n      jump\t// out\n        /* \"#utility.yul\":11256:11675   */\n    tag_101:\n        /* \"#utility.yul\":11422:11426   */\n      0x00\n        /* \"#utility.yul\":11460:11462   */\n      0x20\n        /* \"#utility.yul\":11449:11458   */\n      dup3\n        /* \"#utility.yul\":11445:11463   */\n      add\n        /* \"#utility.yul\":11437:11463   */\n      swap1\n      pop\n        /* \"#utility.yul\":11509:11518   */\n      dup2\n        /* \"#utility.yul\":11503:11507   */\n      dup2\n        /* \"#utility.yul\":11499:11519   */\n      sub\n        /* \"#utility.yul\":11495:11496   */\n      0x00\n        /* \"#utility.yul\":11484:11493   */\n      dup4\n        /* \"#utility.yul\":11480:11497   */\n      add\n        /* \"#utility.yul\":11473:11520   */\n      mstore\n        /* \"#utility.yul\":11537:11668   */\n      tag_395\n        /* \"#utility.yul\":11663:11667   */\n      dup2\n        /* \"#utility.yul\":11537:11668   */\n      tag_236\n      jump\t// in\n    tag_395:\n        /* \"#utility.yul\":11529:11668   */\n      swap1\n      pop\n        /* \"#utility.yul\":11256:11675   */\n      swap2\n      swap1\n      pop\n      jump\t// out\n        /* \"#utility.yul\":11681:11861   */\n    tag_237:\n        /* \"#utility.yul\":11729:11806   */\n      0x4e487b7100000000000000000000000000000000000000000000000000000000\n        /* \"#utility.yul\":11726:11727   */\n      0x00\n        /* \"#utility.yul\":11719:11807   */\n      mstore\n        /* \"#utility.yul\":11826:11830   */\n      0x22\n        /* \"#utility.yul\":11823:11824   */\n      0x04\n        /* \"#utility.yul\":11816:11831   */\n      mstore\n        /* \"#utility.yul\":11850:11854   */\n      0x24\n        /* \"#utility.yul\":11847:11848   */\n      0x00\n        /* \"#utility.yul\":11840:11855   */\n      revert\n        /* \"#utility.yul\":11867:12187   */\n    tag_109:\n        /* \"#utility.yul\":11911:11917   */\n      0x00\n        /* \"#utility.yul\":11948:11949   */\n      0x02\n        /* \"#utility.yul\":11942:11946   */\n      dup3\n        /* \"#utility.yul\":11938:11950   */\n      div\n        /* \"#utility.yul\":11928:11950   */\n      swap1\n      pop\n        /* \"#utility.yul\":11995:11996   */\n      0x01\n        /* \"#utility.yul\":11989:11993   */\n      dup3\n        /* \"#utility.yul\":11985:11997   */\n      and\n        /* \"#utility.yul\":12016:12034   */\n      dup1\n        /* \"#utility.yul\":12006:12087   */\n      tag_398\n      jumpi\n        /* \"#utility.yul\":12072:12076   */\n      0x7f\n        /* \"#utility.yul\":12064:12070   */\n      dup3\n        /* \"#utility.yul\":12060:12077   */\n      and\n        /* \"#utility.yul\":12050:12077   */\n      swap2\n      pop\n        /* \"#utility.yul\":12006:12087   */\n    tag_398:\n        /* \"#utility.yul\":12134:12136   */\n      0x20\n        /* \"#utility.yul\":12126:12132   */\n      dup3\n        /* \"#utility.yul\":12123:12137   */\n      lt\n        /* \"#utility.yul\":12103:12121   */\n      dup2\n        /* \"#utility.yul\":12100:12138   */\n      sub\n        /* \"#utility.yul\":12097:12181   */\n      tag_399\n      jumpi\n        /* \"#utility.yul\":12153:12171   */\n      tag_400\n      tag_237\n      jump\t// in\n    tag_400:\n        /* \"#utility.yul\":12097:12181   */\n    tag_399:\n        /* \"#utility.yul\":11918:12187   */\n      pop\n        /* \"#utility.yul\":11867:12187   */\n      swap2\n      swap1\n      pop\n      jump\t// out\n        /* \"#utility.yul\":12193:12414   */\n    tag_238:\n        /* \"#utility.yul\":12333:12367   */\n      0x4f6e6c79206f776e65722063616e20706572666f726d20746869732061637469\n        /* \"#utility.yul\":12329:12330   */\n      0x00\n        /* \"#utility.yul\":12321:12327   */\n      dup3\n        /* \"#utility.yul\":12317:12331   */\n      add\n        /* \"#utility.yul\":12310:12368   */\n      mstore\n        /* \"#utility.yul\":12402:12406   */\n      0x6f6e000000000000000000000000000000000000000000000000000000000000\n        /* \"#utility.yul\":12397:12399   */\n      0x20\n        /* \"#utility.yul\":12389:12395   */\n      dup3\n        /* \"#utility.yul\":12385:12400   */\n      add\n        /* \"#utility.yul\":12378:12407   */\n      mstore\n        /* \"#utility.yul\":12193:12414   */\n      pop\n      jump\t// out\n        /* \"#utility.yul\":12420:12786   */\n    tag_239:\n        /* \"#utility.yul\":12562:12565   */\n      0x00\n        /* \"#utility.yul\":12583:12650   */\n      tag_403\n        /* \"#utility.yul\":12647:12649   */\n      0x22\n        /* \"#utility.yul\":12642:12645   */\n      dup4\n        /* \"#utility.yul\":12583:12650   */\n      tag_231\n      jump\t// in\n    tag_403:\n        /* \"#utility.yul\":12576:12650   */\n      swap2\n      pop\n        /* \"#utility.yul\":12659:12752   */\n      tag_404\n        /* \"#utility.yul\":12748:12751   */\n      dup3\n        /* \"#utility.yul\":12659:12752   */\n      tag_238\n      jump\t// in\n    tag_404:\n        /* \"#utility.yul\":12777:12779   */\n      0x40\n        /* \"#utility.yul\":12772:12775   */\n      dup3\n        /* \"#utility.yul\":12768:12780   */\n      add\n        /* \"#utility.yul\":12761:12780   */\n      swap1\n      pop\n        /* \"#utility.yul\":12420:12786   */\n      swap2\n      swap1\n      pop\n      jump\t// out\n        /* \"#utility.yul\":12792:13211   */\n    tag_117:\n        /* \"#utility.yul\":12958:12962   */\n      0x00\n        /* \"#utility.yul\":12996:12998   */\n      0x20\n        /* \"#utility.yul\":12985:12994   */\n      dup3\n        /* \"#utility.yul\":12981:12999   */\n      add\n        /* \"#utility.yul\":12973:12999   */\n      swap1\n      pop\n        /* \"#utility.yul\":13045:13054   */\n      dup2\n        /* \"#utility.yul\":13039:13043   */\n      dup2\n        /* \"#utility.yul\":13035:13055   */\n      sub\n        /* \"#utility.yul\":13031:13032   */\n      0x00\n        /* \"#utility.yul\":13020:13029   */\n      dup4\n        /* \"#utility.yul\":13016:13033   */\n      add\n        /* \"#utility.yul\":13009:13056   */\n      mstore\n        /* \"#utility.yul\":13073:13204   */\n      tag_406\n        /* \"#utility.yul\":13199:13203   */\n      dup2\n        /* \"#utility.yul\":13073:13204   */\n      tag_239\n      jump\t// in\n    tag_406:\n        /* \"#utility.yul\":13065:13204   */\n      swap1\n      pop\n        /* \"#utility.yul\":12792:13211   */\n      swap2\n      swap1\n      pop\n      jump\t// out\n        /* \"#utility.yul\":13217:13386   */\n    tag_240:\n        /* \"#utility.yul\":13357:13378   */\n      0x4e6f207469707320746f20776974686472617700000000000000000000000000\n        /* \"#utility.yul\":13353:13354   */\n      0x00\n        /* \"#utility.yul\":13345:13351   */\n      dup3\n        /* \"#utility.yul\":13341:13355   */\n      add\n        /* \"#utility.yul\":13334:13379   */\n      mstore\n        /* \"#utility.yul\":13217:13386   */\n      pop\n      jump\t// out\n        /* \"#utility.yul\":13392:13758   */\n    tag_241:\n        /* \"#utility.yul\":13534:13537   */\n      0x00\n        /* \"#utility.yul\":13555:13622   */\n      tag_409\n        /* \"#utility.yul\":13619:13621   */\n      0x13\n        /* \"#utility.yul\":13614:13617   */\n      dup4\n        /* \"#utility.yul\":13555:13622   */\n      tag_231\n      jump\t// in\n    tag_409:\n        /* \"#utility.yul\":13548:13622   */\n      swap2\n      pop\n        /* \"#utility.yul\":13631:13724   */\n      tag_410\n        /* \"#utility.yul\":13720:13723   */\n      dup3\n        /* \"#utility.yul\":13631:13724   */\n      tag_240\n      jump\t// in\n    tag_410:\n        /* \"#utility.yul\":13749:13751   */\n      0x20\n        /* \"#utility.yul\":13744:13747   */\n      dup3\n        /* \"#utility.yul\":13740:13752   */\n      add\n        /* \"#utility.yul\":13733:13752   */\n      swap1\n      pop\n        /* \"#utility.yul\":13392:13758   */\n      swap2\n      swap1\n      pop\n      jump\t// out\n        /* \"#utility.yul\":13764:14183   */\n    tag_121:\n        /* \"#utility.yul\":13930:13934   */\n      0x00\n        /* \"#utility.yul\":13968:13970   */\n      0x20\n        /* \"#utility.yul\":13957:13966   */\n      dup3\n        /* \"#utility.yul\":13953:13971   */\n      add\n        /* \"#utility.yul\":13945:13971   */\n      swap1\n      pop\n        /* \"#utility.yul\":14017:14026   */\n      dup2\n        /* \"#utility.yul\":14011:14015   */\n      dup2\n        /* \"#utility.yul\":14007:14027   */\n      sub\n        /* \"#utility.yul\":14003:14004   */\n      0x00\n        /* \"#utility.yul\":13992:14001   */\n      dup4\n        /* \"#utility.yul\":13988:14005   */\n      add\n        /* \"#utility.yul\":13981:14028   */\n      mstore\n        /* \"#utility.yul\":14045:14176   */\n      tag_412\n        /* \"#utility.yul\":14171:14175   */\n      dup2\n        /* \"#utility.yul\":14045:14176   */\n      tag_241\n      jump\t// in\n    tag_412:\n        /* \"#utility.yul\":14037:14176   */\n      swap1\n      pop\n        /* \"#utility.yul\":13764:14183   */\n      swap2\n      swap1\n      pop\n      jump\t// out\n        /* \"#utility.yul\":14189:14336   */\n    tag_242:\n        /* \"#utility.yul\":14290:14301   */\n      0x00\n        /* \"#utility.yul\":14327:14330   */\n      dup2\n        /* \"#utility.yul\":14312:14330   */\n      swap1\n      pop\n        /* \"#utility.yul\":14189:14336   */\n      swap3\n      swap2\n      pop\n      pop\n      jump\t// out\n        /* \"#utility.yul\":14342:14456   */\n    tag_243:\n      pop\n      jump\t// out\n        /* \"#utility.yul\":14462:14860   */\n    tag_244:\n        /* \"#utility.yul\":14621:14624   */\n      0x00\n        /* \"#utility.yul\":14642:14725   */\n      tag_416\n        /* \"#utility.yul\":14723:14724   */\n      0x00\n        /* \"#utility.yul\":14718:14721   */\n      dup4\n        /* \"#utility.yul\":14642:14725   */\n      tag_242\n      jump\t// in\n    tag_416:\n        /* \"#utility.yul\":14635:14725   */\n      swap2\n      pop\n        /* \"#utility.yul\":14734:14827   */\n      tag_417\n        /* \"#utility.yul\":14823:14826   */\n      dup3\n        /* \"#utility.yul\":14734:14827   */\n      tag_243\n      jump\t// in\n    tag_417:\n        /* \"#utility.yul\":14852:14853   */\n      0x00\n        /* \"#utility.yul\":14847:14850   */\n      dup3\n        /* \"#utility.yul\":14843:14854   */\n      add\n        /* \"#utility.yul\":14836:14854   */\n      swap1\n      pop\n        /* \"#utility.yul\":14462:14860   */\n      swap2\n      swap1\n      pop\n      jump\t// out\n        /* \"#utility.yul\":14866:15245   */\n    tag_123:\n        /* \"#utility.yul\":15050:15053   */\n      0x00\n        /* \"#utility.yul\":15072:15219   */\n      tag_419\n        /* \"#utility.yul\":15215:15218   */\n      dup3\n        /* \"#utility.yul\":15072:15219   */\n      tag_244\n      jump\t// in\n    tag_419:\n        /* \"#utility.yul\":15065:15219   */\n      swap2\n      pop\n        /* \"#utility.yul\":15236:15239   */\n      dup2\n        /* \"#utility.yul\":15229:15239   */\n      swap1\n      pop\n        /* \"#utility.yul\":14866:15245   */\n      swap2\n      swap1\n      pop\n      jump\t// out\n        /* \"#utility.yul\":15251:15416   */\n    tag_245:\n        /* \"#utility.yul\":15391:15408   */\n      0x5472616e73666572206661696c65640000000000000000000000000000000000\n        /* \"#utility.yul\":15387:15388   */\n      0x00\n        /* \"#utility.yul\":15379:15385   */\n      dup3\n        /* \"#utility.yul\":15375:15389   */\n      add\n        /* \"#utility.yul\":15368:15409   */\n      mstore\n        /* \"#utility.yul\":15251:15416   */\n      pop\n      jump\t// out\n        /* \"#utility.yul\":15422:15788   */\n    tag_246:\n        /* \"#utility.yul\":15564:15567   */\n      0x00\n        /* \"#utility.yul\":15585:15652   */\n      tag_422\n        /* \"#utility.yul\":15649:15651   */\n      0x0f\n        /* \"#utility.yul\":15644:15647   */\n      dup4\n        /* \"#utility.yul\":15585:15652   */\n      tag_231\n      jump\t// in\n    tag_422:\n        /* \"#utility.yul\":15578:15652   */\n      swap2\n      pop\n        /* \"#utility.yul\":15661:15754   */\n      tag_423\n        /* \"#utility.yul\":15750:15753   */\n      dup3\n        /* \"#utility.yul\":15661:15754   */\n      tag_245\n      jump\t// in\n    tag_423:\n        /* \"#utility.yul\":15779:15781   */\n      0x20\n        /* \"#utility.yul\":15774:15777   */\n      dup3\n        /* \"#utility.yul\":15770:15782   */\n      add\n        /* \"#utility.yul\":15763:15782   */\n      swap1\n      pop\n        /* \"#utility.yul\":15422:15788   */\n      swap2\n      swap1\n      pop\n      jump\t// out\n        /* \"#utility.yul\":15794:16213   */\n    tag_129:\n        /* \"#utility.yul\":15960:15964   */\n      0x00\n        /* \"#utility.yul\":15998:16000   */\n      0x20\n        /* \"#utility.yul\":15987:15996   */\n      dup3\n        /* \"#utility.yul\":15983:16001   */\n      add\n        /* \"#utility.yul\":15975:16001   */\n      swap1\n      pop\n        /* \"#utility.yul\":16047:16056   */\n      dup2\n        /* \"#utility.yul\":16041:16045   */\n      dup2\n        /* \"#utility.yul\":16037:16057   */\n      sub\n        /* \"#utility.yul\":16033:16034   */\n      0x00\n        /* \"#utility.yul\":16022:16031   */\n      dup4\n        /* \"#utility.yul\":16018:16035   */\n      add\n        /* \"#utility.yul\":16011:16058   */\n      mstore\n        /* \"#utility.yul\":16075:16206   */\n      tag_425\n        /* \"#utility.yul\":16201:16205   */\n      dup2\n        /* \"#utility.yul\":16075:16206   */\n      tag_246\n      jump\t// in\n    tag_425:\n        /* \"#utility.yul\":16067:16206   */\n      swap1\n      pop\n        /* \"#utility.yul\":15794:16213   */\n      swap2\n      swap1\n      pop\n      jump\t// out\n        /* \"#utility.yul\":16219:16444   */\n    tag_247:\n        /* \"#utility.yul\":16359:16393   */\n      0x436f6e76657273696f6e2072617465206d757374206265206772656174657220\n        /* \"#utility.yul\":16355:16356   */\n      0x00\n        /* \"#utility.yul\":16347:16353   */\n      dup3\n        /* \"#utility.yul\":16343:16357   */\n      add\n        /* \"#utility.yul\":16336:16394   */\n      mstore\n        /* \"#utility.yul\":16428:16436   */\n      0x7468616e20300000000000000000000000000000000000000000000000000000\n        /* \"#utility.yul\":16423:16425   */\n      0x20\n        /* \"#utility.yul\":16415:16421   */\n      dup3\n        /* \"#utility.yul\":16411:16426   */\n      add\n        /* \"#utility.yul\":16404:16437   */\n      mstore\n        /* \"#utility.yul\":16219:16444   */\n      pop\n      jump\t// out\n        /* \"#utility.yul\":16450:16816   */\n    tag_248:\n        /* \"#utility.yul\":16592:16595   */\n      0x00\n        /* \"#utility.yul\":16613:16680   */\n      tag_428\n        /* \"#utility.yul\":16677:16679   */\n      0x26\n        /* \"#utility.yul\":16672:16675   */\n      dup4\n        /* \"#utility.yul\":16613:16680   */\n      tag_231\n      jump\t// in\n    tag_428:\n        /* \"#utility.yul\":16606:16680   */\n      swap2\n      pop\n        /* \"#utility.yul\":16689:16782   */\n      tag_429\n        /* \"#utility.yul\":16778:16781   */\n      dup3\n        /* \"#utility.yul\":16689:16782   */\n      tag_247\n      jump\t// in\n    tag_429:\n        /* \"#utility.yul\":16807:16809   */\n      0x40\n        /* \"#utility.yul\":16802:16805   */\n      dup3\n        /* \"#utility.yul\":16798:16810   */\n      add\n        /* \"#utility.yul\":16791:16810   */\n      swap1\n      pop\n        /* \"#utility.yul\":16450:16816   */\n      swap2\n      swap1\n      pop\n      jump\t// out\n        /* \"#utility.yul\":16822:17241   */\n    tag_136:\n        /* \"#utility.yul\":16988:16992   */\n      0x00\n        /* \"#utility.yul\":17026:17028   */\n      0x20\n        /* \"#utility.yul\":17015:17024   */\n      dup3\n        /* \"#utility.yul\":17011:17029   */\n      add\n        /* \"#utility.yul\":17003:17029   */\n      swap1\n      pop\n        /* \"#utility.yul\":17075:17084   */\n      dup2\n        /* \"#utility.yul\":17069:17073   */\n      dup2\n        /* \"#utility.yul\":17065:17085   */\n      sub\n        /* \"#utility.yul\":17061:17062   */\n      0x00\n        /* \"#utility.yul\":17050:17059   */\n      dup4\n        /* \"#utility.yul\":17046:17063   */\n      add\n        /* \"#utility.yul\":17039:17086   */\n      mstore\n        /* \"#utility.yul\":17103:17234   */\n      tag_431\n        /* \"#utility.yul\":17229:17233   */\n      dup2\n        /* \"#utility.yul\":17103:17234   */\n      tag_248\n      jump\t// in\n    tag_431:\n        /* \"#utility.yul\":17095:17234   */\n      swap1\n      pop\n        /* \"#utility.yul\":16822:17241   */\n      swap2\n      swap1\n      pop\n      jump\t// out\n        /* \"#utility.yul\":17247:17427   */\n    tag_142:\n        /* \"#utility.yul\":17295:17372   */\n      0x4e487b7100000000000000000000000000000000000000000000000000000000\n        /* \"#utility.yul\":17292:17293   */\n      0x00\n        /* \"#utility.yul\":17285:17373   */\n      mstore\n        /* \"#utility.yul\":17392:17396   */\n      0x32\n        /* \"#utility.yul\":17389:17390   */\n      0x04\n        /* \"#utility.yul\":17382:17397   */\n      mstore\n        /* \"#utility.yul\":17416:17420   */\n      0x24\n        /* \"#utility.yul\":17413:17414   */\n      0x00\n        /* \"#utility.yul\":17406:17421   */\n      revert\n        /* \"#utility.yul\":17433:17577   */\n    tag_249:\n        /* \"#utility.yul\":17485:17489   */\n      0x00\n        /* \"#utility.yul\":17508:17511   */\n      dup2\n        /* \"#utility.yul\":17500:17511   */\n      swap1\n      pop\n        /* \"#utility.yul\":17531:17534   */\n      dup2\n        /* \"#utility.yul\":17528:17529   */\n      0x00\n        /* \"#utility.yul\":17521:17535   */\n      mstore\n        /* \"#utility.yul\":17565:17569   */\n      0x20\n        /* \"#utility.yul\":17562:17563   */\n      0x00\n        /* \"#utility.yul\":17552:17570   */\n      keccak256\n        /* \"#utility.yul\":17544:17570   */\n      swap1\n      pop\n        /* \"#utility.yul\":17433:17577   */\n      swap2\n      swap1\n      pop\n      jump\t// out\n        /* \"#utility.yul\":17605:18483   */\n    tag_250:\n        /* \"#utility.yul\":17710:17713   */\n      0x00\n        /* \"#utility.yul\":17747:17752   */\n      dup2\n        /* \"#utility.yul\":17741:17753   */\n      sload\n        /* \"#utility.yul\":17776:17812   */\n      tag_435\n        /* \"#utility.yul\":17802:17811   */\n      dup2\n        /* \"#utility.yul\":17776:17812   */\n      tag_109\n      jump\t// in\n    tag_435:\n        /* \"#utility.yul\":17828:17916   */\n      tag_436\n        /* \"#utility.yul\":17909:17915   */\n      dup2\n        /* \"#utility.yul\":17904:17907   */\n      dup7\n        /* \"#utility.yul\":17828:17916   */\n      tag_242\n      jump\t// in\n    tag_436:\n        /* \"#utility.yul\":17821:17916   */\n      swap5\n      pop\n        /* \"#utility.yul\":17947:17948   */\n      0x01\n        /* \"#utility.yul\":17936:17945   */\n      dup3\n        /* \"#utility.yul\":17932:17949   */\n      and\n        /* \"#utility.yul\":17963:17964   */\n      0x00\n        /* \"#utility.yul\":17958:18124   */\n      dup2\n      eq\n      tag_438\n      jumpi\n        /* \"#utility.yul\":18138:18139   */\n      0x01\n        /* \"#utility.yul\":18133:18477   */\n      dup2\n      eq\n      tag_439\n      jumpi\n        /* \"#utility.yul\":17925:18477   */\n      jump(tag_437)\n        /* \"#utility.yul\":17958:18124   */\n    tag_438:\n        /* \"#utility.yul\":18042:18046   */\n      0xff\n        /* \"#utility.yul\":18038:18047   */\n      not\n        /* \"#utility.yul\":18027:18036   */\n      dup4\n        /* \"#utility.yul\":18023:18048   */\n      and\n        /* \"#utility.yul\":18018:18021   */\n      dup7\n        /* \"#utility.yul\":18011:18049   */\n      mstore\n        /* \"#utility.yul\":18104:18110   */\n      dup2\n        /* \"#utility.yul\":18097:18111   */\n      iszero\n        /* \"#utility.yul\":18090:18112   */\n      iszero\n        /* \"#utility.yul\":18082:18088   */\n      dup3\n        /* \"#utility.yul\":18078:18113   */\n      mul\n        /* \"#utility.yul\":18073:18076   */\n      dup7\n        /* \"#utility.yul\":18069:18114   */\n      add\n        /* \"#utility.yul\":18062:18114   */\n      swap4\n      pop\n        /* \"#utility.yul\":17958:18124   */\n      jump(tag_437)\n        /* \"#utility.yul\":18133:18477   */\n    tag_439:\n        /* \"#utility.yul\":18200:18241   */\n      tag_440\n        /* \"#utility.yul\":18235:18240   */\n      dup6\n        /* \"#utility.yul\":18200:18241   */\n      tag_249\n      jump\t// in\n    tag_440:\n        /* \"#utility.yul\":18263:18264   */\n      0x00\n        /* \"#utility.yul\":18277:18431   */\n    tag_441:\n        /* \"#utility.yul\":18291:18297   */\n      dup4\n        /* \"#utility.yul\":18288:18289   */\n      dup2\n        /* \"#utility.yul\":18285:18298   */\n      lt\n        /* \"#utility.yul\":18277:18431   */\n      iszero\n      tag_443\n      jumpi\n        /* \"#utility.yul\":18365:18372   */\n      dup2\n        /* \"#utility.yul\":18359:18373   */\n      sload\n        /* \"#utility.yul\":18355:18356   */\n      dup2\n        /* \"#utility.yul\":18350:18353   */\n      dup10\n        /* \"#utility.yul\":18346:18357   */\n      add\n        /* \"#utility.yul\":18339:18374   */\n      mstore\n        /* \"#utility.yul\":18415:18416   */\n      0x01\n        /* \"#utility.yul\":18406:18413   */\n      dup3\n        /* \"#utility.yul\":18402:18417   */\n      add\n        /* \"#utility.yul\":18391:18417   */\n      swap2\n      pop\n        /* \"#utility.yul\":18313:18317   */\n      0x20\n        /* \"#utility.yul\":18310:18311   */\n      dup2\n        /* \"#utility.yul\":18306:18318   */\n      add\n        /* \"#utility.yul\":18301:18318   */\n      swap1\n      pop\n        /* \"#utility.yul\":18277:18431   */\n      jump(tag_441)\n    tag_443:\n        /* \"#utility.yul\":18460:18466   */\n      dup4\n        /* \"#utility.yul\":18455:18458   */\n      dup9\n        /* \"#utility.yul\":18451:18467   */\n      add\n        /* \"#utility.yul\":18444:18467   */\n      swap6\n      pop\n        /* \"#utility.yul\":18140:18477   */\n      pop\n      pop\n        /* \"#utility.yul\":17925:18477   */\n    tag_437:\n      pop\n        /* \"#utility.yul\":17714:18483   */\n      pop\n      pop\n        /* \"#utility.yul\":17605:18483   */\n      swap3\n      swap2\n      pop\n      pop\n      jump\t// out\n        /* \"#utility.yul\":18489:18762   */\n    tag_145:\n        /* \"#utility.yul\":18620:18623   */\n      0x00\n        /* \"#utility.yul\":18642:18736   */\n      tag_445\n        /* \"#utility.yul\":18732:18735   */\n      dup3\n        /* \"#utility.yul\":18723:18729   */\n      dup5\n        /* \"#utility.yul\":18642:18736   */\n      tag_250\n      jump\t// in\n    tag_445:\n        /* \"#utility.yul\":18635:18736   */\n      swap2\n      pop\n        /* \"#utility.yul\":18753:18756   */\n      dup2\n        /* \"#utility.yul\":18746:18756   */\n      swap1\n      pop\n        /* \"#utility.yul\":18489:18762   */\n      swap3\n      swap2\n      pop\n      pop\n      jump\t// out\n        /* \"#utility.yul\":18768:18909   */\n    tag_251:\n        /* \"#utility.yul\":18817:18821   */\n      0x00\n        /* \"#utility.yul\":18840:18843   */\n      dup2\n        /* \"#utility.yul\":18832:18843   */\n      swap1\n      pop\n        /* \"#utility.yul\":18863:18866   */\n      dup2\n        /* \"#utility.yul\":18860:18861   */\n      0x00\n        /* \"#utility.yul\":18853:18867   */\n      mstore\n        /* \"#utility.yul\":18897:18901   */\n      0x20\n        /* \"#utility.yul\":18894:18895   */\n      0x00\n        /* \"#utility.yul\":18884:18902   */\n      keccak256\n        /* \"#utility.yul\":18876:18902   */\n      swap1\n      pop\n        /* \"#utility.yul\":18768:18909   */\n      swap2\n      swap1\n      pop\n      jump\t// out\n        /* \"#utility.yul\":18915:19008   */\n    tag_252:\n        /* \"#utility.yul\":18952:18958   */\n      0x00\n        /* \"#utility.yul\":18999:19001   */\n      0x20\n        /* \"#utility.yul\":18994:18996   */\n      0x1f\n        /* \"#utility.yul\":18987:18992   */\n      dup4\n        /* \"#utility.yul\":18983:18997   */\n      add\n        /* \"#utility.yul\":18979:19002   */\n      div\n        /* \"#utility.yul\":18969:19002   */\n      swap1\n      pop\n        /* \"#utility.yul\":18915:19008   */\n      swap2\n      swap1\n      pop\n      jump\t// out\n        /* \"#utility.yul\":19014:19121   */\n    tag_253:\n        /* \"#utility.yul\":19058:19066   */\n      0x00\n        /* \"#utility.yul\":19108:19113   */\n      dup3\n        /* \"#utility.yul\":19102:19106   */\n      dup3\n        /* \"#utility.yul\":19098:19114   */\n      shl\n        /* \"#utility.yul\":19077:19114   */\n      swap1\n      pop\n        /* \"#utility.yul\":19014:19121   */\n      swap3\n      swap2\n      pop\n      pop\n      jump\t// out\n        /* \"#utility.yul\":19127:19520   */\n    tag_254:\n        /* \"#utility.yul\":19196:19202   */\n      0x00\n        /* \"#utility.yul\":19246:19247   */\n      0x08\n        /* \"#utility.yul\":19234:19244   */\n      dup4\n        /* \"#utility.yul\":19230:19248   */\n      mul\n        /* \"#utility.yul\":19269:19366   */\n      tag_450\n        /* \"#utility.yul\":19299:19365   */\n      0xffffffffffffffffffffffffffffffffffffffffffffffffffffffffffffffff\n        /* \"#utility.yul\":19288:19297   */\n      dup3\n        /* \"#utility.yul\":19269:19366   */\n      tag_253\n      jump\t// in\n    tag_450:\n        /* \"#utility.yul\":19387:19426   */\n      tag_451\n        /* \"#utility.yul\":19417:19425   */\n      dup7\n        /* \"#utility.yul\":19406:19415   */\n      dup4\n        /* \"#utility.yul\":19387:19426   */\n      tag_253\n      jump\t// in\n    tag_451:\n        /* \"#utility.yul\":19375:19426   */\n      swap6\n      pop\n        /* \"#utility.yul\":19459:19463   */\n      dup1\n        /* \"#utility.yul\":19455:19464   */\n      not\n        /* \"#utility.yul\":19448:19453   */\n      dup5\n        /* \"#utility.yul\":19444:19465   */\n      and\n        /* \"#utility.yul\":19435:19465   */\n      swap4\n      pop\n        /* \"#utility.yul\":19508:19512   */\n      dup1\n        /* \"#utility.yul\":19498:19506   */\n      dup7\n        /* \"#utility.yul\":19494:19513   */\n      and\n        /* \"#utility.yul\":19487:19492   */\n      dup5\n        /* \"#utility.yul\":19484:19514   */\n      or\n        /* \"#utility.yul\":19474:19514   */\n      swap3\n      pop\n        /* \"#utility.yul\":19203:19520   */\n      pop\n      pop\n        /* \"#utility.yul\":19127:19520   */\n      swap4\n      swap3\n      pop\n      pop\n      pop\n      jump\t// out\n        /* \"#utility.yul\":19526:19586   */\n    tag_255:\n        /* \"#utility.yul\":19554:19557   */\n      0x00\n        /* \"#utility.yul\":19575:19580   */\n      dup2\n        /* \"#utility.yul\":19568:19580   */\n      swap1\n      pop\n        /* \"#utility.yul\":19526:19586   */\n      swap2\n      swap1\n      pop\n      jump\t// out\n        /* \"#utility.yul\":19592:19734   */\n    tag_256:\n        /* \"#utility.yul\":19642:19651   */\n      0x00\n        /* \"#utility.yul\":19675:19728   */\n      tag_454\n        /* \"#utility.yul\":19693:19727   */\n      tag_455\n        /* \"#utility.yul\":19702:19726   */\n      tag_456\n        /* \"#utility.yul\":19720:19725   */\n      dup5\n        /* \"#utility.yul\":19702:19726   */\n      tag_212\n      jump\t// in\n    tag_456:\n        /* \"#utility.yul\":19693:19727   */\n      tag_255\n      jump\t// in\n    tag_455:\n        /* \"#utility.yul\":19675:19728   */\n      tag_212\n      jump\t// in\n    tag_454:\n        /* \"#utility.yul\":19662:19728   */\n      swap1\n      pop\n        /* \"#utility.yul\":19592:19734   */\n      swap2\n      swap1\n      pop\n      jump\t// out\n        /* \"#utility.yul\":19740:19815   */\n    tag_257:\n        /* \"#utility.yul\":19783:19786   */\n      0x00\n        /* \"#utility.yul\":19804:19809   */\n      dup2\n        /* \"#utility.yul\":19797:19809   */\n      swap1\n      pop\n        /* \"#utility.yul\":19740:19815   */\n      swap2\n      swap1\n      pop\n      jump\t// out\n        /* \"#utility.yul\":19821:20090   */\n    tag_258:\n        /* \"#utility.yul\":19931:19970   */\n      tag_459\n        /* \"#utility.yul\":19962:19969   */\n      dup4\n        /* \"#utility.yul\":19931:19970   */\n      tag_256\n      jump\t// in\n    tag_459:\n        /* \"#utility.yul\":19992:20083   */\n      tag_460\n        /* \"#utility.yul\":20041:20082   */\n      tag_461\n        /* \"#utility.yul\":20065:20081   */\n      dup3\n        /* \"#utility.yul\":20041:20082   */\n      tag_257\n      jump\t// in\n    tag_461:\n        /* \"#utility.yul\":20033:20039   */\n      dup5\n        /* \"#utility.yul\":20026:20030   */\n      dup5\n        /* \"#utility.yul\":20020:20031   */\n      sload\n        /* \"#utility.yul\":19992:20083   */\n      tag_254\n      jump\t// in\n    tag_460:\n        /* \"#utility.yul\":19986:19990   */\n      dup3\n        /* \"#utility.yul\":19979:20084   */\n      sstore\n        /* \"#utility.yul\":19897:20090   */\n      pop\n        /* \"#utility.yul\":19821:20090   */\n      pop\n      pop\n      pop\n      jump\t// out\n        /* \"#utility.yul\":20096:20169   */\n    tag_259:\n        /* \"#utility.yul\":20141:20144   */\n      0x00\n        /* \"#utility.yul\":20162:20163   */\n      0x00\n        /* \"#utility.yul\":20155:20163   */\n      swap1\n      pop\n        /* \"#utility.yul\":20096:20169   */\n      swap1\n      jump\t// out\n        /* \"#utility.yul\":20175:20364   */\n    tag_260:\n        /* \"#utility.yul\":20252:20284   */\n      tag_464\n      tag_259\n      jump\t// in\n    tag_464:\n        /* \"#utility.yul\":20293:20358   */\n      tag_465\n        /* \"#utility.yul\":20351:20357   */\n      dup2\n        /* \"#utility.yul\":20343:20349   */\n      dup5\n        /* \"#utility.yul\":20337:20341   */\n      dup5\n        /* \"#utility.yul\":20293:20358   */\n      tag_258\n      jump\t// in\n    tag_465:\n        /* \"#utility.yul\":20228:20364   */\n      pop\n        /* \"#utility.yul\":20175:20364   */\n      pop\n      pop\n      jump\t// out\n        /* \"#utility.yul\":20370:20556   */\n    tag_261:\n        /* \"#utility.yul\":20430:20550   */\n    tag_467:\n        /* \"#utility.yul\":20447:20450   */\n      dup2\n        /* \"#utility.yul\":20440:20445   */\n      dup2\n        /* \"#utility.yul\":20437:20451   */\n      lt\n        /* \"#utility.yul\":20430:20550   */\n      iszero\n      tag_469\n      jumpi\n        /* \"#utility.yul\":20501:20540   */\n      tag_470\n        /* \"#utility.yul\":20538:20539   */\n      0x00\n        /* \"#utility.yul\":20531:20536   */\n      dup3\n        /* \"#utility.yul\":20501:20540   */\n      tag_260\n      jump\t// in\n    tag_470:\n        /* \"#utility.yul\":20474:20475   */\n      0x01\n        /* \"#utility.yul\":20467:20472   */\n      dup2\n        /* \"#utility.yul\":20463:20476   */\n      add\n        /* \"#utility.yul\":20454:20476   */\n      swap1\n      pop\n        /* \"#utility.yul\":20430:20550   */\n      jump(tag_467)\n    tag_469:\n        /* \"#utility.yul\":20370:20556   */\n      pop\n      pop\n      jump\t// out\n        /* \"#utility.yul\":20562:21105   */\n    tag_262:\n        /* \"#utility.yul\":20663:20665   */\n      0x1f\n        /* \"#utility.yul\":20658:20661   */\n      dup3\n        /* \"#utility.yul\":20655:20666   */\n      gt\n        /* \"#utility.yul\":20652:21098   */\n      iszero\n      tag_472\n      jumpi\n        /* \"#utility.yul\":20697:20735   */\n      tag_473\n        /* \"#utility.yul\":20729:20734   */\n      dup2\n        /* \"#utility.yul\":20697:20735   */\n      tag_251\n      jump\t// in\n    tag_473:\n        /* \"#utility.yul\":20781:20810   */\n      tag_474\n        /* \"#utility.yul\":20799:20809   */\n      dup5\n        /* \"#utility.yul\":20781:20810   */\n      tag_252\n      jump\t// in\n    tag_474:\n        /* \"#utility.yul\":20771:20779   */\n      dup2\n        /* \"#utility.yul\":20767:20811   */\n      add\n        /* \"#utility.yul\":20964:20966   */\n      0x20\n        /* \"#utility.yul\":20952:20962   */\n      dup6\n        /* \"#utility.yul\":20949:20967   */\n      lt\n        /* \"#utility.yul\":20946:20995   */\n      iszero\n      tag_475\n      jumpi\n        /* \"#utility.yul\":20985:20993   */\n      dup2\n        /* \"#utility.yul\":20970:20993   */\n      swap1\n      pop\n        /* \"#utility.yul\":20946:20995   */\n    tag_475:\n        /* \"#utility.yul\":21008:21088   */\n      tag_476\n        /* \"#utility.yul\":21064:21086   */\n      tag_477\n        /* \"#utility.yul\":21082:21085   */\n      dup6\n        /* \"#utility.yul\":21064:21086   */\n      tag_252\n      jump\t// in\n    tag_477:\n        /* \"#utility.yul\":21054:21062   */\n      dup4\n        /* \"#utility.yul\":21050:21087   */\n      add\n        /* \"#utility.yul\":21037:21048   */\n      dup3\n        /* \"#utility.yul\":21008:21088   */\n      tag_261\n      jump\t// in\n    tag_476:\n        /* \"#utility.yul\":20667:21098   */\n      pop\n      pop\n        /* \"#utility.yul\":20652:21098   */\n    tag_472:\n        /* \"#utility.yul\":20562:21105   */\n      pop\n      pop\n      pop\n      jump\t// out\n        /* \"#utility.yul\":21111:21228   */\n    tag_263:\n        /* \"#utility.yul\":21165:21173   */\n      0x00\n        /* \"#utility.yul\":21215:21220   */\n      dup3\n        /* \"#utility.yul\":21209:21213   */\n      dup3\n        /* \"#utility.yul\":21205:21221   */\n      shr\n        /* \"#utility.yul\":21184:21221   */\n      swap1\n      pop\n        /* \"#utility.yul\":21111:21228   */\n      swap3\n      swap2\n      pop\n      pop\n      jump\t// out\n        /* \"#utility.yul\":21234:21403   */\n    tag_264:\n        /* \"#utility.yul\":21278:21284   */\n      0x00\n        /* \"#utility.yul\":21311:21362   */\n      tag_480\n        /* \"#utility.yul\":21359:21360   */\n      0x00\n        /* \"#utility.yul\":21355:21361   */\n      not\n        /* \"#utility.yul\":21347:21352   */\n      dup5\n        /* \"#utility.yul\":21344:21345   */\n      0x08\n        /* \"#utility.yul\":21340:21353   */\n      mul\n        /* \"#utility.yul\":21311:21362   */\n      tag_263\n      jump\t// in\n    tag_480:\n        /* \"#utility.yul\":21307:21363   */\n      not\n        /* \"#utility.yul\":21392:21396   */\n      dup1\n        /* \"#utility.yul\":21386:21390   */\n      dup4\n        /* \"#utility.yul\":21382:21397   */\n      and\n        /* \"#utility.yul\":21372:21397   */\n      swap2\n      pop\n        /* \"#utility.yul\":21285:21403   */\n      pop\n        /* \"#utility.yul\":21234:21403   */\n      swap3\n      swap2\n      pop\n      pop\n      jump\t// out\n        /* \"#utility.yul\":21408:21703   */\n    tag_265:\n        /* \"#utility.yul\":21484:21488   */\n      0x00\n        /* \"#utility.yul\":21630:21659   */\n      tag_482\n        /* \"#utility.yul\":21655:21658   */\n      dup4\n        /* \"#utility.yul\":21649:21653   */\n      dup4\n        /* \"#utility.yul\":21630:21659   */\n      tag_264\n      jump\t// in\n    tag_482:\n        /* \"#utility.yul\":21622:21659   */\n      swap2\n      pop\n        /* \"#utility.yul\":21692:21695   */\n      dup3\n        /* \"#utility.yul\":21689:21690   */\n      0x02\n        /* \"#utility.yul\":21685:21696   */\n      mul\n        /* \"#utility.yul\":21679:21683   */\n      dup3\n        /* \"#utility.yul\":21676:21697   */\n      or\n        /* \"#utility.yul\":21668:21697   */\n      swap1\n      pop\n        /* \"#utility.yul\":21408:21703   */\n      swap3\n      swap2\n      pop\n      pop\n      jump\t// out\n        /* \"#utility.yul\":21708:23103   */\n    tag_150:\n        /* \"#utility.yul\":21825:21862   */\n      tag_484\n        /* \"#utility.yul\":21858:21861   */\n      dup3\n        /* \"#utility.yul\":21825:21862   */\n      tag_221\n      jump\t// in\n    tag_484:\n        /* \"#utility.yul\":21927:21945   */\n      0xffffffffffffffff\n        /* \"#utility.yul\":21919:21925   */\n      dup2\n        /* \"#utility.yul\":21916:21946   */\n      gt\n        /* \"#utility.yul\":21913:21969   */\n      iszero\n      tag_485\n      jumpi\n        /* \"#utility.yul\":21949:21967   */\n      tag_486\n      tag_205\n      jump\t// in\n    tag_486:\n        /* \"#utility.yul\":21913:21969   */\n    tag_485:\n        /* \"#utility.yul\":21993:22031   */\n      tag_487\n        /* \"#utility.yul\":22025:22029   */\n      dup3\n        /* \"#utility.yul\":22019:22030   */\n      sload\n        /* \"#utility.yul\":21993:22031   */\n      tag_109\n      jump\t// in\n    tag_487:\n        /* \"#utility.yul\":22078:22145   */\n      tag_488\n        /* \"#utility.yul\":22138:22144   */\n      dup3\n        /* \"#utility.yul\":22130:22136   */\n      dup3\n        /* \"#utility.yul\":22124:22128   */\n      dup6\n        /* \"#utility.yul\":22078:22145   */\n      tag_262\n      jump\t// in\n    tag_488:\n        /* \"#utility.yul\":22172:22173   */\n      0x00\n        /* \"#utility.yul\":22196:22200   */\n      0x20\n        /* \"#utility.yul\":22183:22200   */\n      swap1\n      pop\n        /* \"#utility.yul\":22228:22230   */\n      0x1f\n        /* \"#utility.yul\":22220:22226   */\n      dup4\n        /* \"#utility.yul\":22217:22231   */\n      gt\n        /* \"#utility.yul\":22245:22246   */\n      0x01\n        /* \"#utility.yul\":22240:22858   */\n      dup2\n      eq\n      tag_490\n      jumpi\n        /* \"#utility.yul\":22902:22903   */\n      0x00\n        /* \"#utility.yul\":22919:22925   */\n      dup5\n        /* \"#utility.yul\":22916:22993   */\n      iszero\n      tag_491\n      jumpi\n        /* \"#utility.yul\":22968:22977   */\n      dup3\n        /* \"#utility.yul\":22963:22966   */\n      dup8\n        /* \"#utility.yul\":22959:22978   */\n      add\n        /* \"#utility.yul\":22953:22979   */\n      mload\n        /* \"#utility.yul\":22944:22979   */\n      swap1\n      pop\n        /* \"#utility.yul\":22916:22993   */\n    tag_491:\n        /* \"#utility.yul\":23019:23086   */\n      tag_492\n        /* \"#utility.yul\":23079:23085   */\n      dup6\n        /* \"#utility.yul\":23072:23077   */\n      dup3\n        /* \"#utility.yul\":23019:23086   */\n      tag_265\n      jump\t// in\n    tag_492:\n        /* \"#utility.yul\":23013:23017   */\n      dup7\n        /* \"#utility.yul\":23006:23087   */\n      sstore\n        /* \"#utility.yul\":22875:23097   */\n      pop\n        /* \"#utility.yul\":22210:23097   */\n      jump(tag_489)\n        /* \"#utility.yul\":22240:22858   */\n    tag_490:\n        /* \"#utility.yul\":22292:22296   */\n      0x1f\n        /* \"#utility.yul\":22288:22297   */\n      not\n        /* \"#utility.yul\":22280:22286   */\n      dup5\n        /* \"#utility.yul\":22276:22298   */\n      and\n        /* \"#utility.yul\":22326:22363   */\n      tag_493\n        /* \"#utility.yul\":22358:22362   */\n      dup7\n        /* \"#utility.yul\":22326:22363   */\n      tag_251\n      jump\t// in\n    tag_493:\n        /* \"#utility.yul\":22385:22386   */\n      0x00\n        /* \"#utility.yul\":22399:22607   */\n    tag_494:\n        /* \"#utility.yul\":22413:22420   */\n      dup3\n        /* \"#utility.yul\":22410:22411   */\n      dup2\n        /* \"#utility.yul\":22407:22421   */\n      lt\n        /* \"#utility.yul\":22399:22607   */\n      iszero\n      tag_496\n      jumpi\n        /* \"#utility.yul\":22492:22501   */\n      dup5\n        /* \"#utility.yul\":22487:22490   */\n      dup10\n        /* \"#utility.yul\":22483:22502   */\n      add\n        /* \"#utility.yul\":22477:22503   */\n      mload\n        /* \"#utility.yul\":22469:22475   */\n      dup3\n        /* \"#utility.yul\":22462:22504   */\n      sstore\n        /* \"#utility.yul\":22543:22544   */\n      0x01\n        /* \"#utility.yul\":22535:22541   */\n      dup3\n        /* \"#utility.yul\":22531:22545   */\n      add\n        /* \"#utility.yul\":22521:22545   */\n      swap2\n      pop\n        /* \"#utility.yul\":22590:22592   */\n      0x20\n        /* \"#utility.yul\":22579:22588   */\n      dup6\n        /* \"#utility.yul\":22575:22593   */\n      add\n        /* \"#utility.yul\":22562:22593   */\n      swap5\n      pop\n        /* \"#utility.yul\":22436:22440   */\n      0x20\n        /* \"#utility.yul\":22433:22434   */\n      dup2\n        /* \"#utility.yul\":22429:22441   */\n      add\n        /* \"#utility.yul\":22424:22441   */\n      swap1\n      pop\n        /* \"#utility.yul\":22399:22607   */\n      jump(tag_494)\n    tag_496:\n        /* \"#utility.yul\":22635:22641   */\n      dup7\n        /* \"#utility.yul\":22626:22633   */\n      dup4\n        /* \"#utility.yul\":22623:22642   */\n      lt\n        /* \"#utility.yul\":22620:22799   */\n      iszero\n      tag_497\n      jumpi\n        /* \"#utility.yul\":22693:22702   */\n      dup5\n        /* \"#utility.yul\":22688:22691   */\n      dup10\n        /* \"#utility.yul\":22684:22703   */\n      add\n        /* \"#utility.yul\":22678:22704   */\n      mload\n        /* \"#utility.yul\":22736:22784   */\n      tag_498\n        /* \"#utility.yul\":22778:22782   */\n      0x1f\n        /* \"#utility.yul\":22770:22776   */\n      dup10\n        /* \"#utility.yul\":22766:22783   */\n      and\n        /* \"#utility.yul\":22755:22764   */\n      dup3\n        /* \"#utility.yul\":22736:22784   */\n      tag_264\n      jump\t// in\n    tag_498:\n        /* \"#utility.yul\":22728:22734   */\n      dup4\n        /* \"#utility.yul\":22721:22785   */\n      sstore\n        /* \"#utility.yul\":22643:22799   */\n      pop\n        /* \"#utility.yul\":22620:22799   */\n    tag_497:\n        /* \"#utility.yul\":22845:22846   */\n      0x01\n        /* \"#utility.yul\":22841:22842   */\n      0x02\n        /* \"#utility.yul\":22833:22839   */\n      dup9\n        /* \"#utility.yul\":22829:22843   */\n      mul\n        /* \"#utility.yul\":22825:22847   */\n      add\n        /* \"#utility.yul\":22819:22823   */\n      dup9\n        /* \"#utility.yul\":22812:22848   */\n      sstore\n        /* \"#utility.yul\":22247:22858   */\n      pop\n      pop\n      pop\n        /* \"#utility.yul\":22210:23097   */\n    tag_489:\n      pop\n        /* \"#utility.yul\":21800:23103   */\n      pop\n      pop\n      pop\n        /* \"#utility.yul\":21708:23103   */\n      pop\n      pop\n      jump\t// out\n        /* \"#utility.yul\":23109:23289   */\n    tag_266:\n        /* \"#utility.yul\":23157:23234   */\n      0x4e487b7100000000000000000000000000000000000000000000000000000000\n        /* \"#utility.yul\":23154:23155   */\n      0x00\n        /* \"#utility.yul\":23147:23235   */\n      mstore\n        /* \"#utility.yul\":23254:23258   */\n      0x11\n        /* \"#utility.yul\":23251:23252   */\n      0x04\n        /* \"#utility.yul\":23244:23259   */\n      mstore\n        /* \"#utility.yul\":23278:23282   */\n      0x24\n        /* \"#utility.yul\":23275:23276   */\n      0x00\n        /* \"#utility.yul\":23268:23283   */\n      revert\n        /* \"#utility.yul\":23295:23705   */\n    tag_158:\n        /* \"#utility.yul\":23335:23342   */\n      0x00\n        /* \"#utility.yul\":23358:23378   */\n      tag_501\n        /* \"#utility.yul\":23376:23377   */\n      dup3\n        /* \"#utility.yul\":23358:23378   */\n      tag_212\n      jump\t// in\n    tag_501:\n        /* \"#utility.yul\":23353:23378   */\n      swap2\n      pop\n        /* \"#utility.yul\":23392:23412   */\n      tag_502\n        /* \"#utility.yul\":23410:23411   */\n      dup4\n        /* \"#utility.yul\":23392:23412   */\n      tag_212\n      jump\t// in\n    tag_502:\n        /* \"#utility.yul\":23387:23412   */\n      swap3\n      pop\n        /* \"#utility.yul\":23447:23448   */\n      dup3\n        /* \"#utility.yul\":23444:23445   */\n      dup3\n        /* \"#utility.yul\":23440:23449   */\n      mul\n        /* \"#utility.yul\":23469:23499   */\n      tag_503\n        /* \"#utility.yul\":23487:23498   */\n      dup2\n        /* \"#utility.yul\":23469:23499   */\n      tag_212\n      jump\t// in\n    tag_503:\n        /* \"#utility.yul\":23458:23499   */\n      swap2\n      pop\n        /* \"#utility.yul\":23648:23649   */\n      dup3\n        /* \"#utility.yul\":23639:23646   */\n      dup3\n        /* \"#utility.yul\":23635:23650   */\n      div\n        /* \"#utility.yul\":23632:23633   */\n      dup5\n        /* \"#utility.yul\":23629:23651   */\n      eq\n        /* \"#utility.yul\":23609:23610   */\n      dup4\n        /* \"#utility.yul\":23602:23611   */\n      iszero\n        /* \"#utility.yul\":23582:23665   */\n      or\n        /* \"#utility.yul\":23559:23698   */\n      tag_504\n      jumpi\n        /* \"#utility.yul\":23678:23696   */\n      tag_505\n      tag_266\n      jump\t// in\n    tag_505:\n        /* \"#utility.yul\":23559:23698   */\n    tag_504:\n        /* \"#utility.yul\":23343:23705   */\n      pop\n        /* \"#utility.yul\":23295:23705   */\n      swap3\n      swap2\n      pop\n      pop\n      jump\t// out\n        /* \"#utility.yul\":23711:23890   */\n    tag_267:\n        /* \"#utility.yul\":23851:23882   */\n      0x416d6f756e74206d7573742062652067726561746572207468616e2030000000\n        /* \"#utility.yul\":23847:23848   */\n      0x00\n        /* \"#utility.yul\":23839:23845   */\n      dup3\n        /* \"#utility.yul\":23835:23849   */\n      add\n        /* \"#utility.yul\":23828:23883   */\n      mstore\n        /* \"#utility.yul\":23711:23890   */\n      pop\n      jump\t// out\n        /* \"#utility.yul\":23896:24262   */\n    tag_268:\n        /* \"#utility.yul\":24038:24041   */\n      0x00\n        /* \"#utility.yul\":24059:24126   */\n      tag_508\n        /* \"#utility.yul\":24123:24125   */\n      0x1d\n        /* \"#utility.yul\":24118:24121   */\n      dup4\n        /* \"#utility.yul\":24059:24126   */\n      tag_231\n      jump\t// in\n    tag_508:\n        /* \"#utility.yul\":24052:24126   */\n      swap2\n      pop\n        /* \"#utility.yul\":24135:24228   */\n      tag_509\n        /* \"#utility.yul\":24224:24227   */\n      dup3\n        /* \"#utility.yul\":24135:24228   */\n      tag_267\n      jump\t// in\n    tag_509:\n        /* \"#utility.yul\":24253:24255   */\n      0x20\n        /* \"#utility.yul\":24248:24251   */\n      dup3\n        /* \"#utility.yul\":24244:24256   */\n      add\n        /* \"#utility.yul\":24237:24256   */\n      swap1\n      pop\n        /* \"#utility.yul\":23896:24262   */\n      swap2\n      swap1\n      pop\n      jump\t// out\n        /* \"#utility.yul\":24268:24687   */\n    tag_173:\n        /* \"#utility.yul\":24434:24438   */\n      0x00\n        /* \"#utility.yul\":24472:24474   */\n      0x20\n        /* \"#utility.yul\":24461:24470   */\n      dup3\n        /* \"#utility.yul\":24457:24475   */\n      add\n        /* \"#utility.yul\":24449:24475   */\n      swap1\n      pop\n        /* \"#utility.yul\":24521:24530   */\n      dup2\n        /* \"#utility.yul\":24515:24519   */\n      dup2\n        /* \"#utility.yul\":24511:24531   */\n      sub\n        /* \"#utility.yul\":24507:24508   */\n      0x00\n        /* \"#utility.yul\":24496:24505   */\n      dup4\n        /* \"#utility.yul\":24492:24509   */\n      add\n        /* \"#utility.yul\":24485:24532   */\n      mstore\n        /* \"#utility.yul\":24549:24680   */\n      tag_511\n        /* \"#utility.yul\":24675:24679   */\n      dup2\n        /* \"#utility.yul\":24549:24680   */\n      tag_268\n      jump\t// in\n    tag_511:\n        /* \"#utility.yul\":24541:24680   */\n      swap1\n      pop\n        /* \"#utility.yul\":24268:24687   */\n      swap2\n      swap1\n      pop\n      jump\t// out\n        /* \"#utility.yul\":24693:24923   */\n    tag_269:\n        /* \"#utility.yul\":24833:24867   */\n      0x53656e742045544820646f65736e2774206d617463682074686520636f6e7665\n        /* \"#utility.yul\":24829:24830   */\n      0x00\n        /* \"#utility.yul\":24821:24827   */\n      dup3\n        /* \"#utility.yul\":24817:24831   */\n      add\n        /* \"#utility.yul\":24810:24868   */\n      mstore\n        /* \"#utility.yul\":24902:24915   */\n      0x7274656420616d6f756e74000000000000000000000000000000000000000000\n        /* \"#utility.yul\":24897:24899   */\n      0x20\n        /* \"#utility.yul\":24889:24895   */\n      dup3\n        /* \"#utility.yul\":24885:24900   */\n      add\n        /* \"#utility.yul\":24878:24916   */\n      mstore\n        /* \"#utility.yul\":24693:24923   */\n      pop\n      jump\t// out\n        /* \"#utility.yul\":24929:25295   */\n    tag_270:\n        /* \"#utility.yul\":25071:25074   */\n      0x00\n        /* \"#utility.yul\":25092:25159   */\n      tag_514\n        /* \"#utility.yul\":25156:25158   */\n      0x2b\n        /* \"#utility.yul\":25151:25154   */\n      dup4\n        /* \"#utility.yul\":25092:25159   */\n      tag_231\n      jump\t// in\n    tag_514:\n        /* \"#utility.yul\":25085:25159   */\n      swap2\n      pop\n        /* \"#utility.yul\":25168:25261   */\n      tag_515\n        /* \"#utility.yul\":25257:25260   */\n      dup3\n        /* \"#utility.yul\":25168:25261   */\n      tag_269\n      jump\t// in\n    tag_515:\n        /* \"#utility.yul\":25286:25288   */\n      0x40\n        /* \"#utility.yul\":25281:25284   */\n      dup3\n        /* \"#utility.yul\":25277:25289   */\n      add\n        /* \"#utility.yul\":25270:25289   */\n      swap1\n      pop\n        /* \"#utility.yul\":24929:25295   */\n      swap2\n      swap1\n      pop\n      jump\t// out\n        /* \"#utility.yul\":25301:25720   */\n    tag_177:\n        /* \"#utility.yul\":25467:25471   */\n      0x00\n        /* \"#utility.yul\":25505:25507   */\n      0x20\n        /* \"#utility.yul\":25494:25503   */\n      dup3\n        /* \"#utility.yul\":25490:25508   */\n      add\n        /* \"#utility.yul\":25482:25508   */\n      swap1\n      pop\n        /* \"#utility.yul\":25554:25563   */\n      dup2\n        /* \"#utility.yul\":25548:25552   */\n      dup2\n        /* \"#utility.yul\":25544:25564   */\n      sub\n        /* \"#utility.yul\":25540:25541   */\n      0x00\n        /* \"#utility.yul\":25529:25538   */\n      dup4\n        /* \"#utility.yul\":25525:25542   */\n      add\n        /* \"#utility.yul\":25518:25565   */\n      mstore\n        /* \"#utility.yul\":25582:25713   */\n      tag_517\n        /* \"#utility.yul\":25708:25712   */\n      dup2\n        /* \"#utility.yul\":25582:25713   */\n      tag_270\n      jump\t// in\n    tag_517:\n        /* \"#utility.yul\":25574:25713   */\n      swap1\n      pop\n        /* \"#utility.yul\":25301:25720   */\n      swap2\n      swap1\n      pop\n      jump\t// out\n        /* \"#utility.yul\":25726:25917   */\n    tag_179:\n        /* \"#utility.yul\":25766:25769   */\n      0x00\n        /* \"#utility.yul\":25785:25805   */\n      tag_519\n        /* \"#utility.yul\":25803:25804   */\n      dup3\n        /* \"#utility.yul\":25785:25805   */\n      tag_212\n      jump\t// in\n    tag_519:\n        /* \"#utility.yul\":25780:25805   */\n      swap2\n      pop\n        /* \"#utility.yul\":25819:25839   */\n      tag_520\n        /* \"#utility.yul\":25837:25838   */\n      dup4\n        /* \"#utility.yul\":25819:25839   */\n      tag_212\n      jump\t// in\n    tag_520:\n        /* \"#utility.yul\":25814:25839   */\n      swap3\n      pop\n        /* \"#utility.yul\":25862:25863   */\n      dup3\n        /* \"#utility.yul\":25859:25860   */\n      dup3\n        /* \"#utility.yul\":25855:25864   */\n      add\n        /* \"#utility.yul\":25848:25864   */\n      swap1\n      pop\n        /* \"#utility.yul\":25883:25886   */\n      dup1\n        /* \"#utility.yul\":25880:25881   */\n      dup3\n        /* \"#utility.yul\":25877:25887   */\n      gt\n        /* \"#utility.yul\":25874:25910   */\n      iszero\n      tag_521\n      jumpi\n        /* \"#utility.yul\":25890:25908   */\n      tag_522\n      tag_266\n      jump\t// in\n    tag_522:\n        /* \"#utility.yul\":25874:25910   */\n    tag_521:\n        /* \"#utility.yul\":25726:25917   */\n      swap3\n      swap2\n      pop\n      pop\n      jump\t// out\n        /* \"#utility.yul\":25923:26143   */\n    tag_271:\n        /* \"#utility.yul\":26063:26097   */\n      0x54697020616d6f756e74206d7573742062652067726561746572207468616e20\n        /* \"#utility.yul\":26059:26060   */\n      0x00\n        /* \"#utility.yul\":26051:26057   */\n      dup3\n        /* \"#utility.yul\":26047:26061   */\n      add\n        /* \"#utility.yul\":26040:26098   */\n      mstore\n        /* \"#utility.yul\":26132:26135   */\n      0x3000000000000000000000000000000000000000000000000000000000000000\n        /* \"#utility.yul\":26127:26129   */\n      0x20\n        /* \"#utility.yul\":26119:26125   */\n      dup3\n        /* \"#utility.yul\":26115:26130   */\n      add\n        /* \"#utility.yul\":26108:26136   */\n      mstore\n        /* \"#utility.yul\":25923:26143   */\n      pop\n      jump\t// out\n        /* \"#utility.yul\":26149:26515   */\n    tag_272:\n        /* \"#utility.yul\":26291:26294   */\n      0x00\n        /* \"#utility.yul\":26312:26379   */\n      tag_525\n        /* \"#utility.yul\":26376:26378   */\n      0x21\n        /* \"#utility.yul\":26371:26374   */\n      dup4\n        /* \"#utility.yul\":26312:26379   */\n      tag_231\n      jump\t// in\n    tag_525:\n        /* \"#utility.yul\":26305:26379   */\n      swap2\n      pop\n        /* \"#utility.yul\":26388:26481   */\n      tag_526\n        /* \"#utility.yul\":26477:26480   */\n      dup3\n        /* \"#utility.yul\":26388:26481   */\n      tag_271\n      jump\t// in\n    tag_526:\n        /* \"#utility.yul\":26506:26508   */\n      0x40\n        /* \"#utility.yul\":26501:26504   */\n      dup3\n        /* \"#utility.yul\":26497:26509   */\n      add\n        /* \"#utility.yul\":26490:26509   */\n      swap1\n      pop\n        /* \"#utility.yul\":26149:26515   */\n      swap2\n      swap1\n      pop\n      jump\t// out\n        /* \"#utility.yul\":26521:26940   */\n    tag_186:\n        /* \"#utility.yul\":26687:26691   */\n      0x00\n        /* \"#utility.yul\":26725:26727   */\n      0x20\n        /* \"#utility.yul\":26714:26723   */\n      dup3\n        /* \"#utility.yul\":26710:26728   */\n      add\n        /* \"#utility.yul\":26702:26728   */\n      swap1\n      pop\n        /* \"#utility.yul\":26774:26783   */\n      dup2\n        /* \"#utility.yul\":26768:26772   */\n      dup2\n        /* \"#utility.yul\":26764:26784   */\n      sub\n        /* \"#utility.yul\":26760:26761   */\n      0x00\n        /* \"#utility.yul\":26749:26758   */\n      dup4\n        /* \"#utility.yul\":26745:26762   */\n      add\n        /* \"#utility.yul\":26738:26785   */\n      mstore\n        /* \"#utility.yul\":26802:26933   */\n      tag_528\n        /* \"#utility.yul\":26928:26932   */\n      dup2\n        /* \"#utility.yul\":26802:26933   */\n      tag_272\n      jump\t// in\n    tag_528:\n        /* \"#utility.yul\":26794:26933   */\n      swap1\n      pop\n        /* \"#utility.yul\":26521:26940   */\n      swap2\n      swap1\n      pop\n      jump\t// out\n        /* \"#utility.yul\":26946:27099   */\n    tag_273:\n        /* \"#utility.yul\":27086:27091   */\n      0x4554480000000000000000000000000000000000000000000000000000000000\n        /* \"#utility.yul\":27082:27083   */\n      0x00\n        /* \"#utility.yul\":27074:27080   */\n      dup3\n        /* \"#utility.yul\":27070:27084   */\n      add\n        /* \"#utility.yul\":27063:27092   */\n      mstore\n        /* \"#utility.yul\":26946:27099   */\n      pop\n      jump\t// out\n        /* \"#utility.yul\":27105:27505   */\n    tag_274:\n        /* \"#utility.yul\":27265:27268   */\n      0x00\n        /* \"#utility.yul\":27286:27370   */\n      tag_531\n        /* \"#utility.yul\":27368:27369   */\n      0x03\n        /* \"#utility.yul\":27363:27366   */\n      dup4\n        /* \"#utility.yul\":27286:27370   */\n      tag_233\n      jump\t// in\n    tag_531:\n        /* \"#utility.yul\":27279:27370   */\n      swap2\n      pop\n        /* \"#utility.yul\":27379:27472   */\n      tag_532\n        /* \"#utility.yul\":27468:27471   */\n      dup3\n        /* \"#utility.yul\":27379:27472   */\n      tag_273\n      jump\t// in\n    tag_532:\n        /* \"#utility.yul\":27497:27498   */\n      0x03\n        /* \"#utility.yul\":27492:27495   */\n      dup3\n        /* \"#utility.yul\":27488:27499   */\n      add\n        /* \"#utility.yul\":27481:27499   */\n      swap1\n      pop\n        /* \"#utility.yul\":27105:27505   */\n      swap2\n      swap1\n      pop\n      jump\t// out\n        /* \"#utility.yul\":27511:27892   */\n    tag_190:\n        /* \"#utility.yul\":27696:27699   */\n      0x00\n        /* \"#utility.yul\":27718:27866   */\n      tag_534\n        /* \"#utility.yul\":27862:27865   */\n      dup3\n        /* \"#utility.yul\":27718:27866   */\n      tag_274\n      jump\t// in\n    tag_534:\n        /* \"#utility.yul\":27711:27866   */\n      swap2\n      pop\n        /* \"#utility.yul\":27883:27886   */\n      dup2\n        /* \"#utility.yul\":27876:27886   */\n      swap1\n      pop\n        /* \"#utility.yul\":27511:27892   */\n      swap2\n      swap1\n      pop\n      jump\t// out\n        /* \"#utility.yul\":27898:28063   */\n    tag_275:\n        /* \"#utility.yul\":28038:28055   */\n      0x496e76616c696420616464726573730000000000000000000000000000000000\n        /* \"#utility.yul\":28034:28035   */\n      0x00\n        /* \"#utility.yul\":28026:28032   */\n      dup3\n        /* \"#utility.yul\":28022:28036   */\n      add\n        /* \"#utility.yul\":28015:28056   */\n      mstore\n        /* \"#utility.yul\":27898:28063   */\n      pop\n      jump\t// out\n        /* \"#utility.yul\":28069:28435   */\n    tag_276:\n        /* \"#utility.yul\":28211:28214   */\n      0x00\n        /* \"#utility.yul\":28232:28299   */\n      tag_537\n        /* \"#utility.yul\":28296:28298   */\n      0x0f\n        /* \"#utility.yul\":28291:28294   */\n      dup4\n        /* \"#utility.yul\":28232:28299   */\n      tag_231\n      jump\t// in\n    tag_537:\n        /* \"#utility.yul\":28225:28299   */\n      swap2\n      pop\n        /* \"#utility.yul\":28308:28401   */\n      tag_538\n        /* \"#utility.yul\":28397:28400   */\n      dup3\n        /* \"#utility.yul\":28308:28401   */\n      tag_275\n      jump\t// in\n    tag_538:\n        /* \"#utility.yul\":28426:28428   */\n      0x20\n        /* \"#utility.yul\":28421:28424   */\n      dup3\n        /* \"#utility.yul\":28417:28429   */\n      add\n        /* \"#utility.yul\":28410:28429   */\n      swap1\n      pop\n        /* \"#utility.yul\":28069:28435   */\n      swap2\n      swap1\n      pop\n      jump\t// out\n        /* \"#utility.yul\":28441:28860   */\n    tag_198:\n        /* \"#utility.yul\":28607:28611   */\n      0x00\n        /* \"#utility.yul\":28645:28647   */\n      0x20\n        /* \"#utility.yul\":28634:28643   */\n      dup3\n        /* \"#utility.yul\":28630:28648   */\n      add\n        /* \"#utility.yul\":28622:28648   */\n      swap1\n      pop\n        /* \"#utility.yul\":28694:28703   */\n      dup2\n        /* \"#utility.yul\":28688:28692   */\n      dup2\n        /* \"#utility.yul\":28684:28704   */\n      sub\n        /* \"#utility.yul\":28680:28681   */\n      0x00\n        /* \"#utility.yul\":28669:28678   */\n      dup4\n        /* \"#utility.yul\":28665:28682   */\n      add\n        /* \"#utility.yul\":28658:28705   */\n      mstore\n        /* \"#utility.yul\":28722:28853   */\n      tag_540\n        /* \"#utility.yul\":28848:28852   */\n      dup2\n        /* \"#utility.yul\":28722:28853   */\n      tag_276\n      jump\t// in\n    tag_540:\n        /* \"#utility.yul\":28714:28853   */\n      swap1\n      pop\n        /* \"#utility.yul\":28441:28860   */\n      swap2\n      swap1\n      pop\n      jump\t// out\n\n    auxdata: 0xa264697066735822122080127a3951fa3b9cdb256887b7acb0b6f8bff142abcfbca8a8d3c9e23db4910864736f6c634300081f0033\n}\n",
				"bytecode": {
					"linkReferences": {},
					"object": "608060405234801561000f575f5ffd5b50335f5f6101000a81548173ffffffffffffffffffffffffffffffffffffffff021916908373ffffffffffffffffffffffffffffffffffffffff16021790555061009b6040518060400160405280600381526020017f55534400000000000000000000000000000000000000000000000000000000008152506601c6bf5263400061018360201b60201c565b6100e76040518060400160405280600381526020017f4555520000000000000000000000000000000000000000000000000000000000815250660221b262dd800061018360201b60201c565b6101326040518060400160405280600381526020017f4a505900000000000000000000000000000000000000000000000000000000008152506503a35294400061018360201b60201c565b61017e6040518060400160405280600381526020017f474250000000000000000000000000000000000000000000000000000000000081525066027ca57357c00061018360201b60201c565b610893565b5f5f9054906101000a900473ffffffffffffffffffffffffffffffffffffffff1673ffffffffffffffffffffffffffffffffffffffff163373ffffffffffffffffffffffffffffffffffffffff1614610211576040517f08c379a00000000000000000000000000000000000000000000000000000000081526004016102089061039e565b60405180910390fd5b5f8111610253576040517f08c379a000000000000000000000000000000000000000000000000000000000815260040161024a9061042c565b60405180910390fd5b5f5f90505f5f90505b6002805490508110156102bd578380519060200120600282815481106102855761028461044a565b5b905f5260205f200160405161029a9190610570565b6040518091039020036102b057600191506102bd565b808060010191505061025c565b50806102f657600283908060018154018082558091505060019003905f5260205f20015f9091909190915090816102f49190610766565b505b81600184604051610307919061087d565b908152602001604051809103902081905550505050565b5f82825260208201905092915050565b7f4f6e6c79206f776e65722063616e20706572666f726d207468697320616374695f8201527f6f6e000000000000000000000000000000000000000000000000000000000000602082015250565b5f61038860228361031e565b91506103938261032e565b604082019050919050565b5f6020820190508181035f8301526103b58161037c565b9050919050565b7f436f6e76657273696f6e2072617465206d7573742062652067726561746572205f8201527f7468616e20300000000000000000000000000000000000000000000000000000602082015250565b5f61041660268361031e565b9150610421826103bc565b604082019050919050565b5f6020820190508181035f8301526104438161040a565b9050919050565b7f4e487b71000000000000000000000000000000000000000000000000000000005f52603260045260245ffd5b7f4e487b71000000000000000000000000000000000000000000000000000000005f52602260045260245ffd5b5f60028204905060018216806104bb57607f821691505b6020821081036104ce576104cd610477565b5b50919050565b5f81905092915050565b5f819050815f5260205f209050919050565b5f81546104fc816104a4565b61050681866104d4565b9450600182165f8114610520576001811461053557610567565b60ff1983168652811515820286019350610567565b61053e856104de565b5f5b8381101561055f57815481890152600182019150602081019050610540565b838801955050505b50505092915050565b5f61057b82846104f0565b915081905092915050565b5f81519050919050565b7f4e487b71000000000000000000000000000000000000000000000000000000005f52604160045260245ffd5b5f819050815f5260205f209050919050565b5f6020601f8301049050919050565b5f82821b905092915050565b5f600883026106197fffffffffffffffffffffffffffffffffffffffffffffffffffffffffffffffff826105de565b61062386836105de565b95508019841693508086168417925050509392505050565b5f819050919050565b5f819050919050565b5f61066761066261065d8461063b565b610644565b61063b565b9050919050565b5f819050919050565b6106808361064d565b61069461068c8261066e565b8484546105ea565b825550505050565b5f5f905090565b6106ab61069c565b6106b6818484610677565b505050565b5b818110156106d9576106ce5f826106a3565b6001810190506106bc565b5050565b601f82111561071e576106ef816105bd565b6106f8846105cf565b81016020851015610707578190505b61071b610713856105cf565b8301826106bb565b50505b505050565b5f82821c905092915050565b5f61073e5f1984600802610723565b1980831691505092915050565b5f610756838361072f565b9150826002028217905092915050565b61076f82610586565b67ffffffffffffffff81111561078857610787610590565b5b61079282546104a4565b61079d8282856106dd565b5f60209050601f8311600181146107ce575f84156107bc578287015190505b6107c6858261074b565b86555061082d565b601f1984166107dc866105bd565b5f5b82811015610803578489015182556001820191506020850194506020810190506107de565b86831015610820578489015161081c601f89168261072f565b8355505b6001600288020188555050505b505050505050565b5f81905092915050565b8281835e5f83830152505050565b5f61085782610586565b6108618185610835565b935061087181856020860161083f565b80840191505092915050565b5f610888828461084d565b915081905092915050565b611cae806108a05f395ff3fe6080604052600436106100f2575f3560e01c80636de0938b116100895780639c88e42d116100585780639c88e42d14610356578063b844370214610372578063efe8c0841461037c578063f2fde38b146103a6576100f2565b80636de0938b1461028a5780636f9fb98a146102c65780638da5cb5b146102f057806397bf79351461031a576100f2565b80632ce75863116100c55780632ce75863146101e65780633aaa74b2146102105780635c41fece146102265780635c49c82514610262576100f2565b80630d9ba15f146100f657806310e1d1d4146101325780631fac531b1461016e578063223506a7146101aa575b5f5ffd5b348015610101575f5ffd5b5061011c60048036038101906101179190610f90565b6103ce565b6040516101299190610fef565b60405180910390f35b34801561013d575f5ffd5b5061015860048036038101906101539190611062565b6103fb565b6040516101659190610fef565b60405180910390f35b348015610179575f5ffd5b50610194600480360381019061018f9190610f90565b610410565b6040516101a19190610fef565b60405180910390f35b3480156101b5575f5ffd5b506101d060048036038101906101cb9190611062565b610497565b6040516101dd9190610fef565b60405180910390f35b3480156101f1575f5ffd5b506101fa6104dd565b60405161020791906111a8565b60405180910390f35b34801561021b575f5ffd5b506102246105b1565b005b348015610231575f5ffd5b5061024c60048036038101906102479190610f90565b610758565b6040516102599190610fef565b60405180910390f35b34801561026d575f5ffd5b50610288600480360381019061028391906111f2565b610785565b005b348015610295575f5ffd5b506102b060048036038101906102ab91906111f2565b610920565b6040516102bd9190610fef565b60405180910390f35b3480156102d1575f5ffd5b506102da6109b8565b6040516102e79190610fef565b60405180910390f35b3480156102fb575f5ffd5b506103046109bf565b604051610311919061125b565b60405180910390f35b348015610325575f5ffd5b50610340600480360381019061033b9190611274565b6109e3565b60405161034d91906112e7565b60405180910390f35b610370600480360381019061036b91906111f2565b610a89565b005b61037a610c1e565b005b348015610387575f5ffd5b50610390610cff565b60405161039d9190610fef565b60405180910390f35b3480156103b1575f5ffd5b506103cc60048036038101906103c79190611062565b610d05565b005b6005818051602081018201805184825260208301602085012081835280955050505050505f915090505481565b6004602052805f5260405f205f915090505481565b5f5f6001836040516104229190611341565b90815260200160405180910390205411610471576040517f08c379a0000000000000000000000000000000000000000000000000000000008152600401610468906113a1565b60405180910390fd5b6001826040516104819190611341565b9081526020016040518091039020549050919050565b5f60045f8373ffffffffffffffffffffffffffffffffffffffff1673ffffffffffffffffffffffffffffffffffffffff1681526020019081526020015f20549050919050565b60606002805480602002602001604051908101604052809291908181526020015f905b828210156105a8578382905f5260205f2001805461051d906113ec565b80601f0160208091040260200160405190810160405280929190818152602001828054610549906113ec565b80156105945780601f1061056b57610100808354040283529160200191610594565b820191905f5260205f20905b81548152906001019060200180831161057757829003601f168201915b505050505081526020019060010190610500565b50505050905090565b5f5f9054906101000a900473ffffffffffffffffffffffffffffffffffffffff1673ffffffffffffffffffffffffffffffffffffffff163373ffffffffffffffffffffffffffffffffffffffff161461063f576040517f08c379a00000000000000000000000000000000000000000000000000000000081526004016106369061148c565b60405180910390fd5b5f4790505f8111610685576040517f08c379a000000000000000000000000000000000000000000000000000000000815260040161067c906114f4565b60405180910390fd5b5f5f5f9054906101000a900473ffffffffffffffffffffffffffffffffffffffff1673ffffffffffffffffffffffffffffffffffffffff16826040516106ca9061153f565b5f6040518083038185875af1925050503d805f8114610704576040519150601f19603f3d011682016040523d82523d5f602084013e610709565b606091505b505090508061074d576040517f08c379a00000000000000000000000000000000000000000000000000000000081526004016107449061159d565b60405180910390fd5b5f6003819055505050565b6001818051602081018201805184825260208301602085012081835280955050505050505f915090505481565b5f5f9054906101000a900473ffffffffffffffffffffffffffffffffffffffff1673ffffffffffffffffffffffffffffffffffffffff163373ffffffffffffffffffffffffffffffffffffffff1614610813576040517f08c379a000000000000000000000000000000000000000000000000000000000815260040161080a9061148c565b60405180910390fd5b5f8111610855576040517f08c379a000000000000000000000000000000000000000000000000000000000815260040161084c9061162b565b60405180910390fd5b5f5f90505f5f90505b6002805490508110156108bf5783805190602001206002828154811061088757610886611649565b5b905f5260205f200160405161089c9190611708565b6040518091039020036108b257600191506108bf565b808060010191505061085e565b50806108f857600283908060018154018082558091505060019003905f5260205f20015f9091909190915090816108f691906118be565b505b816001846040516109099190611341565b908152602001604051809103902081905550505050565b5f5f6001846040516109329190611341565b90815260200160405180910390205411610981576040517f08c379a0000000000000000000000000000000000000000000000000000000008152600401610978906113a1565b60405180910390fd5b5f6001846040516109929190611341565b908152602001604051809103902054836109ac91906119ba565b90508091505092915050565b5f47905090565b5f5f9054906101000a900473ffffffffffffffffffffffffffffffffffffffff1681565b600281815481106109f2575f80fd5b905f5260205f20015f915090508054610a0a906113ec565b80601f0160208091040260200160405190810160405280929190818152602001828054610a36906113ec565b8015610a815780601f10610a5857610100808354040283529160200191610a81565b820191905f5260205f20905b815481529060010190602001808311610a6457829003601f168201915b505050505081565b5f600183604051610a9a9190611341565b90815260200160405180910390205411610ae9576040517f08c379a0000000000000000000000000000000000000000000000000000000008152600401610ae0906113a1565b60405180910390fd5b5f8111610b2b576040517f08c379a0000000000000000000000000000000000000000000000000000000008152600401610b2290611a45565b60405180910390fd5b5f610b368383610920565b9050803414610b7a576040517f08c379a0000000000000000000000000000000000000000000000000000000008152600401610b7190611ad3565b60405180910390fd5b3460045f3373ffffffffffffffffffffffffffffffffffffffff1673ffffffffffffffffffffffffffffffffffffffff1681526020019081526020015f205f828254610bc69190611af1565b925050819055503460035f828254610bde9190611af1565b9250508190555081600584604051610bf69190611341565b90815260200160405180910390205f828254610c129190611af1565b92505081905550505050565b5f3411610c60576040517f08c379a0000000000000000000000000000000000000000000000000000000008152600401610c5790611b94565b60405180910390fd5b3460045f3373ffffffffffffffffffffffffffffffffffffffff1673ffffffffffffffffffffffffffffffffffffffff1681526020019081526020015f205f828254610cac9190611af1565b925050819055503460035f828254610cc49190611af1565b92505081905550346005604051610cda90611bfc565b90815260200160405180910390205f828254610cf69190611af1565b92505081905550565b60035481565b5f5f9054906101000a900473ffffffffffffffffffffffffffffffffffffffff1673ffffffffffffffffffffffffffffffffffffffff163373ffffffffffffffffffffffffffffffffffffffff1614610d93576040517f08c379a0000000000000000000000000000000000000000000000000000000008152600401610d8a9061148c565b60405180910390fd5b5f73ffffffffffffffffffffffffffffffffffffffff168173ffffffffffffffffffffffffffffffffffffffff1603610e01576040517f08c379a0000000000000000000000000000000000000000000000000000000008152600401610df890611c5a565b60405180910390fd5b805f5f6101000a81548173ffffffffffffffffffffffffffffffffffffffff021916908373ffffffffffffffffffffffffffffffffffffffff16021790555050565b5f604051905090565b5f5ffd5b5f5ffd5b5f5ffd5b5f5ffd5b5f601f19601f8301169050919050565b7f4e487b71000000000000000000000000000000000000000000000000000000005f52604160045260245ffd5b610ea282610e5c565b810181811067ffffffffffffffff82111715610ec157610ec0610e6c565b5b80604052505050565b5f610ed3610e43565b9050610edf8282610e99565b919050565b5f67ffffffffffffffff821115610efe57610efd610e6c565b5b610f0782610e5c565b9050602081019050919050565b828183375f83830152505050565b5f610f34610f2f84610ee4565b610eca565b905082815260208101848484011115610f5057610f4f610e58565b5b610f5b848285610f14565b509392505050565b5f82601f830112610f7757610f76610e54565b5b8135610f87848260208601610f22565b91505092915050565b5f60208284031215610fa557610fa4610e4c565b5b5f82013567ffffffffffffffff811115610fc257610fc1610e50565b5b610fce84828501610f63565b91505092915050565b5f819050919050565b610fe981610fd7565b82525050565b5f6020820190506110025f830184610fe0565b92915050565b5f73ffffffffffffffffffffffffffffffffffffffff82169050919050565b5f61103182611008565b9050919050565b61104181611027565b811461104b575f5ffd5b50565b5f8135905061105c81611038565b92915050565b5f6020828403121561107757611076610e4c565b5b5f6110848482850161104e565b91505092915050565b5f81519050919050565b5f82825260208201905092915050565b5f819050602082019050919050565b5f81519050919050565b5f82825260208201905092915050565b8281835e5f83830152505050565b5f6110e8826110b6565b6110f281856110c0565b93506111028185602086016110d0565b61110b81610e5c565b840191505092915050565b5f61112183836110de565b905092915050565b5f602082019050919050565b5f61113f8261108d565b6111498185611097565b93508360208202850161115b856110a7565b805f5b8581101561119657848403895281516111778582611116565b945061118283611129565b925060208a0199505060018101905061115e565b50829750879550505050505092915050565b5f6020820190508181035f8301526111c08184611135565b905092915050565b6111d181610fd7565b81146111db575f5ffd5b50565b5f813590506111ec816111c8565b92915050565b5f5f6040838503121561120857611207610e4c565b5b5f83013567ffffffffffffffff81111561122557611224610e50565b5b61123185828601610f63565b9250506020611242858286016111de565b9150509250929050565b61125581611027565b82525050565b5f60208201905061126e5f83018461124c565b92915050565b5f6020828403121561128957611288610e4c565b5b5f611296848285016111de565b91505092915050565b5f82825260208201905092915050565b5f6112b9826110b6565b6112c3818561129f565b93506112d38185602086016110d0565b6112dc81610e5c565b840191505092915050565b5f6020820190508181035f8301526112ff81846112af565b905092915050565b5f81905092915050565b5f61131b826110b6565b6113258185611307565b93506113358185602086016110d0565b80840191505092915050565b5f61134c8284611311565b915081905092915050565b7f43757272656e6379206e6f7420737570706f72746564000000000000000000005f82015250565b5f61138b60168361129f565b915061139682611357565b602082019050919050565b5f6020820190508181035f8301526113b88161137f565b9050919050565b7f4e487b71000000000000000000000000000000000000000000000000000000005f52602260045260245ffd5b5f600282049050600182168061140357607f821691505b602082108103611416576114156113bf565b5b50919050565b7f4f6e6c79206f776e65722063616e20706572666f726d207468697320616374695f8201527f6f6e000000000000000000000000000000000000000000000000000000000000602082015250565b5f61147660228361129f565b91506114818261141c565b604082019050919050565b5f6020820190508181035f8301526114a38161146a565b9050919050565b7f4e6f207469707320746f207769746864726177000000000000000000000000005f82015250565b5f6114de60138361129f565b91506114e9826114aa565b602082019050919050565b5f6020820190508181035f83015261150b816114d2565b9050919050565b5f81905092915050565b50565b5f61152a5f83611512565b91506115358261151c565b5f82019050919050565b5f6115498261151f565b9150819050919050565b7f5472616e73666572206661696c656400000000000000000000000000000000005f82015250565b5f611587600f8361129f565b915061159282611553565b602082019050919050565b5f6020820190508181035f8301526115b48161157b565b9050919050565b7f436f6e76657273696f6e2072617465206d7573742062652067726561746572205f8201527f7468616e20300000000000000000000000000000000000000000000000000000602082015250565b5f61161560268361129f565b9150611620826115bb565b604082019050919050565b5f6020820190508181035f83015261164281611609565b9050919050565b7f4e487b71000000000000000000000000000000000000000000000000000000005f52603260045260245ffd5b5f819050815f5260205f209050919050565b5f8154611694816113ec565b61169e8186611512565b9450600182165f81146116b857600181146116cd576116ff565b60ff19831686528115158202860193506116ff565b6116d685611676565b5f5b838110156116f7578154818901526001820191506020810190506116d8565b838801955050505b50505092915050565b5f6117138284611688565b915081905092915050565b5f819050815f5260205f209050919050565b5f6020601f8301049050919050565b5f82821b905092915050565b5f6008830261177a7fffffffffffffffffffffffffffffffffffffffffffffffffffffffffffffffff8261173f565b611784868361173f565b95508019841693508086168417925050509392505050565b5f819050919050565b5f6117bf6117ba6117b584610fd7565b61179c565b610fd7565b9050919050565b5f819050919050565b6117d8836117a5565b6117ec6117e4826117c6565b84845461174b565b825550505050565b5f5f905090565b6118036117f4565b61180e8184846117cf565b505050565b5b81811015611831576118265f826117fb565b600181019050611814565b5050565b601f821115611876576118478161171e565b61185084611730565b8101602085101561185f578190505b61187361186b85611730565b830182611813565b50505b505050565b5f82821c905092915050565b5f6118965f198460080261187b565b1980831691505092915050565b5f6118ae8383611887565b9150826002028217905092915050565b6118c7826110b6565b67ffffffffffffffff8111156118e0576118df610e6c565b5b6118ea82546113ec565b6118f5828285611835565b5f60209050601f831160018114611926575f8415611914578287015190505b61191e85826118a3565b865550611985565b601f1984166119348661171e565b5f5b8281101561195b57848901518255600182019150602085019450602081019050611936565b868310156119785784890151611974601f891682611887565b8355505b6001600288020188555050505b505050505050565b7f4e487b71000000000000000000000000000000000000000000000000000000005f52601160045260245ffd5b5f6119c482610fd7565b91506119cf83610fd7565b92508282026119dd81610fd7565b915082820484148315176119f4576119f361198d565b5b5092915050565b7f416d6f756e74206d7573742062652067726561746572207468616e20300000005f82015250565b5f611a2f601d8361129f565b9150611a3a826119fb565b602082019050919050565b5f6020820190508181035f830152611a5c81611a23565b9050919050565b7f53656e742045544820646f65736e2774206d617463682074686520636f6e76655f8201527f7274656420616d6f756e74000000000000000000000000000000000000000000602082015250565b5f611abd602b8361129f565b9150611ac882611a63565b604082019050919050565b5f6020820190508181035f830152611aea81611ab1565b9050919050565b5f611afb82610fd7565b9150611b0683610fd7565b9250828201905080821115611b1e57611b1d61198d565b5b92915050565b7f54697020616d6f756e74206d7573742062652067726561746572207468616e205f8201527f3000000000000000000000000000000000000000000000000000000000000000602082015250565b5f611b7e60218361129f565b9150611b8982611b24565b604082019050919050565b5f6020820190508181035f830152611bab81611b72565b9050919050565b7f45544800000000000000000000000000000000000000000000000000000000005f82015250565b5f611be6600383611307565b9150611bf182611bb2565b600382019050919050565b5f611c0682611bda565b9150819050919050565b7f496e76616c6964206164647265737300000000000000000000000000000000005f82015250565b5f611c44600f8361129f565b9150611c4f82611c10565b602082019050919050565b5f6020820190508181035f830152611c7181611c38565b905091905056fea264697066735822122080127a3951fa3b9cdb256887b7acb0b6f8bff142abcfbca8a8d3c9e23db4910864736f6c634300081f0033",
					"opcodes": "PUSH1 0x80 PUSH1 0x40 MSTORE CALLVALUE DUP1 ISZERO PUSH2 0xF JUMPI PUSH0 PUSH0 REVERT JUMPDEST POP CALLER PUSH0 PUSH0 PUSH2 0x100 EXP DUP2 SLOAD DUP2 PUSH20 0xFFFFFFFFFFFFFFFFFFFFFFFFFFFFFFFFFFFFFFFF MUL NOT AND SWAP1 DUP4 PUSH20 0xFFFFFFFFFFFFFFFFFFFFFFFFFFFFFFFFFFFFFFFF AND MUL OR SWAP1 SSTORE POP PUSH2 0x9B PUSH1 0x40 MLOAD DUP1 PUSH1 0x40 ADD PUSH1 0x40 MSTORE DUP1 PUSH1 0x3 DUP2 MSTORE PUSH1 0x20 ADD PUSH32 0x5553440000000000000000000000000000000000000000000000000000000000 DUP2 MSTORE POP PUSH7 0x1C6BF52634000 PUSH2 0x183 PUSH1 0x20 SHL PUSH1 0x20 SHR JUMP JUMPDEST PUSH2 0xE7 PUSH1 0x40 MLOAD DUP1 PUSH1 0x40 ADD PUSH1 0x40 MSTORE DUP1 PUSH1 0x3 DUP2 MSTORE PUSH1 0x20 ADD PUSH32 0x4555520000000000000000000000000000000000000000000000000000000000 DUP2 MSTORE POP PUSH7 0x221B262DD8000 PUSH2 0x183 PUSH1 0x20 SHL PUSH1 0x20 SHR JUMP JUMPDEST PUSH2 0x132 PUSH1 0x40 MLOAD DUP1 PUSH1 0x40 ADD PUSH1 0x40 MSTORE DUP1 PUSH1 0x3 DUP2 MSTORE PUSH1 0x20 ADD PUSH32 0x4A50590000000000000000000000000000000000000000000000000000000000 DUP2 MSTORE POP PUSH6 0x3A352944000 PUSH2 0x183 PUSH1 0x20 SHL PUSH1 0x20 SHR JUMP JUMPDEST PUSH2 0x17E PUSH1 0x40 MLOAD DUP1 PUSH1 0x40 ADD PUSH1 0x40 MSTORE DUP1 PUSH1 0x3 DUP2 MSTORE PUSH1 0x20 ADD PUSH32 0x4742500000000000000000000000000000000000000000000000000000000000 DUP2 MSTORE POP PUSH7 0x27CA57357C000 PUSH2 0x183 PUSH1 0x20 SHL PUSH1 0x20 SHR JUMP JUMPDEST PUSH2 0x893 JUMP JUMPDEST PUSH0 PUSH0 SWAP1 SLOAD SWAP1 PUSH2 0x100 EXP SWAP1 DIV PUSH20 0xFFFFFFFFFFFFFFFFFFFFFFFFFFFFFFFFFFFFFFFF AND PUSH20 0xFFFFFFFFFFFFFFFFFFFFFFFFFFFFFFFFFFFFFFFF AND CALLER PUSH20 0xFFFFFFFFFFFFFFFFFFFFFFFFFFFFFFFFFFFFFFFF AND EQ PUSH2 0x211 JUMPI PUSH1 0x40 MLOAD PUSH32 0x8C379A000000000000000000000000000000000000000000000000000000000 DUP2 MSTORE PUSH1 0x4 ADD PUSH2 0x208 SWAP1 PUSH2 0x39E JUMP JUMPDEST PUSH1 0x40 MLOAD DUP1 SWAP2 SUB SWAP1 REVERT JUMPDEST PUSH0 DUP2 GT PUSH2 0x253 JUMPI PUSH1 0x40 MLOAD PUSH32 0x8C379A000000000000000000000000000000000000000000000000000000000 DUP2 MSTORE PUSH1 0x4 ADD PUSH2 0x24A SWAP1 PUSH2 0x42C JUMP JUMPDEST PUSH1 0x40 MLOAD DUP1 SWAP2 SUB SWAP1 REVERT JUMPDEST PUSH0 PUSH0 SWAP1 POP PUSH0 PUSH0 SWAP1 POP JUMPDEST PUSH1 0x2 DUP1 SLOAD SWAP1 POP DUP2 LT ISZERO PUSH2 0x2BD JUMPI DUP4 DUP1 MLOAD SWAP1 PUSH1 0x20 ADD KECCAK256 PUSH1 0x2 DUP3 DUP2 SLOAD DUP2 LT PUSH2 0x285 JUMPI PUSH2 0x284 PUSH2 0x44A JUMP JUMPDEST JUMPDEST SWAP1 PUSH0 MSTORE PUSH1 0x20 PUSH0 KECCAK256 ADD PUSH1 0x40 MLOAD PUSH2 0x29A SWAP2 SWAP1 PUSH2 0x570 JUMP JUMPDEST PUSH1 0x40 MLOAD DUP1 SWAP2 SUB SWAP1 KECCAK256 SUB PUSH2 0x2B0 JUMPI PUSH1 0x1 SWAP2 POP PUSH2 0x2BD JUMP JUMPDEST DUP1 DUP1 PUSH1 0x1 ADD SWAP2 POP POP PUSH2 0x25C JUMP JUMPDEST POP DUP1 PUSH2 0x2F6 JUMPI PUSH1 0x2 DUP4 SWAP1 DUP1 PUSH1 0x1 DUP2 SLOAD ADD DUP1 DUP3 SSTORE DUP1 SWAP2 POP POP PUSH1 0x1 SWAP1 SUB SWAP1 PUSH0 MSTORE PUSH1 0x20 PUSH0 KECCAK256 ADD PUSH0 SWAP1 SWAP2 SWAP1 SWAP2 SWAP1 SWAP2 POP SWAP1 DUP2 PUSH2 0x2F4 SWAP2 SWAP1 PUSH2 0x766 JUMP JUMPDEST POP JUMPDEST DUP2 PUSH1 0x1 DUP5 PUSH1 0x40 MLOAD PUSH2 0x307 SWAP2 SWAP1 PUSH2 0x87D JUMP JUMPDEST SWAP1 DUP2 MSTORE PUSH1 0x20 ADD PUSH1 0x40 MLOAD DUP1 SWAP2 SUB SWAP1 KECCAK256 DUP2 SWAP1 SSTORE POP POP POP POP JUMP JUMPDEST PUSH0 DUP3 DUP3 MSTORE PUSH1 0x20 DUP3 ADD SWAP1 POP SWAP3 SWAP2 POP POP JUMP JUMPDEST PUSH32 0x4F6E6C79206F776E65722063616E20706572666F726D20746869732061637469 PUSH0 DUP3 ADD MSTORE PUSH32 0x6F6E000000000000000000000000000000000000000000000000000000000000 PUSH1 0x20 DUP3 ADD MSTORE POP JUMP JUMPDEST PUSH0 PUSH2 0x388 PUSH1 0x22 DUP4 PUSH2 0x31E JUMP JUMPDEST SWAP2 POP PUSH2 0x393 DUP3 PUSH2 0x32E JUMP JUMPDEST PUSH1 0x40 DUP3 ADD SWAP1 POP SWAP2 SWAP1 POP JUMP JUMPDEST PUSH0 PUSH1 0x20 DUP3 ADD SWAP1 POP DUP2 DUP2 SUB PUSH0 DUP4 ADD MSTORE PUSH2 0x3B5 DUP2 PUSH2 0x37C JUMP JUMPDEST SWAP1 POP SWAP2 SWAP1 POP JUMP JUMPDEST PUSH32 0x436F6E76657273696F6E2072617465206D757374206265206772656174657220 PUSH0 DUP3 ADD MSTORE PUSH32 0x7468616E20300000000000000000000000000000000000000000000000000000 PUSH1 0x20 DUP3 ADD MSTORE POP JUMP JUMPDEST PUSH0 PUSH2 0x416 PUSH1 0x26 DUP4 PUSH2 0x31E JUMP JUMPDEST SWAP2 POP PUSH2 0x421 DUP3 PUSH2 0x3BC JUMP JUMPDEST PUSH1 0x40 DUP3 ADD SWAP1 POP SWAP2 SWAP1 POP JUMP JUMPDEST PUSH0 PUSH1 0x20 DUP3 ADD SWAP1 POP DUP2 DUP2 SUB PUSH0 DUP4 ADD MSTORE PUSH2 0x443 DUP2 PUSH2 0x40A JUMP JUMPDEST SWAP1 POP SWAP2 SWAP1 POP JUMP JUMPDEST PUSH32 0x4E487B7100000000000000000000000000000000000000000000000000000000 PUSH0 MSTORE PUSH1 0x32 PUSH1 0x4 MSTORE PUSH1 0x24 PUSH0 REVERT JUMPDEST PUSH32 0x4E487B7100000000000000000000000000000000000000000000000000000000 PUSH0 MSTORE PUSH1 0x22 PUSH1 0x4 MSTORE PUSH1 0x24 PUSH0 REVERT JUMPDEST PUSH0 PUSH1 0x2 DUP3 DIV SWAP1 POP PUSH1 0x1 DUP3 AND DUP1 PUSH2 0x4BB JUMPI PUSH1 0x7F DUP3 AND SWAP2 POP JUMPDEST PUSH1 0x20 DUP3 LT DUP2 SUB PUSH2 0x4CE JUMPI PUSH2 0x4CD PUSH2 0x477 JUMP JUMPDEST JUMPDEST POP SWAP2 SWAP1 POP JUMP JUMPDEST PUSH0 DUP2 SWAP1 POP SWAP3 SWAP2 POP POP JUMP JUMPDEST PUSH0 DUP2 SWAP1 POP DUP2 PUSH0 MSTORE PUSH1 0x20 PUSH0 KECCAK256 SWAP1 POP SWAP2 SWAP1 POP JUMP JUMPDEST PUSH0 DUP2 SLOAD PUSH2 0x4FC DUP2 PUSH2 0x4A4 JUMP JUMPDEST PUSH2 0x506 DUP2 DUP7 PUSH2 0x4D4 JUMP JUMPDEST SWAP5 POP PUSH1 0x1 DUP3 AND PUSH0 DUP2 EQ PUSH2 0x520 JUMPI PUSH1 0x1 DUP2 EQ PUSH2 0x535 JUMPI PUSH2 0x567 JUMP JUMPDEST PUSH1 0xFF NOT DUP4 AND DUP7 MSTORE DUP2 ISZERO ISZERO DUP3 MUL DUP7 ADD SWAP4 POP PUSH2 0x567 JUMP JUMPDEST PUSH2 0x53E DUP6 PUSH2 0x4DE JUMP JUMPDEST PUSH0 JUMPDEST DUP4 DUP2 LT ISZERO PUSH2 0x55F JUMPI DUP2 SLOAD DUP2 DUP10 ADD MSTORE PUSH1 0x1 DUP3 ADD SWAP2 POP PUSH1 0x20 DUP2 ADD SWAP1 POP PUSH2 0x540 JUMP JUMPDEST DUP4 DUP9 ADD SWAP6 POP POP POP JUMPDEST POP POP POP SWAP3 SWAP2 POP POP JUMP JUMPDEST PUSH0 PUSH2 0x57B DUP3 DUP5 PUSH2 0x4F0 JUMP JUMPDEST SWAP2 POP DUP2 SWAP1 POP SWAP3 SWAP2 POP POP JUMP JUMPDEST PUSH0 DUP2 MLOAD SWAP1 POP SWAP2 SWAP1 POP JUMP JUMPDEST PUSH32 0x4E487B7100000000000000000000000000000000000000000000000000000000 PUSH0 MSTORE PUSH1 0x41 PUSH1 0x4 MSTORE PUSH1 0x24 PUSH0 REVERT JUMPDEST PUSH0 DUP2 SWAP1 POP DUP2 PUSH0 MSTORE PUSH1 0x20 PUSH0 KECCAK256 SWAP1 POP SWAP2 SWAP1 POP JUMP JUMPDEST PUSH0 PUSH1 0x20 PUSH1 0x1F DUP4 ADD DIV SWAP1 POP SWAP2 SWAP1 POP JUMP JUMPDEST PUSH0 DUP3 DUP3 SHL SWAP1 POP SWAP3 SWAP2 POP POP JUMP JUMPDEST PUSH0 PUSH1 0x8 DUP4 MUL PUSH2 0x619 PUSH32 0xFFFFFFFFFFFFFFFFFFFFFFFFFFFFFFFFFFFFFFFFFFFFFFFFFFFFFFFFFFFFFFFF DUP3 PUSH2 0x5DE JUMP JUMPDEST PUSH2 0x623 DUP7 DUP4 PUSH2 0x5DE JUMP JUMPDEST SWAP6 POP DUP1 NOT DUP5 AND SWAP4 POP DUP1 DUP7 AND DUP5 OR SWAP3 POP POP POP SWAP4 SWAP3 POP POP POP JUMP JUMPDEST PUSH0 DUP2 SWAP1 POP SWAP2 SWAP1 POP JUMP JUMPDEST PUSH0 DUP2 SWAP1 POP SWAP2 SWAP1 POP JUMP JUMPDEST PUSH0 PUSH2 0x667 PUSH2 0x662 PUSH2 0x65D DUP5 PUSH2 0x63B JUMP JUMPDEST PUSH2 0x644 JUMP JUMPDEST PUSH2 0x63B JUMP JUMPDEST SWAP1 POP SWAP2 SWAP1 POP JUMP JUMPDEST PUSH0 DUP2 SWAP1 POP SWAP2 SWAP1 POP JUMP JUMPDEST PUSH2 0x680 DUP4 PUSH2 0x64D JUMP JUMPDEST PUSH2 0x694 PUSH2 0x68C DUP3 PUSH2 0x66E JUMP JUMPDEST DUP5 DUP5 SLOAD PUSH2 0x5EA JUMP JUMPDEST DUP3 SSTORE POP POP POP POP JUMP JUMPDEST PUSH0 PUSH0 SWAP1 POP SWAP1 JUMP JUMPDEST PUSH2 0x6AB PUSH2 0x69C JUMP JUMPDEST PUSH2 0x6B6 DUP2 DUP5 DUP5 PUSH2 0x677 JUMP JUMPDEST POP POP POP JUMP JUMPDEST JUMPDEST DUP2 DUP2 LT ISZERO PUSH2 0x6D9 JUMPI PUSH2 0x6CE PUSH0 DUP3 PUSH2 0x6A3 JUMP JUMPDEST PUSH1 0x1 DUP2 ADD SWAP1 POP PUSH2 0x6BC JUMP JUMPDEST POP POP JUMP JUMPDEST PUSH1 0x1F DUP3 GT ISZERO PUSH2 0x71E JUMPI PUSH2 0x6EF DUP2 PUSH2 0x5BD JUMP JUMPDEST PUSH2 0x6F8 DUP5 PUSH2 0x5CF JUMP JUMPDEST DUP2 ADD PUSH1 0x20 DUP6 LT ISZERO PUSH2 0x707 JUMPI DUP2 SWAP1 POP JUMPDEST PUSH2 0x71B PUSH2 0x713 DUP6 PUSH2 0x5CF JUMP JUMPDEST DUP4 ADD DUP3 PUSH2 0x6BB JUMP JUMPDEST POP POP JUMPDEST POP POP POP JUMP JUMPDEST PUSH0 DUP3 DUP3 SHR SWAP1 POP SWAP3 SWAP2 POP POP JUMP JUMPDEST PUSH0 PUSH2 0x73E PUSH0 NOT DUP5 PUSH1 0x8 MUL PUSH2 0x723 JUMP JUMPDEST NOT DUP1 DUP4 AND SWAP2 POP POP SWAP3 SWAP2 POP POP JUMP JUMPDEST PUSH0 PUSH2 0x756 DUP4 DUP4 PUSH2 0x72F JUMP JUMPDEST SWAP2 POP DUP3 PUSH1 0x2 MUL DUP3 OR SWAP1 POP SWAP3 SWAP2 POP POP JUMP JUMPDEST PUSH2 0x76F DUP3 PUSH2 0x586 JUMP JUMPDEST PUSH8 0xFFFFFFFFFFFFFFFF DUP2 GT ISZERO PUSH2 0x788 JUMPI PUSH2 0x787 PUSH2 0x590 JUMP JUMPDEST JUMPDEST PUSH2 0x792 DUP3 SLOAD PUSH2 0x4A4 JUMP JUMPDEST PUSH2 0x79D DUP3 DUP3 DUP6 PUSH2 0x6DD JUMP JUMPDEST PUSH0 PUSH1 0x20 SWAP1 POP PUSH1 0x1F DUP4 GT PUSH1 0x1 DUP2 EQ PUSH2 0x7CE JUMPI PUSH0 DUP5 ISZERO PUSH2 0x7BC JUMPI DUP3 DUP8 ADD MLOAD SWAP1 POP JUMPDEST PUSH2 0x7C6 DUP6 DUP3 PUSH2 0x74B JUMP JUMPDEST DUP7 SSTORE POP PUSH2 0x82D JUMP JUMPDEST PUSH1 0x1F NOT DUP5 AND PUSH2 0x7DC DUP7 PUSH2 0x5BD JUMP JUMPDEST PUSH0 JUMPDEST DUP3 DUP2 LT ISZERO PUSH2 0x803 JUMPI DUP5 DUP10 ADD MLOAD DUP3 SSTORE PUSH1 0x1 DUP3 ADD SWAP2 POP PUSH1 0x20 DUP6 ADD SWAP5 POP PUSH1 0x20 DUP2 ADD SWAP1 POP PUSH2 0x7DE JUMP JUMPDEST DUP7 DUP4 LT ISZERO PUSH2 0x820 JUMPI DUP5 DUP10 ADD MLOAD PUSH2 0x81C PUSH1 0x1F DUP10 AND DUP3 PUSH2 0x72F JUMP JUMPDEST DUP4 SSTORE POP JUMPDEST PUSH1 0x1 PUSH1 0x2 DUP9 MUL ADD DUP9 SSTORE POP POP POP JUMPDEST POP POP POP POP POP POP JUMP JUMPDEST PUSH0 DUP2 SWAP1 POP SWAP3 SWAP2 POP POP JUMP JUMPDEST DUP3 DUP2 DUP4 MCOPY PUSH0 DUP4 DUP4 ADD MSTORE POP POP POP JUMP JUMPDEST PUSH0 PUSH2 0x857 DUP3 PUSH2 0x586 JUMP JUMPDEST PUSH2 0x861 DUP2 DUP6 PUSH2 0x835 JUMP JUMPDEST SWAP4 POP PUSH2 0x871 DUP2 DUP6 PUSH1 0x20 DUP7 ADD PUSH2 0x83F JUMP JUMPDEST DUP1 DUP5 ADD SWAP2 POP POP SWAP3 SWAP2 POP POP JUMP JUMPDEST PUSH0 PUSH2 0x888 DUP3 DUP5 PUSH2 0x84D JUMP JUMPDEST SWAP2 POP DUP2 SWAP1 POP SWAP3 SWAP2 POP POP JUMP JUMPDEST PUSH2 0x1CAE DUP1 PUSH2 0x8A0 PUSH0 CODECOPY PUSH0 RETURN INVALID PUSH1 0x80 PUSH1 0x40 MSTORE PUSH1 0x4 CALLDATASIZE LT PUSH2 0xF2 JUMPI PUSH0 CALLDATALOAD PUSH1 0xE0 SHR DUP1 PUSH4 0x6DE0938B GT PUSH2 0x89 JUMPI DUP1 PUSH4 0x9C88E42D GT PUSH2 0x58 JUMPI DUP1 PUSH4 0x9C88E42D EQ PUSH2 0x356 JUMPI DUP1 PUSH4 0xB8443702 EQ PUSH2 0x372 JUMPI DUP1 PUSH4 0xEFE8C084 EQ PUSH2 0x37C JUMPI DUP1 PUSH4 0xF2FDE38B EQ PUSH2 0x3A6 JUMPI PUSH2 0xF2 JUMP JUMPDEST DUP1 PUSH4 0x6DE0938B EQ PUSH2 0x28A JUMPI DUP1 PUSH4 0x6F9FB98A EQ PUSH2 0x2C6 JUMPI DUP1 PUSH4 0x8DA5CB5B EQ PUSH2 0x2F0 JUMPI DUP1 PUSH4 0x97BF7935 EQ PUSH2 0x31A JUMPI PUSH2 0xF2 JUMP JUMPDEST DUP1 PUSH4 0x2CE75863 GT PUSH2 0xC5 JUMPI DUP1 PUSH4 0x2CE75863 EQ PUSH2 0x1E6 JUMPI DUP1 PUSH4 0x3AAA74B2 EQ PUSH2 0x210 JUMPI DUP1 PUSH4 0x5C41FECE EQ PUSH2 0x226 JUMPI DUP1 PUSH4 0x5C49C825 EQ PUSH2 0x262 JUMPI PUSH2 0xF2 JUMP JUMPDEST DUP1 PUSH4 0xD9BA15F EQ PUSH2 0xF6 JUMPI DUP1 PUSH4 0x10E1D1D4 EQ PUSH2 0x132 JUMPI DUP1 PUSH4 0x1FAC531B EQ PUSH2 0x16E JUMPI DUP1 PUSH4 0x223506A7 EQ PUSH2 0x1AA JUMPI JUMPDEST PUSH0 PUSH0 REVERT JUMPDEST CALLVALUE DUP1 ISZERO PUSH2 0x101 JUMPI PUSH0 PUSH0 REVERT JUMPDEST POP PUSH2 0x11C PUSH1 0x4 DUP1 CALLDATASIZE SUB DUP2 ADD SWAP1 PUSH2 0x117 SWAP2 SWAP1 PUSH2 0xF90 JUMP JUMPDEST PUSH2 0x3CE JUMP JUMPDEST PUSH1 0x40 MLOAD PUSH2 0x129 SWAP2 SWAP1 PUSH2 0xFEF JUMP JUMPDEST PUSH1 0x40 MLOAD DUP1 SWAP2 SUB SWAP1 RETURN JUMPDEST CALLVALUE DUP1 ISZERO PUSH2 0x13D JUMPI PUSH0 PUSH0 REVERT JUMPDEST POP PUSH2 0x158 PUSH1 0x4 DUP1 CALLDATASIZE SUB DUP2 ADD SWAP1 PUSH2 0x153 SWAP2 SWAP1 PUSH2 0x1062 JUMP JUMPDEST PUSH2 0x3FB JUMP JUMPDEST PUSH1 0x40 MLOAD PUSH2 0x165 SWAP2 SWAP1 PUSH2 0xFEF JUMP JUMPDEST PUSH1 0x40 MLOAD DUP1 SWAP2 SUB SWAP1 RETURN JUMPDEST CALLVALUE DUP1 ISZERO PUSH2 0x179 JUMPI PUSH0 PUSH0 REVERT JUMPDEST POP PUSH2 0x194 PUSH1 0x4 DUP1 CALLDATASIZE SUB DUP2 ADD SWAP1 PUSH2 0x18F SWAP2 SWAP1 PUSH2 0xF90 JUMP JUMPDEST PUSH2 0x410 JUMP JUMPDEST PUSH1 0x40 MLOAD PUSH2 0x1A1 SWAP2 SWAP1 PUSH2 0xFEF JUMP JUMPDEST PUSH1 0x40 MLOAD DUP1 SWAP2 SUB SWAP1 RETURN JUMPDEST CALLVALUE DUP1 ISZERO PUSH2 0x1B5 JUMPI PUSH0 PUSH0 REVERT JUMPDEST POP PUSH2 0x1D0 PUSH1 0x4 DUP1 CALLDATASIZE SUB DUP2 ADD SWAP1 PUSH2 0x1CB SWAP2 SWAP1 PUSH2 0x1062 JUMP JUMPDEST PUSH2 0x497 JUMP JUMPDEST PUSH1 0x40 MLOAD PUSH2 0x1DD SWAP2 SWAP1 PUSH2 0xFEF JUMP JUMPDEST PUSH1 0x40 MLOAD DUP1 SWAP2 SUB SWAP1 RETURN JUMPDEST CALLVALUE DUP1 ISZERO PUSH2 0x1F1 JUMPI PUSH0 PUSH0 REVERT JUMPDEST POP PUSH2 0x1FA PUSH2 0x4DD JUMP JUMPDEST PUSH1 0x40 MLOAD PUSH2 0x207 SWAP2 SWAP1 PUSH2 0x11A8 JUMP JUMPDEST PUSH1 0x40 MLOAD DUP1 SWAP2 SUB SWAP1 RETURN JUMPDEST CALLVALUE DUP1 ISZERO PUSH2 0x21B JUMPI PUSH0 PUSH0 REVERT JUMPDEST POP PUSH2 0x224 PUSH2 0x5B1 JUMP JUMPDEST STOP JUMPDEST CALLVALUE DUP1 ISZERO PUSH2 0x231 JUMPI PUSH0 PUSH0 REVERT JUMPDEST POP PUSH2 0x24C PUSH1 0x4 DUP1 CALLDATASIZE SUB DUP2 ADD SWAP1 PUSH2 0x247 SWAP2 SWAP1 PUSH2 0xF90 JUMP JUMPDEST PUSH2 0x758 JUMP JUMPDEST PUSH1 0x40 MLOAD PUSH2 0x259 SWAP2 SWAP1 PUSH2 0xFEF JUMP JUMPDEST PUSH1 0x40 MLOAD DUP1 SWAP2 SUB SWAP1 RETURN JUMPDEST CALLVALUE DUP1 ISZERO PUSH2 0x26D JUMPI PUSH0 PUSH0 REVERT JUMPDEST POP PUSH2 0x288 PUSH1 0x4 DUP1 CALLDATASIZE SUB DUP2 ADD SWAP1 PUSH2 0x283 SWAP2 SWAP1 PUSH2 0x11F2 JUMP JUMPDEST PUSH2 0x785 JUMP JUMPDEST STOP JUMPDEST CALLVALUE DUP1 ISZERO PUSH2 0x295 JUMPI PUSH0 PUSH0 REVERT JUMPDEST POP PUSH2 0x2B0 PUSH1 0x4 DUP1 CALLDATASIZE SUB DUP2 ADD SWAP1 PUSH2 0x2AB SWAP2 SWAP1 PUSH2 0x11F2 JUMP JUMPDEST PUSH2 0x920 JUMP JUMPDEST PUSH1 0x40 MLOAD PUSH2 0x2BD SWAP2 SWAP1 PUSH2 0xFEF JUMP JUMPDEST PUSH1 0x40 MLOAD DUP1 SWAP2 SUB SWAP1 RETURN JUMPDEST CALLVALUE DUP1 ISZERO PUSH2 0x2D1 JUMPI PUSH0 PUSH0 REVERT JUMPDEST POP PUSH2 0x2DA PUSH2 0x9B8 JUMP JUMPDEST PUSH1 0x40 MLOAD PUSH2 0x2E7 SWAP2 SWAP1 PUSH2 0xFEF JUMP JUMPDEST PUSH1 0x40 MLOAD DUP1 SWAP2 SUB SWAP1 RETURN JUMPDEST CALLVALUE DUP1 ISZERO PUSH2 0x2FB JUMPI PUSH0 PUSH0 REVERT JUMPDEST POP PUSH2 0x304 PUSH2 0x9BF JUMP JUMPDEST PUSH1 0x40 MLOAD PUSH2 0x311 SWAP2 SWAP1 PUSH2 0x125B JUMP JUMPDEST PUSH1 0x40 MLOAD DUP1 SWAP2 SUB SWAP1 RETURN JUMPDEST CALLVALUE DUP1 ISZERO PUSH2 0x325 JUMPI PUSH0 PUSH0 REVERT JUMPDEST POP PUSH2 0x340 PUSH1 0x4 DUP1 CALLDATASIZE SUB DUP2 ADD SWAP1 PUSH2 0x33B SWAP2 SWAP1 PUSH2 0x1274 JUMP JUMPDEST PUSH2 0x9E3 JUMP JUMPDEST PUSH1 0x40 MLOAD PUSH2 0x34D SWAP2 SWAP1 PUSH2 0x12E7 JUMP JUMPDEST PUSH1 0x40 MLOAD DUP1 SWAP2 SUB SWAP1 RETURN JUMPDEST PUSH2 0x370 PUSH1 0x4 DUP1 CALLDATASIZE SUB DUP2 ADD SWAP1 PUSH2 0x36B SWAP2 SWAP1 PUSH2 0x11F2 JUMP JUMPDEST PUSH2 0xA89 JUMP JUMPDEST STOP JUMPDEST PUSH2 0x37A PUSH2 0xC1E JUMP JUMPDEST STOP JUMPDEST CALLVALUE DUP1 ISZERO PUSH2 0x387 JUMPI PUSH0 PUSH0 REVERT JUMPDEST POP PUSH2 0x390 PUSH2 0xCFF JUMP JUMPDEST PUSH1 0x40 MLOAD PUSH2 0x39D SWAP2 SWAP1 PUSH2 0xFEF JUMP JUMPDEST PUSH1 0x40 MLOAD DUP1 SWAP2 SUB SWAP1 RETURN JUMPDEST CALLVALUE DUP1 ISZERO PUSH2 0x3B1 JUMPI PUSH0 PUSH0 REVERT JUMPDEST POP PUSH2 0x3CC PUSH1 0x4 DUP1 CALLDATASIZE SUB DUP2 ADD SWAP1 PUSH2 0x3C7 SWAP2 SWAP1 PUSH2 0x1062 JUMP JUMPDEST PUSH2 0xD05 JUMP JUMPDEST STOP JUMPDEST PUSH1 0x5 DUP2 DUP1 MLOAD PUSH1 0x20 DUP2 ADD DUP3 ADD DUP1 MLOAD DUP5 DUP3 MSTORE PUSH1 0x20 DUP4 ADD PUSH1 0x20 DUP6 ADD KECCAK256 DUP2 DUP4 MSTORE DUP1 SWAP6 POP POP POP POP POP POP PUSH0 SWAP2 POP SWAP1 POP SLOAD DUP2 JUMP JUMPDEST PUSH1 0x4 PUSH1 0x20 MSTORE DUP1 PUSH0 MSTORE PUSH1 0x40 PUSH0 KECCAK256 PUSH0 SWAP2 POP SWAP1 POP SLOAD DUP2 JUMP JUMPDEST PUSH0 PUSH0 PUSH1 0x1 DUP4 PUSH1 0x40 MLOAD PUSH2 0x422 SWAP2 SWAP1 PUSH2 0x1341 JUMP JUMPDEST SWAP1 DUP2 MSTORE PUSH1 0x20 ADD PUSH1 0x40 MLOAD DUP1 SWAP2 SUB SWAP1 KECCAK256 SLOAD GT PUSH2 0x471 JUMPI PUSH1 0x40 MLOAD PUSH32 0x8C379A000000000000000000000000000000000000000000000000000000000 DUP2 MSTORE PUSH1 0x4 ADD PUSH2 0x468 SWAP1 PUSH2 0x13A1 JUMP JUMPDEST PUSH1 0x40 MLOAD DUP1 SWAP2 SUB SWAP1 REVERT JUMPDEST PUSH1 0x1 DUP3 PUSH1 0x40 MLOAD PUSH2 0x481 SWAP2 SWAP1 PUSH2 0x1341 JUMP JUMPDEST SWAP1 DUP2 MSTORE PUSH1 0x20 ADD PUSH1 0x40 MLOAD DUP1 SWAP2 SUB SWAP1 KECCAK256 SLOAD SWAP1 POP SWAP2 SWAP1 POP JUMP JUMPDEST PUSH0 PUSH1 0x4 PUSH0 DUP4 PUSH20 0xFFFFFFFFFFFFFFFFFFFFFFFFFFFFFFFFFFFFFFFF AND PUSH20 0xFFFFFFFFFFFFFFFFFFFFFFFFFFFFFFFFFFFFFFFF AND DUP2 MSTORE PUSH1 0x20 ADD SWAP1 DUP2 MSTORE PUSH1 0x20 ADD PUSH0 KECCAK256 SLOAD SWAP1 POP SWAP2 SWAP1 POP JUMP JUMPDEST PUSH1 0x60 PUSH1 0x2 DUP1 SLOAD DUP1 PUSH1 0x20 MUL PUSH1 0x20 ADD PUSH1 0x40 MLOAD SWAP1 DUP2 ADD PUSH1 0x40 MSTORE DUP1 SWAP3 SWAP2 SWAP1 DUP2 DUP2 MSTORE PUSH1 0x20 ADD PUSH0 SWAP1 JUMPDEST DUP3 DUP3 LT ISZERO PUSH2 0x5A8 JUMPI DUP4 DUP3 SWAP1 PUSH0 MSTORE PUSH1 0x20 PUSH0 KECCAK256 ADD DUP1 SLOAD PUSH2 0x51D SWAP1 PUSH2 0x13EC JUMP JUMPDEST DUP1 PUSH1 0x1F ADD PUSH1 0x20 DUP1 SWAP2 DIV MUL PUSH1 0x20 ADD PUSH1 0x40 MLOAD SWAP1 DUP2 ADD PUSH1 0x40 MSTORE DUP1 SWAP3 SWAP2 SWAP1 DUP2 DUP2 MSTORE PUSH1 0x20 ADD DUP3 DUP1 SLOAD PUSH2 0x549 SWAP1 PUSH2 0x13EC JUMP JUMPDEST DUP1 ISZERO PUSH2 0x594 JUMPI DUP1 PUSH1 0x1F LT PUSH2 0x56B JUMPI PUSH2 0x100 DUP1 DUP4 SLOAD DIV MUL DUP4 MSTORE SWAP2 PUSH1 0x20 ADD SWAP2 PUSH2 0x594 JUMP JUMPDEST DUP3 ADD SWAP2 SWAP1 PUSH0 MSTORE PUSH1 0x20 PUSH0 KECCAK256 SWAP1 JUMPDEST DUP2 SLOAD DUP2 MSTORE SWAP1 PUSH1 0x1 ADD SWAP1 PUSH1 0x20 ADD DUP1 DUP4 GT PUSH2 0x577 JUMPI DUP3 SWAP1 SUB PUSH1 0x1F AND DUP3 ADD SWAP2 JUMPDEST POP POP POP POP POP DUP2 MSTORE PUSH1 0x20 ADD SWAP1 PUSH1 0x1 ADD SWAP1 PUSH2 0x500 JUMP JUMPDEST POP POP POP POP SWAP1 POP SWAP1 JUMP JUMPDEST PUSH0 PUSH0 SWAP1 SLOAD SWAP1 PUSH2 0x100 EXP SWAP1 DIV PUSH20 0xFFFFFFFFFFFFFFFFFFFFFFFFFFFFFFFFFFFFFFFF AND PUSH20 0xFFFFFFFFFFFFFFFFFFFFFFFFFFFFFFFFFFFFFFFF AND CALLER PUSH20 0xFFFFFFFFFFFFFFFFFFFFFFFFFFFFFFFFFFFFFFFF AND EQ PUSH2 0x63F JUMPI PUSH1 0x40 MLOAD PUSH32 0x8C379A000000000000000000000000000000000000000000000000000000000 DUP2 MSTORE PUSH1 0x4 ADD PUSH2 0x636 SWAP1 PUSH2 0x148C JUMP JUMPDEST PUSH1 0x40 MLOAD DUP1 SWAP2 SUB SWAP1 REVERT JUMPDEST PUSH0 SELFBALANCE SWAP1 POP PUSH0 DUP2 GT PUSH2 0x685 JUMPI PUSH1 0x40 MLOAD PUSH32 0x8C379A000000000000000000000000000000000000000000000000000000000 DUP2 MSTORE PUSH1 0x4 ADD PUSH2 0x67C SWAP1 PUSH2 0x14F4 JUMP JUMPDEST PUSH1 0x40 MLOAD DUP1 SWAP2 SUB SWAP1 REVERT JUMPDEST PUSH0 PUSH0 PUSH0 SWAP1 SLOAD SWAP1 PUSH2 0x100 EXP SWAP1 DIV PUSH20 0xFFFFFFFFFFFFFFFFFFFFFFFFFFFFFFFFFFFFFFFF AND PUSH20 0xFFFFFFFFFFFFFFFFFFFFFFFFFFFFFFFFFFFFFFFF AND DUP3 PUSH1 0x40 MLOAD PUSH2 0x6CA SWAP1 PUSH2 0x153F JUMP JUMPDEST PUSH0 PUSH1 0x40 MLOAD DUP1 DUP4 SUB DUP2 DUP6 DUP8 GAS CALL SWAP3 POP POP POP RETURNDATASIZE DUP1 PUSH0 DUP2 EQ PUSH2 0x704 JUMPI PUSH1 0x40 MLOAD SWAP2 POP PUSH1 0x1F NOT PUSH1 0x3F RETURNDATASIZE ADD AND DUP3 ADD PUSH1 0x40 MSTORE RETURNDATASIZE DUP3 MSTORE RETURNDATASIZE PUSH0 PUSH1 0x20 DUP5 ADD RETURNDATACOPY PUSH2 0x709 JUMP JUMPDEST PUSH1 0x60 SWAP2 POP JUMPDEST POP POP SWAP1 POP DUP1 PUSH2 0x74D JUMPI PUSH1 0x40 MLOAD PUSH32 0x8C379A000000000000000000000000000000000000000000000000000000000 DUP2 MSTORE PUSH1 0x4 ADD PUSH2 0x744 SWAP1 PUSH2 0x159D JUMP JUMPDEST PUSH1 0x40 MLOAD DUP1 SWAP2 SUB SWAP1 REVERT JUMPDEST PUSH0 PUSH1 0x3 DUP2 SWAP1 SSTORE POP POP POP JUMP JUMPDEST PUSH1 0x1 DUP2 DUP1 MLOAD PUSH1 0x20 DUP2 ADD DUP3 ADD DUP1 MLOAD DUP5 DUP3 MSTORE PUSH1 0x20 DUP4 ADD PUSH1 0x20 DUP6 ADD KECCAK256 DUP2 DUP4 MSTORE DUP1 SWAP6 POP POP POP POP POP POP PUSH0 SWAP2 POP SWAP1 POP SLOAD DUP2 JUMP JUMPDEST PUSH0 PUSH0 SWAP1 SLOAD SWAP1 PUSH2 0x100 EXP SWAP1 DIV PUSH20 0xFFFFFFFFFFFFFFFFFFFFFFFFFFFFFFFFFFFFFFFF AND PUSH20 0xFFFFFFFFFFFFFFFFFFFFFFFFFFFFFFFFFFFFFFFF AND CALLER PUSH20 0xFFFFFFFFFFFFFFFFFFFFFFFFFFFFFFFFFFFFFFFF AND EQ PUSH2 0x813 JUMPI PUSH1 0x40 MLOAD PUSH32 0x8C379A000000000000000000000000000000000000000000000000000000000 DUP2 MSTORE PUSH1 0x4 ADD PUSH2 0x80A SWAP1 PUSH2 0x148C JUMP JUMPDEST PUSH1 0x40 MLOAD DUP1 SWAP2 SUB SWAP1 REVERT JUMPDEST PUSH0 DUP2 GT PUSH2 0x855 JUMPI PUSH1 0x40 MLOAD PUSH32 0x8C379A000000000000000000000000000000000000000000000000000000000 DUP2 MSTORE PUSH1 0x4 ADD PUSH2 0x84C SWAP1 PUSH2 0x162B JUMP JUMPDEST PUSH1 0x40 MLOAD DUP1 SWAP2 SUB SWAP1 REVERT JUMPDEST PUSH0 PUSH0 SWAP1 POP PUSH0 PUSH0 SWAP1 POP JUMPDEST PUSH1 0x2 DUP1 SLOAD SWAP1 POP DUP2 LT ISZERO PUSH2 0x8BF JUMPI DUP4 DUP1 MLOAD SWAP1 PUSH1 0x20 ADD KECCAK256 PUSH1 0x2 DUP3 DUP2 SLOAD DUP2 LT PUSH2 0x887 JUMPI PUSH2 0x886 PUSH2 0x1649 JUMP JUMPDEST JUMPDEST SWAP1 PUSH0 MSTORE PUSH1 0x20 PUSH0 KECCAK256 ADD PUSH1 0x40 MLOAD PUSH2 0x89C SWAP2 SWAP1 PUSH2 0x1708 JUMP JUMPDEST PUSH1 0x40 MLOAD DUP1 SWAP2 SUB SWAP1 KECCAK256 SUB PUSH2 0x8B2 JUMPI PUSH1 0x1 SWAP2 POP PUSH2 0x8BF JUMP JUMPDEST DUP1 DUP1 PUSH1 0x1 ADD SWAP2 POP POP PUSH2 0x85E JUMP JUMPDEST POP DUP1 PUSH2 0x8F8 JUMPI PUSH1 0x2 DUP4 SWAP1 DUP1 PUSH1 0x1 DUP2 SLOAD ADD DUP1 DUP3 SSTORE DUP1 SWAP2 POP POP PUSH1 0x1 SWAP1 SUB SWAP1 PUSH0 MSTORE PUSH1 0x20 PUSH0 KECCAK256 ADD PUSH0 SWAP1 SWAP2 SWAP1 SWAP2 SWAP1 SWAP2 POP SWAP1 DUP2 PUSH2 0x8F6 SWAP2 SWAP1 PUSH2 0x18BE JUMP JUMPDEST POP JUMPDEST DUP2 PUSH1 0x1 DUP5 PUSH1 0x40 MLOAD PUSH2 0x909 SWAP2 SWAP1 PUSH2 0x1341 JUMP JUMPDEST SWAP1 DUP2 MSTORE PUSH1 0x20 ADD PUSH1 0x40 MLOAD DUP1 SWAP2 SUB SWAP1 KECCAK256 DUP2 SWAP1 SSTORE POP POP POP POP JUMP JUMPDEST PUSH0 PUSH0 PUSH1 0x1 DUP5 PUSH1 0x40 MLOAD PUSH2 0x932 SWAP2 SWAP1 PUSH2 0x1341 JUMP JUMPDEST SWAP1 DUP2 MSTORE PUSH1 0x20 ADD PUSH1 0x40 MLOAD DUP1 SWAP2 SUB SWAP1 KECCAK256 SLOAD GT PUSH2 0x981 JUMPI PUSH1 0x40 MLOAD PUSH32 0x8C379A000000000000000000000000000000000000000000000000000000000 DUP2 MSTORE PUSH1 0x4 ADD PUSH2 0x978 SWAP1 PUSH2 0x13A1 JUMP JUMPDEST PUSH1 0x40 MLOAD DUP1 SWAP2 SUB SWAP1 REVERT JUMPDEST PUSH0 PUSH1 0x1 DUP5 PUSH1 0x40 MLOAD PUSH2 0x992 SWAP2 SWAP1 PUSH2 0x1341 JUMP JUMPDEST SWAP1 DUP2 MSTORE PUSH1 0x20 ADD PUSH1 0x40 MLOAD DUP1 SWAP2 SUB SWAP1 KECCAK256 SLOAD DUP4 PUSH2 0x9AC SWAP2 SWAP1 PUSH2 0x19BA JUMP JUMPDEST SWAP1 POP DUP1 SWAP2 POP POP SWAP3 SWAP2 POP POP JUMP JUMPDEST PUSH0 SELFBALANCE SWAP1 POP SWAP1 JUMP JUMPDEST PUSH0 PUSH0 SWAP1 SLOAD SWAP1 PUSH2 0x100 EXP SWAP1 DIV PUSH20 0xFFFFFFFFFFFFFFFFFFFFFFFFFFFFFFFFFFFFFFFF AND DUP2 JUMP JUMPDEST PUSH1 0x2 DUP2 DUP2 SLOAD DUP2 LT PUSH2 0x9F2 JUMPI PUSH0 DUP1 REVERT JUMPDEST SWAP1 PUSH0 MSTORE PUSH1 0x20 PUSH0 KECCAK256 ADD PUSH0 SWAP2 POP SWAP1 POP DUP1 SLOAD PUSH2 0xA0A SWAP1 PUSH2 0x13EC JUMP JUMPDEST DUP1 PUSH1 0x1F ADD PUSH1 0x20 DUP1 SWAP2 DIV MUL PUSH1 0x20 ADD PUSH1 0x40 MLOAD SWAP1 DUP2 ADD PUSH1 0x40 MSTORE DUP1 SWAP3 SWAP2 SWAP1 DUP2 DUP2 MSTORE PUSH1 0x20 ADD DUP3 DUP1 SLOAD PUSH2 0xA36 SWAP1 PUSH2 0x13EC JUMP JUMPDEST DUP1 ISZERO PUSH2 0xA81 JUMPI DUP1 PUSH1 0x1F LT PUSH2 0xA58 JUMPI PUSH2 0x100 DUP1 DUP4 SLOAD DIV MUL DUP4 MSTORE SWAP2 PUSH1 0x20 ADD SWAP2 PUSH2 0xA81 JUMP JUMPDEST DUP3 ADD SWAP2 SWAP1 PUSH0 MSTORE PUSH1 0x20 PUSH0 KECCAK256 SWAP1 JUMPDEST DUP2 SLOAD DUP2 MSTORE SWAP1 PUSH1 0x1 ADD SWAP1 PUSH1 0x20 ADD DUP1 DUP4 GT PUSH2 0xA64 JUMPI DUP3 SWAP1 SUB PUSH1 0x1F AND DUP3 ADD SWAP2 JUMPDEST POP POP POP POP POP DUP2 JUMP JUMPDEST PUSH0 PUSH1 0x1 DUP4 PUSH1 0x40 MLOAD PUSH2 0xA9A SWAP2 SWAP1 PUSH2 0x1341 JUMP JUMPDEST SWAP1 DUP2 MSTORE PUSH1 0x20 ADD PUSH1 0x40 MLOAD DUP1 SWAP2 SUB SWAP1 KECCAK256 SLOAD GT PUSH2 0xAE9 JUMPI PUSH1 0x40 MLOAD PUSH32 0x8C379A000000000000000000000000000000000000000000000000000000000 DUP2 MSTORE PUSH1 0x4 ADD PUSH2 0xAE0 SWAP1 PUSH2 0x13A1 JUMP JUMPDEST PUSH1 0x40 MLOAD DUP1 SWAP2 SUB SWAP1 REVERT JUMPDEST PUSH0 DUP2 GT PUSH2 0xB2B JUMPI PUSH1 0x40 MLOAD PUSH32 0x8C379A000000000000000000000000000000000000000000000000000000000 DUP2 MSTORE PUSH1 0x4 ADD PUSH2 0xB22 SWAP1 PUSH2 0x1A45 JUMP JUMPDEST PUSH1 0x40 MLOAD DUP1 SWAP2 SUB SWAP1 REVERT JUMPDEST PUSH0 PUSH2 0xB36 DUP4 DUP4 PUSH2 0x920 JUMP JUMPDEST SWAP1 POP DUP1 CALLVALUE EQ PUSH2 0xB7A JUMPI PUSH1 0x40 MLOAD PUSH32 0x8C379A000000000000000000000000000000000000000000000000000000000 DUP2 MSTORE PUSH1 0x4 ADD PUSH2 0xB71 SWAP1 PUSH2 0x1AD3 JUMP JUMPDEST PUSH1 0x40 MLOAD DUP1 SWAP2 SUB SWAP1 REVERT JUMPDEST CALLVALUE PUSH1 0x4 PUSH0 CALLER PUSH20 0xFFFFFFFFFFFFFFFFFFFFFFFFFFFFFFFFFFFFFFFF AND PUSH20 0xFFFFFFFFFFFFFFFFFFFFFFFFFFFFFFFFFFFFFFFF AND DUP2 MSTORE PUSH1 0x20 ADD SWAP1 DUP2 MSTORE PUSH1 0x20 ADD PUSH0 KECCAK256 PUSH0 DUP3 DUP3 SLOAD PUSH2 0xBC6 SWAP2 SWAP1 PUSH2 0x1AF1 JUMP JUMPDEST SWAP3 POP POP DUP2 SWAP1 SSTORE POP CALLVALUE PUSH1 0x3 PUSH0 DUP3 DUP3 SLOAD PUSH2 0xBDE SWAP2 SWAP1 PUSH2 0x1AF1 JUMP JUMPDEST SWAP3 POP POP DUP2 SWAP1 SSTORE POP DUP2 PUSH1 0x5 DUP5 PUSH1 0x40 MLOAD PUSH2 0xBF6 SWAP2 SWAP1 PUSH2 0x1341 JUMP JUMPDEST SWAP1 DUP2 MSTORE PUSH1 0x20 ADD PUSH1 0x40 MLOAD DUP1 SWAP2 SUB SWAP1 KECCAK256 PUSH0 DUP3 DUP3 SLOAD PUSH2 0xC12 SWAP2 SWAP1 PUSH2 0x1AF1 JUMP JUMPDEST SWAP3 POP POP DUP2 SWAP1 SSTORE POP POP POP POP JUMP JUMPDEST PUSH0 CALLVALUE GT PUSH2 0xC60 JUMPI PUSH1 0x40 MLOAD PUSH32 0x8C379A000000000000000000000000000000000000000000000000000000000 DUP2 MSTORE PUSH1 0x4 ADD PUSH2 0xC57 SWAP1 PUSH2 0x1B94 JUMP JUMPDEST PUSH1 0x40 MLOAD DUP1 SWAP2 SUB SWAP1 REVERT JUMPDEST CALLVALUE PUSH1 0x4 PUSH0 CALLER PUSH20 0xFFFFFFFFFFFFFFFFFFFFFFFFFFFFFFFFFFFFFFFF AND PUSH20 0xFFFFFFFFFFFFFFFFFFFFFFFFFFFFFFFFFFFFFFFF AND DUP2 MSTORE PUSH1 0x20 ADD SWAP1 DUP2 MSTORE PUSH1 0x20 ADD PUSH0 KECCAK256 PUSH0 DUP3 DUP3 SLOAD PUSH2 0xCAC SWAP2 SWAP1 PUSH2 0x1AF1 JUMP JUMPDEST SWAP3 POP POP DUP2 SWAP1 SSTORE POP CALLVALUE PUSH1 0x3 PUSH0 DUP3 DUP3 SLOAD PUSH2 0xCC4 SWAP2 SWAP1 PUSH2 0x1AF1 JUMP JUMPDEST SWAP3 POP POP DUP2 SWAP1 SSTORE POP CALLVALUE PUSH1 0x5 PUSH1 0x40 MLOAD PUSH2 0xCDA SWAP1 PUSH2 0x1BFC JUMP JUMPDEST SWAP1 DUP2 MSTORE PUSH1 0x20 ADD PUSH1 0x40 MLOAD DUP1 SWAP2 SUB SWAP1 KECCAK256 PUSH0 DUP3 DUP3 SLOAD PUSH2 0xCF6 SWAP2 SWAP1 PUSH2 0x1AF1 JUMP JUMPDEST SWAP3 POP POP DUP2 SWAP1 SSTORE POP JUMP JUMPDEST PUSH1 0x3 SLOAD DUP2 JUMP JUMPDEST PUSH0 PUSH0 SWAP1 SLOAD SWAP1 PUSH2 0x100 EXP SWAP1 DIV PUSH20 0xFFFFFFFFFFFFFFFFFFFFFFFFFFFFFFFFFFFFFFFF AND PUSH20 0xFFFFFFFFFFFFFFFFFFFFFFFFFFFFFFFFFFFFFFFF AND CALLER PUSH20 0xFFFFFFFFFFFFFFFFFFFFFFFFFFFFFFFFFFFFFFFF AND EQ PUSH2 0xD93 JUMPI PUSH1 0x40 MLOAD PUSH32 0x8C379A000000000000000000000000000000000000000000000000000000000 DUP2 MSTORE PUSH1 0x4 ADD PUSH2 0xD8A SWAP1 PUSH2 0x148C JUMP JUMPDEST PUSH1 0x40 MLOAD DUP1 SWAP2 SUB SWAP1 REVERT JUMPDEST PUSH0 PUSH20 0xFFFFFFFFFFFFFFFFFFFFFFFFFFFFFFFFFFFFFFFF AND DUP2 PUSH20 0xFFFFFFFFFFFFFFFFFFFFFFFFFFFFFFFFFFFFFFFF AND SUB PUSH2 0xE01 JUMPI PUSH1 0x40 MLOAD PUSH32 0x8C379A000000000000000000000000000000000000000000000000000000000 DUP2 MSTORE PUSH1 0x4 ADD PUSH2 0xDF8 SWAP1 PUSH2 0x1C5A JUMP JUMPDEST PUSH1 0x40 MLOAD DUP1 SWAP2 SUB SWAP1 REVERT JUMPDEST DUP1 PUSH0 PUSH0 PUSH2 0x100 EXP DUP2 SLOAD DUP2 PUSH20 0xFFFFFFFFFFFFFFFFFFFFFFFFFFFFFFFFFFFFFFFF MUL NOT AND SWAP1 DUP4 PUSH20 0xFFFFFFFFFFFFFFFFFFFFFFFFFFFFFFFFFFFFFFFF AND MUL OR SWAP1 SSTORE POP POP JUMP JUMPDEST PUSH0 PUSH1 0x40 MLOAD SWAP1 POP SWAP1 JUMP JUMPDEST PUSH0 PUSH0 REVERT JUMPDEST PUSH0 PUSH0 REVERT JUMPDEST PUSH0 PUSH0 REVERT JUMPDEST PUSH0 PUSH0 REVERT JUMPDEST PUSH0 PUSH1 0x1F NOT PUSH1 0x1F DUP4 ADD AND SWAP1 POP SWAP2 SWAP1 POP JUMP JUMPDEST PUSH32 0x4E487B7100000000000000000000000000000000000000000000000000000000 PUSH0 MSTORE PUSH1 0x41 PUSH1 0x4 MSTORE PUSH1 0x24 PUSH0 REVERT JUMPDEST PUSH2 0xEA2 DUP3 PUSH2 0xE5C JUMP JUMPDEST DUP2 ADD DUP2 DUP2 LT PUSH8 0xFFFFFFFFFFFFFFFF DUP3 GT OR ISZERO PUSH2 0xEC1 JUMPI PUSH2 0xEC0 PUSH2 0xE6C JUMP JUMPDEST JUMPDEST DUP1 PUSH1 0x40 MSTORE POP POP POP JUMP JUMPDEST PUSH0 PUSH2 0xED3 PUSH2 0xE43 JUMP JUMPDEST SWAP1 POP PUSH2 0xEDF DUP3 DUP3 PUSH2 0xE99 JUMP JUMPDEST SWAP2 SWAP1 POP JUMP JUMPDEST PUSH0 PUSH8 0xFFFFFFFFFFFFFFFF DUP3 GT ISZERO PUSH2 0xEFE JUMPI PUSH2 0xEFD PUSH2 0xE6C JUMP JUMPDEST JUMPDEST PUSH2 0xF07 DUP3 PUSH2 0xE5C JUMP JUMPDEST SWAP1 POP PUSH1 0x20 DUP2 ADD SWAP1 POP SWAP2 SWAP1 POP JUMP JUMPDEST DUP3 DUP2 DUP4 CALLDATACOPY PUSH0 DUP4 DUP4 ADD MSTORE POP POP POP JUMP JUMPDEST PUSH0 PUSH2 0xF34 PUSH2 0xF2F DUP5 PUSH2 0xEE4 JUMP JUMPDEST PUSH2 0xECA JUMP JUMPDEST SWAP1 POP DUP3 DUP2 MSTORE PUSH1 0x20 DUP2 ADD DUP5 DUP5 DUP5 ADD GT ISZERO PUSH2 0xF50 JUMPI PUSH2 0xF4F PUSH2 0xE58 JUMP JUMPDEST JUMPDEST PUSH2 0xF5B DUP5 DUP3 DUP6 PUSH2 0xF14 JUMP JUMPDEST POP SWAP4 SWAP3 POP POP POP JUMP JUMPDEST PUSH0 DUP3 PUSH1 0x1F DUP4 ADD SLT PUSH2 0xF77 JUMPI PUSH2 0xF76 PUSH2 0xE54 JUMP JUMPDEST JUMPDEST DUP2 CALLDATALOAD PUSH2 0xF87 DUP5 DUP3 PUSH1 0x20 DUP7 ADD PUSH2 0xF22 JUMP JUMPDEST SWAP2 POP POP SWAP3 SWAP2 POP POP JUMP JUMPDEST PUSH0 PUSH1 0x20 DUP3 DUP5 SUB SLT ISZERO PUSH2 0xFA5 JUMPI PUSH2 0xFA4 PUSH2 0xE4C JUMP JUMPDEST JUMPDEST PUSH0 DUP3 ADD CALLDATALOAD PUSH8 0xFFFFFFFFFFFFFFFF DUP2 GT ISZERO PUSH2 0xFC2 JUMPI PUSH2 0xFC1 PUSH2 0xE50 JUMP JUMPDEST JUMPDEST PUSH2 0xFCE DUP5 DUP3 DUP6 ADD PUSH2 0xF63 JUMP JUMPDEST SWAP2 POP POP SWAP3 SWAP2 POP POP JUMP JUMPDEST PUSH0 DUP2 SWAP1 POP SWAP2 SWAP1 POP JUMP JUMPDEST PUSH2 0xFE9 DUP2 PUSH2 0xFD7 JUMP JUMPDEST DUP3 MSTORE POP POP JUMP JUMPDEST PUSH0 PUSH1 0x20 DUP3 ADD SWAP1 POP PUSH2 0x1002 PUSH0 DUP4 ADD DUP5 PUSH2 0xFE0 JUMP JUMPDEST SWAP3 SWAP2 POP POP JUMP JUMPDEST PUSH0 PUSH20 0xFFFFFFFFFFFFFFFFFFFFFFFFFFFFFFFFFFFFFFFF DUP3 AND SWAP1 POP SWAP2 SWAP1 POP JUMP JUMPDEST PUSH0 PUSH2 0x1031 DUP3 PUSH2 0x1008 JUMP JUMPDEST SWAP1 POP SWAP2 SWAP1 POP JUMP JUMPDEST PUSH2 0x1041 DUP2 PUSH2 0x1027 JUMP JUMPDEST DUP2 EQ PUSH2 0x104B JUMPI PUSH0 PUSH0 REVERT JUMPDEST POP JUMP JUMPDEST PUSH0 DUP2 CALLDATALOAD SWAP1 POP PUSH2 0x105C DUP2 PUSH2 0x1038 JUMP JUMPDEST SWAP3 SWAP2 POP POP JUMP JUMPDEST PUSH0 PUSH1 0x20 DUP3 DUP5 SUB SLT ISZERO PUSH2 0x1077 JUMPI PUSH2 0x1076 PUSH2 0xE4C JUMP JUMPDEST JUMPDEST PUSH0 PUSH2 0x1084 DUP5 DUP3 DUP6 ADD PUSH2 0x104E JUMP JUMPDEST SWAP2 POP POP SWAP3 SWAP2 POP POP JUMP JUMPDEST PUSH0 DUP2 MLOAD SWAP1 POP SWAP2 SWAP1 POP JUMP JUMPDEST PUSH0 DUP3 DUP3 MSTORE PUSH1 0x20 DUP3 ADD SWAP1 POP SWAP3 SWAP2 POP POP JUMP JUMPDEST PUSH0 DUP2 SWAP1 POP PUSH1 0x20 DUP3 ADD SWAP1 POP SWAP2 SWAP1 POP JUMP JUMPDEST PUSH0 DUP2 MLOAD SWAP1 POP SWAP2 SWAP1 POP JUMP JUMPDEST PUSH0 DUP3 DUP3 MSTORE PUSH1 0x20 DUP3 ADD SWAP1 POP SWAP3 SWAP2 POP POP JUMP JUMPDEST DUP3 DUP2 DUP4 MCOPY PUSH0 DUP4 DUP4 ADD MSTORE POP POP POP JUMP JUMPDEST PUSH0 PUSH2 0x10E8 DUP3 PUSH2 0x10B6 JUMP JUMPDEST PUSH2 0x10F2 DUP2 DUP6 PUSH2 0x10C0 JUMP JUMPDEST SWAP4 POP PUSH2 0x1102 DUP2 DUP6 PUSH1 0x20 DUP7 ADD PUSH2 0x10D0 JUMP JUMPDEST PUSH2 0x110B DUP2 PUSH2 0xE5C JUMP JUMPDEST DUP5 ADD SWAP2 POP POP SWAP3 SWAP2 POP POP JUMP JUMPDEST PUSH0 PUSH2 0x1121 DUP4 DUP4 PUSH2 0x10DE JUMP JUMPDEST SWAP1 POP SWAP3 SWAP2 POP POP JUMP JUMPDEST PUSH0 PUSH1 0x20 DUP3 ADD SWAP1 POP SWAP2 SWAP1 POP JUMP JUMPDEST PUSH0 PUSH2 0x113F DUP3 PUSH2 0x108D JUMP JUMPDEST PUSH2 0x1149 DUP2 DUP6 PUSH2 0x1097 JUMP JUMPDEST SWAP4 POP DUP4 PUSH1 0x20 DUP3 MUL DUP6 ADD PUSH2 0x115B DUP6 PUSH2 0x10A7 JUMP JUMPDEST DUP1 PUSH0 JUMPDEST DUP6 DUP2 LT ISZERO PUSH2 0x1196 JUMPI DUP5 DUP5 SUB DUP10 MSTORE DUP2 MLOAD PUSH2 0x1177 DUP6 DUP3 PUSH2 0x1116 JUMP JUMPDEST SWAP5 POP PUSH2 0x1182 DUP4 PUSH2 0x1129 JUMP JUMPDEST SWAP3 POP PUSH1 0x20 DUP11 ADD SWAP10 POP POP PUSH1 0x1 DUP2 ADD SWAP1 POP PUSH2 0x115E JUMP JUMPDEST POP DUP3 SWAP8 POP DUP8 SWAP6 POP POP POP POP POP POP SWAP3 SWAP2 POP POP JUMP JUMPDEST PUSH0 PUSH1 0x20 DUP3 ADD SWAP1 POP DUP2 DUP2 SUB PUSH0 DUP4 ADD MSTORE PUSH2 0x11C0 DUP2 DUP5 PUSH2 0x1135 JUMP JUMPDEST SWAP1 POP SWAP3 SWAP2 POP POP JUMP JUMPDEST PUSH2 0x11D1 DUP2 PUSH2 0xFD7 JUMP JUMPDEST DUP2 EQ PUSH2 0x11DB JUMPI PUSH0 PUSH0 REVERT JUMPDEST POP JUMP JUMPDEST PUSH0 DUP2 CALLDATALOAD SWAP1 POP PUSH2 0x11EC DUP2 PUSH2 0x11C8 JUMP JUMPDEST SWAP3 SWAP2 POP POP JUMP JUMPDEST PUSH0 PUSH0 PUSH1 0x40 DUP4 DUP6 SUB SLT ISZERO PUSH2 0x1208 JUMPI PUSH2 0x1207 PUSH2 0xE4C JUMP JUMPDEST JUMPDEST PUSH0 DUP4 ADD CALLDATALOAD PUSH8 0xFFFFFFFFFFFFFFFF DUP2 GT ISZERO PUSH2 0x1225 JUMPI PUSH2 0x1224 PUSH2 0xE50 JUMP JUMPDEST JUMPDEST PUSH2 0x1231 DUP6 DUP3 DUP7 ADD PUSH2 0xF63 JUMP JUMPDEST SWAP3 POP POP PUSH1 0x20 PUSH2 0x1242 DUP6 DUP3 DUP7 ADD PUSH2 0x11DE JUMP JUMPDEST SWAP2 POP POP SWAP3 POP SWAP3 SWAP1 POP JUMP JUMPDEST PUSH2 0x1255 DUP2 PUSH2 0x1027 JUMP JUMPDEST DUP3 MSTORE POP POP JUMP JUMPDEST PUSH0 PUSH1 0x20 DUP3 ADD SWAP1 POP PUSH2 0x126E PUSH0 DUP4 ADD DUP5 PUSH2 0x124C JUMP JUMPDEST SWAP3 SWAP2 POP POP JUMP JUMPDEST PUSH0 PUSH1 0x20 DUP3 DUP5 SUB SLT ISZERO PUSH2 0x1289 JUMPI PUSH2 0x1288 PUSH2 0xE4C JUMP JUMPDEST JUMPDEST PUSH0 PUSH2 0x1296 DUP5 DUP3 DUP6 ADD PUSH2 0x11DE JUMP JUMPDEST SWAP2 POP POP SWAP3 SWAP2 POP POP JUMP JUMPDEST PUSH0 DUP3 DUP3 MSTORE PUSH1 0x20 DUP3 ADD SWAP1 POP SWAP3 SWAP2 POP POP JUMP JUMPDEST PUSH0 PUSH2 0x12B9 DUP3 PUSH2 0x10B6 JUMP JUMPDEST PUSH2 0x12C3 DUP2 DUP6 PUSH2 0x129F JUMP JUMPDEST SWAP4 POP PUSH2 0x12D3 DUP2 DUP6 PUSH1 0x20 DUP7 ADD PUSH2 0x10D0 JUMP JUMPDEST PUSH2 0x12DC DUP2 PUSH2 0xE5C JUMP JUMPDEST DUP5 ADD SWAP2 POP POP SWAP3 SWAP2 POP POP JUMP JUMPDEST PUSH0 PUSH1 0x20 DUP3 ADD SWAP1 POP DUP2 DUP2 SUB PUSH0 DUP4 ADD MSTORE PUSH2 0x12FF DUP2 DUP5 PUSH2 0x12AF JUMP JUMPDEST SWAP1 POP SWAP3 SWAP2 POP POP JUMP JUMPDEST PUSH0 DUP2 SWAP1 POP SWAP3 SWAP2 POP POP JUMP JUMPDEST PUSH0 PUSH2 0x131B DUP3 PUSH2 0x10B6 JUMP JUMPDEST PUSH2 0x1325 DUP2 DUP6 PUSH2 0x1307 JUMP JUMPDEST SWAP4 POP PUSH2 0x1335 DUP2 DUP6 PUSH1 0x20 DUP7 ADD PUSH2 0x10D0 JUMP JUMPDEST DUP1 DUP5 ADD SWAP2 POP POP SWAP3 SWAP2 POP POP JUMP JUMPDEST PUSH0 PUSH2 0x134C DUP3 DUP5 PUSH2 0x1311 JUMP JUMPDEST SWAP2 POP DUP2 SWAP1 POP SWAP3 SWAP2 POP POP JUMP JUMPDEST PUSH32 0x43757272656E6379206E6F7420737570706F7274656400000000000000000000 PUSH0 DUP3 ADD MSTORE POP JUMP JUMPDEST PUSH0 PUSH2 0x138B PUSH1 0x16 DUP4 PUSH2 0x129F JUMP JUMPDEST SWAP2 POP PUSH2 0x1396 DUP3 PUSH2 0x1357 JUMP JUMPDEST PUSH1 0x20 DUP3 ADD SWAP1 POP SWAP2 SWAP1 POP JUMP JUMPDEST PUSH0 PUSH1 0x20 DUP3 ADD SWAP1 POP DUP2 DUP2 SUB PUSH0 DUP4 ADD MSTORE PUSH2 0x13B8 DUP2 PUSH2 0x137F JUMP JUMPDEST SWAP1 POP SWAP2 SWAP1 POP JUMP JUMPDEST PUSH32 0x4E487B7100000000000000000000000000000000000000000000000000000000 PUSH0 MSTORE PUSH1 0x22 PUSH1 0x4 MSTORE PUSH1 0x24 PUSH0 REVERT JUMPDEST PUSH0 PUSH1 0x2 DUP3 DIV SWAP1 POP PUSH1 0x1 DUP3 AND DUP1 PUSH2 0x1403 JUMPI PUSH1 0x7F DUP3 AND SWAP2 POP JUMPDEST PUSH1 0x20 DUP3 LT DUP2 SUB PUSH2 0x1416 JUMPI PUSH2 0x1415 PUSH2 0x13BF JUMP JUMPDEST JUMPDEST POP SWAP2 SWAP1 POP JUMP JUMPDEST PUSH32 0x4F6E6C79206F776E65722063616E20706572666F726D20746869732061637469 PUSH0 DUP3 ADD MSTORE PUSH32 0x6F6E000000000000000000000000000000000000000000000000000000000000 PUSH1 0x20 DUP3 ADD MSTORE POP JUMP JUMPDEST PUSH0 PUSH2 0x1476 PUSH1 0x22 DUP4 PUSH2 0x129F JUMP JUMPDEST SWAP2 POP PUSH2 0x1481 DUP3 PUSH2 0x141C JUMP JUMPDEST PUSH1 0x40 DUP3 ADD SWAP1 POP SWAP2 SWAP1 POP JUMP JUMPDEST PUSH0 PUSH1 0x20 DUP3 ADD SWAP1 POP DUP2 DUP2 SUB PUSH0 DUP4 ADD MSTORE PUSH2 0x14A3 DUP2 PUSH2 0x146A JUMP JUMPDEST SWAP1 POP SWAP2 SWAP1 POP JUMP JUMPDEST PUSH32 0x4E6F207469707320746F20776974686472617700000000000000000000000000 PUSH0 DUP3 ADD MSTORE POP JUMP JUMPDEST PUSH0 PUSH2 0x14DE PUSH1 0x13 DUP4 PUSH2 0x129F JUMP JUMPDEST SWAP2 POP PUSH2 0x14E9 DUP3 PUSH2 0x14AA JUMP JUMPDEST PUSH1 0x20 DUP3 ADD SWAP1 POP SWAP2 SWAP1 POP JUMP JUMPDEST PUSH0 PUSH1 0x20 DUP3 ADD SWAP1 POP DUP2 DUP2 SUB PUSH0 DUP4 ADD MSTORE PUSH2 0x150B DUP2 PUSH2 0x14D2 JUMP JUMPDEST SWAP1 POP SWAP2 SWAP1 POP JUMP JUMPDEST PUSH0 DUP2 SWAP1 POP SWAP3 SWAP2 POP POP JUMP JUMPDEST POP JUMP JUMPDEST PUSH0 PUSH2 0x152A PUSH0 DUP4 PUSH2 0x1512 JUMP JUMPDEST SWAP2 POP PUSH2 0x1535 DUP3 PUSH2 0x151C JUMP JUMPDEST PUSH0 DUP3 ADD SWAP1 POP SWAP2 SWAP1 POP JUMP JUMPDEST PUSH0 PUSH2 0x1549 DUP3 PUSH2 0x151F JUMP JUMPDEST SWAP2 POP DUP2 SWAP1 POP SWAP2 SWAP1 POP JUMP JUMPDEST PUSH32 0x5472616E73666572206661696C65640000000000000000000000000000000000 PUSH0 DUP3 ADD MSTORE POP JUMP JUMPDEST PUSH0 PUSH2 0x1587 PUSH1 0xF DUP4 PUSH2 0x129F JUMP JUMPDEST SWAP2 POP PUSH2 0x1592 DUP3 PUSH2 0x1553 JUMP JUMPDEST PUSH1 0x20 DUP3 ADD SWAP1 POP SWAP2 SWAP1 POP JUMP JUMPDEST PUSH0 PUSH1 0x20 DUP3 ADD SWAP1 POP DUP2 DUP2 SUB PUSH0 DUP4 ADD MSTORE PUSH2 0x15B4 DUP2 PUSH2 0x157B JUMP JUMPDEST SWAP1 POP SWAP2 SWAP1 POP JUMP JUMPDEST PUSH32 0x436F6E76657273696F6E2072617465206D757374206265206772656174657220 PUSH0 DUP3 ADD MSTORE PUSH32 0x7468616E20300000000000000000000000000000000000000000000000000000 PUSH1 0x20 DUP3 ADD MSTORE POP JUMP JUMPDEST PUSH0 PUSH2 0x1615 PUSH1 0x26 DUP4 PUSH2 0x129F JUMP JUMPDEST SWAP2 POP PUSH2 0x1620 DUP3 PUSH2 0x15BB JUMP JUMPDEST PUSH1 0x40 DUP3 ADD SWAP1 POP SWAP2 SWAP1 POP JUMP JUMPDEST PUSH0 PUSH1 0x20 DUP3 ADD SWAP1 POP DUP2 DUP2 SUB PUSH0 DUP4 ADD MSTORE PUSH2 0x1642 DUP2 PUSH2 0x1609 JUMP JUMPDEST SWAP1 POP SWAP2 SWAP1 POP JUMP JUMPDEST PUSH32 0x4E487B7100000000000000000000000000000000000000000000000000000000 PUSH0 MSTORE PUSH1 0x32 PUSH1 0x4 MSTORE PUSH1 0x24 PUSH0 REVERT JUMPDEST PUSH0 DUP2 SWAP1 POP DUP2 PUSH0 MSTORE PUSH1 0x20 PUSH0 KECCAK256 SWAP1 POP SWAP2 SWAP1 POP JUMP JUMPDEST PUSH0 DUP2 SLOAD PUSH2 0x1694 DUP2 PUSH2 0x13EC JUMP JUMPDEST PUSH2 0x169E DUP2 DUP7 PUSH2 0x1512 JUMP JUMPDEST SWAP5 POP PUSH1 0x1 DUP3 AND PUSH0 DUP2 EQ PUSH2 0x16B8 JUMPI PUSH1 0x1 DUP2 EQ PUSH2 0x16CD JUMPI PUSH2 0x16FF JUMP JUMPDEST PUSH1 0xFF NOT DUP4 AND DUP7 MSTORE DUP2 ISZERO ISZERO DUP3 MUL DUP7 ADD SWAP4 POP PUSH2 0x16FF JUMP JUMPDEST PUSH2 0x16D6 DUP6 PUSH2 0x1676 JUMP JUMPDEST PUSH0 JUMPDEST DUP4 DUP2 LT ISZERO PUSH2 0x16F7 JUMPI DUP2 SLOAD DUP2 DUP10 ADD MSTORE PUSH1 0x1 DUP3 ADD SWAP2 POP PUSH1 0x20 DUP2 ADD SWAP1 POP PUSH2 0x16D8 JUMP JUMPDEST DUP4 DUP9 ADD SWAP6 POP POP POP JUMPDEST POP POP POP SWAP3 SWAP2 POP POP JUMP JUMPDEST PUSH0 PUSH2 0x1713 DUP3 DUP5 PUSH2 0x1688 JUMP JUMPDEST SWAP2 POP DUP2 SWAP1 POP SWAP3 SWAP2 POP POP JUMP JUMPDEST PUSH0 DUP2 SWAP1 POP DUP2 PUSH0 MSTORE PUSH1 0x20 PUSH0 KECCAK256 SWAP1 POP SWAP2 SWAP1 POP JUMP JUMPDEST PUSH0 PUSH1 0x20 PUSH1 0x1F DUP4 ADD DIV SWAP1 POP SWAP2 SWAP1 POP JUMP JUMPDEST PUSH0 DUP3 DUP3 SHL SWAP1 POP SWAP3 SWAP2 POP POP JUMP JUMPDEST PUSH0 PUSH1 0x8 DUP4 MUL PUSH2 0x177A PUSH32 0xFFFFFFFFFFFFFFFFFFFFFFFFFFFFFFFFFFFFFFFFFFFFFFFFFFFFFFFFFFFFFFFF DUP3 PUSH2 0x173F JUMP JUMPDEST PUSH2 0x1784 DUP7 DUP4 PUSH2 0x173F JUMP JUMPDEST SWAP6 POP DUP1 NOT DUP5 AND SWAP4 POP DUP1 DUP7 AND DUP5 OR SWAP3 POP POP POP SWAP4 SWAP3 POP POP POP JUMP JUMPDEST PUSH0 DUP2 SWAP1 POP SWAP2 SWAP1 POP JUMP JUMPDEST PUSH0 PUSH2 0x17BF PUSH2 0x17BA PUSH2 0x17B5 DUP5 PUSH2 0xFD7 JUMP JUMPDEST PUSH2 0x179C JUMP JUMPDEST PUSH2 0xFD7 JUMP JUMPDEST SWAP1 POP SWAP2 SWAP1 POP JUMP JUMPDEST PUSH0 DUP2 SWAP1 POP SWAP2 SWAP1 POP JUMP JUMPDEST PUSH2 0x17D8 DUP4 PUSH2 0x17A5 JUMP JUMPDEST PUSH2 0x17EC PUSH2 0x17E4 DUP3 PUSH2 0x17C6 JUMP JUMPDEST DUP5 DUP5 SLOAD PUSH2 0x174B JUMP JUMPDEST DUP3 SSTORE POP POP POP POP JUMP JUMPDEST PUSH0 PUSH0 SWAP1 POP SWAP1 JUMP JUMPDEST PUSH2 0x1803 PUSH2 0x17F4 JUMP JUMPDEST PUSH2 0x180E DUP2 DUP5 DUP5 PUSH2 0x17CF JUMP JUMPDEST POP POP POP JUMP JUMPDEST JUMPDEST DUP2 DUP2 LT ISZERO PUSH2 0x1831 JUMPI PUSH2 0x1826 PUSH0 DUP3 PUSH2 0x17FB JUMP JUMPDEST PUSH1 0x1 DUP2 ADD SWAP1 POP PUSH2 0x1814 JUMP JUMPDEST POP POP JUMP JUMPDEST PUSH1 0x1F DUP3 GT ISZERO PUSH2 0x1876 JUMPI PUSH2 0x1847 DUP2 PUSH2 0x171E JUMP JUMPDEST PUSH2 0x1850 DUP5 PUSH2 0x1730 JUMP JUMPDEST DUP2 ADD PUSH1 0x20 DUP6 LT ISZERO PUSH2 0x185F JUMPI DUP2 SWAP1 POP JUMPDEST PUSH2 0x1873 PUSH2 0x186B DUP6 PUSH2 0x1730 JUMP JUMPDEST DUP4 ADD DUP3 PUSH2 0x1813 JUMP JUMPDEST POP POP JUMPDEST POP POP POP JUMP JUMPDEST PUSH0 DUP3 DUP3 SHR SWAP1 POP SWAP3 SWAP2 POP POP JUMP JUMPDEST PUSH0 PUSH2 0x1896 PUSH0 NOT DUP5 PUSH1 0x8 MUL PUSH2 0x187B JUMP JUMPDEST NOT DUP1 DUP4 AND SWAP2 POP POP SWAP3 SWAP2 POP POP JUMP JUMPDEST PUSH0 PUSH2 0x18AE DUP4 DUP4 PUSH2 0x1887 JUMP JUMPDEST SWAP2 POP DUP3 PUSH1 0x2 MUL DUP3 OR SWAP1 POP SWAP3 SWAP2 POP POP JUMP JUMPDEST PUSH2 0x18C7 DUP3 PUSH2 0x10B6 JUMP JUMPDEST PUSH8 0xFFFFFFFFFFFFFFFF DUP2 GT ISZERO PUSH2 0x18E0 JUMPI PUSH2 0x18DF PUSH2 0xE6C JUMP JUMPDEST JUMPDEST PUSH2 0x18EA DUP3 SLOAD PUSH2 0x13EC JUMP JUMPDEST PUSH2 0x18F5 DUP3 DUP3 DUP6 PUSH2 0x1835 JUMP JUMPDEST PUSH0 PUSH1 0x20 SWAP1 POP PUSH1 0x1F DUP4 GT PUSH1 0x1 DUP2 EQ PUSH2 0x1926 JUMPI PUSH0 DUP5 ISZERO PUSH2 0x1914 JUMPI DUP3 DUP8 ADD MLOAD SWAP1 POP JUMPDEST PUSH2 0x191E DUP6 DUP3 PUSH2 0x18A3 JUMP JUMPDEST DUP7 SSTORE POP PUSH2 0x1985 JUMP JUMPDEST PUSH1 0x1F NOT DUP5 AND PUSH2 0x1934 DUP7 PUSH2 0x171E JUMP JUMPDEST PUSH0 JUMPDEST DUP3 DUP2 LT ISZERO PUSH2 0x195B JUMPI DUP5 DUP10 ADD MLOAD DUP3 SSTORE PUSH1 0x1 DUP3 ADD SWAP2 POP PUSH1 0x20 DUP6 ADD SWAP5 POP PUSH1 0x20 DUP2 ADD SWAP1 POP PUSH2 0x1936 JUMP JUMPDEST DUP7 DUP4 LT ISZERO PUSH2 0x1978 JUMPI DUP5 DUP10 ADD MLOAD PUSH2 0x1974 PUSH1 0x1F DUP10 AND DUP3 PUSH2 0x1887 JUMP JUMPDEST DUP4 SSTORE POP JUMPDEST PUSH1 0x1 PUSH1 0x2 DUP9 MUL ADD DUP9 SSTORE POP POP POP JUMPDEST POP POP POP POP POP POP JUMP JUMPDEST PUSH32 0x4E487B7100000000000000000000000000000000000000000000000000000000 PUSH0 MSTORE PUSH1 0x11 PUSH1 0x4 MSTORE PUSH1 0x24 PUSH0 REVERT JUMPDEST PUSH0 PUSH2 0x19C4 DUP3 PUSH2 0xFD7 JUMP JUMPDEST SWAP2 POP PUSH2 0x19CF DUP4 PUSH2 0xFD7 JUMP JUMPDEST SWAP3 POP DUP3 DUP3 MUL PUSH2 0x19DD DUP2 PUSH2 0xFD7 JUMP JUMPDEST SWAP2 POP DUP3 DUP3 DIV DUP5 EQ DUP4 ISZERO OR PUSH2 0x19F4 JUMPI PUSH2 0x19F3 PUSH2 0x198D JUMP JUMPDEST JUMPDEST POP SWAP3 SWAP2 POP POP JUMP JUMPDEST PUSH32 0x416D6F756E74206D7573742062652067726561746572207468616E2030000000 PUSH0 DUP3 ADD MSTORE POP JUMP JUMPDEST PUSH0 PUSH2 0x1A2F PUSH1 0x1D DUP4 PUSH2 0x129F JUMP JUMPDEST SWAP2 POP PUSH2 0x1A3A DUP3 PUSH2 0x19FB JUMP JUMPDEST PUSH1 0x20 DUP3 ADD SWAP1 POP SWAP2 SWAP1 POP JUMP JUMPDEST PUSH0 PUSH1 0x20 DUP3 ADD SWAP1 POP DUP2 DUP2 SUB PUSH0 DUP4 ADD MSTORE PUSH2 0x1A5C DUP2 PUSH2 0x1A23 JUMP JUMPDEST SWAP1 POP SWAP2 SWAP1 POP JUMP JUMPDEST PUSH32 0x53656E742045544820646F65736E2774206D617463682074686520636F6E7665 PUSH0 DUP3 ADD MSTORE PUSH32 0x7274656420616D6F756E74000000000000000000000000000000000000000000 PUSH1 0x20 DUP3 ADD MSTORE POP JUMP JUMPDEST PUSH0 PUSH2 0x1ABD PUSH1 0x2B DUP4 PUSH2 0x129F JUMP JUMPDEST SWAP2 POP PUSH2 0x1AC8 DUP3 PUSH2 0x1A63 JUMP JUMPDEST PUSH1 0x40 DUP3 ADD SWAP1 POP SWAP2 SWAP1 POP JUMP JUMPDEST PUSH0 PUSH1 0x20 DUP3 ADD SWAP1 POP DUP2 DUP2 SUB PUSH0 DUP4 ADD MSTORE PUSH2 0x1AEA DUP2 PUSH2 0x1AB1 JUMP JUMPDEST SWAP1 POP SWAP2 SWAP1 POP JUMP JUMPDEST PUSH0 PUSH2 0x1AFB DUP3 PUSH2 0xFD7 JUMP JUMPDEST SWAP2 POP PUSH2 0x1B06 DUP4 PUSH2 0xFD7 JUMP JUMPDEST SWAP3 POP DUP3 DUP3 ADD SWAP1 POP DUP1 DUP3 GT ISZERO PUSH2 0x1B1E JUMPI PUSH2 0x1B1D PUSH2 0x198D JUMP JUMPDEST JUMPDEST SWAP3 SWAP2 POP POP JUMP JUMPDEST PUSH32 0x54697020616D6F756E74206D7573742062652067726561746572207468616E20 PUSH0 DUP3 ADD MSTORE PUSH32 0x3000000000000000000000000000000000000000000000000000000000000000 PUSH1 0x20 DUP3 ADD MSTORE POP JUMP JUMPDEST PUSH0 PUSH2 0x1B7E PUSH1 0x21 DUP4 PUSH2 0x129F JUMP JUMPDEST SWAP2 POP PUSH2 0x1B89 DUP3 PUSH2 0x1B24 JUMP JUMPDEST PUSH1 0x40 DUP3 ADD SWAP1 POP SWAP2 SWAP1 POP JUMP JUMPDEST PUSH0 PUSH1 0x20 DUP3 ADD SWAP1 POP DUP2 DUP2 SUB PUSH0 DUP4 ADD MSTORE PUSH2 0x1BAB DUP2 PUSH2 0x1B72 JUMP JUMPDEST SWAP1 POP SWAP2 SWAP1 POP JUMP JUMPDEST PUSH32 0x4554480000000000000000000000000000000000000000000000000000000000 PUSH0 DUP3 ADD MSTORE POP JUMP JUMPDEST PUSH0 PUSH2 0x1BE6 PUSH1 0x3 DUP4 PUSH2 0x1307 JUMP JUMPDEST SWAP2 POP PUSH2 0x1BF1 DUP3 PUSH2 0x1BB2 JUMP JUMPDEST PUSH1 0x3 DUP3 ADD SWAP1 POP SWAP2 SWAP1 POP JUMP JUMPDEST PUSH0 PUSH2 0x1C06 DUP3 PUSH2 0x1BDA JUMP JUMPDEST SWAP2 POP DUP2 SWAP1 POP SWAP2 SWAP1 POP JUMP JUMPDEST PUSH32 0x496E76616C696420616464726573730000000000000000000000000000000000 PUSH0 DUP3 ADD MSTORE POP JUMP JUMPDEST PUSH0 PUSH2 0x1C44 PUSH1 0xF DUP4 PUSH2 0x129F JUMP JUMPDEST SWAP2 POP PUSH2 0x1C4F DUP3 PUSH2 0x1C10 JUMP JUMPDEST PUSH1 0x20 DUP3 ADD SWAP1 POP SWAP2 SWAP1 POP JUMP JUMPDEST PUSH0 PUSH1 0x20 DUP3 ADD SWAP1 POP DUP2 DUP2 SUB PUSH0 DUP4 ADD MSTORE PUSH2 0x1C71 DUP2 PUSH2 0x1C38 JUMP JUMPDEST SWAP1 POP SWAP2 SWAP1 POP JUMP INVALID LOG2 PUSH5 0x6970667358 0x22 SLT KECCAK256 DUP1 SLT PUSH27 0x3951FA3B9CDB256887B7ACB0B6F8BFF142ABCFBCA8A8D3C9E23DB4 SWAP2 ADDMOD PUSH5 0x736F6C6343 STOP ADDMOD 0x1F STOP CALLER "
				},
				"gasEstimates": {
					"creation": {
						"codeDepositCost": "1468400",
						"executionCost": "infinite",
						"totalCost": "infinite"
					},
					"external": {
						"addCurrency(string,uint256)": "infinite",
						"conversionRates(string)": "infinite",
						"convertToEth(string,uint256)": "infinite",
						"getContractBalance()": "379",
						"getConversionRate(string)": "infinite",
						"getSupportedCurrencies()": "infinite",
						"getTipperContribution(address)": "2919",
						"owner()": "2574",
						"supportedCurrencies(uint256)": "infinite",
						"tipInCurrency(string,uint256)": "infinite",
						"tipInEth()": "infinite",
						"tipperContributions(address)": "2848",
						"tipsPerCurrency(string)": "infinite",
						"totalTipsReceived()": "2491",
						"transferOwnership(address)": "27004",
						"withdrawTips()": "infinite"
					}
				},
				"methodIdentifiers": {
					"addCurrency(string,uint256)": "5c49c825",
					"conversionRates(string)": "5c41fece",
					"convertToEth(string,uint256)": "6de0938b",
					"getContractBalance()": "6f9fb98a",
					"getConversionRate(string)": "1fac531b",
					"getSupportedCurrencies()": "2ce75863",
					"getTipperContribution(address)": "223506a7",
					"owner()": "8da5cb5b",
					"supportedCurrencies(uint256)": "97bf7935",
					"tipInCurrency(string,uint256)": "9c88e42d",
					"tipInEth()": "b8443702",
					"tipperContributions(address)": "10e1d1d4",
					"tipsPerCurrency(string)": "0d9ba15f",
					"totalTipsReceived()": "efe8c084",
					"transferOwnership(address)": "f2fde38b",
					"withdrawTips()": "3aaa74b2"
				}
			},
			"storageLayout": {
				"storage": [
					{
						"astId": 3,
						"contract": "Blaze/day08_MultiCurrencyPayment.sol:MultiCurrencyPayment",
						"label": "owner",
						"offset": 0,
						"slot": "0",
						"type": "t_address"
					},
					{
						"astId": 7,
						"contract": "Blaze/day08_MultiCurrencyPayment.sol:MultiCurrencyPayment",
						"label": "conversionRates",
						"offset": 0,
						"slot": "1",
						"type": "t_mapping(t_string_memory_ptr,t_uint256)"
					},
					{
						"astId": 10,
						"contract": "Blaze/day08_MultiCurrencyPayment.sol:MultiCurrencyPayment",
						"label": "supportedCurrencies",
						"offset": 0,
						"slot": "2",
						"type": "t_array(t_string_storage)dyn_storage"
					},
					{
						"astId": 12,
						"contract": "Blaze/day08_MultiCurrencyPayment.sol:MultiCurrencyPayment",
						"label": "totalTipsReceived",
						"offset": 0,
						"slot": "3",
						"type": "t_uint256"
					},
					{
						"astId": 16,
						"contract": "Blaze/day08_MultiCurrencyPayment.sol:MultiCurrencyPayment",
						"label": "tipperContributions",
						"offset": 0,
						"slot": "4",
						"type": "t_mapping(t_address,t_uint256)"
					},
					{
						"astId": 20,
						"contract": "Blaze/day08_MultiCurrencyPayment.sol:MultiCurrencyPayment",
						"label": "tipsPerCurrency",
						"offset": 0,
						"slot": "5",
						"type": "t_mapping(t_string_memory_ptr,t_uint256)"
					}
				],
				"types": {
					"t_address": {
						"encoding": "inplace",
						"label": "address",
						"numberOfBytes": "20"
					},
					"t_array(t_string_storage)dyn_storage": {
						"base": "t_string_storage",
						"encoding": "dynamic_array",
						"label": "string[]",
						"numberOfBytes": "32"
					},
					"t_mapping(t_address,t_uint256)": {
						"encoding": "mapping",
						"key": "t_address",
						"label": "mapping(address => uint256)",
						"numberOfBytes": "32",
						"value": "t_uint256"
					},
					"t_mapping(t_string_memory_ptr,t_uint256)": {
						"encoding": "mapping",
						"key": "t_string_memory_ptr",
						"label": "mapping(string => uint256)",
						"numberOfBytes": "32",
						"value": "t_uint256"
					},
					"t_string_memory_ptr": {
						"encoding": "bytes",
						"label": "string",
						"numberOfBytes": "32"
					},
					"t_string_storage": {
						"encoding": "bytes",
						"label": "string",
						"numberOfBytes": "32"
					},
					"t_uint256": {
						"encoding": "inplace",
						"label": "uint256",
						"numberOfBytes": "32"
					}
				}
			},
			"userdoc": {
				"kind": "user",
				"methods": {},
				"version": 1
			}
		}
	}
}