{
	"nomia/Day2-SaveMyName.sol": {
		"SaveMyName": {
			"abi": [
				{
					"inputs": [
						{
							"internalType": "string",
							"name": "_name",
							"type": "string"
						},
						{
							"internalType": "string",
							"name": "_bio",
							"type": "string"
						},
						{
							"internalType": "string",
							"name": "_age",
							"type": "string"
						}
					],
					"name": "add",
					"outputs": [],
					"stateMutability": "nonpayable",
					"type": "function"
				},
				{
					"inputs": [],
					"name": "getName",
					"outputs": [
						{
							"internalType": "string",
							"name": "",
							"type": "string"
						}
					],
					"stateMutability": "view",
					"type": "function"
				},
				{
					"inputs": [],
					"name": "retreive",
					"outputs": [
						{
							"internalType": "string",
							"name": "",
							"type": "string"
						},
						{
							"internalType": "string",
							"name": "",
							"type": "string"
						},
						{
							"internalType": "string",
							"name": "",
							"type": "string"
						}
					],
					"stateMutability": "view",
					"type": "function"
				},
				{
					"inputs": [
						{
							"internalType": "string",
							"name": "_name",
							"type": "string"
						},
						{
							"internalType": "string",
							"name": "_bio",
							"type": "string"
						},
						{
							"internalType": "string",
							"name": "_age",
							"type": "string"
						}
					],
					"name": "saveAndRetrive",
					"outputs": [
						{
							"internalType": "string",
							"name": "",
							"type": "string"
						},
						{
							"internalType": "string",
							"name": "",
							"type": "string"
						},
						{
							"internalType": "string",
							"name": "",
							"type": "string"
						}
					],
					"stateMutability": "nonpayable",
					"type": "function"
				},
				{
					"inputs": [
						{
							"internalType": "string",
							"name": "_newName",
							"type": "string"
						}
					],
					"name": "updateName",
					"outputs": [],
					"stateMutability": "nonpayable",
					"type": "function"
				}
			],
			"devdoc": {
				"kind": "dev",
				"methods": {},
				"version": 1
			},
			"evm": {
				"assembly": "    /* \"nomia/Day2-SaveMyName.sol\":59:851  contract SaveMyName {... */\n  mstore(0x40, 0x80)\n  callvalue\n  dup1\n  iszero\n  tag_1\n  jumpi\n  revert(0x00, 0x00)\ntag_1:\n  pop\n  dataSize(sub_0)\n  dup1\n  dataOffset(sub_0)\n  0x00\n  codecopy\n  0x00\n  return\nstop\n\nsub_0: assembly {\n        /* \"nomia/Day2-SaveMyName.sol\":59:851  contract SaveMyName {... */\n      mstore(0x40, 0x80)\n      callvalue\n      dup1\n      iszero\n      tag_1\n      jumpi\n      revert(0x00, 0x00)\n    tag_1:\n      pop\n      jumpi(tag_2, lt(calldatasize, 0x04))\n      shr(0xe0, calldataload(0x00))\n      dup1\n      0x17d7de7c\n      eq\n      tag_3\n      jumpi\n      dup1\n      0x84da92a7\n      eq\n      tag_4\n      jumpi\n      dup1\n      0xafb7f2ce\n      eq\n      tag_5\n      jumpi\n      dup1\n      0xb05784b8\n      eq\n      tag_6\n      jumpi\n      dup1\n      0xf034d6b1\n      eq\n      tag_7\n      jumpi\n    tag_2:\n      revert(0x00, 0x00)\n        /* \"nomia/Day2-SaveMyName.sol\":677:760  function getName() public view returns(string memory){... */\n    tag_3:\n      tag_8\n      tag_9\n      jump\t// in\n    tag_8:\n      mload(0x40)\n      tag_10\n      swap2\n      swap1\n      tag_11\n      jump\t// in\n    tag_10:\n      mload(0x40)\n      dup1\n      swap2\n      sub\n      swap1\n      return\n        /* \"nomia/Day2-SaveMyName.sol\":766:848  function updateName(string memory _newName) public{... */\n    tag_4:\n      tag_12\n      0x04\n      dup1\n      calldatasize\n      sub\n      dup2\n      add\n      swap1\n      tag_13\n      swap2\n      swap1\n      tag_14\n      jump\t// in\n    tag_13:\n      tag_15\n      jump\t// in\n    tag_12:\n      stop\n        /* \"nomia/Day2-SaveMyName.sol\":432:671  function saveAndRetrive(string memory _name,string memory _bio,string memory _age) public returns(string memory,string memory,string memory){... */\n    tag_5:\n      tag_16\n      0x04\n      dup1\n      calldatasize\n      sub\n      dup2\n      add\n      swap1\n      tag_17\n      swap2\n      swap1\n      tag_18\n      jump\t// in\n    tag_17:\n      tag_19\n      jump\t// in\n    tag_16:\n      mload(0x40)\n      tag_20\n      swap4\n      swap3\n      swap2\n      swap1\n      tag_21\n      jump\t// in\n    tag_20:\n      mload(0x40)\n      dup1\n      swap2\n      sub\n      swap1\n      return\n        /* \"nomia/Day2-SaveMyName.sol\":294:426  function retreive() public view returns(string memory,string memory,string memory){... */\n    tag_6:\n      tag_22\n      tag_23\n      jump\t// in\n    tag_22:\n      mload(0x40)\n      tag_24\n      swap4\n      swap3\n      swap2\n      swap1\n      tag_21\n      jump\t// in\n    tag_24:\n      mload(0x40)\n      dup1\n      swap2\n      sub\n      swap1\n      return\n        /* \"nomia/Day2-SaveMyName.sol\":136:288  function add(string memory _name, string memory _bio, string memory _age) public {... */\n    tag_7:\n      tag_25\n      0x04\n      dup1\n      calldatasize\n      sub\n      dup2\n      add\n      swap1\n      tag_26\n      swap2\n      swap1\n      tag_18\n      jump\t// in\n    tag_26:\n      tag_27\n      jump\t// in\n    tag_25:\n      stop\n        /* \"nomia/Day2-SaveMyName.sol\":677:760  function getName() public view returns(string memory){... */\n    tag_9:\n        /* \"nomia/Day2-SaveMyName.sol\":716:729  string memory */\n      0x60\n        /* \"nomia/Day2-SaveMyName.sol\":748:752  name */\n      0x00\n        /* \"nomia/Day2-SaveMyName.sol\":740:753  return (name) */\n      dup1\n      sload\n      tag_29\n      swap1\n      tag_30\n      jump\t// in\n    tag_29:\n      dup1\n      0x1f\n      add\n      0x20\n      dup1\n      swap2\n      div\n      mul\n      0x20\n      add\n      mload(0x40)\n      swap1\n      dup2\n      add\n      0x40\n      mstore\n      dup1\n      swap3\n      swap2\n      swap1\n      dup2\n      dup2\n      mstore\n      0x20\n      add\n      dup3\n      dup1\n      sload\n      tag_31\n      swap1\n      tag_30\n      jump\t// in\n    tag_31:\n      dup1\n      iszero\n      tag_32\n      jumpi\n      dup1\n      0x1f\n      lt\n      tag_33\n      jumpi\n      0x0100\n      dup1\n      dup4\n      sload\n      div\n      mul\n      dup4\n      mstore\n      swap2\n      0x20\n      add\n      swap2\n      jump(tag_32)\n    tag_33:\n      dup3\n      add\n      swap2\n      swap1\n      0x00\n      mstore\n      keccak256(0x00, 0x20)\n      swap1\n    tag_34:\n      dup2\n      sload\n      dup2\n      mstore\n      swap1\n      0x01\n      add\n      swap1\n      0x20\n      add\n      dup1\n      dup4\n      gt\n      tag_34\n      jumpi\n      dup3\n      swap1\n      sub\n      0x1f\n      and\n      dup3\n      add\n      swap2\n    tag_32:\n      pop\n      pop\n      pop\n      pop\n      pop\n      swap1\n      pop\n        /* \"nomia/Day2-SaveMyName.sol\":677:760  function getName() public view returns(string memory){... */\n      swap1\n      jump\t// out\n        /* \"nomia/Day2-SaveMyName.sol\":766:848  function updateName(string memory _newName) public{... */\n    tag_15:\n        /* \"nomia/Day2-SaveMyName.sol\":833:841  _newName */\n      dup1\n        /* \"nomia/Day2-SaveMyName.sol\":826:830  name */\n      0x00\n        /* \"nomia/Day2-SaveMyName.sol\":826:841  name = _newName */\n      swap1\n      dup2\n      tag_36\n      swap2\n      swap1\n      tag_37\n      jump\t// in\n    tag_36:\n      pop\n        /* \"nomia/Day2-SaveMyName.sol\":766:848  function updateName(string memory _newName) public{... */\n      pop\n      jump\t// out\n        /* \"nomia/Day2-SaveMyName.sol\":432:671  function saveAndRetrive(string memory _name,string memory _bio,string memory _age) public returns(string memory,string memory,string memory){... */\n    tag_19:\n        /* \"nomia/Day2-SaveMyName.sol\":530:543  string memory */\n      0x60\n        /* \"nomia/Day2-SaveMyName.sol\":544:557  string memory */\n      dup1\n        /* \"nomia/Day2-SaveMyName.sol\":558:571  string memory */\n      0x60\n        /* \"nomia/Day2-SaveMyName.sol\":589:594  _name */\n      dup6\n        /* \"nomia/Day2-SaveMyName.sol\":582:586  name */\n      0x00\n        /* \"nomia/Day2-SaveMyName.sol\":582:594  name = _name */\n      swap1\n      dup2\n      tag_39\n      swap2\n      swap1\n      tag_37\n      jump\t// in\n    tag_39:\n      pop\n        /* \"nomia/Day2-SaveMyName.sol\":610:614  _bio */\n      dup5\n        /* \"nomia/Day2-SaveMyName.sol\":604:607  bio */\n      0x01\n        /* \"nomia/Day2-SaveMyName.sol\":604:614  bio = _bio */\n      swap1\n      dup2\n      tag_40\n      swap2\n      swap1\n      tag_37\n      jump\t// in\n    tag_40:\n      pop\n        /* \"nomia/Day2-SaveMyName.sol\":630:634  _age */\n      dup4\n        /* \"nomia/Day2-SaveMyName.sol\":624:627  age */\n      0x02\n        /* \"nomia/Day2-SaveMyName.sol\":624:634  age = _age */\n      swap1\n      dup2\n      tag_41\n      swap2\n      swap1\n      tag_37\n      jump\t// in\n    tag_41:\n      pop\n        /* \"nomia/Day2-SaveMyName.sol\":651:655  name */\n      0x00\n        /* \"nomia/Day2-SaveMyName.sol\":656:659  bio */\n      0x01\n        /* \"nomia/Day2-SaveMyName.sol\":660:663  age */\n      0x02\n        /* \"nomia/Day2-SaveMyName.sol\":644:664  return(name,bio,age) */\n      dup3\n      dup1\n      sload\n      tag_42\n      swap1\n      tag_30\n      jump\t// in\n    tag_42:\n      dup1\n      0x1f\n      add\n      0x20\n      dup1\n      swap2\n      div\n      mul\n      0x20\n      add\n      mload(0x40)\n      swap1\n      dup2\n      add\n      0x40\n      mstore\n      dup1\n      swap3\n      swap2\n      swap1\n      dup2\n      dup2\n      mstore\n      0x20\n      add\n      dup3\n      dup1\n      sload\n      tag_43\n      swap1\n      tag_30\n      jump\t// in\n    tag_43:\n      dup1\n      iszero\n      tag_44\n      jumpi\n      dup1\n      0x1f\n      lt\n      tag_45\n      jumpi\n      0x0100\n      dup1\n      dup4\n      sload\n      div\n      mul\n      dup4\n      mstore\n      swap2\n      0x20\n      add\n      swap2\n      jump(tag_44)\n    tag_45:\n      dup3\n      add\n      swap2\n      swap1\n      0x00\n      mstore\n      keccak256(0x00, 0x20)\n      swap1\n    tag_46:\n      dup2\n      sload\n      dup2\n      mstore\n      swap1\n      0x01\n      add\n      swap1\n      0x20\n      add\n      dup1\n      dup4\n      gt\n      tag_46\n      jumpi\n      dup3\n      swap1\n      sub\n      0x1f\n      and\n      dup3\n      add\n      swap2\n    tag_44:\n      pop\n      pop\n      pop\n      pop\n      pop\n      swap3\n      pop\n      dup2\n      dup1\n      sload\n      tag_47\n      swap1\n      tag_30\n      jump\t// in\n    tag_47:\n      dup1\n      0x1f\n      add\n      0x20\n      dup1\n      swap2\n      div\n      mul\n      0x20\n      add\n      mload(0x40)\n      swap1\n      dup2\n      add\n      0x40\n      mstore\n      dup1\n      swap3\n      swap2\n      swap1\n      dup2\n      dup2\n      mstore\n      0x20\n      add\n      dup3\n      dup1\n      sload\n      tag_48\n      swap1\n      tag_30\n      jump\t// in\n    tag_48:\n      dup1\n      iszero\n      tag_49\n      jumpi\n      dup1\n      0x1f\n      lt\n      tag_50\n      jumpi\n      0x0100\n      dup1\n      dup4\n      sload\n      div\n      mul\n      dup4\n      mstore\n      swap2\n      0x20\n      add\n      swap2\n      jump(tag_49)\n    tag_50:\n      dup3\n      add\n      swap2\n      swap1\n      0x00\n      mstore\n      keccak256(0x00, 0x20)\n      swap1\n    tag_51:\n      dup2\n      sload\n      dup2\n      mstore\n      swap1\n      0x01\n      add\n      swap1\n      0x20\n      add\n      dup1\n      dup4\n      gt\n      tag_51\n      jumpi\n      dup3\n      swap1\n      sub\n      0x1f\n      and\n      dup3\n      add\n      swap2\n    tag_49:\n      pop\n      pop\n      pop\n      pop\n      pop\n      swap2\n      pop\n      dup1\n      dup1\n      sload\n      tag_52\n      swap1\n      tag_30\n      jump\t// in\n    tag_52:\n      dup1\n      0x1f\n      add\n      0x20\n      dup1\n      swap2\n      div\n      mul\n      0x20\n      add\n      mload(0x40)\n      swap1\n      dup2\n      add\n      0x40\n      mstore\n      dup1\n      swap3\n      swap2\n      swap1\n      dup2\n      dup2\n      mstore\n      0x20\n      add\n      dup3\n      dup1\n      sload\n      tag_53\n      swap1\n      tag_30\n      jump\t// in\n    tag_53:\n      dup1\n      iszero\n      tag_54\n      jumpi\n      dup1\n      0x1f\n      lt\n      tag_55\n      jumpi\n      0x0100\n      dup1\n      dup4\n      sload\n      div\n      mul\n      dup4\n      mstore\n      swap2\n      0x20\n      add\n      swap2\n      jump(tag_54)\n    tag_55:\n      dup3\n      add\n      swap2\n      swap1\n      0x00\n      mstore\n      keccak256(0x00, 0x20)\n      swap1\n    tag_56:\n      dup2\n      sload\n      dup2\n      mstore\n      swap1\n      0x01\n      add\n      swap1\n      0x20\n      add\n      dup1\n      dup4\n      gt\n      tag_56\n      jumpi\n      dup3\n      swap1\n      sub\n      0x1f\n      and\n      dup3\n      add\n      swap2\n    tag_54:\n      pop\n      pop\n      pop\n      pop\n      pop\n      swap1\n      pop\n      swap3\n      pop\n      swap3\n      pop\n      swap3\n      pop\n        /* \"nomia/Day2-SaveMyName.sol\":432:671  function saveAndRetrive(string memory _name,string memory _bio,string memory _age) public returns(string memory,string memory,string memory){... */\n      swap4\n      pop\n      swap4\n      pop\n      swap4\n      swap1\n      pop\n      jump\t// out\n        /* \"nomia/Day2-SaveMyName.sol\":294:426  function retreive() public view returns(string memory,string memory,string memory){... */\n    tag_23:\n        /* \"nomia/Day2-SaveMyName.sol\":334:347  string memory */\n      0x60\n        /* \"nomia/Day2-SaveMyName.sol\":348:361  string memory */\n      dup1\n        /* \"nomia/Day2-SaveMyName.sol\":362:375  string memory */\n      0x60\n        /* \"nomia/Day2-SaveMyName.sol\":394:398  name */\n      0x00\n        /* \"nomia/Day2-SaveMyName.sol\":399:402  bio */\n      0x01\n        /* \"nomia/Day2-SaveMyName.sol\":403:406  age */\n      0x02\n        /* \"nomia/Day2-SaveMyName.sol\":386:407  return (name,bio,age) */\n      dup3\n      dup1\n      sload\n      tag_58\n      swap1\n      tag_30\n      jump\t// in\n    tag_58:\n      dup1\n      0x1f\n      add\n      0x20\n      dup1\n      swap2\n      div\n      mul\n      0x20\n      add\n      mload(0x40)\n      swap1\n      dup2\n      add\n      0x40\n      mstore\n      dup1\n      swap3\n      swap2\n      swap1\n      dup2\n      dup2\n      mstore\n      0x20\n      add\n      dup3\n      dup1\n      sload\n      tag_59\n      swap1\n      tag_30\n      jump\t// in\n    tag_59:\n      dup1\n      iszero\n      tag_60\n      jumpi\n      dup1\n      0x1f\n      lt\n      tag_61\n      jumpi\n      0x0100\n      dup1\n      dup4\n      sload\n      div\n      mul\n      dup4\n      mstore\n      swap2\n      0x20\n      add\n      swap2\n      jump(tag_60)\n    tag_61:\n      dup3\n      add\n      swap2\n      swap1\n      0x00\n      mstore\n      keccak256(0x00, 0x20)\n      swap1\n    tag_62:\n      dup2\n      sload\n      dup2\n      mstore\n      swap1\n      0x01\n      add\n      swap1\n      0x20\n      add\n      dup1\n      dup4\n      gt\n      tag_62\n      jumpi\n      dup3\n      swap1\n      sub\n      0x1f\n      and\n      dup3\n      add\n      swap2\n    tag_60:\n      pop\n      pop\n      pop\n      pop\n      pop\n      swap3\n      pop\n      dup2\n      dup1\n      sload\n      tag_63\n      swap1\n      tag_30\n      jump\t// in\n    tag_63:\n      dup1\n      0x1f\n      add\n      0x20\n      dup1\n      swap2\n      div\n      mul\n      0x20\n      add\n      mload(0x40)\n      swap1\n      dup2\n      add\n      0x40\n      mstore\n      dup1\n      swap3\n      swap2\n      swap1\n      dup2\n      dup2\n      mstore\n      0x20\n      add\n      dup3\n      dup1\n      sload\n      tag_64\n      swap1\n      tag_30\n      jump\t// in\n    tag_64:\n      dup1\n      iszero\n      tag_65\n      jumpi\n      dup1\n      0x1f\n      lt\n      tag_66\n      jumpi\n      0x0100\n      dup1\n      dup4\n      sload\n      div\n      mul\n      dup4\n      mstore\n      swap2\n      0x20\n      add\n      swap2\n      jump(tag_65)\n    tag_66:\n      dup3\n      add\n      swap2\n      swap1\n      0x00\n      mstore\n      keccak256(0x00, 0x20)\n      swap1\n    tag_67:\n      dup2\n      sload\n      dup2\n      mstore\n      swap1\n      0x01\n      add\n      swap1\n      0x20\n      add\n      dup1\n      dup4\n      gt\n      tag_67\n      jumpi\n      dup3\n      swap1\n      sub\n      0x1f\n      and\n      dup3\n      add\n      swap2\n    tag_65:\n      pop\n      pop\n      pop\n      pop\n      pop\n      swap2\n      pop\n      dup1\n      dup1\n      sload\n      tag_68\n      swap1\n      tag_30\n      jump\t// in\n    tag_68:\n      dup1\n      0x1f\n      add\n      0x20\n      dup1\n      swap2\n      div\n      mul\n      0x20\n      add\n      mload(0x40)\n      swap1\n      dup2\n      add\n      0x40\n      mstore\n      dup1\n      swap3\n      swap2\n      swap1\n      dup2\n      dup2\n      mstore\n      0x20\n      add\n      dup3\n      dup1\n      sload\n      tag_69\n      swap1\n      tag_30\n      jump\t// in\n    tag_69:\n      dup1\n      iszero\n      tag_70\n      jumpi\n      dup1\n      0x1f\n      lt\n      tag_71\n      jumpi\n      0x0100\n      dup1\n      dup4\n      sload\n      div\n      mul\n      dup4\n      mstore\n      swap2\n      0x20\n      add\n      swap2\n      jump(tag_70)\n    tag_71:\n      dup3\n      add\n      swap2\n      swap1\n      0x00\n      mstore\n      keccak256(0x00, 0x20)\n      swap1\n    tag_72:\n      dup2\n      sload\n      dup2\n      mstore\n      swap1\n      0x01\n      add\n      swap1\n      0x20\n      add\n      dup1\n      dup4\n      gt\n      tag_72\n      jumpi\n      dup3\n      swap1\n      sub\n      0x1f\n      and\n      dup3\n      add\n      swap2\n    tag_70:\n      pop\n      pop\n      pop\n      pop\n      pop\n      swap1\n      pop\n      swap3\n      pop\n      swap3\n      pop\n      swap3\n      pop\n        /* \"nomia/Day2-SaveMyName.sol\":294:426  function retreive() public view returns(string memory,string memory,string memory){... */\n      swap1\n      swap2\n      swap3\n      jump\t// out\n        /* \"nomia/Day2-SaveMyName.sol\":136:288  function add(string memory _name, string memory _bio, string memory _age) public {... */\n    tag_27:\n        /* \"nomia/Day2-SaveMyName.sol\":234:239  _name */\n      dup3\n        /* \"nomia/Day2-SaveMyName.sol\":227:231  name */\n      0x00\n        /* \"nomia/Day2-SaveMyName.sol\":227:239  name = _name */\n      swap1\n      dup2\n      tag_74\n      swap2\n      swap1\n      tag_37\n      jump\t// in\n    tag_74:\n      pop\n        /* \"nomia/Day2-SaveMyName.sol\":255:259  _bio */\n      dup2\n        /* \"nomia/Day2-SaveMyName.sol\":249:252  bio */\n      0x01\n        /* \"nomia/Day2-SaveMyName.sol\":249:259  bio = _bio */\n      swap1\n      dup2\n      tag_75\n      swap2\n      swap1\n      tag_37\n      jump\t// in\n    tag_75:\n      pop\n        /* \"nomia/Day2-SaveMyName.sol\":275:279  _age */\n      dup1\n        /* \"nomia/Day2-SaveMyName.sol\":269:272  age */\n      0x02\n        /* \"nomia/Day2-SaveMyName.sol\":269:279  age = _age */\n      swap1\n      dup2\n      tag_76\n      swap2\n      swap1\n      tag_37\n      jump\t// in\n    tag_76:\n      pop\n        /* \"nomia/Day2-SaveMyName.sol\":136:288  function add(string memory _name, string memory _bio, string memory _age) public {... */\n      pop\n      pop\n      pop\n      jump\t// out\n        /* \"#utility.yul\":7:106   */\n    tag_77:\n        /* \"#utility.yul\":59:65   */\n      0x00\n        /* \"#utility.yul\":93:98   */\n      dup2\n        /* \"#utility.yul\":87:99   */\n      mload\n        /* \"#utility.yul\":77:99   */\n      swap1\n      pop\n        /* \"#utility.yul\":7:106   */\n      swap2\n      swap1\n      pop\n      jump\t// out\n        /* \"#utility.yul\":112:281   */\n    tag_78:\n        /* \"#utility.yul\":196:207   */\n      0x00\n        /* \"#utility.yul\":230:236   */\n      dup3\n        /* \"#utility.yul\":225:228   */\n      dup3\n        /* \"#utility.yul\":218:237   */\n      mstore\n        /* \"#utility.yul\":270:274   */\n      0x20\n        /* \"#utility.yul\":265:268   */\n      dup3\n        /* \"#utility.yul\":261:275   */\n      add\n        /* \"#utility.yul\":246:275   */\n      swap1\n      pop\n        /* \"#utility.yul\":112:281   */\n      swap3\n      swap2\n      pop\n      pop\n      jump\t// out\n        /* \"#utility.yul\":287:426   */\n    tag_79:\n        /* \"#utility.yul\":376:382   */\n      dup3\n        /* \"#utility.yul\":371:374   */\n      dup2\n        /* \"#utility.yul\":366:369   */\n      dup4\n        /* \"#utility.yul\":360:383   */\n      mcopy\n        /* \"#utility.yul\":417:418   */\n      0x00\n        /* \"#utility.yul\":408:414   */\n      dup4\n        /* \"#utility.yul\":403:406   */\n      dup4\n        /* \"#utility.yul\":399:415   */\n      add\n        /* \"#utility.yul\":392:419   */\n      mstore\n        /* \"#utility.yul\":287:426   */\n      pop\n      pop\n      pop\n      jump\t// out\n        /* \"#utility.yul\":432:534   */\n    tag_80:\n        /* \"#utility.yul\":473:479   */\n      0x00\n        /* \"#utility.yul\":524:526   */\n      0x1f\n        /* \"#utility.yul\":520:527   */\n      not\n        /* \"#utility.yul\":515:517   */\n      0x1f\n        /* \"#utility.yul\":508:513   */\n      dup4\n        /* \"#utility.yul\":504:518   */\n      add\n        /* \"#utility.yul\":500:528   */\n      and\n        /* \"#utility.yul\":490:528   */\n      swap1\n      pop\n        /* \"#utility.yul\":432:534   */\n      swap2\n      swap1\n      pop\n      jump\t// out\n        /* \"#utility.yul\":540:917   */\n    tag_81:\n        /* \"#utility.yul\":628:631   */\n      0x00\n        /* \"#utility.yul\":656:695   */\n      tag_117\n        /* \"#utility.yul\":689:694   */\n      dup3\n        /* \"#utility.yul\":656:695   */\n      tag_77\n      jump\t// in\n    tag_117:\n        /* \"#utility.yul\":711:782   */\n      tag_118\n        /* \"#utility.yul\":775:781   */\n      dup2\n        /* \"#utility.yul\":770:773   */\n      dup6\n        /* \"#utility.yul\":711:782   */\n      tag_78\n      jump\t// in\n    tag_118:\n        /* \"#utility.yul\":704:782   */\n      swap4\n      pop\n        /* \"#utility.yul\":791:856   */\n      tag_119\n        /* \"#utility.yul\":849:855   */\n      dup2\n        /* \"#utility.yul\":844:847   */\n      dup6\n        /* \"#utility.yul\":837:841   */\n      0x20\n        /* \"#utility.yul\":830:835   */\n      dup7\n        /* \"#utility.yul\":826:842   */\n      add\n        /* \"#utility.yul\":791:856   */\n      tag_79\n      jump\t// in\n    tag_119:\n        /* \"#utility.yul\":881:910   */\n      tag_120\n        /* \"#utility.yul\":903:909   */\n      dup2\n        /* \"#utility.yul\":881:910   */\n      tag_80\n      jump\t// in\n    tag_120:\n        /* \"#utility.yul\":876:879   */\n      dup5\n        /* \"#utility.yul\":872:911   */\n      add\n        /* \"#utility.yul\":865:911   */\n      swap2\n      pop\n        /* \"#utility.yul\":632:917   */\n      pop\n        /* \"#utility.yul\":540:917   */\n      swap3\n      swap2\n      pop\n      pop\n      jump\t// out\n        /* \"#utility.yul\":923:1236   */\n    tag_11:\n        /* \"#utility.yul\":1036:1040   */\n      0x00\n        /* \"#utility.yul\":1074:1076   */\n      0x20\n        /* \"#utility.yul\":1063:1072   */\n      dup3\n        /* \"#utility.yul\":1059:1077   */\n      add\n        /* \"#utility.yul\":1051:1077   */\n      swap1\n      pop\n        /* \"#utility.yul\":1123:1132   */\n      dup2\n        /* \"#utility.yul\":1117:1121   */\n      dup2\n        /* \"#utility.yul\":1113:1133   */\n      sub\n        /* \"#utility.yul\":1109:1110   */\n      0x00\n        /* \"#utility.yul\":1098:1107   */\n      dup4\n        /* \"#utility.yul\":1094:1111   */\n      add\n        /* \"#utility.yul\":1087:1134   */\n      mstore\n        /* \"#utility.yul\":1151:1229   */\n      tag_122\n        /* \"#utility.yul\":1224:1228   */\n      dup2\n        /* \"#utility.yul\":1215:1221   */\n      dup5\n        /* \"#utility.yul\":1151:1229   */\n      tag_81\n      jump\t// in\n    tag_122:\n        /* \"#utility.yul\":1143:1229   */\n      swap1\n      pop\n        /* \"#utility.yul\":923:1236   */\n      swap3\n      swap2\n      pop\n      pop\n      jump\t// out\n        /* \"#utility.yul\":1242:1317   */\n    tag_82:\n        /* \"#utility.yul\":1275:1281   */\n      0x00\n        /* \"#utility.yul\":1308:1310   */\n      0x40\n        /* \"#utility.yul\":1302:1311   */\n      mload\n        /* \"#utility.yul\":1292:1311   */\n      swap1\n      pop\n        /* \"#utility.yul\":1242:1317   */\n      swap1\n      jump\t// out\n        /* \"#utility.yul\":1323:1440   */\n    tag_83:\n        /* \"#utility.yul\":1432:1433   */\n      0x00\n        /* \"#utility.yul\":1429:1430   */\n      0x00\n        /* \"#utility.yul\":1422:1434   */\n      revert\n        /* \"#utility.yul\":1446:1563   */\n    tag_84:\n        /* \"#utility.yul\":1555:1556   */\n      0x00\n        /* \"#utility.yul\":1552:1553   */\n      0x00\n        /* \"#utility.yul\":1545:1557   */\n      revert\n        /* \"#utility.yul\":1569:1686   */\n    tag_85:\n        /* \"#utility.yul\":1678:1679   */\n      0x00\n        /* \"#utility.yul\":1675:1676   */\n      0x00\n        /* \"#utility.yul\":1668:1680   */\n      revert\n        /* \"#utility.yul\":1692:1809   */\n    tag_86:\n        /* \"#utility.yul\":1801:1802   */\n      0x00\n        /* \"#utility.yul\":1798:1799   */\n      0x00\n        /* \"#utility.yul\":1791:1803   */\n      revert\n        /* \"#utility.yul\":1815:1995   */\n    tag_87:\n        /* \"#utility.yul\":1863:1940   */\n      0x4e487b7100000000000000000000000000000000000000000000000000000000\n        /* \"#utility.yul\":1860:1861   */\n      0x00\n        /* \"#utility.yul\":1853:1941   */\n      mstore\n        /* \"#utility.yul\":1960:1964   */\n      0x41\n        /* \"#utility.yul\":1957:1958   */\n      0x04\n        /* \"#utility.yul\":1950:1965   */\n      mstore\n        /* \"#utility.yul\":1984:1988   */\n      0x24\n        /* \"#utility.yul\":1981:1982   */\n      0x00\n        /* \"#utility.yul\":1974:1989   */\n      revert\n        /* \"#utility.yul\":2001:2282   */\n    tag_88:\n        /* \"#utility.yul\":2084:2111   */\n      tag_130\n        /* \"#utility.yul\":2106:2110   */\n      dup3\n        /* \"#utility.yul\":2084:2111   */\n      tag_80\n      jump\t// in\n    tag_130:\n        /* \"#utility.yul\":2076:2082   */\n      dup2\n        /* \"#utility.yul\":2072:2112   */\n      add\n        /* \"#utility.yul\":2214:2220   */\n      dup2\n        /* \"#utility.yul\":2202:2212   */\n      dup2\n        /* \"#utility.yul\":2199:2221   */\n      lt\n        /* \"#utility.yul\":2178:2196   */\n      0xffffffffffffffff\n        /* \"#utility.yul\":2166:2176   */\n      dup3\n        /* \"#utility.yul\":2163:2197   */\n      gt\n        /* \"#utility.yul\":2160:2222   */\n      or\n        /* \"#utility.yul\":2157:2245   */\n      iszero\n      tag_131\n      jumpi\n        /* \"#utility.yul\":2225:2243   */\n      tag_132\n      tag_87\n      jump\t// in\n    tag_132:\n        /* \"#utility.yul\":2157:2245   */\n    tag_131:\n        /* \"#utility.yul\":2265:2275   */\n      dup1\n        /* \"#utility.yul\":2261:2263   */\n      0x40\n        /* \"#utility.yul\":2254:2276   */\n      mstore\n        /* \"#utility.yul\":2044:2282   */\n      pop\n        /* \"#utility.yul\":2001:2282   */\n      pop\n      pop\n      jump\t// out\n        /* \"#utility.yul\":2288:2417   */\n    tag_89:\n        /* \"#utility.yul\":2322:2328   */\n      0x00\n        /* \"#utility.yul\":2349:2369   */\n      tag_134\n      tag_82\n      jump\t// in\n    tag_134:\n        /* \"#utility.yul\":2339:2369   */\n      swap1\n      pop\n        /* \"#utility.yul\":2378:2411   */\n      tag_135\n        /* \"#utility.yul\":2406:2410   */\n      dup3\n        /* \"#utility.yul\":2398:2404   */\n      dup3\n        /* \"#utility.yul\":2378:2411   */\n      tag_88\n      jump\t// in\n    tag_135:\n        /* \"#utility.yul\":2288:2417   */\n      swap2\n      swap1\n      pop\n      jump\t// out\n        /* \"#utility.yul\":2423:2731   */\n    tag_90:\n        /* \"#utility.yul\":2485:2489   */\n      0x00\n        /* \"#utility.yul\":2575:2593   */\n      0xffffffffffffffff\n        /* \"#utility.yul\":2567:2573   */\n      dup3\n        /* \"#utility.yul\":2564:2594   */\n      gt\n        /* \"#utility.yul\":2561:2617   */\n      iszero\n      tag_137\n      jumpi\n        /* \"#utility.yul\":2597:2615   */\n      tag_138\n      tag_87\n      jump\t// in\n    tag_138:\n        /* \"#utility.yul\":2561:2617   */\n    tag_137:\n        /* \"#utility.yul\":2635:2664   */\n      tag_139\n        /* \"#utility.yul\":2657:2663   */\n      dup3\n        /* \"#utility.yul\":2635:2664   */\n      tag_80\n      jump\t// in\n    tag_139:\n        /* \"#utility.yul\":2627:2664   */\n      swap1\n      pop\n        /* \"#utility.yul\":2719:2723   */\n      0x20\n        /* \"#utility.yul\":2713:2717   */\n      dup2\n        /* \"#utility.yul\":2709:2724   */\n      add\n        /* \"#utility.yul\":2701:2724   */\n      swap1\n      pop\n        /* \"#utility.yul\":2423:2731   */\n      swap2\n      swap1\n      pop\n      jump\t// out\n        /* \"#utility.yul\":2737:2885   */\n    tag_91:\n        /* \"#utility.yul\":2835:2841   */\n      dup3\n        /* \"#utility.yul\":2830:2833   */\n      dup2\n        /* \"#utility.yul\":2825:2828   */\n      dup4\n        /* \"#utility.yul\":2812:2842   */\n      calldatacopy\n        /* \"#utility.yul\":2876:2877   */\n      0x00\n        /* \"#utility.yul\":2867:2873   */\n      dup4\n        /* \"#utility.yul\":2862:2865   */\n      dup4\n        /* \"#utility.yul\":2858:2874   */\n      add\n        /* \"#utility.yul\":2851:2878   */\n      mstore\n        /* \"#utility.yul\":2737:2885   */\n      pop\n      pop\n      pop\n      jump\t// out\n        /* \"#utility.yul\":2891:3316   */\n    tag_92:\n        /* \"#utility.yul\":2969:2974   */\n      0x00\n        /* \"#utility.yul\":2994:3060   */\n      tag_142\n        /* \"#utility.yul\":3010:3059   */\n      tag_143\n        /* \"#utility.yul\":3052:3058   */\n      dup5\n        /* \"#utility.yul\":3010:3059   */\n      tag_90\n      jump\t// in\n    tag_143:\n        /* \"#utility.yul\":2994:3060   */\n      tag_89\n      jump\t// in\n    tag_142:\n        /* \"#utility.yul\":2985:3060   */\n      swap1\n      pop\n        /* \"#utility.yul\":3083:3089   */\n      dup3\n        /* \"#utility.yul\":3076:3081   */\n      dup2\n        /* \"#utility.yul\":3069:3090   */\n      mstore\n        /* \"#utility.yul\":3121:3125   */\n      0x20\n        /* \"#utility.yul\":3114:3119   */\n      dup2\n        /* \"#utility.yul\":3110:3126   */\n      add\n        /* \"#utility.yul\":3159:3162   */\n      dup5\n        /* \"#utility.yul\":3150:3156   */\n      dup5\n        /* \"#utility.yul\":3145:3148   */\n      dup5\n        /* \"#utility.yul\":3141:3157   */\n      add\n        /* \"#utility.yul\":3138:3163   */\n      gt\n        /* \"#utility.yul\":3135:3247   */\n      iszero\n      tag_144\n      jumpi\n        /* \"#utility.yul\":3166:3245   */\n      tag_145\n      tag_86\n      jump\t// in\n    tag_145:\n        /* \"#utility.yul\":3135:3247   */\n    tag_144:\n        /* \"#utility.yul\":3256:3310   */\n      tag_146\n        /* \"#utility.yul\":3303:3309   */\n      dup5\n        /* \"#utility.yul\":3298:3301   */\n      dup3\n        /* \"#utility.yul\":3293:3296   */\n      dup6\n        /* \"#utility.yul\":3256:3310   */\n      tag_91\n      jump\t// in\n    tag_146:\n        /* \"#utility.yul\":2975:3316   */\n      pop\n        /* \"#utility.yul\":2891:3316   */\n      swap4\n      swap3\n      pop\n      pop\n      pop\n      jump\t// out\n        /* \"#utility.yul\":3336:3676   */\n    tag_93:\n        /* \"#utility.yul\":3392:3397   */\n      0x00\n        /* \"#utility.yul\":3441:3444   */\n      dup3\n        /* \"#utility.yul\":3434:3438   */\n      0x1f\n        /* \"#utility.yul\":3426:3432   */\n      dup4\n        /* \"#utility.yul\":3422:3439   */\n      add\n        /* \"#utility.yul\":3418:3445   */\n      slt\n        /* \"#utility.yul\":3408:3530   */\n      tag_148\n      jumpi\n        /* \"#utility.yul\":3449:3528   */\n      tag_149\n      tag_85\n      jump\t// in\n    tag_149:\n        /* \"#utility.yul\":3408:3530   */\n    tag_148:\n        /* \"#utility.yul\":3566:3572   */\n      dup2\n        /* \"#utility.yul\":3553:3573   */\n      calldataload\n        /* \"#utility.yul\":3591:3670   */\n      tag_150\n        /* \"#utility.yul\":3666:3669   */\n      dup5\n        /* \"#utility.yul\":3658:3664   */\n      dup3\n        /* \"#utility.yul\":3651:3655   */\n      0x20\n        /* \"#utility.yul\":3643:3649   */\n      dup7\n        /* \"#utility.yul\":3639:3656   */\n      add\n        /* \"#utility.yul\":3591:3670   */\n      tag_92\n      jump\t// in\n    tag_150:\n        /* \"#utility.yul\":3582:3670   */\n      swap2\n      pop\n        /* \"#utility.yul\":3398:3676   */\n      pop\n        /* \"#utility.yul\":3336:3676   */\n      swap3\n      swap2\n      pop\n      pop\n      jump\t// out\n        /* \"#utility.yul\":3682:4191   */\n    tag_14:\n        /* \"#utility.yul\":3751:3757   */\n      0x00\n        /* \"#utility.yul\":3800:3802   */\n      0x20\n        /* \"#utility.yul\":3788:3797   */\n      dup3\n        /* \"#utility.yul\":3779:3786   */\n      dup5\n        /* \"#utility.yul\":3775:3798   */\n      sub\n        /* \"#utility.yul\":3771:3803   */\n      slt\n        /* \"#utility.yul\":3768:3887   */\n      iszero\n      tag_152\n      jumpi\n        /* \"#utility.yul\":3806:3885   */\n      tag_153\n      tag_83\n      jump\t// in\n    tag_153:\n        /* \"#utility.yul\":3768:3887   */\n    tag_152:\n        /* \"#utility.yul\":3954:3955   */\n      0x00\n        /* \"#utility.yul\":3943:3952   */\n      dup3\n        /* \"#utility.yul\":3939:3956   */\n      add\n        /* \"#utility.yul\":3926:3957   */\n      calldataload\n        /* \"#utility.yul\":3984:4002   */\n      0xffffffffffffffff\n        /* \"#utility.yul\":3976:3982   */\n      dup2\n        /* \"#utility.yul\":3973:4003   */\n      gt\n        /* \"#utility.yul\":3970:4087   */\n      iszero\n      tag_154\n      jumpi\n        /* \"#utility.yul\":4006:4085   */\n      tag_155\n      tag_84\n      jump\t// in\n    tag_155:\n        /* \"#utility.yul\":3970:4087   */\n    tag_154:\n        /* \"#utility.yul\":4111:4174   */\n      tag_156\n        /* \"#utility.yul\":4166:4173   */\n      dup5\n        /* \"#utility.yul\":4157:4163   */\n      dup3\n        /* \"#utility.yul\":4146:4155   */\n      dup6\n        /* \"#utility.yul\":4142:4164   */\n      add\n        /* \"#utility.yul\":4111:4174   */\n      tag_93\n      jump\t// in\n    tag_156:\n        /* \"#utility.yul\":4101:4174   */\n      swap2\n      pop\n        /* \"#utility.yul\":3897:4184   */\n      pop\n        /* \"#utility.yul\":3682:4191   */\n      swap3\n      swap2\n      pop\n      pop\n      jump\t// out\n        /* \"#utility.yul\":4197:5356   */\n    tag_18:\n        /* \"#utility.yul\":4304:4310   */\n      0x00\n        /* \"#utility.yul\":4312:4318   */\n      0x00\n        /* \"#utility.yul\":4320:4326   */\n      0x00\n        /* \"#utility.yul\":4369:4371   */\n      0x60\n        /* \"#utility.yul\":4357:4366   */\n      dup5\n        /* \"#utility.yul\":4348:4355   */\n      dup7\n        /* \"#utility.yul\":4344:4367   */\n      sub\n        /* \"#utility.yul\":4340:4372   */\n      slt\n        /* \"#utility.yul\":4337:4456   */\n      iszero\n      tag_158\n      jumpi\n        /* \"#utility.yul\":4375:4454   */\n      tag_159\n      tag_83\n      jump\t// in\n    tag_159:\n        /* \"#utility.yul\":4337:4456   */\n    tag_158:\n        /* \"#utility.yul\":4523:4524   */\n      0x00\n        /* \"#utility.yul\":4512:4521   */\n      dup5\n        /* \"#utility.yul\":4508:4525   */\n      add\n        /* \"#utility.yul\":4495:4526   */\n      calldataload\n        /* \"#utility.yul\":4553:4571   */\n      0xffffffffffffffff\n        /* \"#utility.yul\":4545:4551   */\n      dup2\n        /* \"#utility.yul\":4542:4572   */\n      gt\n        /* \"#utility.yul\":4539:4656   */\n      iszero\n      tag_160\n      jumpi\n        /* \"#utility.yul\":4575:4654   */\n      tag_161\n      tag_84\n      jump\t// in\n    tag_161:\n        /* \"#utility.yul\":4539:4656   */\n    tag_160:\n        /* \"#utility.yul\":4680:4743   */\n      tag_162\n        /* \"#utility.yul\":4735:4742   */\n      dup7\n        /* \"#utility.yul\":4726:4732   */\n      dup3\n        /* \"#utility.yul\":4715:4724   */\n      dup8\n        /* \"#utility.yul\":4711:4733   */\n      add\n        /* \"#utility.yul\":4680:4743   */\n      tag_93\n      jump\t// in\n    tag_162:\n        /* \"#utility.yul\":4670:4743   */\n      swap4\n      pop\n        /* \"#utility.yul\":4466:4753   */\n      pop\n        /* \"#utility.yul\":4820:4822   */\n      0x20\n        /* \"#utility.yul\":4809:4818   */\n      dup5\n        /* \"#utility.yul\":4805:4823   */\n      add\n        /* \"#utility.yul\":4792:4824   */\n      calldataload\n        /* \"#utility.yul\":4851:4869   */\n      0xffffffffffffffff\n        /* \"#utility.yul\":4843:4849   */\n      dup2\n        /* \"#utility.yul\":4840:4870   */\n      gt\n        /* \"#utility.yul\":4837:4954   */\n      iszero\n      tag_163\n      jumpi\n        /* \"#utility.yul\":4873:4952   */\n      tag_164\n      tag_84\n      jump\t// in\n    tag_164:\n        /* \"#utility.yul\":4837:4954   */\n    tag_163:\n        /* \"#utility.yul\":4978:5041   */\n      tag_165\n        /* \"#utility.yul\":5033:5040   */\n      dup7\n        /* \"#utility.yul\":5024:5030   */\n      dup3\n        /* \"#utility.yul\":5013:5022   */\n      dup8\n        /* \"#utility.yul\":5009:5031   */\n      add\n        /* \"#utility.yul\":4978:5041   */\n      tag_93\n      jump\t// in\n    tag_165:\n        /* \"#utility.yul\":4968:5041   */\n      swap3\n      pop\n        /* \"#utility.yul\":4763:5051   */\n      pop\n        /* \"#utility.yul\":5118:5120   */\n      0x40\n        /* \"#utility.yul\":5107:5116   */\n      dup5\n        /* \"#utility.yul\":5103:5121   */\n      add\n        /* \"#utility.yul\":5090:5122   */\n      calldataload\n        /* \"#utility.yul\":5149:5167   */\n      0xffffffffffffffff\n        /* \"#utility.yul\":5141:5147   */\n      dup2\n        /* \"#utility.yul\":5138:5168   */\n      gt\n        /* \"#utility.yul\":5135:5252   */\n      iszero\n      tag_166\n      jumpi\n        /* \"#utility.yul\":5171:5250   */\n      tag_167\n      tag_84\n      jump\t// in\n    tag_167:\n        /* \"#utility.yul\":5135:5252   */\n    tag_166:\n        /* \"#utility.yul\":5276:5339   */\n      tag_168\n        /* \"#utility.yul\":5331:5338   */\n      dup7\n        /* \"#utility.yul\":5322:5328   */\n      dup3\n        /* \"#utility.yul\":5311:5320   */\n      dup8\n        /* \"#utility.yul\":5307:5329   */\n      add\n        /* \"#utility.yul\":5276:5339   */\n      tag_93\n      jump\t// in\n    tag_168:\n        /* \"#utility.yul\":5266:5339   */\n      swap2\n      pop\n        /* \"#utility.yul\":5061:5349   */\n      pop\n        /* \"#utility.yul\":4197:5356   */\n      swap3\n      pop\n      swap3\n      pop\n      swap3\n      jump\t// out\n        /* \"#utility.yul\":5362:6077   */\n    tag_21:\n        /* \"#utility.yul\":5571:5575   */\n      0x00\n        /* \"#utility.yul\":5609:5611   */\n      0x60\n        /* \"#utility.yul\":5598:5607   */\n      dup3\n        /* \"#utility.yul\":5594:5612   */\n      add\n        /* \"#utility.yul\":5586:5612   */\n      swap1\n      pop\n        /* \"#utility.yul\":5658:5667   */\n      dup2\n        /* \"#utility.yul\":5652:5656   */\n      dup2\n        /* \"#utility.yul\":5648:5668   */\n      sub\n        /* \"#utility.yul\":5644:5645   */\n      0x00\n        /* \"#utility.yul\":5633:5642   */\n      dup4\n        /* \"#utility.yul\":5629:5646   */\n      add\n        /* \"#utility.yul\":5622:5669   */\n      mstore\n        /* \"#utility.yul\":5686:5764   */\n      tag_170\n        /* \"#utility.yul\":5759:5763   */\n      dup2\n        /* \"#utility.yul\":5750:5756   */\n      dup7\n        /* \"#utility.yul\":5686:5764   */\n      tag_81\n      jump\t// in\n    tag_170:\n        /* \"#utility.yul\":5678:5764   */\n      swap1\n      pop\n        /* \"#utility.yul\":5811:5820   */\n      dup2\n        /* \"#utility.yul\":5805:5809   */\n      dup2\n        /* \"#utility.yul\":5801:5821   */\n      sub\n        /* \"#utility.yul\":5796:5798   */\n      0x20\n        /* \"#utility.yul\":5785:5794   */\n      dup4\n        /* \"#utility.yul\":5781:5799   */\n      add\n        /* \"#utility.yul\":5774:5822   */\n      mstore\n        /* \"#utility.yul\":5839:5917   */\n      tag_171\n        /* \"#utility.yul\":5912:5916   */\n      dup2\n        /* \"#utility.yul\":5903:5909   */\n      dup6\n        /* \"#utility.yul\":5839:5917   */\n      tag_81\n      jump\t// in\n    tag_171:\n        /* \"#utility.yul\":5831:5917   */\n      swap1\n      pop\n        /* \"#utility.yul\":5964:5973   */\n      dup2\n        /* \"#utility.yul\":5958:5962   */\n      dup2\n        /* \"#utility.yul\":5954:5974   */\n      sub\n        /* \"#utility.yul\":5949:5951   */\n      0x40\n        /* \"#utility.yul\":5938:5947   */\n      dup4\n        /* \"#utility.yul\":5934:5952   */\n      add\n        /* \"#utility.yul\":5927:5975   */\n      mstore\n        /* \"#utility.yul\":5992:6070   */\n      tag_172\n        /* \"#utility.yul\":6065:6069   */\n      dup2\n        /* \"#utility.yul\":6056:6062   */\n      dup5\n        /* \"#utility.yul\":5992:6070   */\n      tag_81\n      jump\t// in\n    tag_172:\n        /* \"#utility.yul\":5984:6070   */\n      swap1\n      pop\n        /* \"#utility.yul\":5362:6077   */\n      swap5\n      swap4\n      pop\n      pop\n      pop\n      pop\n      jump\t// out\n        /* \"#utility.yul\":6083:6263   */\n    tag_94:\n        /* \"#utility.yul\":6131:6208   */\n      0x4e487b7100000000000000000000000000000000000000000000000000000000\n        /* \"#utility.yul\":6128:6129   */\n      0x00\n        /* \"#utility.yul\":6121:6209   */\n      mstore\n        /* \"#utility.yul\":6228:6232   */\n      0x22\n        /* \"#utility.yul\":6225:6226   */\n      0x04\n        /* \"#utility.yul\":6218:6233   */\n      mstore\n        /* \"#utility.yul\":6252:6256   */\n      0x24\n        /* \"#utility.yul\":6249:6250   */\n      0x00\n        /* \"#utility.yul\":6242:6257   */\n      revert\n        /* \"#utility.yul\":6269:6589   */\n    tag_30:\n        /* \"#utility.yul\":6313:6319   */\n      0x00\n        /* \"#utility.yul\":6350:6351   */\n      0x02\n        /* \"#utility.yul\":6344:6348   */\n      dup3\n        /* \"#utility.yul\":6340:6352   */\n      div\n        /* \"#utility.yul\":6330:6352   */\n      swap1\n      pop\n        /* \"#utility.yul\":6397:6398   */\n      0x01\n        /* \"#utility.yul\":6391:6395   */\n      dup3\n        /* \"#utility.yul\":6387:6399   */\n      and\n        /* \"#utility.yul\":6418:6436   */\n      dup1\n        /* \"#utility.yul\":6408:6489   */\n      tag_175\n      jumpi\n        /* \"#utility.yul\":6474:6478   */\n      0x7f\n        /* \"#utility.yul\":6466:6472   */\n      dup3\n        /* \"#utility.yul\":6462:6479   */\n      and\n        /* \"#utility.yul\":6452:6479   */\n      swap2\n      pop\n        /* \"#utility.yul\":6408:6489   */\n    tag_175:\n        /* \"#utility.yul\":6536:6538   */\n      0x20\n        /* \"#utility.yul\":6528:6534   */\n      dup3\n        /* \"#utility.yul\":6525:6539   */\n      lt\n        /* \"#utility.yul\":6505:6523   */\n      dup2\n        /* \"#utility.yul\":6502:6540   */\n      sub\n        /* \"#utility.yul\":6499:6583   */\n      tag_176\n      jumpi\n        /* \"#utility.yul\":6555:6573   */\n      tag_177\n      tag_94\n      jump\t// in\n    tag_177:\n        /* \"#utility.yul\":6499:6583   */\n    tag_176:\n        /* \"#utility.yul\":6320:6589   */\n      pop\n        /* \"#utility.yul\":6269:6589   */\n      swap2\n      swap1\n      pop\n      jump\t// out\n        /* \"#utility.yul\":6595:6736   */\n    tag_95:\n        /* \"#utility.yul\":6644:6648   */\n      0x00\n        /* \"#utility.yul\":6667:6670   */\n      dup2\n        /* \"#utility.yul\":6659:6670   */\n      swap1\n      pop\n        /* \"#utility.yul\":6690:6693   */\n      dup2\n        /* \"#utility.yul\":6687:6688   */\n      0x00\n        /* \"#utility.yul\":6680:6694   */\n      mstore\n        /* \"#utility.yul\":6724:6728   */\n      0x20\n        /* \"#utility.yul\":6721:6722   */\n      0x00\n        /* \"#utility.yul\":6711:6729   */\n      keccak256\n        /* \"#utility.yul\":6703:6729   */\n      swap1\n      pop\n        /* \"#utility.yul\":6595:6736   */\n      swap2\n      swap1\n      pop\n      jump\t// out\n        /* \"#utility.yul\":6742:6835   */\n    tag_96:\n        /* \"#utility.yul\":6779:6785   */\n      0x00\n        /* \"#utility.yul\":6826:6828   */\n      0x20\n        /* \"#utility.yul\":6821:6823   */\n      0x1f\n        /* \"#utility.yul\":6814:6819   */\n      dup4\n        /* \"#utility.yul\":6810:6824   */\n      add\n        /* \"#utility.yul\":6806:6829   */\n      div\n        /* \"#utility.yul\":6796:6829   */\n      swap1\n      pop\n        /* \"#utility.yul\":6742:6835   */\n      swap2\n      swap1\n      pop\n      jump\t// out\n        /* \"#utility.yul\":6841:6948   */\n    tag_97:\n        /* \"#utility.yul\":6885:6893   */\n      0x00\n        /* \"#utility.yul\":6935:6940   */\n      dup3\n        /* \"#utility.yul\":6929:6933   */\n      dup3\n        /* \"#utility.yul\":6925:6941   */\n      shl\n        /* \"#utility.yul\":6904:6941   */\n      swap1\n      pop\n        /* \"#utility.yul\":6841:6948   */\n      swap3\n      swap2\n      pop\n      pop\n      jump\t// out\n        /* \"#utility.yul\":6954:7347   */\n    tag_98:\n        /* \"#utility.yul\":7023:7029   */\n      0x00\n        /* \"#utility.yul\":7073:7074   */\n      0x08\n        /* \"#utility.yul\":7061:7071   */\n      dup4\n        /* \"#utility.yul\":7057:7075   */\n      mul\n        /* \"#utility.yul\":7096:7193   */\n      tag_182\n        /* \"#utility.yul\":7126:7192   */\n      0xffffffffffffffffffffffffffffffffffffffffffffffffffffffffffffffff\n        /* \"#utility.yul\":7115:7124   */\n      dup3\n        /* \"#utility.yul\":7096:7193   */\n      tag_97\n      jump\t// in\n    tag_182:\n        /* \"#utility.yul\":7214:7253   */\n      tag_183\n        /* \"#utility.yul\":7244:7252   */\n      dup7\n        /* \"#utility.yul\":7233:7242   */\n      dup4\n        /* \"#utility.yul\":7214:7253   */\n      tag_97\n      jump\t// in\n    tag_183:\n        /* \"#utility.yul\":7202:7253   */\n      swap6\n      pop\n        /* \"#utility.yul\":7286:7290   */\n      dup1\n        /* \"#utility.yul\":7282:7291   */\n      not\n        /* \"#utility.yul\":7275:7280   */\n      dup5\n        /* \"#utility.yul\":7271:7292   */\n      and\n        /* \"#utility.yul\":7262:7292   */\n      swap4\n      pop\n        /* \"#utility.yul\":7335:7339   */\n      dup1\n        /* \"#utility.yul\":7325:7333   */\n      dup7\n        /* \"#utility.yul\":7321:7340   */\n      and\n        /* \"#utility.yul\":7314:7319   */\n      dup5\n        /* \"#utility.yul\":7311:7341   */\n      or\n        /* \"#utility.yul\":7301:7341   */\n      swap3\n      pop\n        /* \"#utility.yul\":7030:7347   */\n      pop\n      pop\n        /* \"#utility.yul\":6954:7347   */\n      swap4\n      swap3\n      pop\n      pop\n      pop\n      jump\t// out\n        /* \"#utility.yul\":7353:7430   */\n    tag_99:\n        /* \"#utility.yul\":7390:7397   */\n      0x00\n        /* \"#utility.yul\":7419:7424   */\n      dup2\n        /* \"#utility.yul\":7408:7424   */\n      swap1\n      pop\n        /* \"#utility.yul\":7353:7430   */\n      swap2\n      swap1\n      pop\n      jump\t// out\n        /* \"#utility.yul\":7436:7496   */\n    tag_100:\n        /* \"#utility.yul\":7464:7467   */\n      0x00\n        /* \"#utility.yul\":7485:7490   */\n      dup2\n        /* \"#utility.yul\":7478:7490   */\n      swap1\n      pop\n        /* \"#utility.yul\":7436:7496   */\n      swap2\n      swap1\n      pop\n      jump\t// out\n        /* \"#utility.yul\":7502:7644   */\n    tag_101:\n        /* \"#utility.yul\":7552:7561   */\n      0x00\n        /* \"#utility.yul\":7585:7638   */\n      tag_187\n        /* \"#utility.yul\":7603:7637   */\n      tag_188\n        /* \"#utility.yul\":7612:7636   */\n      tag_189\n        /* \"#utility.yul\":7630:7635   */\n      dup5\n        /* \"#utility.yul\":7612:7636   */\n      tag_99\n      jump\t// in\n    tag_189:\n        /* \"#utility.yul\":7603:7637   */\n      tag_100\n      jump\t// in\n    tag_188:\n        /* \"#utility.yul\":7585:7638   */\n      tag_99\n      jump\t// in\n    tag_187:\n        /* \"#utility.yul\":7572:7638   */\n      swap1\n      pop\n        /* \"#utility.yul\":7502:7644   */\n      swap2\n      swap1\n      pop\n      jump\t// out\n        /* \"#utility.yul\":7650:7725   */\n    tag_102:\n        /* \"#utility.yul\":7693:7696   */\n      0x00\n        /* \"#utility.yul\":7714:7719   */\n      dup2\n        /* \"#utility.yul\":7707:7719   */\n      swap1\n      pop\n        /* \"#utility.yul\":7650:7725   */\n      swap2\n      swap1\n      pop\n      jump\t// out\n        /* \"#utility.yul\":7731:8000   */\n    tag_103:\n        /* \"#utility.yul\":7841:7880   */\n      tag_192\n        /* \"#utility.yul\":7872:7879   */\n      dup4\n        /* \"#utility.yul\":7841:7880   */\n      tag_101\n      jump\t// in\n    tag_192:\n        /* \"#utility.yul\":7902:7993   */\n      tag_193\n        /* \"#utility.yul\":7951:7992   */\n      tag_194\n        /* \"#utility.yul\":7975:7991   */\n      dup3\n        /* \"#utility.yul\":7951:7992   */\n      tag_102\n      jump\t// in\n    tag_194:\n        /* \"#utility.yul\":7943:7949   */\n      dup5\n        /* \"#utility.yul\":7936:7940   */\n      dup5\n        /* \"#utility.yul\":7930:7941   */\n      sload\n        /* \"#utility.yul\":7902:7993   */\n      tag_98\n      jump\t// in\n    tag_193:\n        /* \"#utility.yul\":7896:7900   */\n      dup3\n        /* \"#utility.yul\":7889:7994   */\n      sstore\n        /* \"#utility.yul\":7807:8000   */\n      pop\n        /* \"#utility.yul\":7731:8000   */\n      pop\n      pop\n      pop\n      jump\t// out\n        /* \"#utility.yul\":8006:8079   */\n    tag_104:\n        /* \"#utility.yul\":8051:8054   */\n      0x00\n        /* \"#utility.yul\":8072:8073   */\n      0x00\n        /* \"#utility.yul\":8065:8073   */\n      swap1\n      pop\n        /* \"#utility.yul\":8006:8079   */\n      swap1\n      jump\t// out\n        /* \"#utility.yul\":8085:8274   */\n    tag_105:\n        /* \"#utility.yul\":8162:8194   */\n      tag_197\n      tag_104\n      jump\t// in\n    tag_197:\n        /* \"#utility.yul\":8203:8268   */\n      tag_198\n        /* \"#utility.yul\":8261:8267   */\n      dup2\n        /* \"#utility.yul\":8253:8259   */\n      dup5\n        /* \"#utility.yul\":8247:8251   */\n      dup5\n        /* \"#utility.yul\":8203:8268   */\n      tag_103\n      jump\t// in\n    tag_198:\n        /* \"#utility.yul\":8138:8274   */\n      pop\n        /* \"#utility.yul\":8085:8274   */\n      pop\n      pop\n      jump\t// out\n        /* \"#utility.yul\":8280:8466   */\n    tag_106:\n        /* \"#utility.yul\":8340:8460   */\n    tag_200:\n        /* \"#utility.yul\":8357:8360   */\n      dup2\n        /* \"#utility.yul\":8350:8355   */\n      dup2\n        /* \"#utility.yul\":8347:8361   */\n      lt\n        /* \"#utility.yul\":8340:8460   */\n      iszero\n      tag_202\n      jumpi\n        /* \"#utility.yul\":8411:8450   */\n      tag_203\n        /* \"#utility.yul\":8448:8449   */\n      0x00\n        /* \"#utility.yul\":8441:8446   */\n      dup3\n        /* \"#utility.yul\":8411:8450   */\n      tag_105\n      jump\t// in\n    tag_203:\n        /* \"#utility.yul\":8384:8385   */\n      0x01\n        /* \"#utility.yul\":8377:8382   */\n      dup2\n        /* \"#utility.yul\":8373:8386   */\n      add\n        /* \"#utility.yul\":8364:8386   */\n      swap1\n      pop\n        /* \"#utility.yul\":8340:8460   */\n      jump(tag_200)\n    tag_202:\n        /* \"#utility.yul\":8280:8466   */\n      pop\n      pop\n      jump\t// out\n        /* \"#utility.yul\":8472:9015   */\n    tag_107:\n        /* \"#utility.yul\":8573:8575   */\n      0x1f\n        /* \"#utility.yul\":8568:8571   */\n      dup3\n        /* \"#utility.yul\":8565:8576   */\n      gt\n        /* \"#utility.yul\":8562:9008   */\n      iszero\n      tag_205\n      jumpi\n        /* \"#utility.yul\":8607:8645   */\n      tag_206\n        /* \"#utility.yul\":8639:8644   */\n      dup2\n        /* \"#utility.yul\":8607:8645   */\n      tag_95\n      jump\t// in\n    tag_206:\n        /* \"#utility.yul\":8691:8720   */\n      tag_207\n        /* \"#utility.yul\":8709:8719   */\n      dup5\n        /* \"#utility.yul\":8691:8720   */\n      tag_96\n      jump\t// in\n    tag_207:\n        /* \"#utility.yul\":8681:8689   */\n      dup2\n        /* \"#utility.yul\":8677:8721   */\n      add\n        /* \"#utility.yul\":8874:8876   */\n      0x20\n        /* \"#utility.yul\":8862:8872   */\n      dup6\n        /* \"#utility.yul\":8859:8877   */\n      lt\n        /* \"#utility.yul\":8856:8905   */\n      iszero\n      tag_208\n      jumpi\n        /* \"#utility.yul\":8895:8903   */\n      dup2\n        /* \"#utility.yul\":8880:8903   */\n      swap1\n      pop\n        /* \"#utility.yul\":8856:8905   */\n    tag_208:\n        /* \"#utility.yul\":8918:8998   */\n      tag_209\n        /* \"#utility.yul\":8974:8996   */\n      tag_210\n        /* \"#utility.yul\":8992:8995   */\n      dup6\n        /* \"#utility.yul\":8974:8996   */\n      tag_96\n      jump\t// in\n    tag_210:\n        /* \"#utility.yul\":8964:8972   */\n      dup4\n        /* \"#utility.yul\":8960:8997   */\n      add\n        /* \"#utility.yul\":8947:8958   */\n      dup3\n        /* \"#utility.yul\":8918:8998   */\n      tag_106\n      jump\t// in\n    tag_209:\n        /* \"#utility.yul\":8577:9008   */\n      pop\n      pop\n        /* \"#utility.yul\":8562:9008   */\n    tag_205:\n        /* \"#utility.yul\":8472:9015   */\n      pop\n      pop\n      pop\n      jump\t// out\n        /* \"#utility.yul\":9021:9138   */\n    tag_108:\n        /* \"#utility.yul\":9075:9083   */\n      0x00\n        /* \"#utility.yul\":9125:9130   */\n      dup3\n        /* \"#utility.yul\":9119:9123   */\n      dup3\n        /* \"#utility.yul\":9115:9131   */\n      shr\n        /* \"#utility.yul\":9094:9131   */\n      swap1\n      pop\n        /* \"#utility.yul\":9021:9138   */\n      swap3\n      swap2\n      pop\n      pop\n      jump\t// out\n        /* \"#utility.yul\":9144:9313   */\n    tag_109:\n        /* \"#utility.yul\":9188:9194   */\n      0x00\n        /* \"#utility.yul\":9221:9272   */\n      tag_213\n        /* \"#utility.yul\":9269:9270   */\n      0x00\n        /* \"#utility.yul\":9265:9271   */\n      not\n        /* \"#utility.yul\":9257:9262   */\n      dup5\n        /* \"#utility.yul\":9254:9255   */\n      0x08\n        /* \"#utility.yul\":9250:9263   */\n      mul\n        /* \"#utility.yul\":9221:9272   */\n      tag_108\n      jump\t// in\n    tag_213:\n        /* \"#utility.yul\":9217:9273   */\n      not\n        /* \"#utility.yul\":9302:9306   */\n      dup1\n        /* \"#utility.yul\":9296:9300   */\n      dup4\n        /* \"#utility.yul\":9292:9307   */\n      and\n        /* \"#utility.yul\":9282:9307   */\n      swap2\n      pop\n        /* \"#utility.yul\":9195:9313   */\n      pop\n        /* \"#utility.yul\":9144:9313   */\n      swap3\n      swap2\n      pop\n      pop\n      jump\t// out\n        /* \"#utility.yul\":9318:9613   */\n    tag_110:\n        /* \"#utility.yul\":9394:9398   */\n      0x00\n        /* \"#utility.yul\":9540:9569   */\n      tag_215\n        /* \"#utility.yul\":9565:9568   */\n      dup4\n        /* \"#utility.yul\":9559:9563   */\n      dup4\n        /* \"#utility.yul\":9540:9569   */\n      tag_109\n      jump\t// in\n    tag_215:\n        /* \"#utility.yul\":9532:9569   */\n      swap2\n      pop\n        /* \"#utility.yul\":9602:9605   */\n      dup3\n        /* \"#utility.yul\":9599:9600   */\n      0x02\n        /* \"#utility.yul\":9595:9606   */\n      mul\n        /* \"#utility.yul\":9589:9593   */\n      dup3\n        /* \"#utility.yul\":9586:9607   */\n      or\n        /* \"#utility.yul\":9578:9607   */\n      swap1\n      pop\n        /* \"#utility.yul\":9318:9613   */\n      swap3\n      swap2\n      pop\n      pop\n      jump\t// out\n        /* \"#utility.yul\":9618:11013   */\n    tag_37:\n        /* \"#utility.yul\":9735:9772   */\n      tag_217\n        /* \"#utility.yul\":9768:9771   */\n      dup3\n        /* \"#utility.yul\":9735:9772   */\n      tag_77\n      jump\t// in\n    tag_217:\n        /* \"#utility.yul\":9837:9855   */\n      0xffffffffffffffff\n        /* \"#utility.yul\":9829:9835   */\n      dup2\n        /* \"#utility.yul\":9826:9856   */\n      gt\n        /* \"#utility.yul\":9823:9879   */\n      iszero\n      tag_218\n      jumpi\n        /* \"#utility.yul\":9859:9877   */\n      tag_219\n      tag_87\n      jump\t// in\n    tag_219:\n        /* \"#utility.yul\":9823:9879   */\n    tag_218:\n        /* \"#utility.yul\":9903:9941   */\n      tag_220\n        /* \"#utility.yul\":9935:9939   */\n      dup3\n        /* \"#utility.yul\":9929:9940   */\n      sload\n        /* \"#utility.yul\":9903:9941   */\n      tag_30\n      jump\t// in\n    tag_220:\n        /* \"#utility.yul\":9988:10055   */\n      tag_221\n        /* \"#utility.yul\":10048:10054   */\n      dup3\n        /* \"#utility.yul\":10040:10046   */\n      dup3\n        /* \"#utility.yul\":10034:10038   */\n      dup6\n        /* \"#utility.yul\":9988:10055   */\n      tag_107\n      jump\t// in\n    tag_221:\n        /* \"#utility.yul\":10082:10083   */\n      0x00\n        /* \"#utility.yul\":10106:10110   */\n      0x20\n        /* \"#utility.yul\":10093:10110   */\n      swap1\n      pop\n        /* \"#utility.yul\":10138:10140   */\n      0x1f\n        /* \"#utility.yul\":10130:10136   */\n      dup4\n        /* \"#utility.yul\":10127:10141   */\n      gt\n        /* \"#utility.yul\":10155:10156   */\n      0x01\n        /* \"#utility.yul\":10150:10768   */\n      dup2\n      eq\n      tag_223\n      jumpi\n        /* \"#utility.yul\":10812:10813   */\n      0x00\n        /* \"#utility.yul\":10829:10835   */\n      dup5\n        /* \"#utility.yul\":10826:10903   */\n      iszero\n      tag_224\n      jumpi\n        /* \"#utility.yul\":10878:10887   */\n      dup3\n        /* \"#utility.yul\":10873:10876   */\n      dup8\n        /* \"#utility.yul\":10869:10888   */\n      add\n        /* \"#utility.yul\":10863:10889   */\n      mload\n        /* \"#utility.yul\":10854:10889   */\n      swap1\n      pop\n        /* \"#utility.yul\":10826:10903   */\n    tag_224:\n        /* \"#utility.yul\":10929:10996   */\n      tag_225\n        /* \"#utility.yul\":10989:10995   */\n      dup6\n        /* \"#utility.yul\":10982:10987   */\n      dup3\n        /* \"#utility.yul\":10929:10996   */\n      tag_110\n      jump\t// in\n    tag_225:\n        /* \"#utility.yul\":10923:10927   */\n      dup7\n        /* \"#utility.yul\":10916:10997   */\n      sstore\n        /* \"#utility.yul\":10785:11007   */\n      pop\n        /* \"#utility.yul\":10120:11007   */\n      jump(tag_222)\n        /* \"#utility.yul\":10150:10768   */\n    tag_223:\n        /* \"#utility.yul\":10202:10206   */\n      0x1f\n        /* \"#utility.yul\":10198:10207   */\n      not\n        /* \"#utility.yul\":10190:10196   */\n      dup5\n        /* \"#utility.yul\":10186:10208   */\n      and\n        /* \"#utility.yul\":10236:10273   */\n      tag_226\n        /* \"#utility.yul\":10268:10272   */\n      dup7\n        /* \"#utility.yul\":10236:10273   */\n      tag_95\n      jump\t// in\n    tag_226:\n        /* \"#utility.yul\":10295:10296   */\n      0x00\n        /* \"#utility.yul\":10309:10517   */\n    tag_227:\n        /* \"#utility.yul\":10323:10330   */\n      dup3\n        /* \"#utility.yul\":10320:10321   */\n      dup2\n        /* \"#utility.yul\":10317:10331   */\n      lt\n        /* \"#utility.yul\":10309:10517   */\n      iszero\n      tag_229\n      jumpi\n        /* \"#utility.yul\":10402:10411   */\n      dup5\n        /* \"#utility.yul\":10397:10400   */\n      dup10\n        /* \"#utility.yul\":10393:10412   */\n      add\n        /* \"#utility.yul\":10387:10413   */\n      mload\n        /* \"#utility.yul\":10379:10385   */\n      dup3\n        /* \"#utility.yul\":10372:10414   */\n      sstore\n        /* \"#utility.yul\":10453:10454   */\n      0x01\n        /* \"#utility.yul\":10445:10451   */\n      dup3\n        /* \"#utility.yul\":10441:10455   */\n      add\n        /* \"#utility.yul\":10431:10455   */\n      swap2\n      pop\n        /* \"#utility.yul\":10500:10502   */\n      0x20\n        /* \"#utility.yul\":10489:10498   */\n      dup6\n        /* \"#utility.yul\":10485:10503   */\n      add\n        /* \"#utility.yul\":10472:10503   */\n      swap5\n      pop\n        /* \"#utility.yul\":10346:10350   */\n      0x20\n        /* \"#utility.yul\":10343:10344   */\n      dup2\n        /* \"#utility.yul\":10339:10351   */\n      add\n        /* \"#utility.yul\":10334:10351   */\n      swap1\n      pop\n        /* \"#utility.yul\":10309:10517   */\n      jump(tag_227)\n    tag_229:\n        /* \"#utility.yul\":10545:10551   */\n      dup7\n        /* \"#utility.yul\":10536:10543   */\n      dup4\n        /* \"#utility.yul\":10533:10552   */\n      lt\n        /* \"#utility.yul\":10530:10709   */\n      iszero\n      tag_230\n      jumpi\n        /* \"#utility.yul\":10603:10612   */\n      dup5\n        /* \"#utility.yul\":10598:10601   */\n      dup10\n        /* \"#utility.yul\":10594:10613   */\n      add\n        /* \"#utility.yul\":10588:10614   */\n      mload\n        /* \"#utility.yul\":10646:10694   */\n      tag_231\n        /* \"#utility.yul\":10688:10692   */\n      0x1f\n        /* \"#utility.yul\":10680:10686   */\n      dup10\n        /* \"#utility.yul\":10676:10693   */\n      and\n        /* \"#utility.yul\":10665:10674   */\n      dup3\n        /* \"#utility.yul\":10646:10694   */\n      tag_109\n      jump\t// in\n    tag_231:\n        /* \"#utility.yul\":10638:10644   */\n      dup4\n        /* \"#utility.yul\":10631:10695   */\n      sstore\n        /* \"#utility.yul\":10553:10709   */\n      pop\n        /* \"#utility.yul\":10530:10709   */\n    tag_230:\n        /* \"#utility.yul\":10755:10756   */\n      0x01\n        /* \"#utility.yul\":10751:10752   */\n      0x02\n        /* \"#utility.yul\":10743:10749   */\n      dup9\n        /* \"#utility.yul\":10739:10753   */\n      mul\n        /* \"#utility.yul\":10735:10757   */\n      add\n        /* \"#utility.yul\":10729:10733   */\n      dup9\n        /* \"#utility.yul\":10722:10758   */\n      sstore\n        /* \"#utility.yul\":10157:10768   */\n      pop\n      pop\n      pop\n        /* \"#utility.yul\":10120:11007   */\n    tag_222:\n      pop\n        /* \"#utility.yul\":9710:11013   */\n      pop\n      pop\n      pop\n        /* \"#utility.yul\":9618:11013   */\n      pop\n      pop\n      jump\t// out\n\n    auxdata: 0xa26469706673582212201b0bdd2ed71b4f9ea076e022b5f141b44e4996106e548c3627491f9b1fd0778d64736f6c634300081f0033\n}\n",
				"bytecode": {
					"linkReferences": {},
					"object": "6080604052348015600e575f5ffd5b50610b7c8061001c5f395ff3fe608060405234801561000f575f5ffd5b5060043610610055575f3560e01c806317d7de7c1461005957806384da92a714610077578063afb7f2ce14610093578063b05784b8146100c5578063f034d6b1146100e5575b5f5ffd5b610061610101565b60405161006e91906105df565b60405180910390f35b610091600480360381019061008c919061073c565b610190565b005b6100ad60048036038101906100a89190610783565b6101a2565b6040516100bc93929190610827565b60405180910390f35b6100cd610388565b6040516100dc93929190610827565b60405180910390f35b6100ff60048036038101906100fa9190610783565b61053b565b005b60605f805461010f9061089e565b80601f016020809104026020016040519081016040528092919081815260200182805461013b9061089e565b80156101865780601f1061015d57610100808354040283529160200191610186565b820191905f5260205f20905b81548152906001019060200180831161016957829003601f168201915b5050505050905090565b805f908161019e9190610a77565b5050565b6060806060855f90816101b59190610a77565b5084600190816101c59190610a77565b5083600290816101d59190610a77565b505f600160028280546101e79061089e565b80601f01602080910402602001604051908101604052809291908181526020018280546102139061089e565b801561025e5780601f106102355761010080835404028352916020019161025e565b820191905f5260205f20905b81548152906001019060200180831161024157829003601f168201915b505050505092508180546102719061089e565b80601f016020809104026020016040519081016040528092919081815260200182805461029d9061089e565b80156102e85780601f106102bf576101008083540402835291602001916102e8565b820191905f5260205f20905b8154815290600101906020018083116102cb57829003601f168201915b505050505091508080546102fb9061089e565b80601f01602080910402602001604051908101604052809291908181526020018280546103279061089e565b80156103725780601f1061034957610100808354040283529160200191610372565b820191905f5260205f20905b81548152906001019060200180831161035557829003601f168201915b5050505050905092509250925093509350939050565b60608060605f6001600282805461039e9061089e565b80601f01602080910402602001604051908101604052809291908181526020018280546103ca9061089e565b80156104155780601f106103ec57610100808354040283529160200191610415565b820191905f5260205f20905b8154815290600101906020018083116103f857829003601f168201915b505050505092508180546104289061089e565b80601f01602080910402602001604051908101604052809291908181526020018280546104549061089e565b801561049f5780601f106104765761010080835404028352916020019161049f565b820191905f5260205f20905b81548152906001019060200180831161048257829003601f168201915b505050505091508080546104b29061089e565b80601f01602080910402602001604051908101604052809291908181526020018280546104de9061089e565b80156105295780601f1061050057610100808354040283529160200191610529565b820191905f5260205f20905b81548152906001019060200180831161050c57829003601f168201915b50505050509050925092509250909192565b825f90816105499190610a77565b5081600190816105599190610a77565b5080600290816105699190610a77565b50505050565b5f81519050919050565b5f82825260208201905092915050565b8281835e5f83830152505050565b5f601f19601f8301169050919050565b5f6105b18261056f565b6105bb8185610579565b93506105cb818560208601610589565b6105d481610597565b840191505092915050565b5f6020820190508181035f8301526105f781846105a7565b905092915050565b5f604051905090565b5f5ffd5b5f5ffd5b5f5ffd5b5f5ffd5b7f4e487b71000000000000000000000000000000000000000000000000000000005f52604160045260245ffd5b61064e82610597565b810181811067ffffffffffffffff8211171561066d5761066c610618565b5b80604052505050565b5f61067f6105ff565b905061068b8282610645565b919050565b5f67ffffffffffffffff8211156106aa576106a9610618565b5b6106b382610597565b9050602081019050919050565b828183375f83830152505050565b5f6106e06106db84610690565b610676565b9050828152602081018484840111156106fc576106fb610614565b5b6107078482856106c0565b509392505050565b5f82601f83011261072357610722610610565b5b81356107338482602086016106ce565b91505092915050565b5f6020828403121561075157610750610608565b5b5f82013567ffffffffffffffff81111561076e5761076d61060c565b5b61077a8482850161070f565b91505092915050565b5f5f5f6060848603121561079a57610799610608565b5b5f84013567ffffffffffffffff8111156107b7576107b661060c565b5b6107c38682870161070f565b935050602084013567ffffffffffffffff8111156107e4576107e361060c565b5b6107f08682870161070f565b925050604084013567ffffffffffffffff8111156108115761081061060c565b5b61081d8682870161070f565b9150509250925092565b5f6060820190508181035f83015261083f81866105a7565b9050818103602083015261085381856105a7565b9050818103604083015261086781846105a7565b9050949350505050565b7f4e487b71000000000000000000000000000000000000000000000000000000005f52602260045260245ffd5b5f60028204905060018216806108b557607f821691505b6020821081036108c8576108c7610871565b5b50919050565b5f819050815f5260205f209050919050565b5f6020601f8301049050919050565b5f82821b905092915050565b5f6008830261092a7fffffffffffffffffffffffffffffffffffffffffffffffffffffffffffffffff826108ef565b61093486836108ef565b95508019841693508086168417925050509392505050565b5f819050919050565b5f819050919050565b5f61097861097361096e8461094c565b610955565b61094c565b9050919050565b5f819050919050565b6109918361095e565b6109a561099d8261097f565b8484546108fb565b825550505050565b5f5f905090565b6109bc6109ad565b6109c7818484610988565b505050565b5b818110156109ea576109df5f826109b4565b6001810190506109cd565b5050565b601f821115610a2f57610a00816108ce565b610a09846108e0565b81016020851015610a18578190505b610a2c610a24856108e0565b8301826109cc565b50505b505050565b5f82821c905092915050565b5f610a4f5f1984600802610a34565b1980831691505092915050565b5f610a678383610a40565b9150826002028217905092915050565b610a808261056f565b67ffffffffffffffff811115610a9957610a98610618565b5b610aa3825461089e565b610aae8282856109ee565b5f60209050601f831160018114610adf575f8415610acd578287015190505b610ad78582610a5c565b865550610b3e565b601f198416610aed866108ce565b5f5b82811015610b1457848901518255600182019150602085019450602081019050610aef565b86831015610b315784890151610b2d601f891682610a40565b8355505b6001600288020188555050505b50505050505056fea26469706673582212201b0bdd2ed71b4f9ea076e022b5f141b44e4996106e548c3627491f9b1fd0778d64736f6c634300081f0033",
					"opcodes": "PUSH1 0x80 PUSH1 0x40 MSTORE CALLVALUE DUP1 ISZERO PUSH1 0xE JUMPI PUSH0 PUSH0 REVERT JUMPDEST POP PUSH2 0xB7C DUP1 PUSH2 0x1C PUSH0 CODECOPY PUSH0 RETURN INVALID PUSH1 0x80 PUSH1 0x40 MSTORE CALLVALUE DUP1 ISZERO PUSH2 0xF JUMPI PUSH0 PUSH0 REVERT JUMPDEST POP PUSH1 0x4 CALLDATASIZE LT PUSH2 0x55 JUMPI PUSH0 CALLDATALOAD PUSH1 0xE0 SHR DUP1 PUSH4 0x17D7DE7C EQ PUSH2 0x59 JUMPI DUP1 PUSH4 0x84DA92A7 EQ PUSH2 0x77 JUMPI DUP1 PUSH4 0xAFB7F2CE EQ PUSH2 0x93 JUMPI DUP1 PUSH4 0xB05784B8 EQ PUSH2 0xC5 JUMPI DUP1 PUSH4 0xF034D6B1 EQ PUSH2 0xE5 JUMPI JUMPDEST PUSH0 PUSH0 REVERT JUMPDEST PUSH2 0x61 PUSH2 0x101 JUMP JUMPDEST PUSH1 0x40 MLOAD PUSH2 0x6E SWAP2 SWAP1 PUSH2 0x5DF JUMP JUMPDEST PUSH1 0x40 MLOAD DUP1 SWAP2 SUB SWAP1 RETURN JUMPDEST PUSH2 0x91 PUSH1 0x4 DUP1 CALLDATASIZE SUB DUP2 ADD SWAP1 PUSH2 0x8C SWAP2 SWAP1 PUSH2 0x73C JUMP JUMPDEST PUSH2 0x190 JUMP JUMPDEST STOP JUMPDEST PUSH2 0xAD PUSH1 0x4 DUP1 CALLDATASIZE SUB DUP2 ADD SWAP1 PUSH2 0xA8 SWAP2 SWAP1 PUSH2 0x783 JUMP JUMPDEST PUSH2 0x1A2 JUMP JUMPDEST PUSH1 0x40 MLOAD PUSH2 0xBC SWAP4 SWAP3 SWAP2 SWAP1 PUSH2 0x827 JUMP JUMPDEST PUSH1 0x40 MLOAD DUP1 SWAP2 SUB SWAP1 RETURN JUMPDEST PUSH2 0xCD PUSH2 0x388 JUMP JUMPDEST PUSH1 0x40 MLOAD PUSH2 0xDC SWAP4 SWAP3 SWAP2 SWAP1 PUSH2 0x827 JUMP JUMPDEST PUSH1 0x40 MLOAD DUP1 SWAP2 SUB SWAP1 RETURN JUMPDEST PUSH2 0xFF PUSH1 0x4 DUP1 CALLDATASIZE SUB DUP2 ADD SWAP1 PUSH2 0xFA SWAP2 SWAP1 PUSH2 0x783 JUMP JUMPDEST PUSH2 0x53B JUMP JUMPDEST STOP JUMPDEST PUSH1 0x60 PUSH0 DUP1 SLOAD PUSH2 0x10F SWAP1 PUSH2 0x89E JUMP JUMPDEST DUP1 PUSH1 0x1F ADD PUSH1 0x20 DUP1 SWAP2 DIV MUL PUSH1 0x20 ADD PUSH1 0x40 MLOAD SWAP1 DUP2 ADD PUSH1 0x40 MSTORE DUP1 SWAP3 SWAP2 SWAP1 DUP2 DUP2 MSTORE PUSH1 0x20 ADD DUP3 DUP1 SLOAD PUSH2 0x13B SWAP1 PUSH2 0x89E JUMP JUMPDEST DUP1 ISZERO PUSH2 0x186 JUMPI DUP1 PUSH1 0x1F LT PUSH2 0x15D JUMPI PUSH2 0x100 DUP1 DUP4 SLOAD DIV MUL DUP4 MSTORE SWAP2 PUSH1 0x20 ADD SWAP2 PUSH2 0x186 JUMP JUMPDEST DUP3 ADD SWAP2 SWAP1 PUSH0 MSTORE PUSH1 0x20 PUSH0 KECCAK256 SWAP1 JUMPDEST DUP2 SLOAD DUP2 MSTORE SWAP1 PUSH1 0x1 ADD SWAP1 PUSH1 0x20 ADD DUP1 DUP4 GT PUSH2 0x169 JUMPI DUP3 SWAP1 SUB PUSH1 0x1F AND DUP3 ADD SWAP2 JUMPDEST POP POP POP POP POP SWAP1 POP SWAP1 JUMP JUMPDEST DUP1 PUSH0 SWAP1 DUP2 PUSH2 0x19E SWAP2 SWAP1 PUSH2 0xA77 JUMP JUMPDEST POP POP JUMP JUMPDEST PUSH1 0x60 DUP1 PUSH1 0x60 DUP6 PUSH0 SWAP1 DUP2 PUSH2 0x1B5 SWAP2 SWAP1 PUSH2 0xA77 JUMP JUMPDEST POP DUP5 PUSH1 0x1 SWAP1 DUP2 PUSH2 0x1C5 SWAP2 SWAP1 PUSH2 0xA77 JUMP JUMPDEST POP DUP4 PUSH1 0x2 SWAP1 DUP2 PUSH2 0x1D5 SWAP2 SWAP1 PUSH2 0xA77 JUMP JUMPDEST POP PUSH0 PUSH1 0x1 PUSH1 0x2 DUP3 DUP1 SLOAD PUSH2 0x1E7 SWAP1 PUSH2 0x89E JUMP JUMPDEST DUP1 PUSH1 0x1F ADD PUSH1 0x20 DUP1 SWAP2 DIV MUL PUSH1 0x20 ADD PUSH1 0x40 MLOAD SWAP1 DUP2 ADD PUSH1 0x40 MSTORE DUP1 SWAP3 SWAP2 SWAP1 DUP2 DUP2 MSTORE PUSH1 0x20 ADD DUP3 DUP1 SLOAD PUSH2 0x213 SWAP1 PUSH2 0x89E JUMP JUMPDEST DUP1 ISZERO PUSH2 0x25E JUMPI DUP1 PUSH1 0x1F LT PUSH2 0x235 JUMPI PUSH2 0x100 DUP1 DUP4 SLOAD DIV MUL DUP4 MSTORE SWAP2 PUSH1 0x20 ADD SWAP2 PUSH2 0x25E JUMP JUMPDEST DUP3 ADD SWAP2 SWAP1 PUSH0 MSTORE PUSH1 0x20 PUSH0 KECCAK256 SWAP1 JUMPDEST DUP2 SLOAD DUP2 MSTORE SWAP1 PUSH1 0x1 ADD SWAP1 PUSH1 0x20 ADD DUP1 DUP4 GT PUSH2 0x241 JUMPI DUP3 SWAP1 SUB PUSH1 0x1F AND DUP3 ADD SWAP2 JUMPDEST POP POP POP POP POP SWAP3 POP DUP2 DUP1 SLOAD PUSH2 0x271 SWAP1 PUSH2 0x89E JUMP JUMPDEST DUP1 PUSH1 0x1F ADD PUSH1 0x20 DUP1 SWAP2 DIV MUL PUSH1 0x20 ADD PUSH1 0x40 MLOAD SWAP1 DUP2 ADD PUSH1 0x40 MSTORE DUP1 SWAP3 SWAP2 SWAP1 DUP2 DUP2 MSTORE PUSH1 0x20 ADD DUP3 DUP1 SLOAD PUSH2 0x29D SWAP1 PUSH2 0x89E JUMP JUMPDEST DUP1 ISZERO PUSH2 0x2E8 JUMPI DUP1 PUSH1 0x1F LT PUSH2 0x2BF JUMPI PUSH2 0x100 DUP1 DUP4 SLOAD DIV MUL DUP4 MSTORE SWAP2 PUSH1 0x20 ADD SWAP2 PUSH2 0x2E8 JUMP JUMPDEST DUP3 ADD SWAP2 SWAP1 PUSH0 MSTORE PUSH1 0x20 PUSH0 KECCAK256 SWAP1 JUMPDEST DUP2 SLOAD DUP2 MSTORE SWAP1 PUSH1 0x1 ADD SWAP1 PUSH1 0x20 ADD DUP1 DUP4 GT PUSH2 0x2CB JUMPI DUP3 SWAP1 SUB PUSH1 0x1F AND DUP3 ADD SWAP2 JUMPDEST POP POP POP POP POP SWAP2 POP DUP1 DUP1 SLOAD PUSH2 0x2FB SWAP1 PUSH2 0x89E JUMP JUMPDEST DUP1 PUSH1 0x1F ADD PUSH1 0x20 DUP1 SWAP2 DIV MUL PUSH1 0x20 ADD PUSH1 0x40 MLOAD SWAP1 DUP2 ADD PUSH1 0x40 MSTORE DUP1 SWAP3 SWAP2 SWAP1 DUP2 DUP2 MSTORE PUSH1 0x20 ADD DUP3 DUP1 SLOAD PUSH2 0x327 SWAP1 PUSH2 0x89E JUMP JUMPDEST DUP1 ISZERO PUSH2 0x372 JUMPI DUP1 PUSH1 0x1F LT PUSH2 0x349 JUMPI PUSH2 0x100 DUP1 DUP4 SLOAD DIV MUL DUP4 MSTORE SWAP2 PUSH1 0x20 ADD SWAP2 PUSH2 0x372 JUMP JUMPDEST DUP3 ADD SWAP2 SWAP1 PUSH0 MSTORE PUSH1 0x20 PUSH0 KECCAK256 SWAP1 JUMPDEST DUP2 SLOAD DUP2 MSTORE SWAP1 PUSH1 0x1 ADD SWAP1 PUSH1 0x20 ADD DUP1 DUP4 GT PUSH2 0x355 JUMPI DUP3 SWAP1 SUB PUSH1 0x1F AND DUP3 ADD SWAP2 JUMPDEST POP POP POP POP POP SWAP1 POP SWAP3 POP SWAP3 POP SWAP3 POP SWAP4 POP SWAP4 POP SWAP4 SWAP1 POP JUMP JUMPDEST PUSH1 0x60 DUP1 PUSH1 0x60 PUSH0 PUSH1 0x1 PUSH1 0x2 DUP3 DUP1 SLOAD PUSH2 0x39E SWAP1 PUSH2 0x89E JUMP JUMPDEST DUP1 PUSH1 0x1F ADD PUSH1 0x20 DUP1 SWAP2 DIV MUL PUSH1 0x20 ADD PUSH1 0x40 MLOAD SWAP1 DUP2 ADD PUSH1 0x40 MSTORE DUP1 SWAP3 SWAP2 SWAP1 DUP2 DUP2 MSTORE PUSH1 0x20 ADD DUP3 DUP1 SLOAD PUSH2 0x3CA SWAP1 PUSH2 0x89E JUMP JUMPDEST DUP1 ISZERO PUSH2 0x415 JUMPI DUP1 PUSH1 0x1F LT PUSH2 0x3EC JUMPI PUSH2 0x100 DUP1 DUP4 SLOAD DIV MUL DUP4 MSTORE SWAP2 PUSH1 0x20 ADD SWAP2 PUSH2 0x415 JUMP JUMPDEST DUP3 ADD SWAP2 SWAP1 PUSH0 MSTORE PUSH1 0x20 PUSH0 KECCAK256 SWAP1 JUMPDEST DUP2 SLOAD DUP2 MSTORE SWAP1 PUSH1 0x1 ADD SWAP1 PUSH1 0x20 ADD DUP1 DUP4 GT PUSH2 0x3F8 JUMPI DUP3 SWAP1 SUB PUSH1 0x1F AND DUP3 ADD SWAP2 JUMPDEST POP POP POP POP POP SWAP3 POP DUP2 DUP1 SLOAD PUSH2 0x428 SWAP1 PUSH2 0x89E JUMP JUMPDEST DUP1 PUSH1 0x1F ADD PUSH1 0x20 DUP1 SWAP2 DIV MUL PUSH1 0x20 ADD PUSH1 0x40 MLOAD SWAP1 DUP2 ADD PUSH1 0x40 MSTORE DUP1 SWAP3 SWAP2 SWAP1 DUP2 DUP2 MSTORE PUSH1 0x20 ADD DUP3 DUP1 SLOAD PUSH2 0x454 SWAP1 PUSH2 0x89E JUMP JUMPDEST DUP1 ISZERO PUSH2 0x49F JUMPI DUP1 PUSH1 0x1F LT PUSH2 0x476 JUMPI PUSH2 0x100 DUP1 DUP4 SLOAD DIV MUL DUP4 MSTORE SWAP2 PUSH1 0x20 ADD SWAP2 PUSH2 0x49F JUMP JUMPDEST DUP3 ADD SWAP2 SWAP1 PUSH0 MSTORE PUSH1 0x20 PUSH0 KECCAK256 SWAP1 JUMPDEST DUP2 SLOAD DUP2 MSTORE SWAP1 PUSH1 0x1 ADD SWAP1 PUSH1 0x20 ADD DUP1 DUP4 GT PUSH2 0x482 JUMPI DUP3 SWAP1 SUB PUSH1 0x1F AND DUP3 ADD SWAP2 JUMPDEST POP POP POP POP POP SWAP2 POP DUP1 DUP1 SLOAD PUSH2 0x4B2 SWAP1 PUSH2 0x89E JUMP JUMPDEST DUP1 PUSH1 0x1F ADD PUSH1 0x20 DUP1 SWAP2 DIV MUL PUSH1 0x20 ADD PUSH1 0x40 MLOAD SWAP1 DUP2 ADD PUSH1 0x40 MSTORE DUP1 SWAP3 SWAP2 SWAP1 DUP2 DUP2 MSTORE PUSH1 0x20 ADD DUP3 DUP1 SLOAD PUSH2 0x4DE SWAP1 PUSH2 0x89E JUMP JUMPDEST DUP1 ISZERO PUSH2 0x529 JUMPI DUP1 PUSH1 0x1F LT PUSH2 0x500 JUMPI PUSH2 0x100 DUP1 DUP4 SLOAD DIV MUL DUP4 MSTORE SWAP2 PUSH1 0x20 ADD SWAP2 PUSH2 0x529 JUMP JUMPDEST DUP3 ADD SWAP2 SWAP1 PUSH0 MSTORE PUSH1 0x20 PUSH0 KECCAK256 SWAP1 JUMPDEST DUP2 SLOAD DUP2 MSTORE SWAP1 PUSH1 0x1 ADD SWAP1 PUSH1 0x20 ADD DUP1 DUP4 GT PUSH2 0x50C JUMPI DUP3 SWAP1 SUB PUSH1 0x1F AND DUP3 ADD SWAP2 JUMPDEST POP POP POP POP POP SWAP1 POP SWAP3 POP SWAP3 POP SWAP3 POP SWAP1 SWAP2 SWAP3 JUMP JUMPDEST DUP3 PUSH0 SWAP1 DUP2 PUSH2 0x549 SWAP2 SWAP1 PUSH2 0xA77 JUMP JUMPDEST POP DUP2 PUSH1 0x1 SWAP1 DUP2 PUSH2 0x559 SWAP2 SWAP1 PUSH2 0xA77 JUMP JUMPDEST POP DUP1 PUSH1 0x2 SWAP1 DUP2 PUSH2 0x569 SWAP2 SWAP1 PUSH2 0xA77 JUMP JUMPDEST POP POP POP POP JUMP JUMPDEST PUSH0 DUP2 MLOAD SWAP1 POP SWAP2 SWAP1 POP JUMP JUMPDEST PUSH0 DUP3 DUP3 MSTORE PUSH1 0x20 DUP3 ADD SWAP1 POP SWAP3 SWAP2 POP POP JUMP JUMPDEST DUP3 DUP2 DUP4 MCOPY PUSH0 DUP4 DUP4 ADD MSTORE POP POP POP JUMP JUMPDEST PUSH0 PUSH1 0x1F NOT PUSH1 0x1F DUP4 ADD AND SWAP1 POP SWAP2 SWAP1 POP JUMP JUMPDEST PUSH0 PUSH2 0x5B1 DUP3 PUSH2 0x56F JUMP JUMPDEST PUSH2 0x5BB DUP2 DUP6 PUSH2 0x579 JUMP JUMPDEST SWAP4 POP PUSH2 0x5CB DUP2 DUP6 PUSH1 0x20 DUP7 ADD PUSH2 0x589 JUMP JUMPDEST PUSH2 0x5D4 DUP2 PUSH2 0x597 JUMP JUMPDEST DUP5 ADD SWAP2 POP POP SWAP3 SWAP2 POP POP JUMP JUMPDEST PUSH0 PUSH1 0x20 DUP3 ADD SWAP1 POP DUP2 DUP2 SUB PUSH0 DUP4 ADD MSTORE PUSH2 0x5F7 DUP2 DUP5 PUSH2 0x5A7 JUMP JUMPDEST SWAP1 POP SWAP3 SWAP2 POP POP JUMP JUMPDEST PUSH0 PUSH1 0x40 MLOAD SWAP1 POP SWAP1 JUMP JUMPDEST PUSH0 PUSH0 REVERT JUMPDEST PUSH0 PUSH0 REVERT JUMPDEST PUSH0 PUSH0 REVERT JUMPDEST PUSH0 PUSH0 REVERT JUMPDEST PUSH32 0x4E487B7100000000000000000000000000000000000000000000000000000000 PUSH0 MSTORE PUSH1 0x41 PUSH1 0x4 MSTORE PUSH1 0x24 PUSH0 REVERT JUMPDEST PUSH2 0x64E DUP3 PUSH2 0x597 JUMP JUMPDEST DUP2 ADD DUP2 DUP2 LT PUSH8 0xFFFFFFFFFFFFFFFF DUP3 GT OR ISZERO PUSH2 0x66D JUMPI PUSH2 0x66C PUSH2 0x618 JUMP JUMPDEST JUMPDEST DUP1 PUSH1 0x40 MSTORE POP POP POP JUMP JUMPDEST PUSH0 PUSH2 0x67F PUSH2 0x5FF JUMP JUMPDEST SWAP1 POP PUSH2 0x68B DUP3 DUP3 PUSH2 0x645 JUMP JUMPDEST SWAP2 SWAP1 POP JUMP JUMPDEST PUSH0 PUSH8 0xFFFFFFFFFFFFFFFF DUP3 GT ISZERO PUSH2 0x6AA JUMPI PUSH2 0x6A9 PUSH2 0x618 JUMP JUMPDEST JUMPDEST PUSH2 0x6B3 DUP3 PUSH2 0x597 JUMP JUMPDEST SWAP1 POP PUSH1 0x20 DUP2 ADD SWAP1 POP SWAP2 SWAP1 POP JUMP JUMPDEST DUP3 DUP2 DUP4 CALLDATACOPY PUSH0 DUP4 DUP4 ADD MSTORE POP POP POP JUMP JUMPDEST PUSH0 PUSH2 0x6E0 PUSH2 0x6DB DUP5 PUSH2 0x690 JUMP JUMPDEST PUSH2 0x676 JUMP JUMPDEST SWAP1 POP DUP3 DUP2 MSTORE PUSH1 0x20 DUP2 ADD DUP5 DUP5 DUP5 ADD GT ISZERO PUSH2 0x6FC JUMPI PUSH2 0x6FB PUSH2 0x614 JUMP JUMPDEST JUMPDEST PUSH2 0x707 DUP5 DUP3 DUP6 PUSH2 0x6C0 JUMP JUMPDEST POP SWAP4 SWAP3 POP POP POP JUMP JUMPDEST PUSH0 DUP3 PUSH1 0x1F DUP4 ADD SLT PUSH2 0x723 JUMPI PUSH2 0x722 PUSH2 0x610 JUMP JUMPDEST JUMPDEST DUP2 CALLDATALOAD PUSH2 0x733 DUP5 DUP3 PUSH1 0x20 DUP7 ADD PUSH2 0x6CE JUMP JUMPDEST SWAP2 POP POP SWAP3 SWAP2 POP POP JUMP JUMPDEST PUSH0 PUSH1 0x20 DUP3 DUP5 SUB SLT ISZERO PUSH2 0x751 JUMPI PUSH2 0x750 PUSH2 0x608 JUMP JUMPDEST JUMPDEST PUSH0 DUP3 ADD CALLDATALOAD PUSH8 0xFFFFFFFFFFFFFFFF DUP2 GT ISZERO PUSH2 0x76E JUMPI PUSH2 0x76D PUSH2 0x60C JUMP JUMPDEST JUMPDEST PUSH2 0x77A DUP5 DUP3 DUP6 ADD PUSH2 0x70F JUMP JUMPDEST SWAP2 POP POP SWAP3 SWAP2 POP POP JUMP JUMPDEST PUSH0 PUSH0 PUSH0 PUSH1 0x60 DUP5 DUP7 SUB SLT ISZERO PUSH2 0x79A JUMPI PUSH2 0x799 PUSH2 0x608 JUMP JUMPDEST JUMPDEST PUSH0 DUP5 ADD CALLDATALOAD PUSH8 0xFFFFFFFFFFFFFFFF DUP2 GT ISZERO PUSH2 0x7B7 JUMPI PUSH2 0x7B6 PUSH2 0x60C JUMP JUMPDEST JUMPDEST PUSH2 0x7C3 DUP7 DUP3 DUP8 ADD PUSH2 0x70F JUMP JUMPDEST SWAP4 POP POP PUSH1 0x20 DUP5 ADD CALLDATALOAD PUSH8 0xFFFFFFFFFFFFFFFF DUP2 GT ISZERO PUSH2 0x7E4 JUMPI PUSH2 0x7E3 PUSH2 0x60C JUMP JUMPDEST JUMPDEST PUSH2 0x7F0 DUP7 DUP3 DUP8 ADD PUSH2 0x70F JUMP JUMPDEST SWAP3 POP POP PUSH1 0x40 DUP5 ADD CALLDATALOAD PUSH8 0xFFFFFFFFFFFFFFFF DUP2 GT ISZERO PUSH2 0x811 JUMPI PUSH2 0x810 PUSH2 0x60C JUMP JUMPDEST JUMPDEST PUSH2 0x81D DUP7 DUP3 DUP8 ADD PUSH2 0x70F JUMP JUMPDEST SWAP2 POP POP SWAP3 POP SWAP3 POP SWAP3 JUMP JUMPDEST PUSH0 PUSH1 0x60 DUP3 ADD SWAP1 POP DUP2 DUP2 SUB PUSH0 DUP4 ADD MSTORE PUSH2 0x83F DUP2 DUP7 PUSH2 0x5A7 JUMP JUMPDEST SWAP1 POP DUP2 DUP2 SUB PUSH1 0x20 DUP4 ADD MSTORE PUSH2 0x853 DUP2 DUP6 PUSH2 0x5A7 JUMP JUMPDEST SWAP1 POP DUP2 DUP2 SUB PUSH1 0x40 DUP4 ADD MSTORE PUSH2 0x867 DUP2 DUP5 PUSH2 0x5A7 JUMP JUMPDEST SWAP1 POP SWAP5 SWAP4 POP POP POP POP JUMP JUMPDEST PUSH32 0x4E487B7100000000000000000000000000000000000000000000000000000000 PUSH0 MSTORE PUSH1 0x22 PUSH1 0x4 MSTORE PUSH1 0x24 PUSH0 REVERT JUMPDEST PUSH0 PUSH1 0x2 DUP3 DIV SWAP1 POP PUSH1 0x1 DUP3 AND DUP1 PUSH2 0x8B5 JUMPI PUSH1 0x7F DUP3 AND SWAP2 POP JUMPDEST PUSH1 0x20 DUP3 LT DUP2 SUB PUSH2 0x8C8 JUMPI PUSH2 0x8C7 PUSH2 0x871 JUMP JUMPDEST JUMPDEST POP SWAP2 SWAP1 POP JUMP JUMPDEST PUSH0 DUP2 SWAP1 POP DUP2 PUSH0 MSTORE PUSH1 0x20 PUSH0 KECCAK256 SWAP1 POP SWAP2 SWAP1 POP JUMP JUMPDEST PUSH0 PUSH1 0x20 PUSH1 0x1F DUP4 ADD DIV SWAP1 POP SWAP2 SWAP1 POP JUMP JUMPDEST PUSH0 DUP3 DUP3 SHL SWAP1 POP SWAP3 SWAP2 POP POP JUMP JUMPDEST PUSH0 PUSH1 0x8 DUP4 MUL PUSH2 0x92A PUSH32 0xFFFFFFFFFFFFFFFFFFFFFFFFFFFFFFFFFFFFFFFFFFFFFFFFFFFFFFFFFFFFFFFF DUP3 PUSH2 0x8EF JUMP JUMPDEST PUSH2 0x934 DUP7 DUP4 PUSH2 0x8EF JUMP JUMPDEST SWAP6 POP DUP1 NOT DUP5 AND SWAP4 POP DUP1 DUP7 AND DUP5 OR SWAP3 POP POP POP SWAP4 SWAP3 POP POP POP JUMP JUMPDEST PUSH0 DUP2 SWAP1 POP SWAP2 SWAP1 POP JUMP JUMPDEST PUSH0 DUP2 SWAP1 POP SWAP2 SWAP1 POP JUMP JUMPDEST PUSH0 PUSH2 0x978 PUSH2 0x973 PUSH2 0x96E DUP5 PUSH2 0x94C JUMP JUMPDEST PUSH2 0x955 JUMP JUMPDEST PUSH2 0x94C JUMP JUMPDEST SWAP1 POP SWAP2 SWAP1 POP JUMP JUMPDEST PUSH0 DUP2 SWAP1 POP SWAP2 SWAP1 POP JUMP JUMPDEST PUSH2 0x991 DUP4 PUSH2 0x95E JUMP JUMPDEST PUSH2 0x9A5 PUSH2 0x99D DUP3 PUSH2 0x97F JUMP JUMPDEST DUP5 DUP5 SLOAD PUSH2 0x8FB JUMP JUMPDEST DUP3 SSTORE POP POP POP POP JUMP JUMPDEST PUSH0 PUSH0 SWAP1 POP SWAP1 JUMP JUMPDEST PUSH2 0x9BC PUSH2 0x9AD JUMP JUMPDEST PUSH2 0x9C7 DUP2 DUP5 DUP5 PUSH2 0x988 JUMP JUMPDEST POP POP POP JUMP JUMPDEST JUMPDEST DUP2 DUP2 LT ISZERO PUSH2 0x9EA JUMPI PUSH2 0x9DF PUSH0 DUP3 PUSH2 0x9B4 JUMP JUMPDEST PUSH1 0x1 DUP2 ADD SWAP1 POP PUSH2 0x9CD JUMP JUMPDEST POP POP JUMP JUMPDEST PUSH1 0x1F DUP3 GT ISZERO PUSH2 0xA2F JUMPI PUSH2 0xA00 DUP2 PUSH2 0x8CE JUMP JUMPDEST PUSH2 0xA09 DUP5 PUSH2 0x8E0 JUMP JUMPDEST DUP2 ADD PUSH1 0x20 DUP6 LT ISZERO PUSH2 0xA18 JUMPI DUP2 SWAP1 POP JUMPDEST PUSH2 0xA2C PUSH2 0xA24 DUP6 PUSH2 0x8E0 JUMP JUMPDEST DUP4 ADD DUP3 PUSH2 0x9CC JUMP JUMPDEST POP POP JUMPDEST POP POP POP JUMP JUMPDEST PUSH0 DUP3 DUP3 SHR SWAP1 POP SWAP3 SWAP2 POP POP JUMP JUMPDEST PUSH0 PUSH2 0xA4F PUSH0 NOT DUP5 PUSH1 0x8 MUL PUSH2 0xA34 JUMP JUMPDEST NOT DUP1 DUP4 AND SWAP2 POP POP SWAP3 SWAP2 POP POP JUMP JUMPDEST PUSH0 PUSH2 0xA67 DUP4 DUP4 PUSH2 0xA40 JUMP JUMPDEST SWAP2 POP DUP3 PUSH1 0x2 MUL DUP3 OR SWAP1 POP SWAP3 SWAP2 POP POP JUMP JUMPDEST PUSH2 0xA80 DUP3 PUSH2 0x56F JUMP JUMPDEST PUSH8 0xFFFFFFFFFFFFFFFF DUP2 GT ISZERO PUSH2 0xA99 JUMPI PUSH2 0xA98 PUSH2 0x618 JUMP JUMPDEST JUMPDEST PUSH2 0xAA3 DUP3 SLOAD PUSH2 0x89E JUMP JUMPDEST PUSH2 0xAAE DUP3 DUP3 DUP6 PUSH2 0x9EE JUMP JUMPDEST PUSH0 PUSH1 0x20 SWAP1 POP PUSH1 0x1F DUP4 GT PUSH1 0x1 DUP2 EQ PUSH2 0xADF JUMPI PUSH0 DUP5 ISZERO PUSH2 0xACD JUMPI DUP3 DUP8 ADD MLOAD SWAP1 POP JUMPDEST PUSH2 0xAD7 DUP6 DUP3 PUSH2 0xA5C JUMP JUMPDEST DUP7 SSTORE POP PUSH2 0xB3E JUMP JUMPDEST PUSH1 0x1F NOT DUP5 AND PUSH2 0xAED DUP7 PUSH2 0x8CE JUMP JUMPDEST PUSH0 JUMPDEST DUP3 DUP2 LT ISZERO PUSH2 0xB14 JUMPI DUP5 DUP10 ADD MLOAD DUP3 SSTORE PUSH1 0x1 DUP3 ADD SWAP2 POP PUSH1 0x20 DUP6 ADD SWAP5 POP PUSH1 0x20 DUP2 ADD SWAP1 POP PUSH2 0xAEF JUMP JUMPDEST DUP7 DUP4 LT ISZERO PUSH2 0xB31 JUMPI DUP5 DUP10 ADD MLOAD PUSH2 0xB2D PUSH1 0x1F DUP10 AND DUP3 PUSH2 0xA40 JUMP JUMPDEST DUP4 SSTORE POP JUMPDEST PUSH1 0x1 PUSH1 0x2 DUP9 MUL ADD DUP9 SSTORE POP POP POP JUMPDEST POP POP POP POP POP POP JUMP INVALID LOG2 PUSH5 0x6970667358 0x22 SLT KECCAK256 SHL SIGNEXTEND 0xDD 0x2E 0xD7 SHL 0x4F SWAP15 LOG0 PUSH23 0xE022B5F141B44E4996106E548C3627491F9B1FD0778D64 PUSH20 0x6F6C634300081F00330000000000000000000000 "
				},
				"gasEstimates": {
					"creation": {
						"codeDepositCost": "588000",
						"executionCost": "617",
						"totalCost": "588617"
					},
					"external": {
						"add(string,string,string)": "infinite",
						"getName()": "infinite",
						"retreive()": "infinite",
						"saveAndRetrive(string,string,string)": "infinite",
						"updateName(string)": "infinite"
					}
				},
				"methodIdentifiers": {
					"add(string,string,string)": "f034d6b1",
					"getName()": "17d7de7c",
					"retreive()": "b05784b8",
					"saveAndRetrive(string,string,string)": "afb7f2ce",
					"updateName(string)": "84da92a7"
				}
			},
			"storageLayout": {
				"storage": [
					{
						"astId": 3,
						"contract": "nomia/Day2-SaveMyName.sol:SaveMyName",
						"label": "name",
						"offset": 0,
						"slot": "0",
						"type": "t_string_storage"
					},
					{
						"astId": 5,
						"contract": "nomia/Day2-SaveMyName.sol:SaveMyName",
						"label": "bio",
						"offset": 0,
						"slot": "1",
						"type": "t_string_storage"
					},
					{
						"astId": 7,
						"contract": "nomia/Day2-SaveMyName.sol:SaveMyName",
						"label": "age",
						"offset": 0,
						"slot": "2",
						"type": "t_string_storage"
					}
				],
				"types": {
					"t_string_storage": {
						"encoding": "bytes",
						"label": "string",
						"numberOfBytes": "32"
					}
				}
			},
			"userdoc": {
				"kind": "user",
				"methods": {},
				"version": 1
			}
		}
	}
}